{
	"data": {
		"bytecode": {
			"linkReferences": {},
			"object": "6080604052348015600f57600080fd5b506116a48061001f6000396000f3fe608060405234801561001057600080fd5b50600436106100935760003560e01c80638e3d5ebf116100665780638e3d5ebf1461010a578063ab3a2b9814610128578063b2e32f071461015d578063d2a6c28214610190578063d5015d65146101c257610093565b80631a201989146100985780634b733744146100b65780634d011928146100d25780637f7df466146100ee575b600080fd5b6100a06101e0565b6040516100ad9190610c49565b60405180910390f35b6100d060048036038101906100cb9190610df6565b6101ed565b005b6100ec60048036038101906100e79190610ee1565b61031d565b005b61010860048036038101906101039190610f59565b6103e4565b005b6101126104c9565b60405161011f9190610c49565b60405180910390f35b610142600480360381019061013d919061102c565b6104d5565b604051610154969594939291906110e7565b60405180910390f35b6101776004803603810190610172919061102c565b6107f9565b6040516101879493929190611164565b60405180910390f35b6101aa60048036038101906101a5919061102c565b610a5b565b6040516101b9939291906111be565b60405180910390f35b6101ca610c23565b6040516101d79190610c49565b60405180910390f35b6000600180549050905090565b6000600280549050905060026040518060c001604052808381526020018881526020018781526020018681526020018515158152602001848152509080600181540180825580915050600190039060005260206000209060060201600090919091909150600082015181600001556020820151816001019081610270919061140f565b506040820151816002019081610286919061140f565b50606082015181600301908161029c919061140f565b5060808201518160040160006101000a81548160ff02191690831515021790555060a08201518160050190816102d2919061140f565b505050807f908906284f715d08b08eb37f63c62e33ca62fefbbf751c838a514bb2f71f8c61878787878760405161030d9594939291906114e1565b60405180910390a2505050505050565b600060018054905090506001604051806060016040528083815260200185815260200184815250908060018154018082558091505060019003906000526020600020906003020160009091909190915060008201518160000155602082015181600101908161038c919061140f565b5060408201518160020190816103a2919061140f565b505050807f7d389bd6a77439844633e3cdcd07741851680f113e970aaf5a6277c6d8fe27f284846040516103d7929190611550565b60405180910390a2505050565b60008080549050905060006040518060800160405280838152602001868152602001858152602001848152509080600181540180825580915050600190039060005260206000209060040201600090919091909150600082015181600001556020820151816001019081610458919061140f565b50604082015181600201908161046e919061140f565b506060820151816003019081610484919061140f565b505050807fd2a6e8d11d03db3ba16f4b221906f86fe27a206183788136005c1abfef45f1b68585856040516104bb93929190611587565b60405180910390a250505050565b60008080549050905090565b60006060806060600060606002805490508710610527576040517f08c379a000000000000000000000000000000000000000000000000000000000815260040161051e9061161f565b60405180910390fd5b60006002888154811061053d5761053c61163f565b5b90600052602060002090600602016040518060c00160405290816000820154815260200160018201805461057090611232565b80601f016020809104026020016040519081016040528092919081815260200182805461059c90611232565b80156105e95780601f106105be576101008083540402835291602001916105e9565b820191906000526020600020905b8154815290600101906020018083116105cc57829003601f168201915b5050505050815260200160028201805461060290611232565b80601f016020809104026020016040519081016040528092919081815260200182805461062e90611232565b801561067b5780601f106106505761010080835404028352916020019161067b565b820191906000526020600020905b81548152906001019060200180831161065e57829003601f168201915b5050505050815260200160038201805461069490611232565b80601f01602080910402602001604051908101604052809291908181526020018280546106c090611232565b801561070d5780601f106106e25761010080835404028352916020019161070d565b820191906000526020600020905b8154815290600101906020018083116106f057829003601f168201915b505050505081526020016004820160009054906101000a900460ff1615151515815260200160058201805461074190611232565b80601f016020809104026020016040519081016040528092919081815260200182805461076d90611232565b80156107ba5780601f1061078f576101008083540402835291602001916107ba565b820191906000526020600020905b81548152906001019060200180831161079d57829003601f168201915b5050505050815250509050806000015181602001518260400151836060015184608001518560a001519650965096509650965096505091939550919395565b600060608060606000805490508510610847576040517f08c379a000000000000000000000000000000000000000000000000000000000815260040161083e9061161f565b60405180910390fd5b600080868154811061085c5761085b61163f565b5b90600052602060002090600402016040518060800160405290816000820154815260200160018201805461088f90611232565b80601f01602080910402602001604051908101604052809291908181526020018280546108bb90611232565b80156109085780601f106108dd57610100808354040283529160200191610908565b820191906000526020600020905b8154815290600101906020018083116108eb57829003601f168201915b5050505050815260200160028201805461092190611232565b80601f016020809104026020016040519081016040528092919081815260200182805461094d90611232565b801561099a5780601f1061096f5761010080835404028352916020019161099a565b820191906000526020600020905b81548152906001019060200180831161097d57829003601f168201915b505050505081526020016003820180546109b390611232565b80601f01602080910402602001604051908101604052809291908181526020018280546109df90611232565b8015610a2c5780601f10610a0157610100808354040283529160200191610a2c565b820191906000526020600020905b815481529060010190602001808311610a0f57829003601f168201915b505050505081525050905080600001518160200151826040015183606001519450945094509450509193509193565b60006060806001805490508410610aa7576040517f08c379a0000000000000000000000000000000000000000000000000000000008152600401610a9e9061161f565b60405180910390fd5b600060018581548110610abd57610abc61163f565b5b906000526020600020906003020160405180606001604052908160008201548152602001600182018054610af090611232565b80601f0160208091040260200160405190810160405280929190818152602001828054610b1c90611232565b8015610b695780601f10610b3e57610100808354040283529160200191610b69565b820191906000526020600020905b815481529060010190602001808311610b4c57829003601f168201915b50505050508152602001600282018054610b8290611232565b80601f0160208091040260200160405190810160405280929190818152602001828054610bae90611232565b8015610bfb5780601f10610bd057610100808354040283529160200191610bfb565b820191906000526020600020905b815481529060010190602001808311610bde57829003601f168201915b5050505050815250509050806000015181602001518260400151935093509350509193909250565b6000600280549050905090565b6000819050919050565b610c4381610c30565b82525050565b6000602082019050610c5e6000830184610c3a565b92915050565b6000604051905090565b600080fd5b600080fd5b600080fd5b600080fd5b6000601f19601f8301169050919050565b7f4e487b7100000000000000000000000000000000000000000000000000000000600052604160045260246000fd5b610ccb82610c82565b810181811067ffffffffffffffff82111715610cea57610ce9610c93565b5b80604052505050565b6000610cfd610c64565b9050610d098282610cc2565b919050565b600067ffffffffffffffff821115610d2957610d28610c93565b5b610d3282610c82565b9050602081019050919050565b82818337600083830152505050565b6000610d61610d5c84610d0e565b610cf3565b905082815260208101848484011115610d7d57610d7c610c7d565b5b610d88848285610d3f565b509392505050565b600082601f830112610da557610da4610c78565b5b8135610db5848260208601610d4e565b91505092915050565b60008115159050919050565b610dd381610dbe565b8114610dde57600080fd5b50565b600081359050610df081610dca565b92915050565b600080600080600060a08688031215610e1257610e11610c6e565b5b600086013567ffffffffffffffff811115610e3057610e2f610c73565b5b610e3c88828901610d90565b955050602086013567ffffffffffffffff811115610e5d57610e5c610c73565b5b610e6988828901610d90565b945050604086013567ffffffffffffffff811115610e8a57610e89610c73565b5b610e9688828901610d90565b9350506060610ea788828901610de1565b925050608086013567ffffffffffffffff811115610ec857610ec7610c73565b5b610ed488828901610d90565b9150509295509295909350565b60008060408385031215610ef857610ef7610c6e565b5b600083013567ffffffffffffffff811115610f1657610f15610c73565b5b610f2285828601610d90565b925050602083013567ffffffffffffffff811115610f4357610f42610c73565b5b610f4f85828601610d90565b9150509250929050565b600080600060608486031215610f7257610f71610c6e565b5b600084013567ffffffffffffffff811115610f9057610f8f610c73565b5b610f9c86828701610d90565b935050602084013567ffffffffffffffff811115610fbd57610fbc610c73565b5b610fc986828701610d90565b925050604084013567ffffffffffffffff811115610fea57610fe9610c73565b5b610ff686828701610d90565b9150509250925092565b61100981610c30565b811461101457600080fd5b50565b60008135905061102681611000565b92915050565b60006020828403121561104257611041610c6e565b5b600061105084828501611017565b91505092915050565b600081519050919050565b600082825260208201905092915050565b60005b83811015611093578082015181840152602081019050611078565b60008484015250505050565b60006110aa82611059565b6110b48185611064565b93506110c4818560208601611075565b6110cd81610c82565b840191505092915050565b6110e181610dbe565b82525050565b600060c0820190506110fc6000830189610c3a565b818103602083015261110e818861109f565b90508181036040830152611122818761109f565b90508181036060830152611136818661109f565b905061114560808301856110d8565b81810360a0830152611157818461109f565b9050979650505050505050565b60006080820190506111796000830187610c3a565b818103602083015261118b818661109f565b9050818103604083015261119f818561109f565b905081810360608301526111b3818461109f565b905095945050505050565b60006060820190506111d36000830186610c3a565b81810360208301526111e5818561109f565b905081810360408301526111f9818461109f565b9050949350505050565b7f4e487b7100000000000000000000000000000000000000000000000000000000600052602260045260246000fd5b6000600282049050600182168061124a57607f821691505b60208210810361125d5761125c611203565b5b50919050565b60008190508160005260206000209050919050565b60006020601f8301049050919050565b600082821b905092915050565b6000600883026112c57fffffffffffffffffffffffffffffffffffffffffffffffffffffffffffffffff82611288565b6112cf8683611288565b95508019841693508086168417925050509392505050565b6000819050919050565b600061130c61130761130284610c30565b6112e7565b610c30565b9050919050565b6000819050919050565b611326836112f1565b61133a61133282611313565b848454611295565b825550505050565b600090565b61134f611342565b61135a81848461131d565b505050565b5b8181101561137e57611373600082611347565b600181019050611360565b5050565b601f8211156113c35761139481611263565b61139d84611278565b810160208510156113ac578190505b6113c06113b885611278565b83018261135f565b50505b505050565b600082821c905092915050565b60006113e6600019846008026113c8565b1980831691505092915050565b60006113ff83836113d5565b9150826002028217905092915050565b61141882611059565b67ffffffffffffffff81111561143157611430610c93565b5b61143b8254611232565b611446828285611382565b600060209050601f8311600181146114795760008415611467578287015190505b61147185826113f3565b8655506114d9565b601f19841661148786611263565b60005b828110156114af5784890151825560018201915060208501945060208101905061148a565b868310156114cc57848901516114c8601f8916826113d5565b8355505b6001600288020188555050505b505050505050565b600060a08201905081810360008301526114fb818861109f565b9050818103602083015261150f818761109f565b90508181036040830152611523818661109f565b905061153260608301856110d8565b8181036080830152611544818461109f565b90509695505050505050565b6000604082019050818103600083015261156a818561109f565b9050818103602083015261157e818461109f565b90509392505050565b600060608201905081810360008301526115a1818661109f565b905081810360208301526115b5818561109f565b905081810360408301526115c9818461109f565b9050949350505050565b7f496e76616c696420696e64657800000000000000000000000000000000000000600082015250565b6000611609600d83611064565b9150611614826115d3565b602082019050919050565b60006020820190508181036000830152611638816115fc565b9050919050565b7f4e487b7100000000000000000000000000000000000000000000000000000000600052603260045260246000fdfea26469706673582212200d59c1c46432bee62907d0be3084db0f41175d1ef10ada5d9d0dc723047da3eb64736f6c634300081e0033",
			"opcodes": "PUSH1 0x80 PUSH1 0x40 MSTORE CALLVALUE DUP1 ISZERO PUSH1 0xF JUMPI PUSH1 0x0 DUP1 REVERT JUMPDEST POP PUSH2 0x16A4 DUP1 PUSH2 0x1F PUSH1 0x0 CODECOPY PUSH1 0x0 RETURN INVALID PUSH1 0x80 PUSH1 0x40 MSTORE CALLVALUE DUP1 ISZERO PUSH2 0x10 JUMPI PUSH1 0x0 DUP1 REVERT JUMPDEST POP PUSH1 0x4 CALLDATASIZE LT PUSH2 0x93 JUMPI PUSH1 0x0 CALLDATALOAD PUSH1 0xE0 SHR DUP1 PUSH4 0x8E3D5EBF GT PUSH2 0x66 JUMPI DUP1 PUSH4 0x8E3D5EBF EQ PUSH2 0x10A JUMPI DUP1 PUSH4 0xAB3A2B98 EQ PUSH2 0x128 JUMPI DUP1 PUSH4 0xB2E32F07 EQ PUSH2 0x15D JUMPI DUP1 PUSH4 0xD2A6C282 EQ PUSH2 0x190 JUMPI DUP1 PUSH4 0xD5015D65 EQ PUSH2 0x1C2 JUMPI PUSH2 0x93 JUMP JUMPDEST DUP1 PUSH4 0x1A201989 EQ PUSH2 0x98 JUMPI DUP1 PUSH4 0x4B733744 EQ PUSH2 0xB6 JUMPI DUP1 PUSH4 0x4D011928 EQ PUSH2 0xD2 JUMPI DUP1 PUSH4 0x7F7DF466 EQ PUSH2 0xEE JUMPI JUMPDEST PUSH1 0x0 DUP1 REVERT JUMPDEST PUSH2 0xA0 PUSH2 0x1E0 JUMP JUMPDEST PUSH1 0x40 MLOAD PUSH2 0xAD SWAP2 SWAP1 PUSH2 0xC49 JUMP JUMPDEST PUSH1 0x40 MLOAD DUP1 SWAP2 SUB SWAP1 RETURN JUMPDEST PUSH2 0xD0 PUSH1 0x4 DUP1 CALLDATASIZE SUB DUP2 ADD SWAP1 PUSH2 0xCB SWAP2 SWAP1 PUSH2 0xDF6 JUMP JUMPDEST PUSH2 0x1ED JUMP JUMPDEST STOP JUMPDEST PUSH2 0xEC PUSH1 0x4 DUP1 CALLDATASIZE SUB DUP2 ADD SWAP1 PUSH2 0xE7 SWAP2 SWAP1 PUSH2 0xEE1 JUMP JUMPDEST PUSH2 0x31D JUMP JUMPDEST STOP JUMPDEST PUSH2 0x108 PUSH1 0x4 DUP1 CALLDATASIZE SUB DUP2 ADD SWAP1 PUSH2 0x103 SWAP2 SWAP1 PUSH2 0xF59 JUMP JUMPDEST PUSH2 0x3E4 JUMP JUMPDEST STOP JUMPDEST PUSH2 0x112 PUSH2 0x4C9 JUMP JUMPDEST PUSH1 0x40 MLOAD PUSH2 0x11F SWAP2 SWAP1 PUSH2 0xC49 JUMP JUMPDEST PUSH1 0x40 MLOAD DUP1 SWAP2 SUB SWAP1 RETURN JUMPDEST PUSH2 0x142 PUSH1 0x4 DUP1 CALLDATASIZE SUB DUP2 ADD SWAP1 PUSH2 0x13D SWAP2 SWAP1 PUSH2 0x102C JUMP JUMPDEST PUSH2 0x4D5 JUMP JUMPDEST PUSH1 0x40 MLOAD PUSH2 0x154 SWAP7 SWAP6 SWAP5 SWAP4 SWAP3 SWAP2 SWAP1 PUSH2 0x10E7 JUMP JUMPDEST PUSH1 0x40 MLOAD DUP1 SWAP2 SUB SWAP1 RETURN JUMPDEST PUSH2 0x177 PUSH1 0x4 DUP1 CALLDATASIZE SUB DUP2 ADD SWAP1 PUSH2 0x172 SWAP2 SWAP1 PUSH2 0x102C JUMP JUMPDEST PUSH2 0x7F9 JUMP JUMPDEST PUSH1 0x40 MLOAD PUSH2 0x187 SWAP5 SWAP4 SWAP3 SWAP2 SWAP1 PUSH2 0x1164 JUMP JUMPDEST PUSH1 0x40 MLOAD DUP1 SWAP2 SUB SWAP1 RETURN JUMPDEST PUSH2 0x1AA PUSH1 0x4 DUP1 CALLDATASIZE SUB DUP2 ADD SWAP1 PUSH2 0x1A5 SWAP2 SWAP1 PUSH2 0x102C JUMP JUMPDEST PUSH2 0xA5B JUMP JUMPDEST PUSH1 0x40 MLOAD PUSH2 0x1B9 SWAP4 SWAP3 SWAP2 SWAP1 PUSH2 0x11BE JUMP JUMPDEST PUSH1 0x40 MLOAD DUP1 SWAP2 SUB SWAP1 RETURN JUMPDEST PUSH2 0x1CA PUSH2 0xC23 JUMP JUMPDEST PUSH1 0x40 MLOAD PUSH2 0x1D7 SWAP2 SWAP1 PUSH2 0xC49 JUMP JUMPDEST PUSH1 0x40 MLOAD DUP1 SWAP2 SUB SWAP1 RETURN JUMPDEST PUSH1 0x0 PUSH1 0x1 DUP1 SLOAD SWAP1 POP SWAP1 POP SWAP1 JUMP JUMPDEST PUSH1 0x0 PUSH1 0x2 DUP1 SLOAD SWAP1 POP SWAP1 POP PUSH1 0x2 PUSH1 0x40 MLOAD DUP1 PUSH1 0xC0 ADD PUSH1 0x40 MSTORE DUP1 DUP4 DUP2 MSTORE PUSH1 0x20 ADD DUP9 DUP2 MSTORE PUSH1 0x20 ADD DUP8 DUP2 MSTORE PUSH1 0x20 ADD DUP7 DUP2 MSTORE PUSH1 0x20 ADD DUP6 ISZERO ISZERO DUP2 MSTORE PUSH1 0x20 ADD DUP5 DUP2 MSTORE POP SWAP1 DUP1 PUSH1 0x1 DUP2 SLOAD ADD DUP1 DUP3 SSTORE DUP1 SWAP2 POP POP PUSH1 0x1 SWAP1 SUB SWAP1 PUSH1 0x0 MSTORE PUSH1 0x20 PUSH1 0x0 KECCAK256 SWAP1 PUSH1 0x6 MUL ADD PUSH1 0x0 SWAP1 SWAP2 SWAP1 SWAP2 SWAP1 SWAP2 POP PUSH1 0x0 DUP3 ADD MLOAD DUP2 PUSH1 0x0 ADD SSTORE PUSH1 0x20 DUP3 ADD MLOAD DUP2 PUSH1 0x1 ADD SWAP1 DUP2 PUSH2 0x270 SWAP2 SWAP1 PUSH2 0x140F JUMP JUMPDEST POP PUSH1 0x40 DUP3 ADD MLOAD DUP2 PUSH1 0x2 ADD SWAP1 DUP2 PUSH2 0x286 SWAP2 SWAP1 PUSH2 0x140F JUMP JUMPDEST POP PUSH1 0x60 DUP3 ADD MLOAD DUP2 PUSH1 0x3 ADD SWAP1 DUP2 PUSH2 0x29C SWAP2 SWAP1 PUSH2 0x140F JUMP JUMPDEST POP PUSH1 0x80 DUP3 ADD MLOAD DUP2 PUSH1 0x4 ADD PUSH1 0x0 PUSH2 0x100 EXP DUP2 SLOAD DUP2 PUSH1 0xFF MUL NOT AND SWAP1 DUP4 ISZERO ISZERO MUL OR SWAP1 SSTORE POP PUSH1 0xA0 DUP3 ADD MLOAD DUP2 PUSH1 0x5 ADD SWAP1 DUP2 PUSH2 0x2D2 SWAP2 SWAP1 PUSH2 0x140F JUMP JUMPDEST POP POP POP DUP1 PUSH32 0x908906284F715D08B08EB37F63C62E33CA62FEFBBF751C838A514BB2F71F8C61 DUP8 DUP8 DUP8 DUP8 DUP8 PUSH1 0x40 MLOAD PUSH2 0x30D SWAP6 SWAP5 SWAP4 SWAP3 SWAP2 SWAP1 PUSH2 0x14E1 JUMP JUMPDEST PUSH1 0x40 MLOAD DUP1 SWAP2 SUB SWAP1 LOG2 POP POP POP POP POP POP JUMP JUMPDEST PUSH1 0x0 PUSH1 0x1 DUP1 SLOAD SWAP1 POP SWAP1 POP PUSH1 0x1 PUSH1 0x40 MLOAD DUP1 PUSH1 0x60 ADD PUSH1 0x40 MSTORE DUP1 DUP4 DUP2 MSTORE PUSH1 0x20 ADD DUP6 DUP2 MSTORE PUSH1 0x20 ADD DUP5 DUP2 MSTORE POP SWAP1 DUP1 PUSH1 0x1 DUP2 SLOAD ADD DUP1 DUP3 SSTORE DUP1 SWAP2 POP POP PUSH1 0x1 SWAP1 SUB SWAP1 PUSH1 0x0 MSTORE PUSH1 0x20 PUSH1 0x0 KECCAK256 SWAP1 PUSH1 0x3 MUL ADD PUSH1 0x0 SWAP1 SWAP2 SWAP1 SWAP2 SWAP1 SWAP2 POP PUSH1 0x0 DUP3 ADD MLOAD DUP2 PUSH1 0x0 ADD SSTORE PUSH1 0x20 DUP3 ADD MLOAD DUP2 PUSH1 0x1 ADD SWAP1 DUP2 PUSH2 0x38C SWAP2 SWAP1 PUSH2 0x140F JUMP JUMPDEST POP PUSH1 0x40 DUP3 ADD MLOAD DUP2 PUSH1 0x2 ADD SWAP1 DUP2 PUSH2 0x3A2 SWAP2 SWAP1 PUSH2 0x140F JUMP JUMPDEST POP POP POP DUP1 PUSH32 0x7D389BD6A77439844633E3CDCD07741851680F113E970AAF5A6277C6D8FE27F2 DUP5 DUP5 PUSH1 0x40 MLOAD PUSH2 0x3D7 SWAP3 SWAP2 SWAP1 PUSH2 0x1550 JUMP JUMPDEST PUSH1 0x40 MLOAD DUP1 SWAP2 SUB SWAP1 LOG2 POP POP POP JUMP JUMPDEST PUSH1 0x0 DUP1 DUP1 SLOAD SWAP1 POP SWAP1 POP PUSH1 0x0 PUSH1 0x40 MLOAD DUP1 PUSH1 0x80 ADD PUSH1 0x40 MSTORE DUP1 DUP4 DUP2 MSTORE PUSH1 0x20 ADD DUP7 DUP2 MSTORE PUSH1 0x20 ADD DUP6 DUP2 MSTORE PUSH1 0x20 ADD DUP5 DUP2 MSTORE POP SWAP1 DUP1 PUSH1 0x1 DUP2 SLOAD ADD DUP1 DUP3 SSTORE DUP1 SWAP2 POP POP PUSH1 0x1 SWAP1 SUB SWAP1 PUSH1 0x0 MSTORE PUSH1 0x20 PUSH1 0x0 KECCAK256 SWAP1 PUSH1 0x4 MUL ADD PUSH1 0x0 SWAP1 SWAP2 SWAP1 SWAP2 SWAP1 SWAP2 POP PUSH1 0x0 DUP3 ADD MLOAD DUP2 PUSH1 0x0 ADD SSTORE PUSH1 0x20 DUP3 ADD MLOAD DUP2 PUSH1 0x1 ADD SWAP1 DUP2 PUSH2 0x458 SWAP2 SWAP1 PUSH2 0x140F JUMP JUMPDEST POP PUSH1 0x40 DUP3 ADD MLOAD DUP2 PUSH1 0x2 ADD SWAP1 DUP2 PUSH2 0x46E SWAP2 SWAP1 PUSH2 0x140F JUMP JUMPDEST POP PUSH1 0x60 DUP3 ADD MLOAD DUP2 PUSH1 0x3 ADD SWAP1 DUP2 PUSH2 0x484 SWAP2 SWAP1 PUSH2 0x140F JUMP JUMPDEST POP POP POP DUP1 PUSH32 0xD2A6E8D11D03DB3BA16F4B221906F86FE27A206183788136005C1ABFEF45F1B6 DUP6 DUP6 DUP6 PUSH1 0x40 MLOAD PUSH2 0x4BB SWAP4 SWAP3 SWAP2 SWAP1 PUSH2 0x1587 JUMP JUMPDEST PUSH1 0x40 MLOAD DUP1 SWAP2 SUB SWAP1 LOG2 POP POP POP POP JUMP JUMPDEST PUSH1 0x0 DUP1 DUP1 SLOAD SWAP1 POP SWAP1 POP SWAP1 JUMP JUMPDEST PUSH1 0x0 PUSH1 0x60 DUP1 PUSH1 0x60 PUSH1 0x0 PUSH1 0x60 PUSH1 0x2 DUP1 SLOAD SWAP1 POP DUP8 LT PUSH2 0x527 JUMPI PUSH1 0x40 MLOAD PUSH32 0x8C379A000000000000000000000000000000000000000000000000000000000 DUP2 MSTORE PUSH1 0x4 ADD PUSH2 0x51E SWAP1 PUSH2 0x161F JUMP JUMPDEST PUSH1 0x40 MLOAD DUP1 SWAP2 SUB SWAP1 REVERT JUMPDEST PUSH1 0x0 PUSH1 0x2 DUP9 DUP2 SLOAD DUP2 LT PUSH2 0x53D JUMPI PUSH2 0x53C PUSH2 0x163F JUMP JUMPDEST JUMPDEST SWAP1 PUSH1 0x0 MSTORE PUSH1 0x20 PUSH1 0x0 KECCAK256 SWAP1 PUSH1 0x6 MUL ADD PUSH1 0x40 MLOAD DUP1 PUSH1 0xC0 ADD PUSH1 0x40 MSTORE SWAP1 DUP2 PUSH1 0x0 DUP3 ADD SLOAD DUP2 MSTORE PUSH1 0x20 ADD PUSH1 0x1 DUP3 ADD DUP1 SLOAD PUSH2 0x570 SWAP1 PUSH2 0x1232 JUMP JUMPDEST DUP1 PUSH1 0x1F ADD PUSH1 0x20 DUP1 SWAP2 DIV MUL PUSH1 0x20 ADD PUSH1 0x40 MLOAD SWAP1 DUP2 ADD PUSH1 0x40 MSTORE DUP1 SWAP3 SWAP2 SWAP1 DUP2 DUP2 MSTORE PUSH1 0x20 ADD DUP3 DUP1 SLOAD PUSH2 0x59C SWAP1 PUSH2 0x1232 JUMP JUMPDEST DUP1 ISZERO PUSH2 0x5E9 JUMPI DUP1 PUSH1 0x1F LT PUSH2 0x5BE JUMPI PUSH2 0x100 DUP1 DUP4 SLOAD DIV MUL DUP4 MSTORE SWAP2 PUSH1 0x20 ADD SWAP2 PUSH2 0x5E9 JUMP JUMPDEST DUP3 ADD SWAP2 SWAP1 PUSH1 0x0 MSTORE PUSH1 0x20 PUSH1 0x0 KECCAK256 SWAP1 JUMPDEST DUP2 SLOAD DUP2 MSTORE SWAP1 PUSH1 0x1 ADD SWAP1 PUSH1 0x20 ADD DUP1 DUP4 GT PUSH2 0x5CC JUMPI DUP3 SWAP1 SUB PUSH1 0x1F AND DUP3 ADD SWAP2 JUMPDEST POP POP POP POP POP DUP2 MSTORE PUSH1 0x20 ADD PUSH1 0x2 DUP3 ADD DUP1 SLOAD PUSH2 0x602 SWAP1 PUSH2 0x1232 JUMP JUMPDEST DUP1 PUSH1 0x1F ADD PUSH1 0x20 DUP1 SWAP2 DIV MUL PUSH1 0x20 ADD PUSH1 0x40 MLOAD SWAP1 DUP2 ADD PUSH1 0x40 MSTORE DUP1 SWAP3 SWAP2 SWAP1 DUP2 DUP2 MSTORE PUSH1 0x20 ADD DUP3 DUP1 SLOAD PUSH2 0x62E SWAP1 PUSH2 0x1232 JUMP JUMPDEST DUP1 ISZERO PUSH2 0x67B JUMPI DUP1 PUSH1 0x1F LT PUSH2 0x650 JUMPI PUSH2 0x100 DUP1 DUP4 SLOAD DIV MUL DUP4 MSTORE SWAP2 PUSH1 0x20 ADD SWAP2 PUSH2 0x67B JUMP JUMPDEST DUP3 ADD SWAP2 SWAP1 PUSH1 0x0 MSTORE PUSH1 0x20 PUSH1 0x0 KECCAK256 SWAP1 JUMPDEST DUP2 SLOAD DUP2 MSTORE SWAP1 PUSH1 0x1 ADD SWAP1 PUSH1 0x20 ADD DUP1 DUP4 GT PUSH2 0x65E JUMPI DUP3 SWAP1 SUB PUSH1 0x1F AND DUP3 ADD SWAP2 JUMPDEST POP POP POP POP POP DUP2 MSTORE PUSH1 0x20 ADD PUSH1 0x3 DUP3 ADD DUP1 SLOAD PUSH2 0x694 SWAP1 PUSH2 0x1232 JUMP JUMPDEST DUP1 PUSH1 0x1F ADD PUSH1 0x20 DUP1 SWAP2 DIV MUL PUSH1 0x20 ADD PUSH1 0x40 MLOAD SWAP1 DUP2 ADD PUSH1 0x40 MSTORE DUP1 SWAP3 SWAP2 SWAP1 DUP2 DUP2 MSTORE PUSH1 0x20 ADD DUP3 DUP1 SLOAD PUSH2 0x6C0 SWAP1 PUSH2 0x1232 JUMP JUMPDEST DUP1 ISZERO PUSH2 0x70D JUMPI DUP1 PUSH1 0x1F LT PUSH2 0x6E2 JUMPI PUSH2 0x100 DUP1 DUP4 SLOAD DIV MUL DUP4 MSTORE SWAP2 PUSH1 0x20 ADD SWAP2 PUSH2 0x70D JUMP JUMPDEST DUP3 ADD SWAP2 SWAP1 PUSH1 0x0 MSTORE PUSH1 0x20 PUSH1 0x0 KECCAK256 SWAP1 JUMPDEST DUP2 SLOAD DUP2 MSTORE SWAP1 PUSH1 0x1 ADD SWAP1 PUSH1 0x20 ADD DUP1 DUP4 GT PUSH2 0x6F0 JUMPI DUP3 SWAP1 SUB PUSH1 0x1F AND DUP3 ADD SWAP2 JUMPDEST POP POP POP POP POP DUP2 MSTORE PUSH1 0x20 ADD PUSH1 0x4 DUP3 ADD PUSH1 0x0 SWAP1 SLOAD SWAP1 PUSH2 0x100 EXP SWAP1 DIV PUSH1 0xFF AND ISZERO ISZERO ISZERO ISZERO DUP2 MSTORE PUSH1 0x20 ADD PUSH1 0x5 DUP3 ADD DUP1 SLOAD PUSH2 0x741 SWAP1 PUSH2 0x1232 JUMP JUMPDEST DUP1 PUSH1 0x1F ADD PUSH1 0x20 DUP1 SWAP2 DIV MUL PUSH1 0x20 ADD PUSH1 0x40 MLOAD SWAP1 DUP2 ADD PUSH1 0x40 MSTORE DUP1 SWAP3 SWAP2 SWAP1 DUP2 DUP2 MSTORE PUSH1 0x20 ADD DUP3 DUP1 SLOAD PUSH2 0x76D SWAP1 PUSH2 0x1232 JUMP JUMPDEST DUP1 ISZERO PUSH2 0x7BA JUMPI DUP1 PUSH1 0x1F LT PUSH2 0x78F JUMPI PUSH2 0x100 DUP1 DUP4 SLOAD DIV MUL DUP4 MSTORE SWAP2 PUSH1 0x20 ADD SWAP2 PUSH2 0x7BA JUMP JUMPDEST DUP3 ADD SWAP2 SWAP1 PUSH1 0x0 MSTORE PUSH1 0x20 PUSH1 0x0 KECCAK256 SWAP1 JUMPDEST DUP2 SLOAD DUP2 MSTORE SWAP1 PUSH1 0x1 ADD SWAP1 PUSH1 0x20 ADD DUP1 DUP4 GT PUSH2 0x79D JUMPI DUP3 SWAP1 SUB PUSH1 0x1F AND DUP3 ADD SWAP2 JUMPDEST POP POP POP POP POP DUP2 MSTORE POP POP SWAP1 POP DUP1 PUSH1 0x0 ADD MLOAD DUP2 PUSH1 0x20 ADD MLOAD DUP3 PUSH1 0x40 ADD MLOAD DUP4 PUSH1 0x60 ADD MLOAD DUP5 PUSH1 0x80 ADD MLOAD DUP6 PUSH1 0xA0 ADD MLOAD SWAP7 POP SWAP7 POP SWAP7 POP SWAP7 POP SWAP7 POP SWAP7 POP POP SWAP2 SWAP4 SWAP6 POP SWAP2 SWAP4 SWAP6 JUMP JUMPDEST PUSH1 0x0 PUSH1 0x60 DUP1 PUSH1 0x60 PUSH1 0x0 DUP1 SLOAD SWAP1 POP DUP6 LT PUSH2 0x847 JUMPI PUSH1 0x40 MLOAD PUSH32 0x8C379A000000000000000000000000000000000000000000000000000000000 DUP2 MSTORE PUSH1 0x4 ADD PUSH2 0x83E SWAP1 PUSH2 0x161F JUMP JUMPDEST PUSH1 0x40 MLOAD DUP1 SWAP2 SUB SWAP1 REVERT JUMPDEST PUSH1 0x0 DUP1 DUP7 DUP2 SLOAD DUP2 LT PUSH2 0x85C JUMPI PUSH2 0x85B PUSH2 0x163F JUMP JUMPDEST JUMPDEST SWAP1 PUSH1 0x0 MSTORE PUSH1 0x20 PUSH1 0x0 KECCAK256 SWAP1 PUSH1 0x4 MUL ADD PUSH1 0x40 MLOAD DUP1 PUSH1 0x80 ADD PUSH1 0x40 MSTORE SWAP1 DUP2 PUSH1 0x0 DUP3 ADD SLOAD DUP2 MSTORE PUSH1 0x20 ADD PUSH1 0x1 DUP3 ADD DUP1 SLOAD PUSH2 0x88F SWAP1 PUSH2 0x1232 JUMP JUMPDEST DUP1 PUSH1 0x1F ADD PUSH1 0x20 DUP1 SWAP2 DIV MUL PUSH1 0x20 ADD PUSH1 0x40 MLOAD SWAP1 DUP2 ADD PUSH1 0x40 MSTORE DUP1 SWAP3 SWAP2 SWAP1 DUP2 DUP2 MSTORE PUSH1 0x20 ADD DUP3 DUP1 SLOAD PUSH2 0x8BB SWAP1 PUSH2 0x1232 JUMP JUMPDEST DUP1 ISZERO PUSH2 0x908 JUMPI DUP1 PUSH1 0x1F LT PUSH2 0x8DD JUMPI PUSH2 0x100 DUP1 DUP4 SLOAD DIV MUL DUP4 MSTORE SWAP2 PUSH1 0x20 ADD SWAP2 PUSH2 0x908 JUMP JUMPDEST DUP3 ADD SWAP2 SWAP1 PUSH1 0x0 MSTORE PUSH1 0x20 PUSH1 0x0 KECCAK256 SWAP1 JUMPDEST DUP2 SLOAD DUP2 MSTORE SWAP1 PUSH1 0x1 ADD SWAP1 PUSH1 0x20 ADD DUP1 DUP4 GT PUSH2 0x8EB JUMPI DUP3 SWAP1 SUB PUSH1 0x1F AND DUP3 ADD SWAP2 JUMPDEST POP POP POP POP POP DUP2 MSTORE PUSH1 0x20 ADD PUSH1 0x2 DUP3 ADD DUP1 SLOAD PUSH2 0x921 SWAP1 PUSH2 0x1232 JUMP JUMPDEST DUP1 PUSH1 0x1F ADD PUSH1 0x20 DUP1 SWAP2 DIV MUL PUSH1 0x20 ADD PUSH1 0x40 MLOAD SWAP1 DUP2 ADD PUSH1 0x40 MSTORE DUP1 SWAP3 SWAP2 SWAP1 DUP2 DUP2 MSTORE PUSH1 0x20 ADD DUP3 DUP1 SLOAD PUSH2 0x94D SWAP1 PUSH2 0x1232 JUMP JUMPDEST DUP1 ISZERO PUSH2 0x99A JUMPI DUP1 PUSH1 0x1F LT PUSH2 0x96F JUMPI PUSH2 0x100 DUP1 DUP4 SLOAD DIV MUL DUP4 MSTORE SWAP2 PUSH1 0x20 ADD SWAP2 PUSH2 0x99A JUMP JUMPDEST DUP3 ADD SWAP2 SWAP1 PUSH1 0x0 MSTORE PUSH1 0x20 PUSH1 0x0 KECCAK256 SWAP1 JUMPDEST DUP2 SLOAD DUP2 MSTORE SWAP1 PUSH1 0x1 ADD SWAP1 PUSH1 0x20 ADD DUP1 DUP4 GT PUSH2 0x97D JUMPI DUP3 SWAP1 SUB PUSH1 0x1F AND DUP3 ADD SWAP2 JUMPDEST POP POP POP POP POP DUP2 MSTORE PUSH1 0x20 ADD PUSH1 0x3 DUP3 ADD DUP1 SLOAD PUSH2 0x9B3 SWAP1 PUSH2 0x1232 JUMP JUMPDEST DUP1 PUSH1 0x1F ADD PUSH1 0x20 DUP1 SWAP2 DIV MUL PUSH1 0x20 ADD PUSH1 0x40 MLOAD SWAP1 DUP2 ADD PUSH1 0x40 MSTORE DUP1 SWAP3 SWAP2 SWAP1 DUP2 DUP2 MSTORE PUSH1 0x20 ADD DUP3 DUP1 SLOAD PUSH2 0x9DF SWAP1 PUSH2 0x1232 JUMP JUMPDEST DUP1 ISZERO PUSH2 0xA2C JUMPI DUP1 PUSH1 0x1F LT PUSH2 0xA01 JUMPI PUSH2 0x100 DUP1 DUP4 SLOAD DIV MUL DUP4 MSTORE SWAP2 PUSH1 0x20 ADD SWAP2 PUSH2 0xA2C JUMP JUMPDEST DUP3 ADD SWAP2 SWAP1 PUSH1 0x0 MSTORE PUSH1 0x20 PUSH1 0x0 KECCAK256 SWAP1 JUMPDEST DUP2 SLOAD DUP2 MSTORE SWAP1 PUSH1 0x1 ADD SWAP1 PUSH1 0x20 ADD DUP1 DUP4 GT PUSH2 0xA0F JUMPI DUP3 SWAP1 SUB PUSH1 0x1F AND DUP3 ADD SWAP2 JUMPDEST POP POP POP POP POP DUP2 MSTORE POP POP SWAP1 POP DUP1 PUSH1 0x0 ADD MLOAD DUP2 PUSH1 0x20 ADD MLOAD DUP3 PUSH1 0x40 ADD MLOAD DUP4 PUSH1 0x60 ADD MLOAD SWAP5 POP SWAP5 POP SWAP5 POP SWAP5 POP POP SWAP2 SWAP4 POP SWAP2 SWAP4 JUMP JUMPDEST PUSH1 0x0 PUSH1 0x60 DUP1 PUSH1 0x1 DUP1 SLOAD SWAP1 POP DUP5 LT PUSH2 0xAA7 JUMPI PUSH1 0x40 MLOAD PUSH32 0x8C379A000000000000000000000000000000000000000000000000000000000 DUP2 MSTORE PUSH1 0x4 ADD PUSH2 0xA9E SWAP1 PUSH2 0x161F JUMP JUMPDEST PUSH1 0x40 MLOAD DUP1 SWAP2 SUB SWAP1 REVERT JUMPDEST PUSH1 0x0 PUSH1 0x1 DUP6 DUP2 SLOAD DUP2 LT PUSH2 0xABD JUMPI PUSH2 0xABC PUSH2 0x163F JUMP JUMPDEST JUMPDEST SWAP1 PUSH1 0x0 MSTORE PUSH1 0x20 PUSH1 0x0 KECCAK256 SWAP1 PUSH1 0x3 MUL ADD PUSH1 0x40 MLOAD DUP1 PUSH1 0x60 ADD PUSH1 0x40 MSTORE SWAP1 DUP2 PUSH1 0x0 DUP3 ADD SLOAD DUP2 MSTORE PUSH1 0x20 ADD PUSH1 0x1 DUP3 ADD DUP1 SLOAD PUSH2 0xAF0 SWAP1 PUSH2 0x1232 JUMP JUMPDEST DUP1 PUSH1 0x1F ADD PUSH1 0x20 DUP1 SWAP2 DIV MUL PUSH1 0x20 ADD PUSH1 0x40 MLOAD SWAP1 DUP2 ADD PUSH1 0x40 MSTORE DUP1 SWAP3 SWAP2 SWAP1 DUP2 DUP2 MSTORE PUSH1 0x20 ADD DUP3 DUP1 SLOAD PUSH2 0xB1C SWAP1 PUSH2 0x1232 JUMP JUMPDEST DUP1 ISZERO PUSH2 0xB69 JUMPI DUP1 PUSH1 0x1F LT PUSH2 0xB3E JUMPI PUSH2 0x100 DUP1 DUP4 SLOAD DIV MUL DUP4 MSTORE SWAP2 PUSH1 0x20 ADD SWAP2 PUSH2 0xB69 JUMP JUMPDEST DUP3 ADD SWAP2 SWAP1 PUSH1 0x0 MSTORE PUSH1 0x20 PUSH1 0x0 KECCAK256 SWAP1 JUMPDEST DUP2 SLOAD DUP2 MSTORE SWAP1 PUSH1 0x1 ADD SWAP1 PUSH1 0x20 ADD DUP1 DUP4 GT PUSH2 0xB4C JUMPI DUP3 SWAP1 SUB PUSH1 0x1F AND DUP3 ADD SWAP2 JUMPDEST POP POP POP POP POP DUP2 MSTORE PUSH1 0x20 ADD PUSH1 0x2 DUP3 ADD DUP1 SLOAD PUSH2 0xB82 SWAP1 PUSH2 0x1232 JUMP JUMPDEST DUP1 PUSH1 0x1F ADD PUSH1 0x20 DUP1 SWAP2 DIV MUL PUSH1 0x20 ADD PUSH1 0x40 MLOAD SWAP1 DUP2 ADD PUSH1 0x40 MSTORE DUP1 SWAP3 SWAP2 SWAP1 DUP2 DUP2 MSTORE PUSH1 0x20 ADD DUP3 DUP1 SLOAD PUSH2 0xBAE SWAP1 PUSH2 0x1232 JUMP JUMPDEST DUP1 ISZERO PUSH2 0xBFB JUMPI DUP1 PUSH1 0x1F LT PUSH2 0xBD0 JUMPI PUSH2 0x100 DUP1 DUP4 SLOAD DIV MUL DUP4 MSTORE SWAP2 PUSH1 0x20 ADD SWAP2 PUSH2 0xBFB JUMP JUMPDEST DUP3 ADD SWAP2 SWAP1 PUSH1 0x0 MSTORE PUSH1 0x20 PUSH1 0x0 KECCAK256 SWAP1 JUMPDEST DUP2 SLOAD DUP2 MSTORE SWAP1 PUSH1 0x1 ADD SWAP1 PUSH1 0x20 ADD DUP1 DUP4 GT PUSH2 0xBDE JUMPI DUP3 SWAP1 SUB PUSH1 0x1F AND DUP3 ADD SWAP2 JUMPDEST POP POP POP POP POP DUP2 MSTORE POP POP SWAP1 POP DUP1 PUSH1 0x0 ADD MLOAD DUP2 PUSH1 0x20 ADD MLOAD DUP3 PUSH1 0x40 ADD MLOAD SWAP4 POP SWAP4 POP SWAP4 POP POP SWAP2 SWAP4 SWAP1 SWAP3 POP JUMP JUMPDEST PUSH1 0x0 PUSH1 0x2 DUP1 SLOAD SWAP1 POP SWAP1 POP SWAP1 JUMP JUMPDEST PUSH1 0x0 DUP2 SWAP1 POP SWAP2 SWAP1 POP JUMP JUMPDEST PUSH2 0xC43 DUP2 PUSH2 0xC30 JUMP JUMPDEST DUP3 MSTORE POP POP JUMP JUMPDEST PUSH1 0x0 PUSH1 0x20 DUP3 ADD SWAP1 POP PUSH2 0xC5E PUSH1 0x0 DUP4 ADD DUP5 PUSH2 0xC3A JUMP JUMPDEST SWAP3 SWAP2 POP POP JUMP JUMPDEST PUSH1 0x0 PUSH1 0x40 MLOAD SWAP1 POP SWAP1 JUMP JUMPDEST PUSH1 0x0 DUP1 REVERT JUMPDEST PUSH1 0x0 DUP1 REVERT JUMPDEST PUSH1 0x0 DUP1 REVERT JUMPDEST PUSH1 0x0 DUP1 REVERT JUMPDEST PUSH1 0x0 PUSH1 0x1F NOT PUSH1 0x1F DUP4 ADD AND SWAP1 POP SWAP2 SWAP1 POP JUMP JUMPDEST PUSH32 0x4E487B7100000000000000000000000000000000000000000000000000000000 PUSH1 0x0 MSTORE PUSH1 0x41 PUSH1 0x4 MSTORE PUSH1 0x24 PUSH1 0x0 REVERT JUMPDEST PUSH2 0xCCB DUP3 PUSH2 0xC82 JUMP JUMPDEST DUP2 ADD DUP2 DUP2 LT PUSH8 0xFFFFFFFFFFFFFFFF DUP3 GT OR ISZERO PUSH2 0xCEA JUMPI PUSH2 0xCE9 PUSH2 0xC93 JUMP JUMPDEST JUMPDEST DUP1 PUSH1 0x40 MSTORE POP POP POP JUMP JUMPDEST PUSH1 0x0 PUSH2 0xCFD PUSH2 0xC64 JUMP JUMPDEST SWAP1 POP PUSH2 0xD09 DUP3 DUP3 PUSH2 0xCC2 JUMP JUMPDEST SWAP2 SWAP1 POP JUMP JUMPDEST PUSH1 0x0 PUSH8 0xFFFFFFFFFFFFFFFF DUP3 GT ISZERO PUSH2 0xD29 JUMPI PUSH2 0xD28 PUSH2 0xC93 JUMP JUMPDEST JUMPDEST PUSH2 0xD32 DUP3 PUSH2 0xC82 JUMP JUMPDEST SWAP1 POP PUSH1 0x20 DUP2 ADD SWAP1 POP SWAP2 SWAP1 POP JUMP JUMPDEST DUP3 DUP2 DUP4 CALLDATACOPY PUSH1 0x0 DUP4 DUP4 ADD MSTORE POP POP POP JUMP JUMPDEST PUSH1 0x0 PUSH2 0xD61 PUSH2 0xD5C DUP5 PUSH2 0xD0E JUMP JUMPDEST PUSH2 0xCF3 JUMP JUMPDEST SWAP1 POP DUP3 DUP2 MSTORE PUSH1 0x20 DUP2 ADD DUP5 DUP5 DUP5 ADD GT ISZERO PUSH2 0xD7D JUMPI PUSH2 0xD7C PUSH2 0xC7D JUMP JUMPDEST JUMPDEST PUSH2 0xD88 DUP5 DUP3 DUP6 PUSH2 0xD3F JUMP JUMPDEST POP SWAP4 SWAP3 POP POP POP JUMP JUMPDEST PUSH1 0x0 DUP3 PUSH1 0x1F DUP4 ADD SLT PUSH2 0xDA5 JUMPI PUSH2 0xDA4 PUSH2 0xC78 JUMP JUMPDEST JUMPDEST DUP2 CALLDATALOAD PUSH2 0xDB5 DUP5 DUP3 PUSH1 0x20 DUP7 ADD PUSH2 0xD4E JUMP JUMPDEST SWAP2 POP POP SWAP3 SWAP2 POP POP JUMP JUMPDEST PUSH1 0x0 DUP2 ISZERO ISZERO SWAP1 POP SWAP2 SWAP1 POP JUMP JUMPDEST PUSH2 0xDD3 DUP2 PUSH2 0xDBE JUMP JUMPDEST DUP2 EQ PUSH2 0xDDE JUMPI PUSH1 0x0 DUP1 REVERT JUMPDEST POP JUMP JUMPDEST PUSH1 0x0 DUP2 CALLDATALOAD SWAP1 POP PUSH2 0xDF0 DUP2 PUSH2 0xDCA JUMP JUMPDEST SWAP3 SWAP2 POP POP JUMP JUMPDEST PUSH1 0x0 DUP1 PUSH1 0x0 DUP1 PUSH1 0x0 PUSH1 0xA0 DUP7 DUP9 SUB SLT ISZERO PUSH2 0xE12 JUMPI PUSH2 0xE11 PUSH2 0xC6E JUMP JUMPDEST JUMPDEST PUSH1 0x0 DUP7 ADD CALLDATALOAD PUSH8 0xFFFFFFFFFFFFFFFF DUP2 GT ISZERO PUSH2 0xE30 JUMPI PUSH2 0xE2F PUSH2 0xC73 JUMP JUMPDEST JUMPDEST PUSH2 0xE3C DUP9 DUP3 DUP10 ADD PUSH2 0xD90 JUMP JUMPDEST SWAP6 POP POP PUSH1 0x20 DUP7 ADD CALLDATALOAD PUSH8 0xFFFFFFFFFFFFFFFF DUP2 GT ISZERO PUSH2 0xE5D JUMPI PUSH2 0xE5C PUSH2 0xC73 JUMP JUMPDEST JUMPDEST PUSH2 0xE69 DUP9 DUP3 DUP10 ADD PUSH2 0xD90 JUMP JUMPDEST SWAP5 POP POP PUSH1 0x40 DUP7 ADD CALLDATALOAD PUSH8 0xFFFFFFFFFFFFFFFF DUP2 GT ISZERO PUSH2 0xE8A JUMPI PUSH2 0xE89 PUSH2 0xC73 JUMP JUMPDEST JUMPDEST PUSH2 0xE96 DUP9 DUP3 DUP10 ADD PUSH2 0xD90 JUMP JUMPDEST SWAP4 POP POP PUSH1 0x60 PUSH2 0xEA7 DUP9 DUP3 DUP10 ADD PUSH2 0xDE1 JUMP JUMPDEST SWAP3 POP POP PUSH1 0x80 DUP7 ADD CALLDATALOAD PUSH8 0xFFFFFFFFFFFFFFFF DUP2 GT ISZERO PUSH2 0xEC8 JUMPI PUSH2 0xEC7 PUSH2 0xC73 JUMP JUMPDEST JUMPDEST PUSH2 0xED4 DUP9 DUP3 DUP10 ADD PUSH2 0xD90 JUMP JUMPDEST SWAP2 POP POP SWAP3 SWAP6 POP SWAP3 SWAP6 SWAP1 SWAP4 POP JUMP JUMPDEST PUSH1 0x0 DUP1 PUSH1 0x40 DUP4 DUP6 SUB SLT ISZERO PUSH2 0xEF8 JUMPI PUSH2 0xEF7 PUSH2 0xC6E JUMP JUMPDEST JUMPDEST PUSH1 0x0 DUP4 ADD CALLDATALOAD PUSH8 0xFFFFFFFFFFFFFFFF DUP2 GT ISZERO PUSH2 0xF16 JUMPI PUSH2 0xF15 PUSH2 0xC73 JUMP JUMPDEST JUMPDEST PUSH2 0xF22 DUP6 DUP3 DUP7 ADD PUSH2 0xD90 JUMP JUMPDEST SWAP3 POP POP PUSH1 0x20 DUP4 ADD CALLDATALOAD PUSH8 0xFFFFFFFFFFFFFFFF DUP2 GT ISZERO PUSH2 0xF43 JUMPI PUSH2 0xF42 PUSH2 0xC73 JUMP JUMPDEST JUMPDEST PUSH2 0xF4F DUP6 DUP3 DUP7 ADD PUSH2 0xD90 JUMP JUMPDEST SWAP2 POP POP SWAP3 POP SWAP3 SWAP1 POP JUMP JUMPDEST PUSH1 0x0 DUP1 PUSH1 0x0 PUSH1 0x60 DUP5 DUP7 SUB SLT ISZERO PUSH2 0xF72 JUMPI PUSH2 0xF71 PUSH2 0xC6E JUMP JUMPDEST JUMPDEST PUSH1 0x0 DUP5 ADD CALLDATALOAD PUSH8 0xFFFFFFFFFFFFFFFF DUP2 GT ISZERO PUSH2 0xF90 JUMPI PUSH2 0xF8F PUSH2 0xC73 JUMP JUMPDEST JUMPDEST PUSH2 0xF9C DUP7 DUP3 DUP8 ADD PUSH2 0xD90 JUMP JUMPDEST SWAP4 POP POP PUSH1 0x20 DUP5 ADD CALLDATALOAD PUSH8 0xFFFFFFFFFFFFFFFF DUP2 GT ISZERO PUSH2 0xFBD JUMPI PUSH2 0xFBC PUSH2 0xC73 JUMP JUMPDEST JUMPDEST PUSH2 0xFC9 DUP7 DUP3 DUP8 ADD PUSH2 0xD90 JUMP JUMPDEST SWAP3 POP POP PUSH1 0x40 DUP5 ADD CALLDATALOAD PUSH8 0xFFFFFFFFFFFFFFFF DUP2 GT ISZERO PUSH2 0xFEA JUMPI PUSH2 0xFE9 PUSH2 0xC73 JUMP JUMPDEST JUMPDEST PUSH2 0xFF6 DUP7 DUP3 DUP8 ADD PUSH2 0xD90 JUMP JUMPDEST SWAP2 POP POP SWAP3 POP SWAP3 POP SWAP3 JUMP JUMPDEST PUSH2 0x1009 DUP2 PUSH2 0xC30 JUMP JUMPDEST DUP2 EQ PUSH2 0x1014 JUMPI PUSH1 0x0 DUP1 REVERT JUMPDEST POP JUMP JUMPDEST PUSH1 0x0 DUP2 CALLDATALOAD SWAP1 POP PUSH2 0x1026 DUP2 PUSH2 0x1000 JUMP JUMPDEST SWAP3 SWAP2 POP POP JUMP JUMPDEST PUSH1 0x0 PUSH1 0x20 DUP3 DUP5 SUB SLT ISZERO PUSH2 0x1042 JUMPI PUSH2 0x1041 PUSH2 0xC6E JUMP JUMPDEST JUMPDEST PUSH1 0x0 PUSH2 0x1050 DUP5 DUP3 DUP6 ADD PUSH2 0x1017 JUMP JUMPDEST SWAP2 POP POP SWAP3 SWAP2 POP POP JUMP JUMPDEST PUSH1 0x0 DUP2 MLOAD SWAP1 POP SWAP2 SWAP1 POP JUMP JUMPDEST PUSH1 0x0 DUP3 DUP3 MSTORE PUSH1 0x20 DUP3 ADD SWAP1 POP SWAP3 SWAP2 POP POP JUMP JUMPDEST PUSH1 0x0 JUMPDEST DUP4 DUP2 LT ISZERO PUSH2 0x1093 JUMPI DUP1 DUP3 ADD MLOAD DUP2 DUP5 ADD MSTORE PUSH1 0x20 DUP2 ADD SWAP1 POP PUSH2 0x1078 JUMP JUMPDEST PUSH1 0x0 DUP5 DUP5 ADD MSTORE POP POP POP POP JUMP JUMPDEST PUSH1 0x0 PUSH2 0x10AA DUP3 PUSH2 0x1059 JUMP JUMPDEST PUSH2 0x10B4 DUP2 DUP6 PUSH2 0x1064 JUMP JUMPDEST SWAP4 POP PUSH2 0x10C4 DUP2 DUP6 PUSH1 0x20 DUP7 ADD PUSH2 0x1075 JUMP JUMPDEST PUSH2 0x10CD DUP2 PUSH2 0xC82 JUMP JUMPDEST DUP5 ADD SWAP2 POP POP SWAP3 SWAP2 POP POP JUMP JUMPDEST PUSH2 0x10E1 DUP2 PUSH2 0xDBE JUMP JUMPDEST DUP3 MSTORE POP POP JUMP JUMPDEST PUSH1 0x0 PUSH1 0xC0 DUP3 ADD SWAP1 POP PUSH2 0x10FC PUSH1 0x0 DUP4 ADD DUP10 PUSH2 0xC3A JUMP JUMPDEST DUP2 DUP2 SUB PUSH1 0x20 DUP4 ADD MSTORE PUSH2 0x110E DUP2 DUP9 PUSH2 0x109F JUMP JUMPDEST SWAP1 POP DUP2 DUP2 SUB PUSH1 0x40 DUP4 ADD MSTORE PUSH2 0x1122 DUP2 DUP8 PUSH2 0x109F JUMP JUMPDEST SWAP1 POP DUP2 DUP2 SUB PUSH1 0x60 DUP4 ADD MSTORE PUSH2 0x1136 DUP2 DUP7 PUSH2 0x109F JUMP JUMPDEST SWAP1 POP PUSH2 0x1145 PUSH1 0x80 DUP4 ADD DUP6 PUSH2 0x10D8 JUMP JUMPDEST DUP2 DUP2 SUB PUSH1 0xA0 DUP4 ADD MSTORE PUSH2 0x1157 DUP2 DUP5 PUSH2 0x109F JUMP JUMPDEST SWAP1 POP SWAP8 SWAP7 POP POP POP POP POP POP POP JUMP JUMPDEST PUSH1 0x0 PUSH1 0x80 DUP3 ADD SWAP1 POP PUSH2 0x1179 PUSH1 0x0 DUP4 ADD DUP8 PUSH2 0xC3A JUMP JUMPDEST DUP2 DUP2 SUB PUSH1 0x20 DUP4 ADD MSTORE PUSH2 0x118B DUP2 DUP7 PUSH2 0x109F JUMP JUMPDEST SWAP1 POP DUP2 DUP2 SUB PUSH1 0x40 DUP4 ADD MSTORE PUSH2 0x119F DUP2 DUP6 PUSH2 0x109F JUMP JUMPDEST SWAP1 POP DUP2 DUP2 SUB PUSH1 0x60 DUP4 ADD MSTORE PUSH2 0x11B3 DUP2 DUP5 PUSH2 0x109F JUMP JUMPDEST SWAP1 POP SWAP6 SWAP5 POP POP POP POP POP JUMP JUMPDEST PUSH1 0x0 PUSH1 0x60 DUP3 ADD SWAP1 POP PUSH2 0x11D3 PUSH1 0x0 DUP4 ADD DUP7 PUSH2 0xC3A JUMP JUMPDEST DUP2 DUP2 SUB PUSH1 0x20 DUP4 ADD MSTORE PUSH2 0x11E5 DUP2 DUP6 PUSH2 0x109F JUMP JUMPDEST SWAP1 POP DUP2 DUP2 SUB PUSH1 0x40 DUP4 ADD MSTORE PUSH2 0x11F9 DUP2 DUP5 PUSH2 0x109F JUMP JUMPDEST SWAP1 POP SWAP5 SWAP4 POP POP POP POP JUMP JUMPDEST PUSH32 0x4E487B7100000000000000000000000000000000000000000000000000000000 PUSH1 0x0 MSTORE PUSH1 0x22 PUSH1 0x4 MSTORE PUSH1 0x24 PUSH1 0x0 REVERT JUMPDEST PUSH1 0x0 PUSH1 0x2 DUP3 DIV SWAP1 POP PUSH1 0x1 DUP3 AND DUP1 PUSH2 0x124A JUMPI PUSH1 0x7F DUP3 AND SWAP2 POP JUMPDEST PUSH1 0x20 DUP3 LT DUP2 SUB PUSH2 0x125D JUMPI PUSH2 0x125C PUSH2 0x1203 JUMP JUMPDEST JUMPDEST POP SWAP2 SWAP1 POP JUMP JUMPDEST PUSH1 0x0 DUP2 SWAP1 POP DUP2 PUSH1 0x0 MSTORE PUSH1 0x20 PUSH1 0x0 KECCAK256 SWAP1 POP SWAP2 SWAP1 POP JUMP JUMPDEST PUSH1 0x0 PUSH1 0x20 PUSH1 0x1F DUP4 ADD DIV SWAP1 POP SWAP2 SWAP1 POP JUMP JUMPDEST PUSH1 0x0 DUP3 DUP3 SHL SWAP1 POP SWAP3 SWAP2 POP POP JUMP JUMPDEST PUSH1 0x0 PUSH1 0x8 DUP4 MUL PUSH2 0x12C5 PUSH32 0xFFFFFFFFFFFFFFFFFFFFFFFFFFFFFFFFFFFFFFFFFFFFFFFFFFFFFFFFFFFFFFFF DUP3 PUSH2 0x1288 JUMP JUMPDEST PUSH2 0x12CF DUP7 DUP4 PUSH2 0x1288 JUMP JUMPDEST SWAP6 POP DUP1 NOT DUP5 AND SWAP4 POP DUP1 DUP7 AND DUP5 OR SWAP3 POP POP POP SWAP4 SWAP3 POP POP POP JUMP JUMPDEST PUSH1 0x0 DUP2 SWAP1 POP SWAP2 SWAP1 POP JUMP JUMPDEST PUSH1 0x0 PUSH2 0x130C PUSH2 0x1307 PUSH2 0x1302 DUP5 PUSH2 0xC30 JUMP JUMPDEST PUSH2 0x12E7 JUMP JUMPDEST PUSH2 0xC30 JUMP JUMPDEST SWAP1 POP SWAP2 SWAP1 POP JUMP JUMPDEST PUSH1 0x0 DUP2 SWAP1 POP SWAP2 SWAP1 POP JUMP JUMPDEST PUSH2 0x1326 DUP4 PUSH2 0x12F1 JUMP JUMPDEST PUSH2 0x133A PUSH2 0x1332 DUP3 PUSH2 0x1313 JUMP JUMPDEST DUP5 DUP5 SLOAD PUSH2 0x1295 JUMP JUMPDEST DUP3 SSTORE POP POP POP POP JUMP JUMPDEST PUSH1 0x0 SWAP1 JUMP JUMPDEST PUSH2 0x134F PUSH2 0x1342 JUMP JUMPDEST PUSH2 0x135A DUP2 DUP5 DUP5 PUSH2 0x131D JUMP JUMPDEST POP POP POP JUMP JUMPDEST JUMPDEST DUP2 DUP2 LT ISZERO PUSH2 0x137E JUMPI PUSH2 0x1373 PUSH1 0x0 DUP3 PUSH2 0x1347 JUMP JUMPDEST PUSH1 0x1 DUP2 ADD SWAP1 POP PUSH2 0x1360 JUMP JUMPDEST POP POP JUMP JUMPDEST PUSH1 0x1F DUP3 GT ISZERO PUSH2 0x13C3 JUMPI PUSH2 0x1394 DUP2 PUSH2 0x1263 JUMP JUMPDEST PUSH2 0x139D DUP5 PUSH2 0x1278 JUMP JUMPDEST DUP2 ADD PUSH1 0x20 DUP6 LT ISZERO PUSH2 0x13AC JUMPI DUP2 SWAP1 POP JUMPDEST PUSH2 0x13C0 PUSH2 0x13B8 DUP6 PUSH2 0x1278 JUMP JUMPDEST DUP4 ADD DUP3 PUSH2 0x135F JUMP JUMPDEST POP POP JUMPDEST POP POP POP JUMP JUMPDEST PUSH1 0x0 DUP3 DUP3 SHR SWAP1 POP SWAP3 SWAP2 POP POP JUMP JUMPDEST PUSH1 0x0 PUSH2 0x13E6 PUSH1 0x0 NOT DUP5 PUSH1 0x8 MUL PUSH2 0x13C8 JUMP JUMPDEST NOT DUP1 DUP4 AND SWAP2 POP POP SWAP3 SWAP2 POP POP JUMP JUMPDEST PUSH1 0x0 PUSH2 0x13FF DUP4 DUP4 PUSH2 0x13D5 JUMP JUMPDEST SWAP2 POP DUP3 PUSH1 0x2 MUL DUP3 OR SWAP1 POP SWAP3 SWAP2 POP POP JUMP JUMPDEST PUSH2 0x1418 DUP3 PUSH2 0x1059 JUMP JUMPDEST PUSH8 0xFFFFFFFFFFFFFFFF DUP2 GT ISZERO PUSH2 0x1431 JUMPI PUSH2 0x1430 PUSH2 0xC93 JUMP JUMPDEST JUMPDEST PUSH2 0x143B DUP3 SLOAD PUSH2 0x1232 JUMP JUMPDEST PUSH2 0x1446 DUP3 DUP3 DUP6 PUSH2 0x1382 JUMP JUMPDEST PUSH1 0x0 PUSH1 0x20 SWAP1 POP PUSH1 0x1F DUP4 GT PUSH1 0x1 DUP2 EQ PUSH2 0x1479 JUMPI PUSH1 0x0 DUP5 ISZERO PUSH2 0x1467 JUMPI DUP3 DUP8 ADD MLOAD SWAP1 POP JUMPDEST PUSH2 0x1471 DUP6 DUP3 PUSH2 0x13F3 JUMP JUMPDEST DUP7 SSTORE POP PUSH2 0x14D9 JUMP JUMPDEST PUSH1 0x1F NOT DUP5 AND PUSH2 0x1487 DUP7 PUSH2 0x1263 JUMP JUMPDEST PUSH1 0x0 JUMPDEST DUP3 DUP2 LT ISZERO PUSH2 0x14AF JUMPI DUP5 DUP10 ADD MLOAD DUP3 SSTORE PUSH1 0x1 DUP3 ADD SWAP2 POP PUSH1 0x20 DUP6 ADD SWAP5 POP PUSH1 0x20 DUP2 ADD SWAP1 POP PUSH2 0x148A JUMP JUMPDEST DUP7 DUP4 LT ISZERO PUSH2 0x14CC JUMPI DUP5 DUP10 ADD MLOAD PUSH2 0x14C8 PUSH1 0x1F DUP10 AND DUP3 PUSH2 0x13D5 JUMP JUMPDEST DUP4 SSTORE POP JUMPDEST PUSH1 0x1 PUSH1 0x2 DUP9 MUL ADD DUP9 SSTORE POP POP POP JUMPDEST POP POP POP POP POP POP JUMP JUMPDEST PUSH1 0x0 PUSH1 0xA0 DUP3 ADD SWAP1 POP DUP2 DUP2 SUB PUSH1 0x0 DUP4 ADD MSTORE PUSH2 0x14FB DUP2 DUP9 PUSH2 0x109F JUMP JUMPDEST SWAP1 POP DUP2 DUP2 SUB PUSH1 0x20 DUP4 ADD MSTORE PUSH2 0x150F DUP2 DUP8 PUSH2 0x109F JUMP JUMPDEST SWAP1 POP DUP2 DUP2 SUB PUSH1 0x40 DUP4 ADD MSTORE PUSH2 0x1523 DUP2 DUP7 PUSH2 0x109F JUMP JUMPDEST SWAP1 POP PUSH2 0x1532 PUSH1 0x60 DUP4 ADD DUP6 PUSH2 0x10D8 JUMP JUMPDEST DUP2 DUP2 SUB PUSH1 0x80 DUP4 ADD MSTORE PUSH2 0x1544 DUP2 DUP5 PUSH2 0x109F JUMP JUMPDEST SWAP1 POP SWAP7 SWAP6 POP POP POP POP POP POP JUMP JUMPDEST PUSH1 0x0 PUSH1 0x40 DUP3 ADD SWAP1 POP DUP2 DUP2 SUB PUSH1 0x0 DUP4 ADD MSTORE PUSH2 0x156A DUP2 DUP6 PUSH2 0x109F JUMP JUMPDEST SWAP1 POP DUP2 DUP2 SUB PUSH1 0x20 DUP4 ADD MSTORE PUSH2 0x157E DUP2 DUP5 PUSH2 0x109F JUMP JUMPDEST SWAP1 POP SWAP4 SWAP3 POP POP POP JUMP JUMPDEST PUSH1 0x0 PUSH1 0x60 DUP3 ADD SWAP1 POP DUP2 DUP2 SUB PUSH1 0x0 DUP4 ADD MSTORE PUSH2 0x15A1 DUP2 DUP7 PUSH2 0x109F JUMP JUMPDEST SWAP1 POP DUP2 DUP2 SUB PUSH1 0x20 DUP4 ADD MSTORE PUSH2 0x15B5 DUP2 DUP6 PUSH2 0x109F JUMP JUMPDEST SWAP1 POP DUP2 DUP2 SUB PUSH1 0x40 DUP4 ADD MSTORE PUSH2 0x15C9 DUP2 DUP5 PUSH2 0x109F JUMP JUMPDEST SWAP1 POP SWAP5 SWAP4 POP POP POP POP JUMP JUMPDEST PUSH32 0x496E76616C696420696E64657800000000000000000000000000000000000000 PUSH1 0x0 DUP3 ADD MSTORE POP JUMP JUMPDEST PUSH1 0x0 PUSH2 0x1609 PUSH1 0xD DUP4 PUSH2 0x1064 JUMP JUMPDEST SWAP2 POP PUSH2 0x1614 DUP3 PUSH2 0x15D3 JUMP JUMPDEST PUSH1 0x20 DUP3 ADD SWAP1 POP SWAP2 SWAP1 POP JUMP JUMPDEST PUSH1 0x0 PUSH1 0x20 DUP3 ADD SWAP1 POP DUP2 DUP2 SUB PUSH1 0x0 DUP4 ADD MSTORE PUSH2 0x1638 DUP2 PUSH2 0x15FC JUMP JUMPDEST SWAP1 POP SWAP2 SWAP1 POP JUMP JUMPDEST PUSH32 0x4E487B7100000000000000000000000000000000000000000000000000000000 PUSH1 0x0 MSTORE PUSH1 0x32 PUSH1 0x4 MSTORE PUSH1 0x24 PUSH1 0x0 REVERT INVALID LOG2 PUSH5 0x6970667358 0x22 SLT KECCAK256 0xD MSIZE 0xC1 0xC4 PUSH5 0x32BEE62907 0xD0 0xBE ADDRESS DUP5 0xDB 0xF COINBASE OR TSTORE 0x1E CALL EXP 0xDA TSTORE SWAP14 0xD 0xC7 0x23 DIV PUSH30 0xA3EB64736F6C634300081E00330000000000000000000000000000000000 "
		},
		"gasEstimates": {
			"creation": {
				"codeDepositCost": "1159200",
				"executionCost": "1207",
				"totalCost": "1160407"
			},
			"external": {
				"getAdminAction(uint256)": "infinite",
				"getAdminActionsCount()": "2445",
				"getCredentialEvent(uint256)": "infinite",
				"getCredentialEventsCount()": "2533",
				"getLogBatch(uint256)": "infinite",
				"getLogBatchesCount()": "2446",
				"registerAdminAction(string,string,string)": "infinite",
				"registerCredentialEvent(string,string,string,bool,string)": "infinite",
				"registerLogBatch(string,string)": "infinite"
			}
		},
		"methodIdentifiers": {
			"getAdminAction(uint256)": "b2e32f07",
			"getAdminActionsCount()": "8e3d5ebf",
			"getCredentialEvent(uint256)": "ab3a2b98",
			"getCredentialEventsCount()": "d5015d65",
			"getLogBatch(uint256)": "d2a6c282",
			"getLogBatchesCount()": "1a201989",
			"registerAdminAction(string,string,string)": "7f7df466",
			"registerCredentialEvent(string,string,string,bool,string)": "4b733744",
			"registerLogBatch(string,string)": "4d011928"
		}
	},
	"abi": [
		{
			"anonymous": false,
			"inputs": [
				{
					"indexed": true,
					"internalType": "uint256",
					"name": "id",
					"type": "uint256"
				},
				{
					"indexed": false,
					"internalType": "string",
					"name": "actionType",
					"type": "string"
				},
				{
					"indexed": false,
					"internalType": "string",
					"name": "targetUid",
					"type": "string"
				},
				{
					"indexed": false,
					"internalType": "string",
					"name": "timestamp",
					"type": "string"
				}
			],
			"name": "AdminActionRegistered",
			"type": "event"
		},
		{
			"anonymous": false,
			"inputs": [
				{
					"indexed": true,
					"internalType": "uint256",
					"name": "id",
					"type": "uint256"
				},
				{
					"indexed": false,
					"internalType": "string",
					"name": "uidHash",
					"type": "string"
				},
				{
					"indexed": false,
					"internalType": "string",
					"name": "actionType",
					"type": "string"
				},
				{
					"indexed": false,
					"internalType": "string",
					"name": "role",
					"type": "string"
				},
				{
					"indexed": false,
					"internalType": "bool",
					"name": "active",
					"type": "bool"
				},
				{
					"indexed": false,
					"internalType": "string",
					"name": "timestamp",
					"type": "string"
				}
			],
			"name": "CredentialEventRegistered",
			"type": "event"
		},
		{
			"anonymous": false,
			"inputs": [
				{
					"indexed": true,
					"internalType": "uint256",
					"name": "id",
					"type": "uint256"
				},
				{
					"indexed": false,
					"internalType": "string",
					"name": "batchHash",
					"type": "string"
				},
				{
					"indexed": false,
					"internalType": "string",
					"name": "timestamp",
					"type": "string"
				}
			],
			"name": "LogBatchRegistered",
			"type": "event"
		},
		{
			"inputs": [
				{
					"internalType": "uint256",
					"name": "index",
					"type": "uint256"
				}
			],
			"name": "getAdminAction",
			"outputs": [
				{
					"internalType": "uint256",
					"name": "id",
					"type": "uint256"
				},
				{
					"internalType": "string",
					"name": "actionType",
					"type": "string"
				},
				{
					"internalType": "string",
					"name": "targetUid",
					"type": "string"
				},
				{
					"internalType": "string",
					"name": "timestamp",
					"type": "string"
				}
			],
			"stateMutability": "view",
			"type": "function"
		},
		{
			"inputs": [],
			"name": "getAdminActionsCount",
			"outputs": [
				{
					"internalType": "uint256",
					"name": "",
					"type": "uint256"
				}
			],
			"stateMutability": "view",
			"type": "function"
		},
		{
			"inputs": [
				{
					"internalType": "uint256",
					"name": "index",
					"type": "uint256"
				}
			],
			"name": "getCredentialEvent",
			"outputs": [
				{
					"internalType": "uint256",
					"name": "id",
					"type": "uint256"
				},
				{
					"internalType": "string",
					"name": "uidHash",
					"type": "string"
				},
				{
					"internalType": "string",
					"name": "actionType",
					"type": "string"
				},
				{
					"internalType": "string",
					"name": "role",
					"type": "string"
				},
				{
					"internalType": "bool",
					"name": "active",
					"type": "bool"
				},
				{
					"internalType": "string",
					"name": "timestamp",
					"type": "string"
				}
			],
			"stateMutability": "view",
			"type": "function"
		},
		{
			"inputs": [],
			"name": "getCredentialEventsCount",
			"outputs": [
				{
					"internalType": "uint256",
					"name": "",
					"type": "uint256"
				}
			],
			"stateMutability": "view",
			"type": "function"
		},
		{
			"inputs": [
				{
					"internalType": "uint256",
					"name": "index",
					"type": "uint256"
				}
			],
			"name": "getLogBatch",
			"outputs": [
				{
					"internalType": "uint256",
					"name": "id",
					"type": "uint256"
				},
				{
					"internalType": "string",
					"name": "batchHash",
					"type": "string"
				},
				{
					"internalType": "string",
					"name": "timestamp",
					"type": "string"
				}
			],
			"stateMutability": "view",
			"type": "function"
		},
		{
			"inputs": [],
			"name": "getLogBatchesCount",
			"outputs": [
				{
					"internalType": "uint256",
					"name": "",
					"type": "uint256"
				}
			],
			"stateMutability": "view",
			"type": "function"
		},
		{
			"inputs": [
				{
					"internalType": "string",
					"name": "actionType",
					"type": "string"
				},
				{
					"internalType": "string",
					"name": "targetUid",
					"type": "string"
				},
				{
					"internalType": "string",
					"name": "timestamp",
					"type": "string"
				}
			],
			"name": "registerAdminAction",
			"outputs": [],
			"stateMutability": "nonpayable",
			"type": "function"
		},
		{
			"inputs": [
				{
					"internalType": "string",
					"name": "uidHash",
					"type": "string"
				},
				{
					"internalType": "string",
					"name": "actionType",
					"type": "string"
				},
				{
					"internalType": "string",
					"name": "role",
					"type": "string"
				},
				{
					"internalType": "bool",
					"name": "active",
					"type": "bool"
				},
				{
					"internalType": "string",
					"name": "timestamp",
					"type": "string"
				}
			],
			"name": "registerCredentialEvent",
			"outputs": [],
			"stateMutability": "nonpayable",
			"type": "function"
		},
		{
			"inputs": [
				{
					"internalType": "string",
					"name": "batchHash",
					"type": "string"
				},
				{
					"internalType": "string",
					"name": "timestamp",
					"type": "string"
				}
			],
			"name": "registerLogBatch",
			"outputs": [],
			"stateMutability": "nonpayable",
			"type": "function"
		}
	]
}