{
	"AccessRegistry.sol": {
		"AccessRegistry": {
			"abi": [
				{
					"anonymous": false,
					"inputs": [
						{
							"indexed": true,
							"internalType": "uint256",
							"name": "id",
							"type": "uint256"
						},
						{
							"indexed": false,
							"internalType": "string",
							"name": "actionType",
							"type": "string"
						},
						{
							"indexed": false,
							"internalType": "string",
							"name": "targetUid",
							"type": "string"
						},
						{
							"indexed": false,
							"internalType": "string",
							"name": "timestamp",
							"type": "string"
						}
					],
					"name": "AdminActionRegistered",
					"type": "event"
				},
				{
					"anonymous": false,
					"inputs": [
						{
							"indexed": true,
							"internalType": "uint256",
							"name": "id",
							"type": "uint256"
						},
						{
							"indexed": false,
							"internalType": "string",
							"name": "batchHash",
							"type": "string"
						},
						{
							"indexed": false,
							"internalType": "string",
							"name": "timestamp",
							"type": "string"
						}
					],
					"name": "LogBatchRegistered",
					"type": "event"
				},
				{
					"inputs": [
						{
							"internalType": "uint256",
							"name": "index",
							"type": "uint256"
						}
					],
					"name": "getAdminAction",
					"outputs": [
						{
							"internalType": "uint256",
							"name": "id",
							"type": "uint256"
						},
						{
							"internalType": "string",
							"name": "actionType",
							"type": "string"
						},
						{
							"internalType": "string",
							"name": "targetUid",
							"type": "string"
						},
						{
							"internalType": "string",
							"name": "timestamp",
							"type": "string"
						}
					],
					"stateMutability": "view",
					"type": "function"
				},
				{
					"inputs": [],
					"name": "getAdminActionsCount",
					"outputs": [
						{
							"internalType": "uint256",
							"name": "",
							"type": "uint256"
						}
					],
					"stateMutability": "view",
					"type": "function"
				},
				{
					"inputs": [
						{
							"internalType": "uint256",
							"name": "index",
							"type": "uint256"
						}
					],
					"name": "getLogBatch",
					"outputs": [
						{
							"internalType": "uint256",
							"name": "id",
							"type": "uint256"
						},
						{
							"internalType": "string",
							"name": "batchHash",
							"type": "string"
						},
						{
							"internalType": "string",
							"name": "timestamp",
							"type": "string"
						}
					],
					"stateMutability": "view",
					"type": "function"
				},
				{
					"inputs": [],
					"name": "getLogBatchesCount",
					"outputs": [
						{
							"internalType": "uint256",
							"name": "",
							"type": "uint256"
						}
					],
					"stateMutability": "view",
					"type": "function"
				},
				{
					"inputs": [
						{
							"internalType": "string",
							"name": "actionType",
							"type": "string"
						},
						{
							"internalType": "string",
							"name": "targetUid",
							"type": "string"
						},
						{
							"internalType": "string",
							"name": "timestamp",
							"type": "string"
						}
					],
					"name": "registerAdminAction",
					"outputs": [],
					"stateMutability": "nonpayable",
					"type": "function"
				},
				{
					"inputs": [
						{
							"internalType": "string",
							"name": "batchHash",
							"type": "string"
						},
						{
							"internalType": "string",
							"name": "timestamp",
							"type": "string"
						}
					],
					"name": "registerLogBatch",
					"outputs": [],
					"stateMutability": "nonpayable",
					"type": "function"
				}
			],
			"devdoc": {
				"kind": "dev",
				"methods": {},
				"version": 1
			},
			"evm": {
				"assembly": "    /* \"AccessRegistry.sol\":61:2841  contract AccessRegistry {... */\n  mstore(0x40, 0x80)\n  callvalue\n  dup1\n  iszero\n  tag_1\n  jumpi\n  0x00\n  dup1\n  revert\ntag_1:\n  pop\n  dataSize(sub_0)\n  dup1\n  dataOffset(sub_0)\n  0x00\n  codecopy\n  0x00\n  return\nstop\n\nsub_0: assembly {\n        /* \"AccessRegistry.sol\":61:2841  contract AccessRegistry {... */\n      mstore(0x40, 0x80)\n      callvalue\n      dup1\n      iszero\n      tag_1\n      jumpi\n      0x00\n      dup1\n      revert\n    tag_1:\n      pop\n      jumpi(tag_2, lt(calldatasize, 0x04))\n      shr(0xe0, calldataload(0x00))\n      dup1\n      0x1a201989\n      eq\n      tag_3\n      jumpi\n      dup1\n      0x4d011928\n      eq\n      tag_4\n      jumpi\n      dup1\n      0x7f7df466\n      eq\n      tag_5\n      jumpi\n      dup1\n      0x8e3d5ebf\n      eq\n      tag_6\n      jumpi\n      dup1\n      0xb2e32f07\n      eq\n      tag_7\n      jumpi\n      dup1\n      0xd2a6c282\n      eq\n      tag_8\n      jumpi\n    tag_2:\n      0x00\n      dup1\n      revert\n        /* \"AccessRegistry.sol\":2735:2838  function getLogBatchesCount() public view returns (uint256) {... */\n    tag_3:\n      tag_9\n      tag_10\n      jump\t// in\n    tag_9:\n      mload(0x40)\n      tag_11\n      swap2\n      swap1\n      tag_12\n      jump\t// in\n    tag_11:\n      mload(0x40)\n      dup1\n      swap2\n      sub\n      swap1\n      return\n        /* \"AccessRegistry.sol\":1866:2282  function registerLogBatch(... */\n    tag_4:\n      tag_13\n      0x04\n      dup1\n      calldatasize\n      sub\n      dup2\n      add\n      swap1\n      tag_14\n      swap2\n      swap1\n      tag_15\n      jump\t// in\n    tag_14:\n      tag_16\n      jump\t// in\n    tag_13:\n      stop\n        /* \"AccessRegistry.sol\":693:1213  function registerAdminAction(... */\n    tag_5:\n      tag_17\n      0x04\n      dup1\n      calldatasize\n      sub\n      dup2\n      add\n      swap1\n      tag_18\n      swap2\n      swap1\n      tag_19\n      jump\t// in\n    tag_18:\n      tag_20\n      jump\t// in\n    tag_17:\n      stop\n        /* \"AccessRegistry.sol\":1751:1858  function getAdminActionsCount() public view returns (uint256) {... */\n    tag_6:\n      tag_21\n      tag_22\n      jump\t// in\n    tag_21:\n      mload(0x40)\n      tag_23\n      swap2\n      swap1\n      tag_12\n      jump\t// in\n    tag_23:\n      mload(0x40)\n      dup1\n      swap2\n      sub\n      swap1\n      return\n        /* \"AccessRegistry.sol\":1221:1743  function getAdminAction(uint256 index)... */\n    tag_7:\n      tag_24\n      0x04\n      dup1\n      calldatasize\n      sub\n      dup2\n      add\n      swap1\n      tag_25\n      swap2\n      swap1\n      tag_26\n      jump\t// in\n    tag_25:\n      tag_27\n      jump\t// in\n    tag_24:\n      mload(0x40)\n      tag_28\n      swap5\n      swap4\n      swap3\n      swap2\n      swap1\n      tag_29\n      jump\t// in\n    tag_28:\n      mload(0x40)\n      dup1\n      swap2\n      sub\n      swap1\n      return\n        /* \"AccessRegistry.sol\":2290:2727  function getLogBatch(uint256 index)... */\n    tag_8:\n      tag_30\n      0x04\n      dup1\n      calldatasize\n      sub\n      dup2\n      add\n      swap1\n      tag_31\n      swap2\n      swap1\n      tag_26\n      jump\t// in\n    tag_31:\n      tag_32\n      jump\t// in\n    tag_30:\n      mload(0x40)\n      tag_33\n      swap4\n      swap3\n      swap2\n      swap1\n      tag_34\n      jump\t// in\n    tag_33:\n      mload(0x40)\n      dup1\n      swap2\n      sub\n      swap1\n      return\n        /* \"AccessRegistry.sol\":2735:2838  function getLogBatchesCount() public view returns (uint256) {... */\n    tag_10:\n        /* \"AccessRegistry.sol\":2786:2793  uint256 */\n      0x00\n        /* \"AccessRegistry.sol\":2813:2823  logBatches */\n      0x01\n        /* \"AccessRegistry.sol\":2813:2830  logBatches.length */\n      dup1\n      sload\n      swap1\n      pop\n        /* \"AccessRegistry.sol\":2806:2830  return logBatches.length */\n      swap1\n      pop\n        /* \"AccessRegistry.sol\":2735:2838  function getLogBatchesCount() public view returns (uint256) {... */\n      swap1\n      jump\t// out\n        /* \"AccessRegistry.sol\":1866:2282  function registerLogBatch(... */\n    tag_16:\n        /* \"AccessRegistry.sol\":1985:2000  uint256 batchId */\n      0x00\n        /* \"AccessRegistry.sol\":2003:2013  logBatches */\n      0x01\n        /* \"AccessRegistry.sol\":2003:2020  logBatches.length */\n      dup1\n      sload\n      swap1\n      pop\n        /* \"AccessRegistry.sol\":1985:2020  uint256 batchId = logBatches.length */\n      swap1\n      pop\n        /* \"AccessRegistry.sol\":2033:2043  logBatches */\n      0x01\n        /* \"AccessRegistry.sol\":2063:2196  LogBatch({... */\n      mload(0x40)\n      dup1\n      0x60\n      add\n      0x40\n      mstore\n      dup1\n        /* \"AccessRegistry.sol\":2095:2102  batchId */\n      dup4\n        /* \"AccessRegistry.sol\":2063:2196  LogBatch({... */\n      dup2\n      mstore\n      0x20\n      add\n        /* \"AccessRegistry.sol\":2132:2141  batchHash */\n      dup6\n        /* \"AccessRegistry.sol\":2063:2196  LogBatch({... */\n      dup2\n      mstore\n      0x20\n      add\n        /* \"AccessRegistry.sol\":2171:2180  timestamp */\n      dup5\n        /* \"AccessRegistry.sol\":2063:2196  LogBatch({... */\n      dup2\n      mstore\n      pop\n        /* \"AccessRegistry.sol\":2033:2207  logBatches.push(... */\n      swap1\n      dup1\n      0x01\n      dup2\n      sload\n      add\n      dup1\n      dup3\n      sstore\n      dup1\n      swap2\n      pop\n      pop\n      0x01\n      swap1\n      sub\n      swap1\n      0x00\n      mstore\n      keccak256(0x00, 0x20)\n      swap1\n      0x03\n      mul\n      add\n      0x00\n      swap1\n      swap2\n      swap1\n      swap2\n      swap1\n      swap2\n      pop\n      0x00\n      dup3\n      add\n      mload\n      dup2\n      0x00\n      add\n      sstore\n      0x20\n      dup3\n      add\n      mload\n      dup2\n      0x01\n      add\n      swap1\n      dup2\n      tag_38\n      swap2\n      swap1\n      tag_39\n      jump\t// in\n    tag_38:\n      pop\n      0x40\n      dup3\n      add\n      mload\n      dup2\n      0x02\n      add\n      swap1\n      dup2\n      tag_40\n      swap2\n      swap1\n      tag_39\n      jump\t// in\n    tag_40:\n      pop\n      pop\n      pop\n        /* \"AccessRegistry.sol\":2244:2251  batchId */\n      dup1\n        /* \"AccessRegistry.sol\":2225:2274  LogBatchRegistered(batchId, batchHash, timestamp) */\n      0x7d389bd6a77439844633e3cdcd07741851680f113e970aaf5a6277c6d8fe27f2\n        /* \"AccessRegistry.sol\":2253:2262  batchHash */\n      dup5\n        /* \"AccessRegistry.sol\":2264:2273  timestamp */\n      dup5\n        /* \"AccessRegistry.sol\":2225:2274  LogBatchRegistered(batchId, batchHash, timestamp) */\n      mload(0x40)\n      tag_41\n      swap3\n      swap2\n      swap1\n      tag_42\n      jump\t// in\n    tag_41:\n      mload(0x40)\n      dup1\n      swap2\n      sub\n      swap1\n      log2\n        /* \"AccessRegistry.sol\":1974:2282  {... */\n      pop\n        /* \"AccessRegistry.sol\":1866:2282  function registerLogBatch(... */\n      pop\n      pop\n      jump\t// out\n        /* \"AccessRegistry.sol\":693:1213  function registerAdminAction(... */\n    tag_20:\n        /* \"AccessRegistry.sol\":850:866  uint256 actionId */\n      0x00\n        /* \"AccessRegistry.sol\":869:881  adminActions */\n      dup1\n        /* \"AccessRegistry.sol\":869:888  adminActions.length */\n      dup1\n      sload\n      swap1\n      pop\n        /* \"AccessRegistry.sol\":850:888  uint256 actionId = adminActions.length */\n      swap1\n      pop\n        /* \"AccessRegistry.sol\":901:913  adminActions */\n      0x00\n        /* \"AccessRegistry.sol\":933:1111  AdminAction({... */\n      mload(0x40)\n      dup1\n      0x80\n      add\n      0x40\n      mstore\n      dup1\n        /* \"AccessRegistry.sol\":968:976  actionId */\n      dup4\n        /* \"AccessRegistry.sol\":933:1111  AdminAction({... */\n      dup2\n      mstore\n      0x20\n      add\n        /* \"AccessRegistry.sol\":1007:1017  actionType */\n      dup7\n        /* \"AccessRegistry.sol\":933:1111  AdminAction({... */\n      dup2\n      mstore\n      0x20\n      add\n        /* \"AccessRegistry.sol\":1047:1056  targetUid */\n      dup6\n        /* \"AccessRegistry.sol\":933:1111  AdminAction({... */\n      dup2\n      mstore\n      0x20\n      add\n        /* \"AccessRegistry.sol\":1086:1095  timestamp */\n      dup5\n        /* \"AccessRegistry.sol\":933:1111  AdminAction({... */\n      dup2\n      mstore\n      pop\n        /* \"AccessRegistry.sol\":901:1122  adminActions.push(... */\n      swap1\n      dup1\n      0x01\n      dup2\n      sload\n      add\n      dup1\n      dup3\n      sstore\n      dup1\n      swap2\n      pop\n      pop\n      0x01\n      swap1\n      sub\n      swap1\n      0x00\n      mstore\n      keccak256(0x00, 0x20)\n      swap1\n      0x04\n      mul\n      add\n      0x00\n      swap1\n      swap2\n      swap1\n      swap2\n      swap1\n      swap2\n      pop\n      0x00\n      dup3\n      add\n      mload\n      dup2\n      0x00\n      add\n      sstore\n      0x20\n      dup3\n      add\n      mload\n      dup2\n      0x01\n      add\n      swap1\n      dup2\n      tag_45\n      swap2\n      swap1\n      tag_39\n      jump\t// in\n    tag_45:\n      pop\n      0x40\n      dup3\n      add\n      mload\n      dup2\n      0x02\n      add\n      swap1\n      dup2\n      tag_46\n      swap2\n      swap1\n      tag_39\n      jump\t// in\n    tag_46:\n      pop\n      0x60\n      dup3\n      add\n      mload\n      dup2\n      0x03\n      add\n      swap1\n      dup2\n      tag_47\n      swap2\n      swap1\n      tag_39\n      jump\t// in\n    tag_47:\n      pop\n      pop\n      pop\n        /* \"AccessRegistry.sol\":1162:1170  actionId */\n      dup1\n        /* \"AccessRegistry.sol\":1140:1205  AdminActionRegistered(actionId, actionType, targetUid, timestamp) */\n      0xd2a6e8d11d03db3ba16f4b221906f86fe27a206183788136005c1abfef45f1b6\n        /* \"AccessRegistry.sol\":1172:1182  actionType */\n      dup6\n        /* \"AccessRegistry.sol\":1184:1193  targetUid */\n      dup6\n        /* \"AccessRegistry.sol\":1195:1204  timestamp */\n      dup6\n        /* \"AccessRegistry.sol\":1140:1205  AdminActionRegistered(actionId, actionType, targetUid, timestamp) */\n      mload(0x40)\n      tag_48\n      swap4\n      swap3\n      swap2\n      swap1\n      tag_49\n      jump\t// in\n    tag_48:\n      mload(0x40)\n      dup1\n      swap2\n      sub\n      swap1\n      log2\n        /* \"AccessRegistry.sol\":839:1213  {... */\n      pop\n        /* \"AccessRegistry.sol\":693:1213  function registerAdminAction(... */\n      pop\n      pop\n      pop\n      jump\t// out\n        /* \"AccessRegistry.sol\":1751:1858  function getAdminActionsCount() public view returns (uint256) {... */\n    tag_22:\n        /* \"AccessRegistry.sol\":1804:1811  uint256 */\n      0x00\n        /* \"AccessRegistry.sol\":1831:1843  adminActions */\n      dup1\n        /* \"AccessRegistry.sol\":1831:1850  adminActions.length */\n      dup1\n      sload\n      swap1\n      pop\n        /* \"AccessRegistry.sol\":1824:1850  return adminActions.length */\n      swap1\n      pop\n        /* \"AccessRegistry.sol\":1751:1858  function getAdminActionsCount() public view returns (uint256) {... */\n      swap1\n      jump\t// out\n        /* \"AccessRegistry.sol\":1221:1743  function getAdminAction(uint256 index)... */\n    tag_27:\n        /* \"AccessRegistry.sol\":1322:1332  uint256 id */\n      0x00\n        /* \"AccessRegistry.sol\":1347:1371  string memory actionType */\n      0x60\n        /* \"AccessRegistry.sol\":1386:1409  string memory targetUid */\n      dup1\n        /* \"AccessRegistry.sol\":1424:1447  string memory timestamp */\n      0x60\n        /* \"AccessRegistry.sol\":1491:1503  adminActions */\n      0x00\n        /* \"AccessRegistry.sol\":1491:1510  adminActions.length */\n      dup1\n      sload\n      swap1\n      pop\n        /* \"AccessRegistry.sol\":1483:1488  index */\n      dup6\n        /* \"AccessRegistry.sol\":1483:1510  index < adminActions.length */\n      lt\n        /* \"AccessRegistry.sol\":1475:1528  require(index < adminActions.length, \"Invalid index\") */\n      tag_52\n      jumpi\n      mload(0x40)\n      0x08c379a000000000000000000000000000000000000000000000000000000000\n      dup2\n      mstore\n      0x04\n      add\n      tag_53\n      swap1\n      tag_54\n      jump\t// in\n    tag_53:\n      mload(0x40)\n      dup1\n      swap2\n      sub\n      swap1\n      revert\n    tag_52:\n        /* \"AccessRegistry.sol\":1541:1566  AdminAction memory action */\n      0x00\n        /* \"AccessRegistry.sol\":1569:1581  adminActions */\n      dup1\n        /* \"AccessRegistry.sol\":1582:1587  index */\n      dup7\n        /* \"AccessRegistry.sol\":1569:1588  adminActions[index] */\n      dup2\n      sload\n      dup2\n      lt\n      tag_55\n      jumpi\n      tag_56\n      tag_57\n      jump\t// in\n    tag_56:\n    tag_55:\n      swap1\n      0x00\n      mstore\n      keccak256(0x00, 0x20)\n      swap1\n      0x04\n      mul\n      add\n        /* \"AccessRegistry.sol\":1541:1588  AdminAction memory action = adminActions[index] */\n      mload(0x40)\n      dup1\n      0x80\n      add\n      0x40\n      mstore\n      swap1\n      dup2\n      0x00\n      dup3\n      add\n      sload\n      dup2\n      mstore\n      0x20\n      add\n      0x01\n      dup3\n      add\n      dup1\n      sload\n      tag_59\n      swap1\n      tag_60\n      jump\t// in\n    tag_59:\n      dup1\n      0x1f\n      add\n      0x20\n      dup1\n      swap2\n      div\n      mul\n      0x20\n      add\n      mload(0x40)\n      swap1\n      dup2\n      add\n      0x40\n      mstore\n      dup1\n      swap3\n      swap2\n      swap1\n      dup2\n      dup2\n      mstore\n      0x20\n      add\n      dup3\n      dup1\n      sload\n      tag_61\n      swap1\n      tag_60\n      jump\t// in\n    tag_61:\n      dup1\n      iszero\n      tag_62\n      jumpi\n      dup1\n      0x1f\n      lt\n      tag_63\n      jumpi\n      0x0100\n      dup1\n      dup4\n      sload\n      div\n      mul\n      dup4\n      mstore\n      swap2\n      0x20\n      add\n      swap2\n      jump(tag_62)\n    tag_63:\n      dup3\n      add\n      swap2\n      swap1\n      0x00\n      mstore\n      keccak256(0x00, 0x20)\n      swap1\n    tag_64:\n      dup2\n      sload\n      dup2\n      mstore\n      swap1\n      0x01\n      add\n      swap1\n      0x20\n      add\n      dup1\n      dup4\n      gt\n      tag_64\n      jumpi\n      dup3\n      swap1\n      sub\n      0x1f\n      and\n      dup3\n      add\n      swap2\n    tag_62:\n      pop\n      pop\n      pop\n      pop\n      pop\n      dup2\n      mstore\n      0x20\n      add\n      0x02\n      dup3\n      add\n      dup1\n      sload\n      tag_65\n      swap1\n      tag_60\n      jump\t// in\n    tag_65:\n      dup1\n      0x1f\n      add\n      0x20\n      dup1\n      swap2\n      div\n      mul\n      0x20\n      add\n      mload(0x40)\n      swap1\n      dup2\n      add\n      0x40\n      mstore\n      dup1\n      swap3\n      swap2\n      swap1\n      dup2\n      dup2\n      mstore\n      0x20\n      add\n      dup3\n      dup1\n      sload\n      tag_66\n      swap1\n      tag_60\n      jump\t// in\n    tag_66:\n      dup1\n      iszero\n      tag_67\n      jumpi\n      dup1\n      0x1f\n      lt\n      tag_68\n      jumpi\n      0x0100\n      dup1\n      dup4\n      sload\n      div\n      mul\n      dup4\n      mstore\n      swap2\n      0x20\n      add\n      swap2\n      jump(tag_67)\n    tag_68:\n      dup3\n      add\n      swap2\n      swap1\n      0x00\n      mstore\n      keccak256(0x00, 0x20)\n      swap1\n    tag_69:\n      dup2\n      sload\n      dup2\n      mstore\n      swap1\n      0x01\n      add\n      swap1\n      0x20\n      add\n      dup1\n      dup4\n      gt\n      tag_69\n      jumpi\n      dup3\n      swap1\n      sub\n      0x1f\n      and\n      dup3\n      add\n      swap2\n    tag_67:\n      pop\n      pop\n      pop\n      pop\n      pop\n      dup2\n      mstore\n      0x20\n      add\n      0x03\n      dup3\n      add\n      dup1\n      sload\n      tag_70\n      swap1\n      tag_60\n      jump\t// in\n    tag_70:\n      dup1\n      0x1f\n      add\n      0x20\n      dup1\n      swap2\n      div\n      mul\n      0x20\n      add\n      mload(0x40)\n      swap1\n      dup2\n      add\n      0x40\n      mstore\n      dup1\n      swap3\n      swap2\n      swap1\n      dup2\n      dup2\n      mstore\n      0x20\n      add\n      dup3\n      dup1\n      sload\n      tag_71\n      swap1\n      tag_60\n      jump\t// in\n    tag_71:\n      dup1\n      iszero\n      tag_72\n      jumpi\n      dup1\n      0x1f\n      lt\n      tag_73\n      jumpi\n      0x0100\n      dup1\n      dup4\n      sload\n      div\n      mul\n      dup4\n      mstore\n      swap2\n      0x20\n      add\n      swap2\n      jump(tag_72)\n    tag_73:\n      dup3\n      add\n      swap2\n      swap1\n      0x00\n      mstore\n      keccak256(0x00, 0x20)\n      swap1\n    tag_74:\n      dup2\n      sload\n      dup2\n      mstore\n      swap1\n      0x01\n      add\n      swap1\n      0x20\n      add\n      dup1\n      dup4\n      gt\n      tag_74\n      jumpi\n      dup3\n      swap1\n      sub\n      0x1f\n      and\n      dup3\n      add\n      swap2\n    tag_72:\n      pop\n      pop\n      pop\n      pop\n      pop\n      dup2\n      mstore\n      pop\n      pop\n      swap1\n      pop\n        /* \"AccessRegistry.sol\":1621:1627  action */\n      dup1\n        /* \"AccessRegistry.sol\":1621:1630  action.id */\n      0x00\n      add\n      mload\n        /* \"AccessRegistry.sol\":1645:1651  action */\n      dup2\n        /* \"AccessRegistry.sol\":1645:1662  action.actionType */\n      0x20\n      add\n      mload\n        /* \"AccessRegistry.sol\":1677:1683  action */\n      dup3\n        /* \"AccessRegistry.sol\":1677:1693  action.targetUid */\n      0x40\n      add\n      mload\n        /* \"AccessRegistry.sol\":1708:1714  action */\n      dup4\n        /* \"AccessRegistry.sol\":1708:1724  action.timestamp */\n      0x60\n      add\n      mload\n        /* \"AccessRegistry.sol\":1599:1735  return (... */\n      swap5\n      pop\n      swap5\n      pop\n      swap5\n      pop\n      swap5\n      pop\n      pop\n        /* \"AccessRegistry.sol\":1221:1743  function getAdminAction(uint256 index)... */\n      swap2\n      swap4\n      pop\n      swap2\n      swap4\n      jump\t// out\n        /* \"AccessRegistry.sol\":2290:2727  function getLogBatch(uint256 index)... */\n    tag_32:\n        /* \"AccessRegistry.sol\":2388:2398  uint256 id */\n      0x00\n        /* \"AccessRegistry.sol\":2413:2436  string memory batchHash */\n      0x60\n        /* \"AccessRegistry.sol\":2451:2474  string memory timestamp */\n      dup1\n        /* \"AccessRegistry.sol\":2518:2528  logBatches */\n      0x01\n        /* \"AccessRegistry.sol\":2518:2535  logBatches.length */\n      dup1\n      sload\n      swap1\n      pop\n        /* \"AccessRegistry.sol\":2510:2515  index */\n      dup5\n        /* \"AccessRegistry.sol\":2510:2535  index < logBatches.length */\n      lt\n        /* \"AccessRegistry.sol\":2502:2553  require(index < logBatches.length, \"Invalid index\") */\n      tag_76\n      jumpi\n      mload(0x40)\n      0x08c379a000000000000000000000000000000000000000000000000000000000\n      dup2\n      mstore\n      0x04\n      add\n      tag_77\n      swap1\n      tag_54\n      jump\t// in\n    tag_77:\n      mload(0x40)\n      dup1\n      swap2\n      sub\n      swap1\n      revert\n    tag_76:\n        /* \"AccessRegistry.sol\":2566:2587  LogBatch memory batch */\n      0x00\n        /* \"AccessRegistry.sol\":2590:2600  logBatches */\n      0x01\n        /* \"AccessRegistry.sol\":2601:2606  index */\n      dup6\n        /* \"AccessRegistry.sol\":2590:2607  logBatches[index] */\n      dup2\n      sload\n      dup2\n      lt\n      tag_78\n      jumpi\n      tag_79\n      tag_57\n      jump\t// in\n    tag_79:\n    tag_78:\n      swap1\n      0x00\n      mstore\n      keccak256(0x00, 0x20)\n      swap1\n      0x03\n      mul\n      add\n        /* \"AccessRegistry.sol\":2566:2607  LogBatch memory batch = logBatches[index] */\n      mload(0x40)\n      dup1\n      0x60\n      add\n      0x40\n      mstore\n      swap1\n      dup2\n      0x00\n      dup3\n      add\n      sload\n      dup2\n      mstore\n      0x20\n      add\n      0x01\n      dup3\n      add\n      dup1\n      sload\n      tag_81\n      swap1\n      tag_60\n      jump\t// in\n    tag_81:\n      dup1\n      0x1f\n      add\n      0x20\n      dup1\n      swap2\n      div\n      mul\n      0x20\n      add\n      mload(0x40)\n      swap1\n      dup2\n      add\n      0x40\n      mstore\n      dup1\n      swap3\n      swap2\n      swap1\n      dup2\n      dup2\n      mstore\n      0x20\n      add\n      dup3\n      dup1\n      sload\n      tag_82\n      swap1\n      tag_60\n      jump\t// in\n    tag_82:\n      dup1\n      iszero\n      tag_83\n      jumpi\n      dup1\n      0x1f\n      lt\n      tag_84\n      jumpi\n      0x0100\n      dup1\n      dup4\n      sload\n      div\n      mul\n      dup4\n      mstore\n      swap2\n      0x20\n      add\n      swap2\n      jump(tag_83)\n    tag_84:\n      dup3\n      add\n      swap2\n      swap1\n      0x00\n      mstore\n      keccak256(0x00, 0x20)\n      swap1\n    tag_85:\n      dup2\n      sload\n      dup2\n      mstore\n      swap1\n      0x01\n      add\n      swap1\n      0x20\n      add\n      dup1\n      dup4\n      gt\n      tag_85\n      jumpi\n      dup3\n      swap1\n      sub\n      0x1f\n      and\n      dup3\n      add\n      swap2\n    tag_83:\n      pop\n      pop\n      pop\n      pop\n      pop\n      dup2\n      mstore\n      0x20\n      add\n      0x02\n      dup3\n      add\n      dup1\n      sload\n      tag_86\n      swap1\n      tag_60\n      jump\t// in\n    tag_86:\n      dup1\n      0x1f\n      add\n      0x20\n      dup1\n      swap2\n      div\n      mul\n      0x20\n      add\n      mload(0x40)\n      swap1\n      dup2\n      add\n      0x40\n      mstore\n      dup1\n      swap3\n      swap2\n      swap1\n      dup2\n      dup2\n      mstore\n      0x20\n      add\n      dup3\n      dup1\n      sload\n      tag_87\n      swap1\n      tag_60\n      jump\t// in\n    tag_87:\n      dup1\n      iszero\n      tag_88\n      jumpi\n      dup1\n      0x1f\n      lt\n      tag_89\n      jumpi\n      0x0100\n      dup1\n      dup4\n      sload\n      div\n      mul\n      dup4\n      mstore\n      swap2\n      0x20\n      add\n      swap2\n      jump(tag_88)\n    tag_89:\n      dup3\n      add\n      swap2\n      swap1\n      0x00\n      mstore\n      keccak256(0x00, 0x20)\n      swap1\n    tag_90:\n      dup2\n      sload\n      dup2\n      mstore\n      swap1\n      0x01\n      add\n      swap1\n      0x20\n      add\n      dup1\n      dup4\n      gt\n      tag_90\n      jumpi\n      dup3\n      swap1\n      sub\n      0x1f\n      and\n      dup3\n      add\n      swap2\n    tag_88:\n      pop\n      pop\n      pop\n      pop\n      pop\n      dup2\n      mstore\n      pop\n      pop\n      swap1\n      pop\n        /* \"AccessRegistry.sol\":2640:2645  batch */\n      dup1\n        /* \"AccessRegistry.sol\":2640:2648  batch.id */\n      0x00\n      add\n      mload\n        /* \"AccessRegistry.sol\":2663:2668  batch */\n      dup2\n        /* \"AccessRegistry.sol\":2663:2678  batch.batchHash */\n      0x20\n      add\n      mload\n        /* \"AccessRegistry.sol\":2693:2698  batch */\n      dup3\n        /* \"AccessRegistry.sol\":2693:2708  batch.timestamp */\n      0x40\n      add\n      mload\n        /* \"AccessRegistry.sol\":2618:2719  return (... */\n      swap4\n      pop\n      swap4\n      pop\n      swap4\n      pop\n      pop\n        /* \"AccessRegistry.sol\":2290:2727  function getLogBatch(uint256 index)... */\n      swap2\n      swap4\n      swap1\n      swap3\n      pop\n      jump\t// out\n        /* \"#utility.yul\":7:84   */\n    tag_91:\n        /* \"#utility.yul\":44:51   */\n      0x00\n        /* \"#utility.yul\":73:78   */\n      dup2\n        /* \"#utility.yul\":62:78   */\n      swap1\n      pop\n        /* \"#utility.yul\":7:84   */\n      swap2\n      swap1\n      pop\n      jump\t// out\n        /* \"#utility.yul\":90:208   */\n    tag_92:\n        /* \"#utility.yul\":177:201   */\n      tag_133\n        /* \"#utility.yul\":195:200   */\n      dup2\n        /* \"#utility.yul\":177:201   */\n      tag_91\n      jump\t// in\n    tag_133:\n        /* \"#utility.yul\":172:175   */\n      dup3\n        /* \"#utility.yul\":165:202   */\n      mstore\n        /* \"#utility.yul\":90:208   */\n      pop\n      pop\n      jump\t// out\n        /* \"#utility.yul\":214:436   */\n    tag_12:\n        /* \"#utility.yul\":307:311   */\n      0x00\n        /* \"#utility.yul\":345:347   */\n      0x20\n        /* \"#utility.yul\":334:343   */\n      dup3\n        /* \"#utility.yul\":330:348   */\n      add\n        /* \"#utility.yul\":322:348   */\n      swap1\n      pop\n        /* \"#utility.yul\":358:429   */\n      tag_135\n        /* \"#utility.yul\":426:427   */\n      0x00\n        /* \"#utility.yul\":415:424   */\n      dup4\n        /* \"#utility.yul\":411:428   */\n      add\n        /* \"#utility.yul\":402:408   */\n      dup5\n        /* \"#utility.yul\":358:429   */\n      tag_92\n      jump\t// in\n    tag_135:\n        /* \"#utility.yul\":214:436   */\n      swap3\n      swap2\n      pop\n      pop\n      jump\t// out\n        /* \"#utility.yul\":442:517   */\n    tag_93:\n        /* \"#utility.yul\":475:481   */\n      0x00\n        /* \"#utility.yul\":508:510   */\n      0x40\n        /* \"#utility.yul\":502:511   */\n      mload\n        /* \"#utility.yul\":492:511   */\n      swap1\n      pop\n        /* \"#utility.yul\":442:517   */\n      swap1\n      jump\t// out\n        /* \"#utility.yul\":523:640   */\n    tag_94:\n        /* \"#utility.yul\":632:633   */\n      0x00\n        /* \"#utility.yul\":629:630   */\n      dup1\n        /* \"#utility.yul\":622:634   */\n      revert\n        /* \"#utility.yul\":646:763   */\n    tag_95:\n        /* \"#utility.yul\":755:756   */\n      0x00\n        /* \"#utility.yul\":752:753   */\n      dup1\n        /* \"#utility.yul\":745:757   */\n      revert\n        /* \"#utility.yul\":769:886   */\n    tag_96:\n        /* \"#utility.yul\":878:879   */\n      0x00\n        /* \"#utility.yul\":875:876   */\n      dup1\n        /* \"#utility.yul\":868:880   */\n      revert\n        /* \"#utility.yul\":892:1009   */\n    tag_97:\n        /* \"#utility.yul\":1001:1002   */\n      0x00\n        /* \"#utility.yul\":998:999   */\n      dup1\n        /* \"#utility.yul\":991:1003   */\n      revert\n        /* \"#utility.yul\":1015:1117   */\n    tag_98:\n        /* \"#utility.yul\":1056:1062   */\n      0x00\n        /* \"#utility.yul\":1107:1109   */\n      0x1f\n        /* \"#utility.yul\":1103:1110   */\n      not\n        /* \"#utility.yul\":1098:1100   */\n      0x1f\n        /* \"#utility.yul\":1091:1096   */\n      dup4\n        /* \"#utility.yul\":1087:1101   */\n      add\n        /* \"#utility.yul\":1083:1111   */\n      and\n        /* \"#utility.yul\":1073:1111   */\n      swap1\n      pop\n        /* \"#utility.yul\":1015:1117   */\n      swap2\n      swap1\n      pop\n      jump\t// out\n        /* \"#utility.yul\":1123:1303   */\n    tag_99:\n        /* \"#utility.yul\":1171:1248   */\n      0x4e487b7100000000000000000000000000000000000000000000000000000000\n        /* \"#utility.yul\":1168:1169   */\n      0x00\n        /* \"#utility.yul\":1161:1249   */\n      mstore\n        /* \"#utility.yul\":1268:1272   */\n      0x41\n        /* \"#utility.yul\":1265:1266   */\n      0x04\n        /* \"#utility.yul\":1258:1273   */\n      mstore\n        /* \"#utility.yul\":1292:1296   */\n      0x24\n        /* \"#utility.yul\":1289:1290   */\n      0x00\n        /* \"#utility.yul\":1282:1297   */\n      revert\n        /* \"#utility.yul\":1309:1590   */\n    tag_100:\n        /* \"#utility.yul\":1392:1419   */\n      tag_144\n        /* \"#utility.yul\":1414:1418   */\n      dup3\n        /* \"#utility.yul\":1392:1419   */\n      tag_98\n      jump\t// in\n    tag_144:\n        /* \"#utility.yul\":1384:1390   */\n      dup2\n        /* \"#utility.yul\":1380:1420   */\n      add\n        /* \"#utility.yul\":1522:1528   */\n      dup2\n        /* \"#utility.yul\":1510:1520   */\n      dup2\n        /* \"#utility.yul\":1507:1529   */\n      lt\n        /* \"#utility.yul\":1486:1504   */\n      0xffffffffffffffff\n        /* \"#utility.yul\":1474:1484   */\n      dup3\n        /* \"#utility.yul\":1471:1505   */\n      gt\n        /* \"#utility.yul\":1468:1530   */\n      or\n        /* \"#utility.yul\":1465:1553   */\n      iszero\n      tag_145\n      jumpi\n        /* \"#utility.yul\":1533:1551   */\n      tag_146\n      tag_99\n      jump\t// in\n    tag_146:\n        /* \"#utility.yul\":1465:1553   */\n    tag_145:\n        /* \"#utility.yul\":1573:1583   */\n      dup1\n        /* \"#utility.yul\":1569:1571   */\n      0x40\n        /* \"#utility.yul\":1562:1584   */\n      mstore\n        /* \"#utility.yul\":1352:1590   */\n      pop\n        /* \"#utility.yul\":1309:1590   */\n      pop\n      pop\n      jump\t// out\n        /* \"#utility.yul\":1596:1725   */\n    tag_101:\n        /* \"#utility.yul\":1630:1636   */\n      0x00\n        /* \"#utility.yul\":1657:1677   */\n      tag_148\n      tag_93\n      jump\t// in\n    tag_148:\n        /* \"#utility.yul\":1647:1677   */\n      swap1\n      pop\n        /* \"#utility.yul\":1686:1719   */\n      tag_149\n        /* \"#utility.yul\":1714:1718   */\n      dup3\n        /* \"#utility.yul\":1706:1712   */\n      dup3\n        /* \"#utility.yul\":1686:1719   */\n      tag_100\n      jump\t// in\n    tag_149:\n        /* \"#utility.yul\":1596:1725   */\n      swap2\n      swap1\n      pop\n      jump\t// out\n        /* \"#utility.yul\":1731:2039   */\n    tag_102:\n        /* \"#utility.yul\":1793:1797   */\n      0x00\n        /* \"#utility.yul\":1883:1901   */\n      0xffffffffffffffff\n        /* \"#utility.yul\":1875:1881   */\n      dup3\n        /* \"#utility.yul\":1872:1902   */\n      gt\n        /* \"#utility.yul\":1869:1925   */\n      iszero\n      tag_151\n      jumpi\n        /* \"#utility.yul\":1905:1923   */\n      tag_152\n      tag_99\n      jump\t// in\n    tag_152:\n        /* \"#utility.yul\":1869:1925   */\n    tag_151:\n        /* \"#utility.yul\":1943:1972   */\n      tag_153\n        /* \"#utility.yul\":1965:1971   */\n      dup3\n        /* \"#utility.yul\":1943:1972   */\n      tag_98\n      jump\t// in\n    tag_153:\n        /* \"#utility.yul\":1935:1972   */\n      swap1\n      pop\n        /* \"#utility.yul\":2027:2031   */\n      0x20\n        /* \"#utility.yul\":2021:2025   */\n      dup2\n        /* \"#utility.yul\":2017:2032   */\n      add\n        /* \"#utility.yul\":2009:2032   */\n      swap1\n      pop\n        /* \"#utility.yul\":1731:2039   */\n      swap2\n      swap1\n      pop\n      jump\t// out\n        /* \"#utility.yul\":2045:2193   */\n    tag_103:\n        /* \"#utility.yul\":2143:2149   */\n      dup3\n        /* \"#utility.yul\":2138:2141   */\n      dup2\n        /* \"#utility.yul\":2133:2136   */\n      dup4\n        /* \"#utility.yul\":2120:2150   */\n      calldatacopy\n        /* \"#utility.yul\":2184:2185   */\n      0x00\n        /* \"#utility.yul\":2175:2181   */\n      dup4\n        /* \"#utility.yul\":2170:2173   */\n      dup4\n        /* \"#utility.yul\":2166:2182   */\n      add\n        /* \"#utility.yul\":2159:2186   */\n      mstore\n        /* \"#utility.yul\":2045:2193   */\n      pop\n      pop\n      pop\n      jump\t// out\n        /* \"#utility.yul\":2199:2624   */\n    tag_104:\n        /* \"#utility.yul\":2277:2282   */\n      0x00\n        /* \"#utility.yul\":2302:2368   */\n      tag_156\n        /* \"#utility.yul\":2318:2367   */\n      tag_157\n        /* \"#utility.yul\":2360:2366   */\n      dup5\n        /* \"#utility.yul\":2318:2367   */\n      tag_102\n      jump\t// in\n    tag_157:\n        /* \"#utility.yul\":2302:2368   */\n      tag_101\n      jump\t// in\n    tag_156:\n        /* \"#utility.yul\":2293:2368   */\n      swap1\n      pop\n        /* \"#utility.yul\":2391:2397   */\n      dup3\n        /* \"#utility.yul\":2384:2389   */\n      dup2\n        /* \"#utility.yul\":2377:2398   */\n      mstore\n        /* \"#utility.yul\":2429:2433   */\n      0x20\n        /* \"#utility.yul\":2422:2427   */\n      dup2\n        /* \"#utility.yul\":2418:2434   */\n      add\n        /* \"#utility.yul\":2467:2470   */\n      dup5\n        /* \"#utility.yul\":2458:2464   */\n      dup5\n        /* \"#utility.yul\":2453:2456   */\n      dup5\n        /* \"#utility.yul\":2449:2465   */\n      add\n        /* \"#utility.yul\":2446:2471   */\n      gt\n        /* \"#utility.yul\":2443:2555   */\n      iszero\n      tag_158\n      jumpi\n        /* \"#utility.yul\":2474:2553   */\n      tag_159\n      tag_97\n      jump\t// in\n    tag_159:\n        /* \"#utility.yul\":2443:2555   */\n    tag_158:\n        /* \"#utility.yul\":2564:2618   */\n      tag_160\n        /* \"#utility.yul\":2611:2617   */\n      dup5\n        /* \"#utility.yul\":2606:2609   */\n      dup3\n        /* \"#utility.yul\":2601:2604   */\n      dup6\n        /* \"#utility.yul\":2564:2618   */\n      tag_103\n      jump\t// in\n    tag_160:\n        /* \"#utility.yul\":2283:2624   */\n      pop\n        /* \"#utility.yul\":2199:2624   */\n      swap4\n      swap3\n      pop\n      pop\n      pop\n      jump\t// out\n        /* \"#utility.yul\":2644:2984   */\n    tag_105:\n        /* \"#utility.yul\":2700:2705   */\n      0x00\n        /* \"#utility.yul\":2749:2752   */\n      dup3\n        /* \"#utility.yul\":2742:2746   */\n      0x1f\n        /* \"#utility.yul\":2734:2740   */\n      dup4\n        /* \"#utility.yul\":2730:2747   */\n      add\n        /* \"#utility.yul\":2726:2753   */\n      slt\n        /* \"#utility.yul\":2716:2838   */\n      tag_162\n      jumpi\n        /* \"#utility.yul\":2757:2836   */\n      tag_163\n      tag_96\n      jump\t// in\n    tag_163:\n        /* \"#utility.yul\":2716:2838   */\n    tag_162:\n        /* \"#utility.yul\":2874:2880   */\n      dup2\n        /* \"#utility.yul\":2861:2881   */\n      calldataload\n        /* \"#utility.yul\":2899:2978   */\n      tag_164\n        /* \"#utility.yul\":2974:2977   */\n      dup5\n        /* \"#utility.yul\":2966:2972   */\n      dup3\n        /* \"#utility.yul\":2959:2963   */\n      0x20\n        /* \"#utility.yul\":2951:2957   */\n      dup7\n        /* \"#utility.yul\":2947:2964   */\n      add\n        /* \"#utility.yul\":2899:2978   */\n      tag_104\n      jump\t// in\n    tag_164:\n        /* \"#utility.yul\":2890:2978   */\n      swap2\n      pop\n        /* \"#utility.yul\":2706:2984   */\n      pop\n        /* \"#utility.yul\":2644:2984   */\n      swap3\n      swap2\n      pop\n      pop\n      jump\t// out\n        /* \"#utility.yul\":2990:3824   */\n    tag_15:\n        /* \"#utility.yul\":3078:3084   */\n      0x00\n        /* \"#utility.yul\":3086:3092   */\n      dup1\n        /* \"#utility.yul\":3135:3137   */\n      0x40\n        /* \"#utility.yul\":3123:3132   */\n      dup4\n        /* \"#utility.yul\":3114:3121   */\n      dup6\n        /* \"#utility.yul\":3110:3133   */\n      sub\n        /* \"#utility.yul\":3106:3138   */\n      slt\n        /* \"#utility.yul\":3103:3222   */\n      iszero\n      tag_166\n      jumpi\n        /* \"#utility.yul\":3141:3220   */\n      tag_167\n      tag_94\n      jump\t// in\n    tag_167:\n        /* \"#utility.yul\":3103:3222   */\n    tag_166:\n        /* \"#utility.yul\":3289:3290   */\n      0x00\n        /* \"#utility.yul\":3278:3287   */\n      dup4\n        /* \"#utility.yul\":3274:3291   */\n      add\n        /* \"#utility.yul\":3261:3292   */\n      calldataload\n        /* \"#utility.yul\":3319:3337   */\n      0xffffffffffffffff\n        /* \"#utility.yul\":3311:3317   */\n      dup2\n        /* \"#utility.yul\":3308:3338   */\n      gt\n        /* \"#utility.yul\":3305:3422   */\n      iszero\n      tag_168\n      jumpi\n        /* \"#utility.yul\":3341:3420   */\n      tag_169\n      tag_95\n      jump\t// in\n    tag_169:\n        /* \"#utility.yul\":3305:3422   */\n    tag_168:\n        /* \"#utility.yul\":3446:3509   */\n      tag_170\n        /* \"#utility.yul\":3501:3508   */\n      dup6\n        /* \"#utility.yul\":3492:3498   */\n      dup3\n        /* \"#utility.yul\":3481:3490   */\n      dup7\n        /* \"#utility.yul\":3477:3499   */\n      add\n        /* \"#utility.yul\":3446:3509   */\n      tag_105\n      jump\t// in\n    tag_170:\n        /* \"#utility.yul\":3436:3509   */\n      swap3\n      pop\n        /* \"#utility.yul\":3232:3519   */\n      pop\n        /* \"#utility.yul\":3586:3588   */\n      0x20\n        /* \"#utility.yul\":3575:3584   */\n      dup4\n        /* \"#utility.yul\":3571:3589   */\n      add\n        /* \"#utility.yul\":3558:3590   */\n      calldataload\n        /* \"#utility.yul\":3617:3635   */\n      0xffffffffffffffff\n        /* \"#utility.yul\":3609:3615   */\n      dup2\n        /* \"#utility.yul\":3606:3636   */\n      gt\n        /* \"#utility.yul\":3603:3720   */\n      iszero\n      tag_171\n      jumpi\n        /* \"#utility.yul\":3639:3718   */\n      tag_172\n      tag_95\n      jump\t// in\n    tag_172:\n        /* \"#utility.yul\":3603:3720   */\n    tag_171:\n        /* \"#utility.yul\":3744:3807   */\n      tag_173\n        /* \"#utility.yul\":3799:3806   */\n      dup6\n        /* \"#utility.yul\":3790:3796   */\n      dup3\n        /* \"#utility.yul\":3779:3788   */\n      dup7\n        /* \"#utility.yul\":3775:3797   */\n      add\n        /* \"#utility.yul\":3744:3807   */\n      tag_105\n      jump\t// in\n    tag_173:\n        /* \"#utility.yul\":3734:3807   */\n      swap2\n      pop\n        /* \"#utility.yul\":3529:3817   */\n      pop\n        /* \"#utility.yul\":2990:3824   */\n      swap3\n      pop\n      swap3\n      swap1\n      pop\n      jump\t// out\n        /* \"#utility.yul\":3830:4989   */\n    tag_19:\n        /* \"#utility.yul\":3937:3943   */\n      0x00\n        /* \"#utility.yul\":3945:3951   */\n      dup1\n        /* \"#utility.yul\":3953:3959   */\n      0x00\n        /* \"#utility.yul\":4002:4004   */\n      0x60\n        /* \"#utility.yul\":3990:3999   */\n      dup5\n        /* \"#utility.yul\":3981:3988   */\n      dup7\n        /* \"#utility.yul\":3977:4000   */\n      sub\n        /* \"#utility.yul\":3973:4005   */\n      slt\n        /* \"#utility.yul\":3970:4089   */\n      iszero\n      tag_175\n      jumpi\n        /* \"#utility.yul\":4008:4087   */\n      tag_176\n      tag_94\n      jump\t// in\n    tag_176:\n        /* \"#utility.yul\":3970:4089   */\n    tag_175:\n        /* \"#utility.yul\":4156:4157   */\n      0x00\n        /* \"#utility.yul\":4145:4154   */\n      dup5\n        /* \"#utility.yul\":4141:4158   */\n      add\n        /* \"#utility.yul\":4128:4159   */\n      calldataload\n        /* \"#utility.yul\":4186:4204   */\n      0xffffffffffffffff\n        /* \"#utility.yul\":4178:4184   */\n      dup2\n        /* \"#utility.yul\":4175:4205   */\n      gt\n        /* \"#utility.yul\":4172:4289   */\n      iszero\n      tag_177\n      jumpi\n        /* \"#utility.yul\":4208:4287   */\n      tag_178\n      tag_95\n      jump\t// in\n    tag_178:\n        /* \"#utility.yul\":4172:4289   */\n    tag_177:\n        /* \"#utility.yul\":4313:4376   */\n      tag_179\n        /* \"#utility.yul\":4368:4375   */\n      dup7\n        /* \"#utility.yul\":4359:4365   */\n      dup3\n        /* \"#utility.yul\":4348:4357   */\n      dup8\n        /* \"#utility.yul\":4344:4366   */\n      add\n        /* \"#utility.yul\":4313:4376   */\n      tag_105\n      jump\t// in\n    tag_179:\n        /* \"#utility.yul\":4303:4376   */\n      swap4\n      pop\n        /* \"#utility.yul\":4099:4386   */\n      pop\n        /* \"#utility.yul\":4453:4455   */\n      0x20\n        /* \"#utility.yul\":4442:4451   */\n      dup5\n        /* \"#utility.yul\":4438:4456   */\n      add\n        /* \"#utility.yul\":4425:4457   */\n      calldataload\n        /* \"#utility.yul\":4484:4502   */\n      0xffffffffffffffff\n        /* \"#utility.yul\":4476:4482   */\n      dup2\n        /* \"#utility.yul\":4473:4503   */\n      gt\n        /* \"#utility.yul\":4470:4587   */\n      iszero\n      tag_180\n      jumpi\n        /* \"#utility.yul\":4506:4585   */\n      tag_181\n      tag_95\n      jump\t// in\n    tag_181:\n        /* \"#utility.yul\":4470:4587   */\n    tag_180:\n        /* \"#utility.yul\":4611:4674   */\n      tag_182\n        /* \"#utility.yul\":4666:4673   */\n      dup7\n        /* \"#utility.yul\":4657:4663   */\n      dup3\n        /* \"#utility.yul\":4646:4655   */\n      dup8\n        /* \"#utility.yul\":4642:4664   */\n      add\n        /* \"#utility.yul\":4611:4674   */\n      tag_105\n      jump\t// in\n    tag_182:\n        /* \"#utility.yul\":4601:4674   */\n      swap3\n      pop\n        /* \"#utility.yul\":4396:4684   */\n      pop\n        /* \"#utility.yul\":4751:4753   */\n      0x40\n        /* \"#utility.yul\":4740:4749   */\n      dup5\n        /* \"#utility.yul\":4736:4754   */\n      add\n        /* \"#utility.yul\":4723:4755   */\n      calldataload\n        /* \"#utility.yul\":4782:4800   */\n      0xffffffffffffffff\n        /* \"#utility.yul\":4774:4780   */\n      dup2\n        /* \"#utility.yul\":4771:4801   */\n      gt\n        /* \"#utility.yul\":4768:4885   */\n      iszero\n      tag_183\n      jumpi\n        /* \"#utility.yul\":4804:4883   */\n      tag_184\n      tag_95\n      jump\t// in\n    tag_184:\n        /* \"#utility.yul\":4768:4885   */\n    tag_183:\n        /* \"#utility.yul\":4909:4972   */\n      tag_185\n        /* \"#utility.yul\":4964:4971   */\n      dup7\n        /* \"#utility.yul\":4955:4961   */\n      dup3\n        /* \"#utility.yul\":4944:4953   */\n      dup8\n        /* \"#utility.yul\":4940:4962   */\n      add\n        /* \"#utility.yul\":4909:4972   */\n      tag_105\n      jump\t// in\n    tag_185:\n        /* \"#utility.yul\":4899:4972   */\n      swap2\n      pop\n        /* \"#utility.yul\":4694:4982   */\n      pop\n        /* \"#utility.yul\":3830:4989   */\n      swap3\n      pop\n      swap3\n      pop\n      swap3\n      jump\t// out\n        /* \"#utility.yul\":4995:5117   */\n    tag_106:\n        /* \"#utility.yul\":5068:5092   */\n      tag_187\n        /* \"#utility.yul\":5086:5091   */\n      dup2\n        /* \"#utility.yul\":5068:5092   */\n      tag_91\n      jump\t// in\n    tag_187:\n        /* \"#utility.yul\":5061:5066   */\n      dup2\n        /* \"#utility.yul\":5058:5093   */\n      eq\n        /* \"#utility.yul\":5048:5111   */\n      tag_188\n      jumpi\n        /* \"#utility.yul\":5107:5108   */\n      0x00\n        /* \"#utility.yul\":5104:5105   */\n      dup1\n        /* \"#utility.yul\":5097:5109   */\n      revert\n        /* \"#utility.yul\":5048:5111   */\n    tag_188:\n        /* \"#utility.yul\":4995:5117   */\n      pop\n      jump\t// out\n        /* \"#utility.yul\":5123:5262   */\n    tag_107:\n        /* \"#utility.yul\":5169:5174   */\n      0x00\n        /* \"#utility.yul\":5207:5213   */\n      dup2\n        /* \"#utility.yul\":5194:5214   */\n      calldataload\n        /* \"#utility.yul\":5185:5214   */\n      swap1\n      pop\n        /* \"#utility.yul\":5223:5256   */\n      tag_190\n        /* \"#utility.yul\":5250:5255   */\n      dup2\n        /* \"#utility.yul\":5223:5256   */\n      tag_106\n      jump\t// in\n    tag_190:\n        /* \"#utility.yul\":5123:5262   */\n      swap3\n      swap2\n      pop\n      pop\n      jump\t// out\n        /* \"#utility.yul\":5268:5597   */\n    tag_26:\n        /* \"#utility.yul\":5327:5333   */\n      0x00\n        /* \"#utility.yul\":5376:5378   */\n      0x20\n        /* \"#utility.yul\":5364:5373   */\n      dup3\n        /* \"#utility.yul\":5355:5362   */\n      dup5\n        /* \"#utility.yul\":5351:5374   */\n      sub\n        /* \"#utility.yul\":5347:5379   */\n      slt\n        /* \"#utility.yul\":5344:5463   */\n      iszero\n      tag_192\n      jumpi\n        /* \"#utility.yul\":5382:5461   */\n      tag_193\n      tag_94\n      jump\t// in\n    tag_193:\n        /* \"#utility.yul\":5344:5463   */\n    tag_192:\n        /* \"#utility.yul\":5502:5503   */\n      0x00\n        /* \"#utility.yul\":5527:5580   */\n      tag_194\n        /* \"#utility.yul\":5572:5579   */\n      dup5\n        /* \"#utility.yul\":5563:5569   */\n      dup3\n        /* \"#utility.yul\":5552:5561   */\n      dup6\n        /* \"#utility.yul\":5548:5570   */\n      add\n        /* \"#utility.yul\":5527:5580   */\n      tag_107\n      jump\t// in\n    tag_194:\n        /* \"#utility.yul\":5517:5580   */\n      swap2\n      pop\n        /* \"#utility.yul\":5473:5590   */\n      pop\n        /* \"#utility.yul\":5268:5597   */\n      swap3\n      swap2\n      pop\n      pop\n      jump\t// out\n        /* \"#utility.yul\":5603:5702   */\n    tag_108:\n        /* \"#utility.yul\":5655:5661   */\n      0x00\n        /* \"#utility.yul\":5689:5694   */\n      dup2\n        /* \"#utility.yul\":5683:5695   */\n      mload\n        /* \"#utility.yul\":5673:5695   */\n      swap1\n      pop\n        /* \"#utility.yul\":5603:5702   */\n      swap2\n      swap1\n      pop\n      jump\t// out\n        /* \"#utility.yul\":5708:5877   */\n    tag_109:\n        /* \"#utility.yul\":5792:5803   */\n      0x00\n        /* \"#utility.yul\":5826:5832   */\n      dup3\n        /* \"#utility.yul\":5821:5824   */\n      dup3\n        /* \"#utility.yul\":5814:5833   */\n      mstore\n        /* \"#utility.yul\":5866:5870   */\n      0x20\n        /* \"#utility.yul\":5861:5864   */\n      dup3\n        /* \"#utility.yul\":5857:5871   */\n      add\n        /* \"#utility.yul\":5842:5871   */\n      swap1\n      pop\n        /* \"#utility.yul\":5708:5877   */\n      swap3\n      swap2\n      pop\n      pop\n      jump\t// out\n        /* \"#utility.yul\":5883:6131   */\n    tag_110:\n        /* \"#utility.yul\":5965:5966   */\n      0x00\n        /* \"#utility.yul\":5975:6088   */\n    tag_198:\n        /* \"#utility.yul\":5989:5995   */\n      dup4\n        /* \"#utility.yul\":5986:5987   */\n      dup2\n        /* \"#utility.yul\":5983:5996   */\n      lt\n        /* \"#utility.yul\":5975:6088   */\n      iszero\n      tag_200\n      jumpi\n        /* \"#utility.yul\":6074:6075   */\n      dup1\n        /* \"#utility.yul\":6069:6072   */\n      dup3\n        /* \"#utility.yul\":6065:6076   */\n      add\n        /* \"#utility.yul\":6059:6077   */\n      mload\n        /* \"#utility.yul\":6055:6056   */\n      dup2\n        /* \"#utility.yul\":6050:6053   */\n      dup5\n        /* \"#utility.yul\":6046:6057   */\n      add\n        /* \"#utility.yul\":6039:6078   */\n      mstore\n        /* \"#utility.yul\":6011:6013   */\n      0x20\n        /* \"#utility.yul\":6008:6009   */\n      dup2\n        /* \"#utility.yul\":6004:6014   */\n      add\n        /* \"#utility.yul\":5999:6014   */\n      swap1\n      pop\n        /* \"#utility.yul\":5975:6088   */\n      jump(tag_198)\n    tag_200:\n        /* \"#utility.yul\":6122:6123   */\n      0x00\n        /* \"#utility.yul\":6113:6119   */\n      dup5\n        /* \"#utility.yul\":6108:6111   */\n      dup5\n        /* \"#utility.yul\":6104:6120   */\n      add\n        /* \"#utility.yul\":6097:6124   */\n      mstore\n        /* \"#utility.yul\":5945:6131   */\n      pop\n        /* \"#utility.yul\":5883:6131   */\n      pop\n      pop\n      pop\n      jump\t// out\n        /* \"#utility.yul\":6137:6514   */\n    tag_111:\n        /* \"#utility.yul\":6225:6228   */\n      0x00\n        /* \"#utility.yul\":6253:6292   */\n      tag_202\n        /* \"#utility.yul\":6286:6291   */\n      dup3\n        /* \"#utility.yul\":6253:6292   */\n      tag_108\n      jump\t// in\n    tag_202:\n        /* \"#utility.yul\":6308:6379   */\n      tag_203\n        /* \"#utility.yul\":6372:6378   */\n      dup2\n        /* \"#utility.yul\":6367:6370   */\n      dup6\n        /* \"#utility.yul\":6308:6379   */\n      tag_109\n      jump\t// in\n    tag_203:\n        /* \"#utility.yul\":6301:6379   */\n      swap4\n      pop\n        /* \"#utility.yul\":6388:6453   */\n      tag_204\n        /* \"#utility.yul\":6446:6452   */\n      dup2\n        /* \"#utility.yul\":6441:6444   */\n      dup6\n        /* \"#utility.yul\":6434:6438   */\n      0x20\n        /* \"#utility.yul\":6427:6432   */\n      dup7\n        /* \"#utility.yul\":6423:6439   */\n      add\n        /* \"#utility.yul\":6388:6453   */\n      tag_110\n      jump\t// in\n    tag_204:\n        /* \"#utility.yul\":6478:6507   */\n      tag_205\n        /* \"#utility.yul\":6500:6506   */\n      dup2\n        /* \"#utility.yul\":6478:6507   */\n      tag_98\n      jump\t// in\n    tag_205:\n        /* \"#utility.yul\":6473:6476   */\n      dup5\n        /* \"#utility.yul\":6469:6508   */\n      add\n        /* \"#utility.yul\":6462:6508   */\n      swap2\n      pop\n        /* \"#utility.yul\":6229:6514   */\n      pop\n        /* \"#utility.yul\":6137:6514   */\n      swap3\n      swap2\n      pop\n      pop\n      jump\t// out\n        /* \"#utility.yul\":6520:7346   */\n    tag_29:\n        /* \"#utility.yul\":6757:6761   */\n      0x00\n        /* \"#utility.yul\":6795:6798   */\n      0x80\n        /* \"#utility.yul\":6784:6793   */\n      dup3\n        /* \"#utility.yul\":6780:6799   */\n      add\n        /* \"#utility.yul\":6772:6799   */\n      swap1\n      pop\n        /* \"#utility.yul\":6809:6880   */\n      tag_207\n        /* \"#utility.yul\":6877:6878   */\n      0x00\n        /* \"#utility.yul\":6866:6875   */\n      dup4\n        /* \"#utility.yul\":6862:6879   */\n      add\n        /* \"#utility.yul\":6853:6859   */\n      dup8\n        /* \"#utility.yul\":6809:6880   */\n      tag_92\n      jump\t// in\n    tag_207:\n        /* \"#utility.yul\":6927:6936   */\n      dup2\n        /* \"#utility.yul\":6921:6925   */\n      dup2\n        /* \"#utility.yul\":6917:6937   */\n      sub\n        /* \"#utility.yul\":6912:6914   */\n      0x20\n        /* \"#utility.yul\":6901:6910   */\n      dup4\n        /* \"#utility.yul\":6897:6915   */\n      add\n        /* \"#utility.yul\":6890:6938   */\n      mstore\n        /* \"#utility.yul\":6955:7033   */\n      tag_208\n        /* \"#utility.yul\":7028:7032   */\n      dup2\n        /* \"#utility.yul\":7019:7025   */\n      dup7\n        /* \"#utility.yul\":6955:7033   */\n      tag_111\n      jump\t// in\n    tag_208:\n        /* \"#utility.yul\":6947:7033   */\n      swap1\n      pop\n        /* \"#utility.yul\":7080:7089   */\n      dup2\n        /* \"#utility.yul\":7074:7078   */\n      dup2\n        /* \"#utility.yul\":7070:7090   */\n      sub\n        /* \"#utility.yul\":7065:7067   */\n      0x40\n        /* \"#utility.yul\":7054:7063   */\n      dup4\n        /* \"#utility.yul\":7050:7068   */\n      add\n        /* \"#utility.yul\":7043:7091   */\n      mstore\n        /* \"#utility.yul\":7108:7186   */\n      tag_209\n        /* \"#utility.yul\":7181:7185   */\n      dup2\n        /* \"#utility.yul\":7172:7178   */\n      dup6\n        /* \"#utility.yul\":7108:7186   */\n      tag_111\n      jump\t// in\n    tag_209:\n        /* \"#utility.yul\":7100:7186   */\n      swap1\n      pop\n        /* \"#utility.yul\":7233:7242   */\n      dup2\n        /* \"#utility.yul\":7227:7231   */\n      dup2\n        /* \"#utility.yul\":7223:7243   */\n      sub\n        /* \"#utility.yul\":7218:7220   */\n      0x60\n        /* \"#utility.yul\":7207:7216   */\n      dup4\n        /* \"#utility.yul\":7203:7221   */\n      add\n        /* \"#utility.yul\":7196:7244   */\n      mstore\n        /* \"#utility.yul\":7261:7339   */\n      tag_210\n        /* \"#utility.yul\":7334:7338   */\n      dup2\n        /* \"#utility.yul\":7325:7331   */\n      dup5\n        /* \"#utility.yul\":7261:7339   */\n      tag_111\n      jump\t// in\n    tag_210:\n        /* \"#utility.yul\":7253:7339   */\n      swap1\n      pop\n        /* \"#utility.yul\":6520:7346   */\n      swap6\n      swap5\n      pop\n      pop\n      pop\n      pop\n      pop\n      jump\t// out\n        /* \"#utility.yul\":7352:7976   */\n    tag_34:\n        /* \"#utility.yul\":7541:7545   */\n      0x00\n        /* \"#utility.yul\":7579:7581   */\n      0x60\n        /* \"#utility.yul\":7568:7577   */\n      dup3\n        /* \"#utility.yul\":7564:7582   */\n      add\n        /* \"#utility.yul\":7556:7582   */\n      swap1\n      pop\n        /* \"#utility.yul\":7592:7663   */\n      tag_212\n        /* \"#utility.yul\":7660:7661   */\n      0x00\n        /* \"#utility.yul\":7649:7658   */\n      dup4\n        /* \"#utility.yul\":7645:7662   */\n      add\n        /* \"#utility.yul\":7636:7642   */\n      dup7\n        /* \"#utility.yul\":7592:7663   */\n      tag_92\n      jump\t// in\n    tag_212:\n        /* \"#utility.yul\":7710:7719   */\n      dup2\n        /* \"#utility.yul\":7704:7708   */\n      dup2\n        /* \"#utility.yul\":7700:7720   */\n      sub\n        /* \"#utility.yul\":7695:7697   */\n      0x20\n        /* \"#utility.yul\":7684:7693   */\n      dup4\n        /* \"#utility.yul\":7680:7698   */\n      add\n        /* \"#utility.yul\":7673:7721   */\n      mstore\n        /* \"#utility.yul\":7738:7816   */\n      tag_213\n        /* \"#utility.yul\":7811:7815   */\n      dup2\n        /* \"#utility.yul\":7802:7808   */\n      dup6\n        /* \"#utility.yul\":7738:7816   */\n      tag_111\n      jump\t// in\n    tag_213:\n        /* \"#utility.yul\":7730:7816   */\n      swap1\n      pop\n        /* \"#utility.yul\":7863:7872   */\n      dup2\n        /* \"#utility.yul\":7857:7861   */\n      dup2\n        /* \"#utility.yul\":7853:7873   */\n      sub\n        /* \"#utility.yul\":7848:7850   */\n      0x40\n        /* \"#utility.yul\":7837:7846   */\n      dup4\n        /* \"#utility.yul\":7833:7851   */\n      add\n        /* \"#utility.yul\":7826:7874   */\n      mstore\n        /* \"#utility.yul\":7891:7969   */\n      tag_214\n        /* \"#utility.yul\":7964:7968   */\n      dup2\n        /* \"#utility.yul\":7955:7961   */\n      dup5\n        /* \"#utility.yul\":7891:7969   */\n      tag_111\n      jump\t// in\n    tag_214:\n        /* \"#utility.yul\":7883:7969   */\n      swap1\n      pop\n        /* \"#utility.yul\":7352:7976   */\n      swap5\n      swap4\n      pop\n      pop\n      pop\n      pop\n      jump\t// out\n        /* \"#utility.yul\":7982:8162   */\n    tag_112:\n        /* \"#utility.yul\":8030:8107   */\n      0x4e487b7100000000000000000000000000000000000000000000000000000000\n        /* \"#utility.yul\":8027:8028   */\n      0x00\n        /* \"#utility.yul\":8020:8108   */\n      mstore\n        /* \"#utility.yul\":8127:8131   */\n      0x22\n        /* \"#utility.yul\":8124:8125   */\n      0x04\n        /* \"#utility.yul\":8117:8132   */\n      mstore\n        /* \"#utility.yul\":8151:8155   */\n      0x24\n        /* \"#utility.yul\":8148:8149   */\n      0x00\n        /* \"#utility.yul\":8141:8156   */\n      revert\n        /* \"#utility.yul\":8168:8488   */\n    tag_60:\n        /* \"#utility.yul\":8212:8218   */\n      0x00\n        /* \"#utility.yul\":8249:8250   */\n      0x02\n        /* \"#utility.yul\":8243:8247   */\n      dup3\n        /* \"#utility.yul\":8239:8251   */\n      div\n        /* \"#utility.yul\":8229:8251   */\n      swap1\n      pop\n        /* \"#utility.yul\":8296:8297   */\n      0x01\n        /* \"#utility.yul\":8290:8294   */\n      dup3\n        /* \"#utility.yul\":8286:8298   */\n      and\n        /* \"#utility.yul\":8317:8335   */\n      dup1\n        /* \"#utility.yul\":8307:8388   */\n      tag_217\n      jumpi\n        /* \"#utility.yul\":8373:8377   */\n      0x7f\n        /* \"#utility.yul\":8365:8371   */\n      dup3\n        /* \"#utility.yul\":8361:8378   */\n      and\n        /* \"#utility.yul\":8351:8378   */\n      swap2\n      pop\n        /* \"#utility.yul\":8307:8388   */\n    tag_217:\n        /* \"#utility.yul\":8435:8437   */\n      0x20\n        /* \"#utility.yul\":8427:8433   */\n      dup3\n        /* \"#utility.yul\":8424:8438   */\n      lt\n        /* \"#utility.yul\":8404:8422   */\n      dup2\n        /* \"#utility.yul\":8401:8439   */\n      sub\n        /* \"#utility.yul\":8398:8482   */\n      tag_218\n      jumpi\n        /* \"#utility.yul\":8454:8472   */\n      tag_219\n      tag_112\n      jump\t// in\n    tag_219:\n        /* \"#utility.yul\":8398:8482   */\n    tag_218:\n        /* \"#utility.yul\":8219:8488   */\n      pop\n        /* \"#utility.yul\":8168:8488   */\n      swap2\n      swap1\n      pop\n      jump\t// out\n        /* \"#utility.yul\":8494:8635   */\n    tag_113:\n        /* \"#utility.yul\":8543:8547   */\n      0x00\n        /* \"#utility.yul\":8566:8569   */\n      dup2\n        /* \"#utility.yul\":8558:8569   */\n      swap1\n      pop\n        /* \"#utility.yul\":8589:8592   */\n      dup2\n        /* \"#utility.yul\":8586:8587   */\n      0x00\n        /* \"#utility.yul\":8579:8593   */\n      mstore\n        /* \"#utility.yul\":8623:8627   */\n      0x20\n        /* \"#utility.yul\":8620:8621   */\n      0x00\n        /* \"#utility.yul\":8610:8628   */\n      keccak256\n        /* \"#utility.yul\":8602:8628   */\n      swap1\n      pop\n        /* \"#utility.yul\":8494:8635   */\n      swap2\n      swap1\n      pop\n      jump\t// out\n        /* \"#utility.yul\":8641:8734   */\n    tag_114:\n        /* \"#utility.yul\":8678:8684   */\n      0x00\n        /* \"#utility.yul\":8725:8727   */\n      0x20\n        /* \"#utility.yul\":8720:8722   */\n      0x1f\n        /* \"#utility.yul\":8713:8718   */\n      dup4\n        /* \"#utility.yul\":8709:8723   */\n      add\n        /* \"#utility.yul\":8705:8728   */\n      div\n        /* \"#utility.yul\":8695:8728   */\n      swap1\n      pop\n        /* \"#utility.yul\":8641:8734   */\n      swap2\n      swap1\n      pop\n      jump\t// out\n        /* \"#utility.yul\":8740:8847   */\n    tag_115:\n        /* \"#utility.yul\":8784:8792   */\n      0x00\n        /* \"#utility.yul\":8834:8839   */\n      dup3\n        /* \"#utility.yul\":8828:8832   */\n      dup3\n        /* \"#utility.yul\":8824:8840   */\n      shl\n        /* \"#utility.yul\":8803:8840   */\n      swap1\n      pop\n        /* \"#utility.yul\":8740:8847   */\n      swap3\n      swap2\n      pop\n      pop\n      jump\t// out\n        /* \"#utility.yul\":8853:9246   */\n    tag_116:\n        /* \"#utility.yul\":8922:8928   */\n      0x00\n        /* \"#utility.yul\":8972:8973   */\n      0x08\n        /* \"#utility.yul\":8960:8970   */\n      dup4\n        /* \"#utility.yul\":8956:8974   */\n      mul\n        /* \"#utility.yul\":8995:9092   */\n      tag_224\n        /* \"#utility.yul\":9025:9091   */\n      0xffffffffffffffffffffffffffffffffffffffffffffffffffffffffffffffff\n        /* \"#utility.yul\":9014:9023   */\n      dup3\n        /* \"#utility.yul\":8995:9092   */\n      tag_115\n      jump\t// in\n    tag_224:\n        /* \"#utility.yul\":9113:9152   */\n      tag_225\n        /* \"#utility.yul\":9143:9151   */\n      dup7\n        /* \"#utility.yul\":9132:9141   */\n      dup4\n        /* \"#utility.yul\":9113:9152   */\n      tag_115\n      jump\t// in\n    tag_225:\n        /* \"#utility.yul\":9101:9152   */\n      swap6\n      pop\n        /* \"#utility.yul\":9185:9189   */\n      dup1\n        /* \"#utility.yul\":9181:9190   */\n      not\n        /* \"#utility.yul\":9174:9179   */\n      dup5\n        /* \"#utility.yul\":9170:9191   */\n      and\n        /* \"#utility.yul\":9161:9191   */\n      swap4\n      pop\n        /* \"#utility.yul\":9234:9238   */\n      dup1\n        /* \"#utility.yul\":9224:9232   */\n      dup7\n        /* \"#utility.yul\":9220:9239   */\n      and\n        /* \"#utility.yul\":9213:9218   */\n      dup5\n        /* \"#utility.yul\":9210:9240   */\n      or\n        /* \"#utility.yul\":9200:9240   */\n      swap3\n      pop\n        /* \"#utility.yul\":8929:9246   */\n      pop\n      pop\n        /* \"#utility.yul\":8853:9246   */\n      swap4\n      swap3\n      pop\n      pop\n      pop\n      jump\t// out\n        /* \"#utility.yul\":9252:9312   */\n    tag_117:\n        /* \"#utility.yul\":9280:9283   */\n      0x00\n        /* \"#utility.yul\":9301:9306   */\n      dup2\n        /* \"#utility.yul\":9294:9306   */\n      swap1\n      pop\n        /* \"#utility.yul\":9252:9312   */\n      swap2\n      swap1\n      pop\n      jump\t// out\n        /* \"#utility.yul\":9318:9460   */\n    tag_118:\n        /* \"#utility.yul\":9368:9377   */\n      0x00\n        /* \"#utility.yul\":9401:9454   */\n      tag_228\n        /* \"#utility.yul\":9419:9453   */\n      tag_229\n        /* \"#utility.yul\":9428:9452   */\n      tag_230\n        /* \"#utility.yul\":9446:9451   */\n      dup5\n        /* \"#utility.yul\":9428:9452   */\n      tag_91\n      jump\t// in\n    tag_230:\n        /* \"#utility.yul\":9419:9453   */\n      tag_117\n      jump\t// in\n    tag_229:\n        /* \"#utility.yul\":9401:9454   */\n      tag_91\n      jump\t// in\n    tag_228:\n        /* \"#utility.yul\":9388:9454   */\n      swap1\n      pop\n        /* \"#utility.yul\":9318:9460   */\n      swap2\n      swap1\n      pop\n      jump\t// out\n        /* \"#utility.yul\":9466:9541   */\n    tag_119:\n        /* \"#utility.yul\":9509:9512   */\n      0x00\n        /* \"#utility.yul\":9530:9535   */\n      dup2\n        /* \"#utility.yul\":9523:9535   */\n      swap1\n      pop\n        /* \"#utility.yul\":9466:9541   */\n      swap2\n      swap1\n      pop\n      jump\t// out\n        /* \"#utility.yul\":9547:9816   */\n    tag_120:\n        /* \"#utility.yul\":9657:9696   */\n      tag_233\n        /* \"#utility.yul\":9688:9695   */\n      dup4\n        /* \"#utility.yul\":9657:9696   */\n      tag_118\n      jump\t// in\n    tag_233:\n        /* \"#utility.yul\":9718:9809   */\n      tag_234\n        /* \"#utility.yul\":9767:9808   */\n      tag_235\n        /* \"#utility.yul\":9791:9807   */\n      dup3\n        /* \"#utility.yul\":9767:9808   */\n      tag_119\n      jump\t// in\n    tag_235:\n        /* \"#utility.yul\":9759:9765   */\n      dup5\n        /* \"#utility.yul\":9752:9756   */\n      dup5\n        /* \"#utility.yul\":9746:9757   */\n      sload\n        /* \"#utility.yul\":9718:9809   */\n      tag_116\n      jump\t// in\n    tag_234:\n        /* \"#utility.yul\":9712:9716   */\n      dup3\n        /* \"#utility.yul\":9705:9810   */\n      sstore\n        /* \"#utility.yul\":9623:9816   */\n      pop\n        /* \"#utility.yul\":9547:9816   */\n      pop\n      pop\n      pop\n      jump\t// out\n        /* \"#utility.yul\":9822:9895   */\n    tag_121:\n        /* \"#utility.yul\":9867:9870   */\n      0x00\n        /* \"#utility.yul\":9822:9895   */\n      swap1\n      jump\t// out\n        /* \"#utility.yul\":9901:10090   */\n    tag_122:\n        /* \"#utility.yul\":9978:10010   */\n      tag_238\n      tag_121\n      jump\t// in\n    tag_238:\n        /* \"#utility.yul\":10019:10084   */\n      tag_239\n        /* \"#utility.yul\":10077:10083   */\n      dup2\n        /* \"#utility.yul\":10069:10075   */\n      dup5\n        /* \"#utility.yul\":10063:10067   */\n      dup5\n        /* \"#utility.yul\":10019:10084   */\n      tag_120\n      jump\t// in\n    tag_239:\n        /* \"#utility.yul\":9954:10090   */\n      pop\n        /* \"#utility.yul\":9901:10090   */\n      pop\n      pop\n      jump\t// out\n        /* \"#utility.yul\":10096:10282   */\n    tag_123:\n        /* \"#utility.yul\":10156:10276   */\n    tag_241:\n        /* \"#utility.yul\":10173:10176   */\n      dup2\n        /* \"#utility.yul\":10166:10171   */\n      dup2\n        /* \"#utility.yul\":10163:10177   */\n      lt\n        /* \"#utility.yul\":10156:10276   */\n      iszero\n      tag_243\n      jumpi\n        /* \"#utility.yul\":10227:10266   */\n      tag_244\n        /* \"#utility.yul\":10264:10265   */\n      0x00\n        /* \"#utility.yul\":10257:10262   */\n      dup3\n        /* \"#utility.yul\":10227:10266   */\n      tag_122\n      jump\t// in\n    tag_244:\n        /* \"#utility.yul\":10200:10201   */\n      0x01\n        /* \"#utility.yul\":10193:10198   */\n      dup2\n        /* \"#utility.yul\":10189:10202   */\n      add\n        /* \"#utility.yul\":10180:10202   */\n      swap1\n      pop\n        /* \"#utility.yul\":10156:10276   */\n      jump(tag_241)\n    tag_243:\n        /* \"#utility.yul\":10096:10282   */\n      pop\n      pop\n      jump\t// out\n        /* \"#utility.yul\":10288:10831   */\n    tag_124:\n        /* \"#utility.yul\":10389:10391   */\n      0x1f\n        /* \"#utility.yul\":10384:10387   */\n      dup3\n        /* \"#utility.yul\":10381:10392   */\n      gt\n        /* \"#utility.yul\":10378:10824   */\n      iszero\n      tag_246\n      jumpi\n        /* \"#utility.yul\":10423:10461   */\n      tag_247\n        /* \"#utility.yul\":10455:10460   */\n      dup2\n        /* \"#utility.yul\":10423:10461   */\n      tag_113\n      jump\t// in\n    tag_247:\n        /* \"#utility.yul\":10507:10536   */\n      tag_248\n        /* \"#utility.yul\":10525:10535   */\n      dup5\n        /* \"#utility.yul\":10507:10536   */\n      tag_114\n      jump\t// in\n    tag_248:\n        /* \"#utility.yul\":10497:10505   */\n      dup2\n        /* \"#utility.yul\":10493:10537   */\n      add\n        /* \"#utility.yul\":10690:10692   */\n      0x20\n        /* \"#utility.yul\":10678:10688   */\n      dup6\n        /* \"#utility.yul\":10675:10693   */\n      lt\n        /* \"#utility.yul\":10672:10721   */\n      iszero\n      tag_249\n      jumpi\n        /* \"#utility.yul\":10711:10719   */\n      dup2\n        /* \"#utility.yul\":10696:10719   */\n      swap1\n      pop\n        /* \"#utility.yul\":10672:10721   */\n    tag_249:\n        /* \"#utility.yul\":10734:10814   */\n      tag_250\n        /* \"#utility.yul\":10790:10812   */\n      tag_251\n        /* \"#utility.yul\":10808:10811   */\n      dup6\n        /* \"#utility.yul\":10790:10812   */\n      tag_114\n      jump\t// in\n    tag_251:\n        /* \"#utility.yul\":10780:10788   */\n      dup4\n        /* \"#utility.yul\":10776:10813   */\n      add\n        /* \"#utility.yul\":10763:10774   */\n      dup3\n        /* \"#utility.yul\":10734:10814   */\n      tag_123\n      jump\t// in\n    tag_250:\n        /* \"#utility.yul\":10393:10824   */\n      pop\n      pop\n        /* \"#utility.yul\":10378:10824   */\n    tag_246:\n        /* \"#utility.yul\":10288:10831   */\n      pop\n      pop\n      pop\n      jump\t// out\n        /* \"#utility.yul\":10837:10954   */\n    tag_125:\n        /* \"#utility.yul\":10891:10899   */\n      0x00\n        /* \"#utility.yul\":10941:10946   */\n      dup3\n        /* \"#utility.yul\":10935:10939   */\n      dup3\n        /* \"#utility.yul\":10931:10947   */\n      shr\n        /* \"#utility.yul\":10910:10947   */\n      swap1\n      pop\n        /* \"#utility.yul\":10837:10954   */\n      swap3\n      swap2\n      pop\n      pop\n      jump\t// out\n        /* \"#utility.yul\":10960:11129   */\n    tag_126:\n        /* \"#utility.yul\":11004:11010   */\n      0x00\n        /* \"#utility.yul\":11037:11088   */\n      tag_254\n        /* \"#utility.yul\":11085:11086   */\n      0x00\n        /* \"#utility.yul\":11081:11087   */\n      not\n        /* \"#utility.yul\":11073:11078   */\n      dup5\n        /* \"#utility.yul\":11070:11071   */\n      0x08\n        /* \"#utility.yul\":11066:11079   */\n      mul\n        /* \"#utility.yul\":11037:11088   */\n      tag_125\n      jump\t// in\n    tag_254:\n        /* \"#utility.yul\":11033:11089   */\n      not\n        /* \"#utility.yul\":11118:11122   */\n      dup1\n        /* \"#utility.yul\":11112:11116   */\n      dup4\n        /* \"#utility.yul\":11108:11123   */\n      and\n        /* \"#utility.yul\":11098:11123   */\n      swap2\n      pop\n        /* \"#utility.yul\":11011:11129   */\n      pop\n        /* \"#utility.yul\":10960:11129   */\n      swap3\n      swap2\n      pop\n      pop\n      jump\t// out\n        /* \"#utility.yul\":11134:11429   */\n    tag_127:\n        /* \"#utility.yul\":11210:11214   */\n      0x00\n        /* \"#utility.yul\":11356:11385   */\n      tag_256\n        /* \"#utility.yul\":11381:11384   */\n      dup4\n        /* \"#utility.yul\":11375:11379   */\n      dup4\n        /* \"#utility.yul\":11356:11385   */\n      tag_126\n      jump\t// in\n    tag_256:\n        /* \"#utility.yul\":11348:11385   */\n      swap2\n      pop\n        /* \"#utility.yul\":11418:11421   */\n      dup3\n        /* \"#utility.yul\":11415:11416   */\n      0x02\n        /* \"#utility.yul\":11411:11422   */\n      mul\n        /* \"#utility.yul\":11405:11409   */\n      dup3\n        /* \"#utility.yul\":11402:11423   */\n      or\n        /* \"#utility.yul\":11394:11423   */\n      swap1\n      pop\n        /* \"#utility.yul\":11134:11429   */\n      swap3\n      swap2\n      pop\n      pop\n      jump\t// out\n        /* \"#utility.yul\":11434:12829   */\n    tag_39:\n        /* \"#utility.yul\":11551:11588   */\n      tag_258\n        /* \"#utility.yul\":11584:11587   */\n      dup3\n        /* \"#utility.yul\":11551:11588   */\n      tag_108\n      jump\t// in\n    tag_258:\n        /* \"#utility.yul\":11653:11671   */\n      0xffffffffffffffff\n        /* \"#utility.yul\":11645:11651   */\n      dup2\n        /* \"#utility.yul\":11642:11672   */\n      gt\n        /* \"#utility.yul\":11639:11695   */\n      iszero\n      tag_259\n      jumpi\n        /* \"#utility.yul\":11675:11693   */\n      tag_260\n      tag_99\n      jump\t// in\n    tag_260:\n        /* \"#utility.yul\":11639:11695   */\n    tag_259:\n        /* \"#utility.yul\":11719:11757   */\n      tag_261\n        /* \"#utility.yul\":11751:11755   */\n      dup3\n        /* \"#utility.yul\":11745:11756   */\n      sload\n        /* \"#utility.yul\":11719:11757   */\n      tag_60\n      jump\t// in\n    tag_261:\n        /* \"#utility.yul\":11804:11871   */\n      tag_262\n        /* \"#utility.yul\":11864:11870   */\n      dup3\n        /* \"#utility.yul\":11856:11862   */\n      dup3\n        /* \"#utility.yul\":11850:11854   */\n      dup6\n        /* \"#utility.yul\":11804:11871   */\n      tag_124\n      jump\t// in\n    tag_262:\n        /* \"#utility.yul\":11898:11899   */\n      0x00\n        /* \"#utility.yul\":11922:11926   */\n      0x20\n        /* \"#utility.yul\":11909:11926   */\n      swap1\n      pop\n        /* \"#utility.yul\":11954:11956   */\n      0x1f\n        /* \"#utility.yul\":11946:11952   */\n      dup4\n        /* \"#utility.yul\":11943:11957   */\n      gt\n        /* \"#utility.yul\":11971:11972   */\n      0x01\n        /* \"#utility.yul\":11966:12584   */\n      dup2\n      eq\n      tag_264\n      jumpi\n        /* \"#utility.yul\":12628:12629   */\n      0x00\n        /* \"#utility.yul\":12645:12651   */\n      dup5\n        /* \"#utility.yul\":12642:12719   */\n      iszero\n      tag_265\n      jumpi\n        /* \"#utility.yul\":12694:12703   */\n      dup3\n        /* \"#utility.yul\":12689:12692   */\n      dup8\n        /* \"#utility.yul\":12685:12704   */\n      add\n        /* \"#utility.yul\":12679:12705   */\n      mload\n        /* \"#utility.yul\":12670:12705   */\n      swap1\n      pop\n        /* \"#utility.yul\":12642:12719   */\n    tag_265:\n        /* \"#utility.yul\":12745:12812   */\n      tag_266\n        /* \"#utility.yul\":12805:12811   */\n      dup6\n        /* \"#utility.yul\":12798:12803   */\n      dup3\n        /* \"#utility.yul\":12745:12812   */\n      tag_127\n      jump\t// in\n    tag_266:\n        /* \"#utility.yul\":12739:12743   */\n      dup7\n        /* \"#utility.yul\":12732:12813   */\n      sstore\n        /* \"#utility.yul\":12601:12823   */\n      pop\n        /* \"#utility.yul\":11936:12823   */\n      jump(tag_263)\n        /* \"#utility.yul\":11966:12584   */\n    tag_264:\n        /* \"#utility.yul\":12018:12022   */\n      0x1f\n        /* \"#utility.yul\":12014:12023   */\n      not\n        /* \"#utility.yul\":12006:12012   */\n      dup5\n        /* \"#utility.yul\":12002:12024   */\n      and\n        /* \"#utility.yul\":12052:12089   */\n      tag_267\n        /* \"#utility.yul\":12084:12088   */\n      dup7\n        /* \"#utility.yul\":12052:12089   */\n      tag_113\n      jump\t// in\n    tag_267:\n        /* \"#utility.yul\":12111:12112   */\n      0x00\n        /* \"#utility.yul\":12125:12333   */\n    tag_268:\n        /* \"#utility.yul\":12139:12146   */\n      dup3\n        /* \"#utility.yul\":12136:12137   */\n      dup2\n        /* \"#utility.yul\":12133:12147   */\n      lt\n        /* \"#utility.yul\":12125:12333   */\n      iszero\n      tag_270\n      jumpi\n        /* \"#utility.yul\":12218:12227   */\n      dup5\n        /* \"#utility.yul\":12213:12216   */\n      dup10\n        /* \"#utility.yul\":12209:12228   */\n      add\n        /* \"#utility.yul\":12203:12229   */\n      mload\n        /* \"#utility.yul\":12195:12201   */\n      dup3\n        /* \"#utility.yul\":12188:12230   */\n      sstore\n        /* \"#utility.yul\":12269:12270   */\n      0x01\n        /* \"#utility.yul\":12261:12267   */\n      dup3\n        /* \"#utility.yul\":12257:12271   */\n      add\n        /* \"#utility.yul\":12247:12271   */\n      swap2\n      pop\n        /* \"#utility.yul\":12316:12318   */\n      0x20\n        /* \"#utility.yul\":12305:12314   */\n      dup6\n        /* \"#utility.yul\":12301:12319   */\n      add\n        /* \"#utility.yul\":12288:12319   */\n      swap5\n      pop\n        /* \"#utility.yul\":12162:12166   */\n      0x20\n        /* \"#utility.yul\":12159:12160   */\n      dup2\n        /* \"#utility.yul\":12155:12167   */\n      add\n        /* \"#utility.yul\":12150:12167   */\n      swap1\n      pop\n        /* \"#utility.yul\":12125:12333   */\n      jump(tag_268)\n    tag_270:\n        /* \"#utility.yul\":12361:12367   */\n      dup7\n        /* \"#utility.yul\":12352:12359   */\n      dup4\n        /* \"#utility.yul\":12349:12368   */\n      lt\n        /* \"#utility.yul\":12346:12525   */\n      iszero\n      tag_271\n      jumpi\n        /* \"#utility.yul\":12419:12428   */\n      dup5\n        /* \"#utility.yul\":12414:12417   */\n      dup10\n        /* \"#utility.yul\":12410:12429   */\n      add\n        /* \"#utility.yul\":12404:12430   */\n      mload\n        /* \"#utility.yul\":12462:12510   */\n      tag_272\n        /* \"#utility.yul\":12504:12508   */\n      0x1f\n        /* \"#utility.yul\":12496:12502   */\n      dup10\n        /* \"#utility.yul\":12492:12509   */\n      and\n        /* \"#utility.yul\":12481:12490   */\n      dup3\n        /* \"#utility.yul\":12462:12510   */\n      tag_126\n      jump\t// in\n    tag_272:\n        /* \"#utility.yul\":12454:12460   */\n      dup4\n        /* \"#utility.yul\":12447:12511   */\n      sstore\n        /* \"#utility.yul\":12369:12525   */\n      pop\n        /* \"#utility.yul\":12346:12525   */\n    tag_271:\n        /* \"#utility.yul\":12571:12572   */\n      0x01\n        /* \"#utility.yul\":12567:12568   */\n      0x02\n        /* \"#utility.yul\":12559:12565   */\n      dup9\n        /* \"#utility.yul\":12555:12569   */\n      mul\n        /* \"#utility.yul\":12551:12573   */\n      add\n        /* \"#utility.yul\":12545:12549   */\n      dup9\n        /* \"#utility.yul\":12538:12574   */\n      sstore\n        /* \"#utility.yul\":11973:12584   */\n      pop\n      pop\n      pop\n        /* \"#utility.yul\":11936:12823   */\n    tag_263:\n      pop\n        /* \"#utility.yul\":11526:12829   */\n      pop\n      pop\n      pop\n        /* \"#utility.yul\":11434:12829   */\n      pop\n      pop\n      jump\t// out\n        /* \"#utility.yul\":12835:13349   */\n    tag_42:\n        /* \"#utility.yul\":12996:13000   */\n      0x00\n        /* \"#utility.yul\":13034:13036   */\n      0x40\n        /* \"#utility.yul\":13023:13032   */\n      dup3\n        /* \"#utility.yul\":13019:13037   */\n      add\n        /* \"#utility.yul\":13011:13037   */\n      swap1\n      pop\n        /* \"#utility.yul\":13083:13092   */\n      dup2\n        /* \"#utility.yul\":13077:13081   */\n      dup2\n        /* \"#utility.yul\":13073:13093   */\n      sub\n        /* \"#utility.yul\":13069:13070   */\n      0x00\n        /* \"#utility.yul\":13058:13067   */\n      dup4\n        /* \"#utility.yul\":13054:13071   */\n      add\n        /* \"#utility.yul\":13047:13094   */\n      mstore\n        /* \"#utility.yul\":13111:13189   */\n      tag_274\n        /* \"#utility.yul\":13184:13188   */\n      dup2\n        /* \"#utility.yul\":13175:13181   */\n      dup6\n        /* \"#utility.yul\":13111:13189   */\n      tag_111\n      jump\t// in\n    tag_274:\n        /* \"#utility.yul\":13103:13189   */\n      swap1\n      pop\n        /* \"#utility.yul\":13236:13245   */\n      dup2\n        /* \"#utility.yul\":13230:13234   */\n      dup2\n        /* \"#utility.yul\":13226:13246   */\n      sub\n        /* \"#utility.yul\":13221:13223   */\n      0x20\n        /* \"#utility.yul\":13210:13219   */\n      dup4\n        /* \"#utility.yul\":13206:13224   */\n      add\n        /* \"#utility.yul\":13199:13247   */\n      mstore\n        /* \"#utility.yul\":13264:13342   */\n      tag_275\n        /* \"#utility.yul\":13337:13341   */\n      dup2\n        /* \"#utility.yul\":13328:13334   */\n      dup5\n        /* \"#utility.yul\":13264:13342   */\n      tag_111\n      jump\t// in\n    tag_275:\n        /* \"#utility.yul\":13256:13342   */\n      swap1\n      pop\n        /* \"#utility.yul\":12835:13349   */\n      swap4\n      swap3\n      pop\n      pop\n      pop\n      jump\t// out\n        /* \"#utility.yul\":13355:14070   */\n    tag_49:\n        /* \"#utility.yul\":13564:13568   */\n      0x00\n        /* \"#utility.yul\":13602:13604   */\n      0x60\n        /* \"#utility.yul\":13591:13600   */\n      dup3\n        /* \"#utility.yul\":13587:13605   */\n      add\n        /* \"#utility.yul\":13579:13605   */\n      swap1\n      pop\n        /* \"#utility.yul\":13651:13660   */\n      dup2\n        /* \"#utility.yul\":13645:13649   */\n      dup2\n        /* \"#utility.yul\":13641:13661   */\n      sub\n        /* \"#utility.yul\":13637:13638   */\n      0x00\n        /* \"#utility.yul\":13626:13635   */\n      dup4\n        /* \"#utility.yul\":13622:13639   */\n      add\n        /* \"#utility.yul\":13615:13662   */\n      mstore\n        /* \"#utility.yul\":13679:13757   */\n      tag_277\n        /* \"#utility.yul\":13752:13756   */\n      dup2\n        /* \"#utility.yul\":13743:13749   */\n      dup7\n        /* \"#utility.yul\":13679:13757   */\n      tag_111\n      jump\t// in\n    tag_277:\n        /* \"#utility.yul\":13671:13757   */\n      swap1\n      pop\n        /* \"#utility.yul\":13804:13813   */\n      dup2\n        /* \"#utility.yul\":13798:13802   */\n      dup2\n        /* \"#utility.yul\":13794:13814   */\n      sub\n        /* \"#utility.yul\":13789:13791   */\n      0x20\n        /* \"#utility.yul\":13778:13787   */\n      dup4\n        /* \"#utility.yul\":13774:13792   */\n      add\n        /* \"#utility.yul\":13767:13815   */\n      mstore\n        /* \"#utility.yul\":13832:13910   */\n      tag_278\n        /* \"#utility.yul\":13905:13909   */\n      dup2\n        /* \"#utility.yul\":13896:13902   */\n      dup6\n        /* \"#utility.yul\":13832:13910   */\n      tag_111\n      jump\t// in\n    tag_278:\n        /* \"#utility.yul\":13824:13910   */\n      swap1\n      pop\n        /* \"#utility.yul\":13957:13966   */\n      dup2\n        /* \"#utility.yul\":13951:13955   */\n      dup2\n        /* \"#utility.yul\":13947:13967   */\n      sub\n        /* \"#utility.yul\":13942:13944   */\n      0x40\n        /* \"#utility.yul\":13931:13940   */\n      dup4\n        /* \"#utility.yul\":13927:13945   */\n      add\n        /* \"#utility.yul\":13920:13968   */\n      mstore\n        /* \"#utility.yul\":13985:14063   */\n      tag_279\n        /* \"#utility.yul\":14058:14062   */\n      dup2\n        /* \"#utility.yul\":14049:14055   */\n      dup5\n        /* \"#utility.yul\":13985:14063   */\n      tag_111\n      jump\t// in\n    tag_279:\n        /* \"#utility.yul\":13977:14063   */\n      swap1\n      pop\n        /* \"#utility.yul\":13355:14070   */\n      swap5\n      swap4\n      pop\n      pop\n      pop\n      pop\n      jump\t// out\n        /* \"#utility.yul\":14076:14239   */\n    tag_128:\n        /* \"#utility.yul\":14216:14231   */\n      0x496e76616c696420696e64657800000000000000000000000000000000000000\n        /* \"#utility.yul\":14212:14213   */\n      0x00\n        /* \"#utility.yul\":14204:14210   */\n      dup3\n        /* \"#utility.yul\":14200:14214   */\n      add\n        /* \"#utility.yul\":14193:14232   */\n      mstore\n        /* \"#utility.yul\":14076:14239   */\n      pop\n      jump\t// out\n        /* \"#utility.yul\":14245:14611   */\n    tag_129:\n        /* \"#utility.yul\":14387:14390   */\n      0x00\n        /* \"#utility.yul\":14408:14475   */\n      tag_282\n        /* \"#utility.yul\":14472:14474   */\n      0x0d\n        /* \"#utility.yul\":14467:14470   */\n      dup4\n        /* \"#utility.yul\":14408:14475   */\n      tag_109\n      jump\t// in\n    tag_282:\n        /* \"#utility.yul\":14401:14475   */\n      swap2\n      pop\n        /* \"#utility.yul\":14484:14577   */\n      tag_283\n        /* \"#utility.yul\":14573:14576   */\n      dup3\n        /* \"#utility.yul\":14484:14577   */\n      tag_128\n      jump\t// in\n    tag_283:\n        /* \"#utility.yul\":14602:14604   */\n      0x20\n        /* \"#utility.yul\":14597:14600   */\n      dup3\n        /* \"#utility.yul\":14593:14605   */\n      add\n        /* \"#utility.yul\":14586:14605   */\n      swap1\n      pop\n        /* \"#utility.yul\":14245:14611   */\n      swap2\n      swap1\n      pop\n      jump\t// out\n        /* \"#utility.yul\":14617:15036   */\n    tag_54:\n        /* \"#utility.yul\":14783:14787   */\n      0x00\n        /* \"#utility.yul\":14821:14823   */\n      0x20\n        /* \"#utility.yul\":14810:14819   */\n      dup3\n        /* \"#utility.yul\":14806:14824   */\n      add\n        /* \"#utility.yul\":14798:14824   */\n      swap1\n      pop\n        /* \"#utility.yul\":14870:14879   */\n      dup2\n        /* \"#utility.yul\":14864:14868   */\n      dup2\n        /* \"#utility.yul\":14860:14880   */\n      sub\n        /* \"#utility.yul\":14856:14857   */\n      0x00\n        /* \"#utility.yul\":14845:14854   */\n      dup4\n        /* \"#utility.yul\":14841:14858   */\n      add\n        /* \"#utility.yul\":14834:14881   */\n      mstore\n        /* \"#utility.yul\":14898:15029   */\n      tag_285\n        /* \"#utility.yul\":15024:15028   */\n      dup2\n        /* \"#utility.yul\":14898:15029   */\n      tag_129\n      jump\t// in\n    tag_285:\n        /* \"#utility.yul\":14890:15029   */\n      swap1\n      pop\n        /* \"#utility.yul\":14617:15036   */\n      swap2\n      swap1\n      pop\n      jump\t// out\n        /* \"#utility.yul\":15042:15222   */\n    tag_57:\n        /* \"#utility.yul\":15090:15167   */\n      0x4e487b7100000000000000000000000000000000000000000000000000000000\n        /* \"#utility.yul\":15087:15088   */\n      0x00\n        /* \"#utility.yul\":15080:15168   */\n      mstore\n        /* \"#utility.yul\":15187:15191   */\n      0x32\n        /* \"#utility.yul\":15184:15185   */\n      0x04\n        /* \"#utility.yul\":15177:15192   */\n      mstore\n        /* \"#utility.yul\":15211:15215   */\n      0x24\n        /* \"#utility.yul\":15208:15209   */\n      0x00\n        /* \"#utility.yul\":15201:15216   */\n      revert\n\n    auxdata: 0xa264697066735822122051aaeeb88917fb5040504795f7034752264d804798538a32d01b285669f0054964736f6c634300081e0033\n}\n",
				"bytecode": {
					"linkReferences": {},
					"object": "6080604052348015600f57600080fd5b50610f858061001f6000396000f3fe608060405234801561001057600080fd5b50600436106100625760003560e01c80631a201989146100675780634d011928146100855780637f7df466146100a15780638e3d5ebf146100bd578063b2e32f07146100db578063d2a6c2821461010e575b600080fd5b61006f610140565b60405161007c9190610748565b60405180910390f35b61009f600480360381019061009a91906108bd565b61014d565b005b6100bb60048036038101906100b69190610935565b610214565b005b6100c56102f9565b6040516100d29190610748565b60405180910390f35b6100f560048036038101906100f09190610a08565b610305565b6040516101059493929190610ab4565b60405180910390f35b61012860048036038101906101239190610a08565b610567565b60405161013793929190610b0e565b60405180910390f35b6000600180549050905090565b60006001805490509050600160405180606001604052808381526020018581526020018481525090806001815401808255809150506001900390600052602060002090600302016000909190919091506000820151816000015560208201518160010190816101bc9190610d5f565b5060408201518160020190816101d29190610d5f565b505050807f7d389bd6a77439844633e3cdcd07741851680f113e970aaf5a6277c6d8fe27f28484604051610207929190610e31565b60405180910390a2505050565b600080805490509050600060405180608001604052808381526020018681526020018581526020018481525090806001815401808255809150506001900390600052602060002090600402016000909190919091506000820151816000015560208201518160010190816102889190610d5f565b50604082015181600201908161029e9190610d5f565b5060608201518160030190816102b49190610d5f565b505050807fd2a6e8d11d03db3ba16f4b221906f86fe27a206183788136005c1abfef45f1b68585856040516102eb93929190610e68565b60405180910390a250505050565b60008080549050905090565b600060608060606000805490508510610353576040517f08c379a000000000000000000000000000000000000000000000000000000000815260040161034a90610f00565b60405180910390fd5b600080868154811061036857610367610f20565b5b90600052602060002090600402016040518060800160405290816000820154815260200160018201805461039b90610b82565b80601f01602080910402602001604051908101604052809291908181526020018280546103c790610b82565b80156104145780601f106103e957610100808354040283529160200191610414565b820191906000526020600020905b8154815290600101906020018083116103f757829003601f168201915b5050505050815260200160028201805461042d90610b82565b80601f016020809104026020016040519081016040528092919081815260200182805461045990610b82565b80156104a65780601f1061047b576101008083540402835291602001916104a6565b820191906000526020600020905b81548152906001019060200180831161048957829003601f168201915b505050505081526020016003820180546104bf90610b82565b80601f01602080910402602001604051908101604052809291908181526020018280546104eb90610b82565b80156105385780601f1061050d57610100808354040283529160200191610538565b820191906000526020600020905b81548152906001019060200180831161051b57829003601f168201915b505050505081525050905080600001518160200151826040015183606001519450945094509450509193509193565b600060608060018054905084106105b3576040517f08c379a00000000000000000000000000000000000000000000000000000000081526004016105aa90610f00565b60405180910390fd5b6000600185815481106105c9576105c8610f20565b5b9060005260206000209060030201604051806060016040529081600082015481526020016001820180546105fc90610b82565b80601f016020809104026020016040519081016040528092919081815260200182805461062890610b82565b80156106755780601f1061064a57610100808354040283529160200191610675565b820191906000526020600020905b81548152906001019060200180831161065857829003601f168201915b5050505050815260200160028201805461068e90610b82565b80601f01602080910402602001604051908101604052809291908181526020018280546106ba90610b82565b80156107075780601f106106dc57610100808354040283529160200191610707565b820191906000526020600020905b8154815290600101906020018083116106ea57829003601f168201915b5050505050815250509050806000015181602001518260400151935093509350509193909250565b6000819050919050565b6107428161072f565b82525050565b600060208201905061075d6000830184610739565b92915050565b6000604051905090565b600080fd5b600080fd5b600080fd5b600080fd5b6000601f19601f8301169050919050565b7f4e487b7100000000000000000000000000000000000000000000000000000000600052604160045260246000fd5b6107ca82610781565b810181811067ffffffffffffffff821117156107e9576107e8610792565b5b80604052505050565b60006107fc610763565b905061080882826107c1565b919050565b600067ffffffffffffffff82111561082857610827610792565b5b61083182610781565b9050602081019050919050565b82818337600083830152505050565b600061086061085b8461080d565b6107f2565b90508281526020810184848401111561087c5761087b61077c565b5b61088784828561083e565b509392505050565b600082601f8301126108a4576108a3610777565b5b81356108b484826020860161084d565b91505092915050565b600080604083850312156108d4576108d361076d565b5b600083013567ffffffffffffffff8111156108f2576108f1610772565b5b6108fe8582860161088f565b925050602083013567ffffffffffffffff81111561091f5761091e610772565b5b61092b8582860161088f565b9150509250929050565b60008060006060848603121561094e5761094d61076d565b5b600084013567ffffffffffffffff81111561096c5761096b610772565b5b6109788682870161088f565b935050602084013567ffffffffffffffff81111561099957610998610772565b5b6109a58682870161088f565b925050604084013567ffffffffffffffff8111156109c6576109c5610772565b5b6109d28682870161088f565b9150509250925092565b6109e58161072f565b81146109f057600080fd5b50565b600081359050610a02816109dc565b92915050565b600060208284031215610a1e57610a1d61076d565b5b6000610a2c848285016109f3565b91505092915050565b600081519050919050565b600082825260208201905092915050565b60005b83811015610a6f578082015181840152602081019050610a54565b60008484015250505050565b6000610a8682610a35565b610a908185610a40565b9350610aa0818560208601610a51565b610aa981610781565b840191505092915050565b6000608082019050610ac96000830187610739565b8181036020830152610adb8186610a7b565b90508181036040830152610aef8185610a7b565b90508181036060830152610b038184610a7b565b905095945050505050565b6000606082019050610b236000830186610739565b8181036020830152610b358185610a7b565b90508181036040830152610b498184610a7b565b9050949350505050565b7f4e487b7100000000000000000000000000000000000000000000000000000000600052602260045260246000fd5b60006002820490506001821680610b9a57607f821691505b602082108103610bad57610bac610b53565b5b50919050565b60008190508160005260206000209050919050565b60006020601f8301049050919050565b600082821b905092915050565b600060088302610c157fffffffffffffffffffffffffffffffffffffffffffffffffffffffffffffffff82610bd8565b610c1f8683610bd8565b95508019841693508086168417925050509392505050565b6000819050919050565b6000610c5c610c57610c528461072f565b610c37565b61072f565b9050919050565b6000819050919050565b610c7683610c41565b610c8a610c8282610c63565b848454610be5565b825550505050565b600090565b610c9f610c92565b610caa818484610c6d565b505050565b5b81811015610cce57610cc3600082610c97565b600181019050610cb0565b5050565b601f821115610d1357610ce481610bb3565b610ced84610bc8565b81016020851015610cfc578190505b610d10610d0885610bc8565b830182610caf565b50505b505050565b600082821c905092915050565b6000610d3660001984600802610d18565b1980831691505092915050565b6000610d4f8383610d25565b9150826002028217905092915050565b610d6882610a35565b67ffffffffffffffff811115610d8157610d80610792565b5b610d8b8254610b82565b610d96828285610cd2565b600060209050601f831160018114610dc95760008415610db7578287015190505b610dc18582610d43565b865550610e29565b601f198416610dd786610bb3565b60005b82811015610dff57848901518255600182019150602085019450602081019050610dda565b86831015610e1c5784890151610e18601f891682610d25565b8355505b6001600288020188555050505b505050505050565b60006040820190508181036000830152610e4b8185610a7b565b90508181036020830152610e5f8184610a7b565b90509392505050565b60006060820190508181036000830152610e828186610a7b565b90508181036020830152610e968185610a7b565b90508181036040830152610eaa8184610a7b565b9050949350505050565b7f496e76616c696420696e64657800000000000000000000000000000000000000600082015250565b6000610eea600d83610a40565b9150610ef582610eb4565b602082019050919050565b60006020820190508181036000830152610f1981610edd565b9050919050565b7f4e487b7100000000000000000000000000000000000000000000000000000000600052603260045260246000fdfea264697066735822122051aaeeb88917fb5040504795f7034752264d804798538a32d01b285669f0054964736f6c634300081e0033",
					"opcodes": "PUSH1 0x80 PUSH1 0x40 MSTORE CALLVALUE DUP1 ISZERO PUSH1 0xF JUMPI PUSH1 0x0 DUP1 REVERT JUMPDEST POP PUSH2 0xF85 DUP1 PUSH2 0x1F PUSH1 0x0 CODECOPY PUSH1 0x0 RETURN INVALID PUSH1 0x80 PUSH1 0x40 MSTORE CALLVALUE DUP1 ISZERO PUSH2 0x10 JUMPI PUSH1 0x0 DUP1 REVERT JUMPDEST POP PUSH1 0x4 CALLDATASIZE LT PUSH2 0x62 JUMPI PUSH1 0x0 CALLDATALOAD PUSH1 0xE0 SHR DUP1 PUSH4 0x1A201989 EQ PUSH2 0x67 JUMPI DUP1 PUSH4 0x4D011928 EQ PUSH2 0x85 JUMPI DUP1 PUSH4 0x7F7DF466 EQ PUSH2 0xA1 JUMPI DUP1 PUSH4 0x8E3D5EBF EQ PUSH2 0xBD JUMPI DUP1 PUSH4 0xB2E32F07 EQ PUSH2 0xDB JUMPI DUP1 PUSH4 0xD2A6C282 EQ PUSH2 0x10E JUMPI JUMPDEST PUSH1 0x0 DUP1 REVERT JUMPDEST PUSH2 0x6F PUSH2 0x140 JUMP JUMPDEST PUSH1 0x40 MLOAD PUSH2 0x7C SWAP2 SWAP1 PUSH2 0x748 JUMP JUMPDEST PUSH1 0x40 MLOAD DUP1 SWAP2 SUB SWAP1 RETURN JUMPDEST PUSH2 0x9F PUSH1 0x4 DUP1 CALLDATASIZE SUB DUP2 ADD SWAP1 PUSH2 0x9A SWAP2 SWAP1 PUSH2 0x8BD JUMP JUMPDEST PUSH2 0x14D JUMP JUMPDEST STOP JUMPDEST PUSH2 0xBB PUSH1 0x4 DUP1 CALLDATASIZE SUB DUP2 ADD SWAP1 PUSH2 0xB6 SWAP2 SWAP1 PUSH2 0x935 JUMP JUMPDEST PUSH2 0x214 JUMP JUMPDEST STOP JUMPDEST PUSH2 0xC5 PUSH2 0x2F9 JUMP JUMPDEST PUSH1 0x40 MLOAD PUSH2 0xD2 SWAP2 SWAP1 PUSH2 0x748 JUMP JUMPDEST PUSH1 0x40 MLOAD DUP1 SWAP2 SUB SWAP1 RETURN JUMPDEST PUSH2 0xF5 PUSH1 0x4 DUP1 CALLDATASIZE SUB DUP2 ADD SWAP1 PUSH2 0xF0 SWAP2 SWAP1 PUSH2 0xA08 JUMP JUMPDEST PUSH2 0x305 JUMP JUMPDEST PUSH1 0x40 MLOAD PUSH2 0x105 SWAP5 SWAP4 SWAP3 SWAP2 SWAP1 PUSH2 0xAB4 JUMP JUMPDEST PUSH1 0x40 MLOAD DUP1 SWAP2 SUB SWAP1 RETURN JUMPDEST PUSH2 0x128 PUSH1 0x4 DUP1 CALLDATASIZE SUB DUP2 ADD SWAP1 PUSH2 0x123 SWAP2 SWAP1 PUSH2 0xA08 JUMP JUMPDEST PUSH2 0x567 JUMP JUMPDEST PUSH1 0x40 MLOAD PUSH2 0x137 SWAP4 SWAP3 SWAP2 SWAP1 PUSH2 0xB0E JUMP JUMPDEST PUSH1 0x40 MLOAD DUP1 SWAP2 SUB SWAP1 RETURN JUMPDEST PUSH1 0x0 PUSH1 0x1 DUP1 SLOAD SWAP1 POP SWAP1 POP SWAP1 JUMP JUMPDEST PUSH1 0x0 PUSH1 0x1 DUP1 SLOAD SWAP1 POP SWAP1 POP PUSH1 0x1 PUSH1 0x40 MLOAD DUP1 PUSH1 0x60 ADD PUSH1 0x40 MSTORE DUP1 DUP4 DUP2 MSTORE PUSH1 0x20 ADD DUP6 DUP2 MSTORE PUSH1 0x20 ADD DUP5 DUP2 MSTORE POP SWAP1 DUP1 PUSH1 0x1 DUP2 SLOAD ADD DUP1 DUP3 SSTORE DUP1 SWAP2 POP POP PUSH1 0x1 SWAP1 SUB SWAP1 PUSH1 0x0 MSTORE PUSH1 0x20 PUSH1 0x0 KECCAK256 SWAP1 PUSH1 0x3 MUL ADD PUSH1 0x0 SWAP1 SWAP2 SWAP1 SWAP2 SWAP1 SWAP2 POP PUSH1 0x0 DUP3 ADD MLOAD DUP2 PUSH1 0x0 ADD SSTORE PUSH1 0x20 DUP3 ADD MLOAD DUP2 PUSH1 0x1 ADD SWAP1 DUP2 PUSH2 0x1BC SWAP2 SWAP1 PUSH2 0xD5F JUMP JUMPDEST POP PUSH1 0x40 DUP3 ADD MLOAD DUP2 PUSH1 0x2 ADD SWAP1 DUP2 PUSH2 0x1D2 SWAP2 SWAP1 PUSH2 0xD5F JUMP JUMPDEST POP POP POP DUP1 PUSH32 0x7D389BD6A77439844633E3CDCD07741851680F113E970AAF5A6277C6D8FE27F2 DUP5 DUP5 PUSH1 0x40 MLOAD PUSH2 0x207 SWAP3 SWAP2 SWAP1 PUSH2 0xE31 JUMP JUMPDEST PUSH1 0x40 MLOAD DUP1 SWAP2 SUB SWAP1 LOG2 POP POP POP JUMP JUMPDEST PUSH1 0x0 DUP1 DUP1 SLOAD SWAP1 POP SWAP1 POP PUSH1 0x0 PUSH1 0x40 MLOAD DUP1 PUSH1 0x80 ADD PUSH1 0x40 MSTORE DUP1 DUP4 DUP2 MSTORE PUSH1 0x20 ADD DUP7 DUP2 MSTORE PUSH1 0x20 ADD DUP6 DUP2 MSTORE PUSH1 0x20 ADD DUP5 DUP2 MSTORE POP SWAP1 DUP1 PUSH1 0x1 DUP2 SLOAD ADD DUP1 DUP3 SSTORE DUP1 SWAP2 POP POP PUSH1 0x1 SWAP1 SUB SWAP1 PUSH1 0x0 MSTORE PUSH1 0x20 PUSH1 0x0 KECCAK256 SWAP1 PUSH1 0x4 MUL ADD PUSH1 0x0 SWAP1 SWAP2 SWAP1 SWAP2 SWAP1 SWAP2 POP PUSH1 0x0 DUP3 ADD MLOAD DUP2 PUSH1 0x0 ADD SSTORE PUSH1 0x20 DUP3 ADD MLOAD DUP2 PUSH1 0x1 ADD SWAP1 DUP2 PUSH2 0x288 SWAP2 SWAP1 PUSH2 0xD5F JUMP JUMPDEST POP PUSH1 0x40 DUP3 ADD MLOAD DUP2 PUSH1 0x2 ADD SWAP1 DUP2 PUSH2 0x29E SWAP2 SWAP1 PUSH2 0xD5F JUMP JUMPDEST POP PUSH1 0x60 DUP3 ADD MLOAD DUP2 PUSH1 0x3 ADD SWAP1 DUP2 PUSH2 0x2B4 SWAP2 SWAP1 PUSH2 0xD5F JUMP JUMPDEST POP POP POP DUP1 PUSH32 0xD2A6E8D11D03DB3BA16F4B221906F86FE27A206183788136005C1ABFEF45F1B6 DUP6 DUP6 DUP6 PUSH1 0x40 MLOAD PUSH2 0x2EB SWAP4 SWAP3 SWAP2 SWAP1 PUSH2 0xE68 JUMP JUMPDEST PUSH1 0x40 MLOAD DUP1 SWAP2 SUB SWAP1 LOG2 POP POP POP POP JUMP JUMPDEST PUSH1 0x0 DUP1 DUP1 SLOAD SWAP1 POP SWAP1 POP SWAP1 JUMP JUMPDEST PUSH1 0x0 PUSH1 0x60 DUP1 PUSH1 0x60 PUSH1 0x0 DUP1 SLOAD SWAP1 POP DUP6 LT PUSH2 0x353 JUMPI PUSH1 0x40 MLOAD PUSH32 0x8C379A000000000000000000000000000000000000000000000000000000000 DUP2 MSTORE PUSH1 0x4 ADD PUSH2 0x34A SWAP1 PUSH2 0xF00 JUMP JUMPDEST PUSH1 0x40 MLOAD DUP1 SWAP2 SUB SWAP1 REVERT JUMPDEST PUSH1 0x0 DUP1 DUP7 DUP2 SLOAD DUP2 LT PUSH2 0x368 JUMPI PUSH2 0x367 PUSH2 0xF20 JUMP JUMPDEST JUMPDEST SWAP1 PUSH1 0x0 MSTORE PUSH1 0x20 PUSH1 0x0 KECCAK256 SWAP1 PUSH1 0x4 MUL ADD PUSH1 0x40 MLOAD DUP1 PUSH1 0x80 ADD PUSH1 0x40 MSTORE SWAP1 DUP2 PUSH1 0x0 DUP3 ADD SLOAD DUP2 MSTORE PUSH1 0x20 ADD PUSH1 0x1 DUP3 ADD DUP1 SLOAD PUSH2 0x39B SWAP1 PUSH2 0xB82 JUMP JUMPDEST DUP1 PUSH1 0x1F ADD PUSH1 0x20 DUP1 SWAP2 DIV MUL PUSH1 0x20 ADD PUSH1 0x40 MLOAD SWAP1 DUP2 ADD PUSH1 0x40 MSTORE DUP1 SWAP3 SWAP2 SWAP1 DUP2 DUP2 MSTORE PUSH1 0x20 ADD DUP3 DUP1 SLOAD PUSH2 0x3C7 SWAP1 PUSH2 0xB82 JUMP JUMPDEST DUP1 ISZERO PUSH2 0x414 JUMPI DUP1 PUSH1 0x1F LT PUSH2 0x3E9 JUMPI PUSH2 0x100 DUP1 DUP4 SLOAD DIV MUL DUP4 MSTORE SWAP2 PUSH1 0x20 ADD SWAP2 PUSH2 0x414 JUMP JUMPDEST DUP3 ADD SWAP2 SWAP1 PUSH1 0x0 MSTORE PUSH1 0x20 PUSH1 0x0 KECCAK256 SWAP1 JUMPDEST DUP2 SLOAD DUP2 MSTORE SWAP1 PUSH1 0x1 ADD SWAP1 PUSH1 0x20 ADD DUP1 DUP4 GT PUSH2 0x3F7 JUMPI DUP3 SWAP1 SUB PUSH1 0x1F AND DUP3 ADD SWAP2 JUMPDEST POP POP POP POP POP DUP2 MSTORE PUSH1 0x20 ADD PUSH1 0x2 DUP3 ADD DUP1 SLOAD PUSH2 0x42D SWAP1 PUSH2 0xB82 JUMP JUMPDEST DUP1 PUSH1 0x1F ADD PUSH1 0x20 DUP1 SWAP2 DIV MUL PUSH1 0x20 ADD PUSH1 0x40 MLOAD SWAP1 DUP2 ADD PUSH1 0x40 MSTORE DUP1 SWAP3 SWAP2 SWAP1 DUP2 DUP2 MSTORE PUSH1 0x20 ADD DUP3 DUP1 SLOAD PUSH2 0x459 SWAP1 PUSH2 0xB82 JUMP JUMPDEST DUP1 ISZERO PUSH2 0x4A6 JUMPI DUP1 PUSH1 0x1F LT PUSH2 0x47B JUMPI PUSH2 0x100 DUP1 DUP4 SLOAD DIV MUL DUP4 MSTORE SWAP2 PUSH1 0x20 ADD SWAP2 PUSH2 0x4A6 JUMP JUMPDEST DUP3 ADD SWAP2 SWAP1 PUSH1 0x0 MSTORE PUSH1 0x20 PUSH1 0x0 KECCAK256 SWAP1 JUMPDEST DUP2 SLOAD DUP2 MSTORE SWAP1 PUSH1 0x1 ADD SWAP1 PUSH1 0x20 ADD DUP1 DUP4 GT PUSH2 0x489 JUMPI DUP3 SWAP1 SUB PUSH1 0x1F AND DUP3 ADD SWAP2 JUMPDEST POP POP POP POP POP DUP2 MSTORE PUSH1 0x20 ADD PUSH1 0x3 DUP3 ADD DUP1 SLOAD PUSH2 0x4BF SWAP1 PUSH2 0xB82 JUMP JUMPDEST DUP1 PUSH1 0x1F ADD PUSH1 0x20 DUP1 SWAP2 DIV MUL PUSH1 0x20 ADD PUSH1 0x40 MLOAD SWAP1 DUP2 ADD PUSH1 0x40 MSTORE DUP1 SWAP3 SWAP2 SWAP1 DUP2 DUP2 MSTORE PUSH1 0x20 ADD DUP3 DUP1 SLOAD PUSH2 0x4EB SWAP1 PUSH2 0xB82 JUMP JUMPDEST DUP1 ISZERO PUSH2 0x538 JUMPI DUP1 PUSH1 0x1F LT PUSH2 0x50D JUMPI PUSH2 0x100 DUP1 DUP4 SLOAD DIV MUL DUP4 MSTORE SWAP2 PUSH1 0x20 ADD SWAP2 PUSH2 0x538 JUMP JUMPDEST DUP3 ADD SWAP2 SWAP1 PUSH1 0x0 MSTORE PUSH1 0x20 PUSH1 0x0 KECCAK256 SWAP1 JUMPDEST DUP2 SLOAD DUP2 MSTORE SWAP1 PUSH1 0x1 ADD SWAP1 PUSH1 0x20 ADD DUP1 DUP4 GT PUSH2 0x51B JUMPI DUP3 SWAP1 SUB PUSH1 0x1F AND DUP3 ADD SWAP2 JUMPDEST POP POP POP POP POP DUP2 MSTORE POP POP SWAP1 POP DUP1 PUSH1 0x0 ADD MLOAD DUP2 PUSH1 0x20 ADD MLOAD DUP3 PUSH1 0x40 ADD MLOAD DUP4 PUSH1 0x60 ADD MLOAD SWAP5 POP SWAP5 POP SWAP5 POP SWAP5 POP POP SWAP2 SWAP4 POP SWAP2 SWAP4 JUMP JUMPDEST PUSH1 0x0 PUSH1 0x60 DUP1 PUSH1 0x1 DUP1 SLOAD SWAP1 POP DUP5 LT PUSH2 0x5B3 JUMPI PUSH1 0x40 MLOAD PUSH32 0x8C379A000000000000000000000000000000000000000000000000000000000 DUP2 MSTORE PUSH1 0x4 ADD PUSH2 0x5AA SWAP1 PUSH2 0xF00 JUMP JUMPDEST PUSH1 0x40 MLOAD DUP1 SWAP2 SUB SWAP1 REVERT JUMPDEST PUSH1 0x0 PUSH1 0x1 DUP6 DUP2 SLOAD DUP2 LT PUSH2 0x5C9 JUMPI PUSH2 0x5C8 PUSH2 0xF20 JUMP JUMPDEST JUMPDEST SWAP1 PUSH1 0x0 MSTORE PUSH1 0x20 PUSH1 0x0 KECCAK256 SWAP1 PUSH1 0x3 MUL ADD PUSH1 0x40 MLOAD DUP1 PUSH1 0x60 ADD PUSH1 0x40 MSTORE SWAP1 DUP2 PUSH1 0x0 DUP3 ADD SLOAD DUP2 MSTORE PUSH1 0x20 ADD PUSH1 0x1 DUP3 ADD DUP1 SLOAD PUSH2 0x5FC SWAP1 PUSH2 0xB82 JUMP JUMPDEST DUP1 PUSH1 0x1F ADD PUSH1 0x20 DUP1 SWAP2 DIV MUL PUSH1 0x20 ADD PUSH1 0x40 MLOAD SWAP1 DUP2 ADD PUSH1 0x40 MSTORE DUP1 SWAP3 SWAP2 SWAP1 DUP2 DUP2 MSTORE PUSH1 0x20 ADD DUP3 DUP1 SLOAD PUSH2 0x628 SWAP1 PUSH2 0xB82 JUMP JUMPDEST DUP1 ISZERO PUSH2 0x675 JUMPI DUP1 PUSH1 0x1F LT PUSH2 0x64A JUMPI PUSH2 0x100 DUP1 DUP4 SLOAD DIV MUL DUP4 MSTORE SWAP2 PUSH1 0x20 ADD SWAP2 PUSH2 0x675 JUMP JUMPDEST DUP3 ADD SWAP2 SWAP1 PUSH1 0x0 MSTORE PUSH1 0x20 PUSH1 0x0 KECCAK256 SWAP1 JUMPDEST DUP2 SLOAD DUP2 MSTORE SWAP1 PUSH1 0x1 ADD SWAP1 PUSH1 0x20 ADD DUP1 DUP4 GT PUSH2 0x658 JUMPI DUP3 SWAP1 SUB PUSH1 0x1F AND DUP3 ADD SWAP2 JUMPDEST POP POP POP POP POP DUP2 MSTORE PUSH1 0x20 ADD PUSH1 0x2 DUP3 ADD DUP1 SLOAD PUSH2 0x68E SWAP1 PUSH2 0xB82 JUMP JUMPDEST DUP1 PUSH1 0x1F ADD PUSH1 0x20 DUP1 SWAP2 DIV MUL PUSH1 0x20 ADD PUSH1 0x40 MLOAD SWAP1 DUP2 ADD PUSH1 0x40 MSTORE DUP1 SWAP3 SWAP2 SWAP1 DUP2 DUP2 MSTORE PUSH1 0x20 ADD DUP3 DUP1 SLOAD PUSH2 0x6BA SWAP1 PUSH2 0xB82 JUMP JUMPDEST DUP1 ISZERO PUSH2 0x707 JUMPI DUP1 PUSH1 0x1F LT PUSH2 0x6DC JUMPI PUSH2 0x100 DUP1 DUP4 SLOAD DIV MUL DUP4 MSTORE SWAP2 PUSH1 0x20 ADD SWAP2 PUSH2 0x707 JUMP JUMPDEST DUP3 ADD SWAP2 SWAP1 PUSH1 0x0 MSTORE PUSH1 0x20 PUSH1 0x0 KECCAK256 SWAP1 JUMPDEST DUP2 SLOAD DUP2 MSTORE SWAP1 PUSH1 0x1 ADD SWAP1 PUSH1 0x20 ADD DUP1 DUP4 GT PUSH2 0x6EA JUMPI DUP3 SWAP1 SUB PUSH1 0x1F AND DUP3 ADD SWAP2 JUMPDEST POP POP POP POP POP DUP2 MSTORE POP POP SWAP1 POP DUP1 PUSH1 0x0 ADD MLOAD DUP2 PUSH1 0x20 ADD MLOAD DUP3 PUSH1 0x40 ADD MLOAD SWAP4 POP SWAP4 POP SWAP4 POP POP SWAP2 SWAP4 SWAP1 SWAP3 POP JUMP JUMPDEST PUSH1 0x0 DUP2 SWAP1 POP SWAP2 SWAP1 POP JUMP JUMPDEST PUSH2 0x742 DUP2 PUSH2 0x72F JUMP JUMPDEST DUP3 MSTORE POP POP JUMP JUMPDEST PUSH1 0x0 PUSH1 0x20 DUP3 ADD SWAP1 POP PUSH2 0x75D PUSH1 0x0 DUP4 ADD DUP5 PUSH2 0x739 JUMP JUMPDEST SWAP3 SWAP2 POP POP JUMP JUMPDEST PUSH1 0x0 PUSH1 0x40 MLOAD SWAP1 POP SWAP1 JUMP JUMPDEST PUSH1 0x0 DUP1 REVERT JUMPDEST PUSH1 0x0 DUP1 REVERT JUMPDEST PUSH1 0x0 DUP1 REVERT JUMPDEST PUSH1 0x0 DUP1 REVERT JUMPDEST PUSH1 0x0 PUSH1 0x1F NOT PUSH1 0x1F DUP4 ADD AND SWAP1 POP SWAP2 SWAP1 POP JUMP JUMPDEST PUSH32 0x4E487B7100000000000000000000000000000000000000000000000000000000 PUSH1 0x0 MSTORE PUSH1 0x41 PUSH1 0x4 MSTORE PUSH1 0x24 PUSH1 0x0 REVERT JUMPDEST PUSH2 0x7CA DUP3 PUSH2 0x781 JUMP JUMPDEST DUP2 ADD DUP2 DUP2 LT PUSH8 0xFFFFFFFFFFFFFFFF DUP3 GT OR ISZERO PUSH2 0x7E9 JUMPI PUSH2 0x7E8 PUSH2 0x792 JUMP JUMPDEST JUMPDEST DUP1 PUSH1 0x40 MSTORE POP POP POP JUMP JUMPDEST PUSH1 0x0 PUSH2 0x7FC PUSH2 0x763 JUMP JUMPDEST SWAP1 POP PUSH2 0x808 DUP3 DUP3 PUSH2 0x7C1 JUMP JUMPDEST SWAP2 SWAP1 POP JUMP JUMPDEST PUSH1 0x0 PUSH8 0xFFFFFFFFFFFFFFFF DUP3 GT ISZERO PUSH2 0x828 JUMPI PUSH2 0x827 PUSH2 0x792 JUMP JUMPDEST JUMPDEST PUSH2 0x831 DUP3 PUSH2 0x781 JUMP JUMPDEST SWAP1 POP PUSH1 0x20 DUP2 ADD SWAP1 POP SWAP2 SWAP1 POP JUMP JUMPDEST DUP3 DUP2 DUP4 CALLDATACOPY PUSH1 0x0 DUP4 DUP4 ADD MSTORE POP POP POP JUMP JUMPDEST PUSH1 0x0 PUSH2 0x860 PUSH2 0x85B DUP5 PUSH2 0x80D JUMP JUMPDEST PUSH2 0x7F2 JUMP JUMPDEST SWAP1 POP DUP3 DUP2 MSTORE PUSH1 0x20 DUP2 ADD DUP5 DUP5 DUP5 ADD GT ISZERO PUSH2 0x87C JUMPI PUSH2 0x87B PUSH2 0x77C JUMP JUMPDEST JUMPDEST PUSH2 0x887 DUP5 DUP3 DUP6 PUSH2 0x83E JUMP JUMPDEST POP SWAP4 SWAP3 POP POP POP JUMP JUMPDEST PUSH1 0x0 DUP3 PUSH1 0x1F DUP4 ADD SLT PUSH2 0x8A4 JUMPI PUSH2 0x8A3 PUSH2 0x777 JUMP JUMPDEST JUMPDEST DUP2 CALLDATALOAD PUSH2 0x8B4 DUP5 DUP3 PUSH1 0x20 DUP7 ADD PUSH2 0x84D JUMP JUMPDEST SWAP2 POP POP SWAP3 SWAP2 POP POP JUMP JUMPDEST PUSH1 0x0 DUP1 PUSH1 0x40 DUP4 DUP6 SUB SLT ISZERO PUSH2 0x8D4 JUMPI PUSH2 0x8D3 PUSH2 0x76D JUMP JUMPDEST JUMPDEST PUSH1 0x0 DUP4 ADD CALLDATALOAD PUSH8 0xFFFFFFFFFFFFFFFF DUP2 GT ISZERO PUSH2 0x8F2 JUMPI PUSH2 0x8F1 PUSH2 0x772 JUMP JUMPDEST JUMPDEST PUSH2 0x8FE DUP6 DUP3 DUP7 ADD PUSH2 0x88F JUMP JUMPDEST SWAP3 POP POP PUSH1 0x20 DUP4 ADD CALLDATALOAD PUSH8 0xFFFFFFFFFFFFFFFF DUP2 GT ISZERO PUSH2 0x91F JUMPI PUSH2 0x91E PUSH2 0x772 JUMP JUMPDEST JUMPDEST PUSH2 0x92B DUP6 DUP3 DUP7 ADD PUSH2 0x88F JUMP JUMPDEST SWAP2 POP POP SWAP3 POP SWAP3 SWAP1 POP JUMP JUMPDEST PUSH1 0x0 DUP1 PUSH1 0x0 PUSH1 0x60 DUP5 DUP7 SUB SLT ISZERO PUSH2 0x94E JUMPI PUSH2 0x94D PUSH2 0x76D JUMP JUMPDEST JUMPDEST PUSH1 0x0 DUP5 ADD CALLDATALOAD PUSH8 0xFFFFFFFFFFFFFFFF DUP2 GT ISZERO PUSH2 0x96C JUMPI PUSH2 0x96B PUSH2 0x772 JUMP JUMPDEST JUMPDEST PUSH2 0x978 DUP7 DUP3 DUP8 ADD PUSH2 0x88F JUMP JUMPDEST SWAP4 POP POP PUSH1 0x20 DUP5 ADD CALLDATALOAD PUSH8 0xFFFFFFFFFFFFFFFF DUP2 GT ISZERO PUSH2 0x999 JUMPI PUSH2 0x998 PUSH2 0x772 JUMP JUMPDEST JUMPDEST PUSH2 0x9A5 DUP7 DUP3 DUP8 ADD PUSH2 0x88F JUMP JUMPDEST SWAP3 POP POP PUSH1 0x40 DUP5 ADD CALLDATALOAD PUSH8 0xFFFFFFFFFFFFFFFF DUP2 GT ISZERO PUSH2 0x9C6 JUMPI PUSH2 0x9C5 PUSH2 0x772 JUMP JUMPDEST JUMPDEST PUSH2 0x9D2 DUP7 DUP3 DUP8 ADD PUSH2 0x88F JUMP JUMPDEST SWAP2 POP POP SWAP3 POP SWAP3 POP SWAP3 JUMP JUMPDEST PUSH2 0x9E5 DUP2 PUSH2 0x72F JUMP JUMPDEST DUP2 EQ PUSH2 0x9F0 JUMPI PUSH1 0x0 DUP1 REVERT JUMPDEST POP JUMP JUMPDEST PUSH1 0x0 DUP2 CALLDATALOAD SWAP1 POP PUSH2 0xA02 DUP2 PUSH2 0x9DC JUMP JUMPDEST SWAP3 SWAP2 POP POP JUMP JUMPDEST PUSH1 0x0 PUSH1 0x20 DUP3 DUP5 SUB SLT ISZERO PUSH2 0xA1E JUMPI PUSH2 0xA1D PUSH2 0x76D JUMP JUMPDEST JUMPDEST PUSH1 0x0 PUSH2 0xA2C DUP5 DUP3 DUP6 ADD PUSH2 0x9F3 JUMP JUMPDEST SWAP2 POP POP SWAP3 SWAP2 POP POP JUMP JUMPDEST PUSH1 0x0 DUP2 MLOAD SWAP1 POP SWAP2 SWAP1 POP JUMP JUMPDEST PUSH1 0x0 DUP3 DUP3 MSTORE PUSH1 0x20 DUP3 ADD SWAP1 POP SWAP3 SWAP2 POP POP JUMP JUMPDEST PUSH1 0x0 JUMPDEST DUP4 DUP2 LT ISZERO PUSH2 0xA6F JUMPI DUP1 DUP3 ADD MLOAD DUP2 DUP5 ADD MSTORE PUSH1 0x20 DUP2 ADD SWAP1 POP PUSH2 0xA54 JUMP JUMPDEST PUSH1 0x0 DUP5 DUP5 ADD MSTORE POP POP POP POP JUMP JUMPDEST PUSH1 0x0 PUSH2 0xA86 DUP3 PUSH2 0xA35 JUMP JUMPDEST PUSH2 0xA90 DUP2 DUP6 PUSH2 0xA40 JUMP JUMPDEST SWAP4 POP PUSH2 0xAA0 DUP2 DUP6 PUSH1 0x20 DUP7 ADD PUSH2 0xA51 JUMP JUMPDEST PUSH2 0xAA9 DUP2 PUSH2 0x781 JUMP JUMPDEST DUP5 ADD SWAP2 POP POP SWAP3 SWAP2 POP POP JUMP JUMPDEST PUSH1 0x0 PUSH1 0x80 DUP3 ADD SWAP1 POP PUSH2 0xAC9 PUSH1 0x0 DUP4 ADD DUP8 PUSH2 0x739 JUMP JUMPDEST DUP2 DUP2 SUB PUSH1 0x20 DUP4 ADD MSTORE PUSH2 0xADB DUP2 DUP7 PUSH2 0xA7B JUMP JUMPDEST SWAP1 POP DUP2 DUP2 SUB PUSH1 0x40 DUP4 ADD MSTORE PUSH2 0xAEF DUP2 DUP6 PUSH2 0xA7B JUMP JUMPDEST SWAP1 POP DUP2 DUP2 SUB PUSH1 0x60 DUP4 ADD MSTORE PUSH2 0xB03 DUP2 DUP5 PUSH2 0xA7B JUMP JUMPDEST SWAP1 POP SWAP6 SWAP5 POP POP POP POP POP JUMP JUMPDEST PUSH1 0x0 PUSH1 0x60 DUP3 ADD SWAP1 POP PUSH2 0xB23 PUSH1 0x0 DUP4 ADD DUP7 PUSH2 0x739 JUMP JUMPDEST DUP2 DUP2 SUB PUSH1 0x20 DUP4 ADD MSTORE PUSH2 0xB35 DUP2 DUP6 PUSH2 0xA7B JUMP JUMPDEST SWAP1 POP DUP2 DUP2 SUB PUSH1 0x40 DUP4 ADD MSTORE PUSH2 0xB49 DUP2 DUP5 PUSH2 0xA7B JUMP JUMPDEST SWAP1 POP SWAP5 SWAP4 POP POP POP POP JUMP JUMPDEST PUSH32 0x4E487B7100000000000000000000000000000000000000000000000000000000 PUSH1 0x0 MSTORE PUSH1 0x22 PUSH1 0x4 MSTORE PUSH1 0x24 PUSH1 0x0 REVERT JUMPDEST PUSH1 0x0 PUSH1 0x2 DUP3 DIV SWAP1 POP PUSH1 0x1 DUP3 AND DUP1 PUSH2 0xB9A JUMPI PUSH1 0x7F DUP3 AND SWAP2 POP JUMPDEST PUSH1 0x20 DUP3 LT DUP2 SUB PUSH2 0xBAD JUMPI PUSH2 0xBAC PUSH2 0xB53 JUMP JUMPDEST JUMPDEST POP SWAP2 SWAP1 POP JUMP JUMPDEST PUSH1 0x0 DUP2 SWAP1 POP DUP2 PUSH1 0x0 MSTORE PUSH1 0x20 PUSH1 0x0 KECCAK256 SWAP1 POP SWAP2 SWAP1 POP JUMP JUMPDEST PUSH1 0x0 PUSH1 0x20 PUSH1 0x1F DUP4 ADD DIV SWAP1 POP SWAP2 SWAP1 POP JUMP JUMPDEST PUSH1 0x0 DUP3 DUP3 SHL SWAP1 POP SWAP3 SWAP2 POP POP JUMP JUMPDEST PUSH1 0x0 PUSH1 0x8 DUP4 MUL PUSH2 0xC15 PUSH32 0xFFFFFFFFFFFFFFFFFFFFFFFFFFFFFFFFFFFFFFFFFFFFFFFFFFFFFFFFFFFFFFFF DUP3 PUSH2 0xBD8 JUMP JUMPDEST PUSH2 0xC1F DUP7 DUP4 PUSH2 0xBD8 JUMP JUMPDEST SWAP6 POP DUP1 NOT DUP5 AND SWAP4 POP DUP1 DUP7 AND DUP5 OR SWAP3 POP POP POP SWAP4 SWAP3 POP POP POP JUMP JUMPDEST PUSH1 0x0 DUP2 SWAP1 POP SWAP2 SWAP1 POP JUMP JUMPDEST PUSH1 0x0 PUSH2 0xC5C PUSH2 0xC57 PUSH2 0xC52 DUP5 PUSH2 0x72F JUMP JUMPDEST PUSH2 0xC37 JUMP JUMPDEST PUSH2 0x72F JUMP JUMPDEST SWAP1 POP SWAP2 SWAP1 POP JUMP JUMPDEST PUSH1 0x0 DUP2 SWAP1 POP SWAP2 SWAP1 POP JUMP JUMPDEST PUSH2 0xC76 DUP4 PUSH2 0xC41 JUMP JUMPDEST PUSH2 0xC8A PUSH2 0xC82 DUP3 PUSH2 0xC63 JUMP JUMPDEST DUP5 DUP5 SLOAD PUSH2 0xBE5 JUMP JUMPDEST DUP3 SSTORE POP POP POP POP JUMP JUMPDEST PUSH1 0x0 SWAP1 JUMP JUMPDEST PUSH2 0xC9F PUSH2 0xC92 JUMP JUMPDEST PUSH2 0xCAA DUP2 DUP5 DUP5 PUSH2 0xC6D JUMP JUMPDEST POP POP POP JUMP JUMPDEST JUMPDEST DUP2 DUP2 LT ISZERO PUSH2 0xCCE JUMPI PUSH2 0xCC3 PUSH1 0x0 DUP3 PUSH2 0xC97 JUMP JUMPDEST PUSH1 0x1 DUP2 ADD SWAP1 POP PUSH2 0xCB0 JUMP JUMPDEST POP POP JUMP JUMPDEST PUSH1 0x1F DUP3 GT ISZERO PUSH2 0xD13 JUMPI PUSH2 0xCE4 DUP2 PUSH2 0xBB3 JUMP JUMPDEST PUSH2 0xCED DUP5 PUSH2 0xBC8 JUMP JUMPDEST DUP2 ADD PUSH1 0x20 DUP6 LT ISZERO PUSH2 0xCFC JUMPI DUP2 SWAP1 POP JUMPDEST PUSH2 0xD10 PUSH2 0xD08 DUP6 PUSH2 0xBC8 JUMP JUMPDEST DUP4 ADD DUP3 PUSH2 0xCAF JUMP JUMPDEST POP POP JUMPDEST POP POP POP JUMP JUMPDEST PUSH1 0x0 DUP3 DUP3 SHR SWAP1 POP SWAP3 SWAP2 POP POP JUMP JUMPDEST PUSH1 0x0 PUSH2 0xD36 PUSH1 0x0 NOT DUP5 PUSH1 0x8 MUL PUSH2 0xD18 JUMP JUMPDEST NOT DUP1 DUP4 AND SWAP2 POP POP SWAP3 SWAP2 POP POP JUMP JUMPDEST PUSH1 0x0 PUSH2 0xD4F DUP4 DUP4 PUSH2 0xD25 JUMP JUMPDEST SWAP2 POP DUP3 PUSH1 0x2 MUL DUP3 OR SWAP1 POP SWAP3 SWAP2 POP POP JUMP JUMPDEST PUSH2 0xD68 DUP3 PUSH2 0xA35 JUMP JUMPDEST PUSH8 0xFFFFFFFFFFFFFFFF DUP2 GT ISZERO PUSH2 0xD81 JUMPI PUSH2 0xD80 PUSH2 0x792 JUMP JUMPDEST JUMPDEST PUSH2 0xD8B DUP3 SLOAD PUSH2 0xB82 JUMP JUMPDEST PUSH2 0xD96 DUP3 DUP3 DUP6 PUSH2 0xCD2 JUMP JUMPDEST PUSH1 0x0 PUSH1 0x20 SWAP1 POP PUSH1 0x1F DUP4 GT PUSH1 0x1 DUP2 EQ PUSH2 0xDC9 JUMPI PUSH1 0x0 DUP5 ISZERO PUSH2 0xDB7 JUMPI DUP3 DUP8 ADD MLOAD SWAP1 POP JUMPDEST PUSH2 0xDC1 DUP6 DUP3 PUSH2 0xD43 JUMP JUMPDEST DUP7 SSTORE POP PUSH2 0xE29 JUMP JUMPDEST PUSH1 0x1F NOT DUP5 AND PUSH2 0xDD7 DUP7 PUSH2 0xBB3 JUMP JUMPDEST PUSH1 0x0 JUMPDEST DUP3 DUP2 LT ISZERO PUSH2 0xDFF JUMPI DUP5 DUP10 ADD MLOAD DUP3 SSTORE PUSH1 0x1 DUP3 ADD SWAP2 POP PUSH1 0x20 DUP6 ADD SWAP5 POP PUSH1 0x20 DUP2 ADD SWAP1 POP PUSH2 0xDDA JUMP JUMPDEST DUP7 DUP4 LT ISZERO PUSH2 0xE1C JUMPI DUP5 DUP10 ADD MLOAD PUSH2 0xE18 PUSH1 0x1F DUP10 AND DUP3 PUSH2 0xD25 JUMP JUMPDEST DUP4 SSTORE POP JUMPDEST PUSH1 0x1 PUSH1 0x2 DUP9 MUL ADD DUP9 SSTORE POP POP POP JUMPDEST POP POP POP POP POP POP JUMP JUMPDEST PUSH1 0x0 PUSH1 0x40 DUP3 ADD SWAP1 POP DUP2 DUP2 SUB PUSH1 0x0 DUP4 ADD MSTORE PUSH2 0xE4B DUP2 DUP6 PUSH2 0xA7B JUMP JUMPDEST SWAP1 POP DUP2 DUP2 SUB PUSH1 0x20 DUP4 ADD MSTORE PUSH2 0xE5F DUP2 DUP5 PUSH2 0xA7B JUMP JUMPDEST SWAP1 POP SWAP4 SWAP3 POP POP POP JUMP JUMPDEST PUSH1 0x0 PUSH1 0x60 DUP3 ADD SWAP1 POP DUP2 DUP2 SUB PUSH1 0x0 DUP4 ADD MSTORE PUSH2 0xE82 DUP2 DUP7 PUSH2 0xA7B JUMP JUMPDEST SWAP1 POP DUP2 DUP2 SUB PUSH1 0x20 DUP4 ADD MSTORE PUSH2 0xE96 DUP2 DUP6 PUSH2 0xA7B JUMP JUMPDEST SWAP1 POP DUP2 DUP2 SUB PUSH1 0x40 DUP4 ADD MSTORE PUSH2 0xEAA DUP2 DUP5 PUSH2 0xA7B JUMP JUMPDEST SWAP1 POP SWAP5 SWAP4 POP POP POP POP JUMP JUMPDEST PUSH32 0x496E76616C696420696E64657800000000000000000000000000000000000000 PUSH1 0x0 DUP3 ADD MSTORE POP JUMP JUMPDEST PUSH1 0x0 PUSH2 0xEEA PUSH1 0xD DUP4 PUSH2 0xA40 JUMP JUMPDEST SWAP2 POP PUSH2 0xEF5 DUP3 PUSH2 0xEB4 JUMP JUMPDEST PUSH1 0x20 DUP3 ADD SWAP1 POP SWAP2 SWAP1 POP JUMP JUMPDEST PUSH1 0x0 PUSH1 0x20 DUP3 ADD SWAP1 POP DUP2 DUP2 SUB PUSH1 0x0 DUP4 ADD MSTORE PUSH2 0xF19 DUP2 PUSH2 0xEDD JUMP JUMPDEST SWAP1 POP SWAP2 SWAP1 POP JUMP JUMPDEST PUSH32 0x4E487B7100000000000000000000000000000000000000000000000000000000 PUSH1 0x0 MSTORE PUSH1 0x32 PUSH1 0x4 MSTORE PUSH1 0x24 PUSH1 0x0 REVERT INVALID LOG2 PUSH5 0x6970667358 0x22 SLT KECCAK256 MLOAD 0xAA RETURNCONTRACT 0xB8 DUP10 OR EXTSTATICCALL POP BLOCKHASH POP SELFBALANCE SWAP6 0xF7 SUB SELFBALANCE MSTORE 0x26 0x4D DUP1 SELFBALANCE SWAP9 MSTORE8 DUP11 ORIGIN 0xD0 SHL 0x28 JUMP PUSH10 0xF0054964736F6C634300 ADDMOD 0x1E STOP CALLER "
				},
				"gasEstimates": {
					"creation": {
						"codeDepositCost": "794600",
						"executionCost": "831",
						"totalCost": "795431"
					},
					"external": {
						"getAdminAction(uint256)": "infinite",
						"getAdminActionsCount()": "2489",
						"getLogBatch(uint256)": "infinite",
						"getLogBatchesCount()": "2423",
						"registerAdminAction(string,string,string)": "infinite",
						"registerLogBatch(string,string)": "infinite"
					}
				},
				"methodIdentifiers": {
					"getAdminAction(uint256)": "b2e32f07",
					"getAdminActionsCount()": "8e3d5ebf",
					"getLogBatch(uint256)": "d2a6c282",
					"getLogBatchesCount()": "1a201989",
					"registerAdminAction(string,string,string)": "7f7df466",
					"registerLogBatch(string,string)": "4d011928"
				}
			},
			"storageLayout": {
				"storage": [
					{
						"astId": 21,
						"contract": "AccessRegistry.sol:AccessRegistry",
						"label": "adminActions",
						"offset": 0,
						"slot": "0",
						"type": "t_array(t_struct(AdminAction)10_storage)dyn_storage"
					},
					{
						"astId": 25,
						"contract": "AccessRegistry.sol:AccessRegistry",
						"label": "logBatches",
						"offset": 0,
						"slot": "1",
						"type": "t_array(t_struct(LogBatch)17_storage)dyn_storage"
					}
				],
				"types": {
					"t_array(t_struct(AdminAction)10_storage)dyn_storage": {
						"base": "t_struct(AdminAction)10_storage",
						"encoding": "dynamic_array",
						"label": "struct AccessRegistry.AdminAction[]",
						"numberOfBytes": "32"
					},
					"t_array(t_struct(LogBatch)17_storage)dyn_storage": {
						"base": "t_struct(LogBatch)17_storage",
						"encoding": "dynamic_array",
						"label": "struct AccessRegistry.LogBatch[]",
						"numberOfBytes": "32"
					},
					"t_string_storage": {
						"encoding": "bytes",
						"label": "string",
						"numberOfBytes": "32"
					},
					"t_struct(AdminAction)10_storage": {
						"encoding": "inplace",
						"label": "struct AccessRegistry.AdminAction",
						"members": [
							{
								"astId": 3,
								"contract": "AccessRegistry.sol:AccessRegistry",
								"label": "id",
								"offset": 0,
								"slot": "0",
								"type": "t_uint256"
							},
							{
								"astId": 5,
								"contract": "AccessRegistry.sol:AccessRegistry",
								"label": "actionType",
								"offset": 0,
								"slot": "1",
								"type": "t_string_storage"
							},
							{
								"astId": 7,
								"contract": "AccessRegistry.sol:AccessRegistry",
								"label": "targetUid",
								"offset": 0,
								"slot": "2",
								"type": "t_string_storage"
							},
							{
								"astId": 9,
								"contract": "AccessRegistry.sol:AccessRegistry",
								"label": "timestamp",
								"offset": 0,
								"slot": "3",
								"type": "t_string_storage"
							}
						],
						"numberOfBytes": "128"
					},
					"t_struct(LogBatch)17_storage": {
						"encoding": "inplace",
						"label": "struct AccessRegistry.LogBatch",
						"members": [
							{
								"astId": 12,
								"contract": "AccessRegistry.sol:AccessRegistry",
								"label": "id",
								"offset": 0,
								"slot": "0",
								"type": "t_uint256"
							},
							{
								"astId": 14,
								"contract": "AccessRegistry.sol:AccessRegistry",
								"label": "batchHash",
								"offset": 0,
								"slot": "1",
								"type": "t_string_storage"
							},
							{
								"astId": 16,
								"contract": "AccessRegistry.sol:AccessRegistry",
								"label": "timestamp",
								"offset": 0,
								"slot": "2",
								"type": "t_string_storage"
							}
						],
						"numberOfBytes": "96"
					},
					"t_uint256": {
						"encoding": "inplace",
						"label": "uint256",
						"numberOfBytes": "32"
					}
				}
			},
			"userdoc": {
				"kind": "user",
				"methods": {},
				"version": 1
			}
		}
	}
}