{
	"AccessRegistry.sol": {
		"AccessRegistry": {
			"abi": [
				{
					"anonymous": false,
					"inputs": [
						{
							"indexed": true,
							"internalType": "uint256",
							"name": "id",
							"type": "uint256"
						},
						{
							"indexed": false,
							"internalType": "string",
							"name": "actionType",
							"type": "string"
						},
						{
							"indexed": false,
							"internalType": "string",
							"name": "targetUid",
							"type": "string"
						},
						{
							"indexed": false,
							"internalType": "string",
							"name": "timestamp",
							"type": "string"
						}
					],
					"name": "AdminActionRegistered",
					"type": "event"
				},
				{
					"anonymous": false,
					"inputs": [
						{
							"indexed": true,
							"internalType": "uint256",
							"name": "id",
							"type": "uint256"
						},
						{
							"indexed": false,
							"internalType": "string",
							"name": "uidHash",
							"type": "string"
						},
						{
							"indexed": false,
							"internalType": "string",
							"name": "actionType",
							"type": "string"
						},
						{
							"indexed": false,
							"internalType": "string",
							"name": "role",
							"type": "string"
						},
						{
							"indexed": false,
							"internalType": "bool",
							"name": "active",
							"type": "bool"
						},
						{
							"indexed": false,
							"internalType": "string",
							"name": "timestamp",
							"type": "string"
						}
					],
					"name": "CredentialEventRegistered",
					"type": "event"
				},
				{
					"anonymous": false,
					"inputs": [
						{
							"indexed": true,
							"internalType": "uint256",
							"name": "id",
							"type": "uint256"
						},
						{
							"indexed": false,
							"internalType": "string",
							"name": "batchHash",
							"type": "string"
						},
						{
							"indexed": false,
							"internalType": "string",
							"name": "timestamp",
							"type": "string"
						}
					],
					"name": "LogBatchRegistered",
					"type": "event"
				},
				{
					"inputs": [
						{
							"internalType": "uint256",
							"name": "index",
							"type": "uint256"
						}
					],
					"name": "getAdminAction",
					"outputs": [
						{
							"internalType": "uint256",
							"name": "id",
							"type": "uint256"
						},
						{
							"internalType": "string",
							"name": "actionType",
							"type": "string"
						},
						{
							"internalType": "string",
							"name": "targetUid",
							"type": "string"
						},
						{
							"internalType": "string",
							"name": "timestamp",
							"type": "string"
						}
					],
					"stateMutability": "view",
					"type": "function"
				},
				{
					"inputs": [],
					"name": "getAdminActionsCount",
					"outputs": [
						{
							"internalType": "uint256",
							"name": "",
							"type": "uint256"
						}
					],
					"stateMutability": "view",
					"type": "function"
				},
				{
					"inputs": [
						{
							"internalType": "uint256",
							"name": "index",
							"type": "uint256"
						}
					],
					"name": "getCredentialEvent",
					"outputs": [
						{
							"internalType": "uint256",
							"name": "id",
							"type": "uint256"
						},
						{
							"internalType": "string",
							"name": "uidHash",
							"type": "string"
						},
						{
							"internalType": "string",
							"name": "actionType",
							"type": "string"
						},
						{
							"internalType": "string",
							"name": "role",
							"type": "string"
						},
						{
							"internalType": "bool",
							"name": "active",
							"type": "bool"
						},
						{
							"internalType": "string",
							"name": "timestamp",
							"type": "string"
						}
					],
					"stateMutability": "view",
					"type": "function"
				},
				{
					"inputs": [],
					"name": "getCredentialEventsCount",
					"outputs": [
						{
							"internalType": "uint256",
							"name": "",
							"type": "uint256"
						}
					],
					"stateMutability": "view",
					"type": "function"
				},
				{
					"inputs": [
						{
							"internalType": "uint256",
							"name": "index",
							"type": "uint256"
						}
					],
					"name": "getLogBatch",
					"outputs": [
						{
							"internalType": "uint256",
							"name": "id",
							"type": "uint256"
						},
						{
							"internalType": "string",
							"name": "batchHash",
							"type": "string"
						},
						{
							"internalType": "string",
							"name": "timestamp",
							"type": "string"
						}
					],
					"stateMutability": "view",
					"type": "function"
				},
				{
					"inputs": [],
					"name": "getLogBatchesCount",
					"outputs": [
						{
							"internalType": "uint256",
							"name": "",
							"type": "uint256"
						}
					],
					"stateMutability": "view",
					"type": "function"
				},
				{
					"inputs": [
						{
							"internalType": "string",
							"name": "actionType",
							"type": "string"
						},
						{
							"internalType": "string",
							"name": "targetUid",
							"type": "string"
						},
						{
							"internalType": "string",
							"name": "timestamp",
							"type": "string"
						}
					],
					"name": "registerAdminAction",
					"outputs": [],
					"stateMutability": "nonpayable",
					"type": "function"
				},
				{
					"inputs": [
						{
							"internalType": "string",
							"name": "uidHash",
							"type": "string"
						},
						{
							"internalType": "string",
							"name": "actionType",
							"type": "string"
						},
						{
							"internalType": "string",
							"name": "role",
							"type": "string"
						},
						{
							"internalType": "bool",
							"name": "active",
							"type": "bool"
						},
						{
							"internalType": "string",
							"name": "timestamp",
							"type": "string"
						}
					],
					"name": "registerCredentialEvent",
					"outputs": [],
					"stateMutability": "nonpayable",
					"type": "function"
				},
				{
					"inputs": [
						{
							"internalType": "string",
							"name": "batchHash",
							"type": "string"
						},
						{
							"internalType": "string",
							"name": "timestamp",
							"type": "string"
						}
					],
					"name": "registerLogBatch",
					"outputs": [],
					"stateMutability": "nonpayable",
					"type": "function"
				}
			],
			"devdoc": {
				"kind": "dev",
				"methods": {},
				"version": 1
			},
			"evm": {
				"assembly": "    /* \"AccessRegistry.sol\":61:4467  contract AccessRegistry {... */\n  mstore(0x40, 0x80)\n  callvalue\n  dup1\n  iszero\n  tag_1\n  jumpi\n  revert(0x00, 0x00)\ntag_1:\n  pop\n  dataSize(sub_0)\n  dup1\n  dataOffset(sub_0)\n  0x00\n  codecopy\n  0x00\n  return\nstop\n\nsub_0: assembly {\n        /* \"AccessRegistry.sol\":61:4467  contract AccessRegistry {... */\n      mstore(0x40, 0x80)\n      callvalue\n      dup1\n      iszero\n      tag_1\n      jumpi\n      revert(0x00, 0x00)\n    tag_1:\n      pop\n      jumpi(tag_2, lt(calldatasize, 0x04))\n      shr(0xe0, calldataload(0x00))\n      dup1\n      0x8e3d5ebf\n      gt\n      tag_12\n      jumpi\n      dup1\n      0x8e3d5ebf\n      eq\n      tag_7\n      jumpi\n      dup1\n      0xab3a2b98\n      eq\n      tag_8\n      jumpi\n      dup1\n      0xb2e32f07\n      eq\n      tag_9\n      jumpi\n      dup1\n      0xd2a6c282\n      eq\n      tag_10\n      jumpi\n      dup1\n      0xd5015d65\n      eq\n      tag_11\n      jumpi\n      jump(tag_2)\n    tag_12:\n      dup1\n      0x1a201989\n      eq\n      tag_3\n      jumpi\n      dup1\n      0x4b733744\n      eq\n      tag_4\n      jumpi\n      dup1\n      0x4d011928\n      eq\n      tag_5\n      jumpi\n      dup1\n      0x7f7df466\n      eq\n      tag_6\n      jumpi\n    tag_2:\n      revert(0x00, 0x00)\n        /* \"AccessRegistry.sol\":2932:3035  function getLogBatchesCount() public view returns (uint256) {... */\n    tag_3:\n      tag_13\n      tag_14\n      jump\t// in\n    tag_13:\n      mload(0x40)\n      tag_15\n      swap2\n      swap1\n      tag_16\n      jump\t// in\n    tag_15:\n      mload(0x40)\n      dup1\n      swap2\n      sub\n      swap1\n      return\n        /* \"AccessRegistry.sol\":3043:3736  function registerCredentialEvent(string memory uidHash, string memory actionType, string memory role, bool active, string memory timestamp) public {... */\n    tag_4:\n      tag_17\n      0x04\n      dup1\n      calldatasize\n      sub\n      dup2\n      add\n      swap1\n      tag_18\n      swap2\n      swap1\n      tag_19\n      jump\t// in\n    tag_18:\n      tag_20\n      jump\t// in\n    tag_17:\n      stop\n        /* \"AccessRegistry.sol\":2170:2561  function registerLogBatch(string memory batchHash, string memory timestamp) public {... */\n    tag_5:\n      tag_21\n      0x04\n      dup1\n      calldatasize\n      sub\n      dup2\n      add\n      swap1\n      tag_22\n      swap2\n      swap1\n      tag_23\n      jump\t// in\n    tag_22:\n      tag_24\n      jump\t// in\n    tag_21:\n      stop\n        /* \"AccessRegistry.sol\":1126:1612  function registerAdminAction(string memory actionType, string memory targetUid, string memory timestamp) public {... */\n    tag_6:\n      tag_25\n      0x04\n      dup1\n      calldatasize\n      sub\n      dup2\n      add\n      swap1\n      tag_26\n      swap2\n      swap1\n      tag_27\n      jump\t// in\n    tag_26:\n      tag_28\n      jump\t// in\n    tag_25:\n      stop\n        /* \"AccessRegistry.sol\":2055:2162  function getAdminActionsCount() public view returns (uint256) {... */\n    tag_7:\n      tag_29\n      tag_30\n      jump\t// in\n    tag_29:\n      mload(0x40)\n      tag_31\n      swap2\n      swap1\n      tag_16\n      jump\t// in\n    tag_31:\n      mload(0x40)\n      dup1\n      swap2\n      sub\n      swap1\n      return\n        /* \"AccessRegistry.sol\":3744:4335  function getCredentialEvent(uint256 index) public view returns (uint256 id, string memory uidHash, string memory actionType, string memory role, bool active, string memory timestamp) {... */\n    tag_8:\n      tag_32\n      0x04\n      dup1\n      calldatasize\n      sub\n      dup2\n      add\n      swap1\n      tag_33\n      swap2\n      swap1\n      tag_34\n      jump\t// in\n    tag_33:\n      tag_35\n      jump\t// in\n    tag_32:\n      mload(0x40)\n      tag_36\n      swap7\n      swap6\n      swap5\n      swap4\n      swap3\n      swap2\n      swap1\n      tag_37\n      jump\t// in\n    tag_36:\n      mload(0x40)\n      dup1\n      swap2\n      sub\n      swap1\n      return\n        /* \"AccessRegistry.sol\":1620:2047  function getAdminAction(uint256 index) public view returns (uint256 id, string memory actionType, string memory targetUid, string memory timestamp) {... */\n    tag_9:\n      tag_38\n      0x04\n      dup1\n      calldatasize\n      sub\n      dup2\n      add\n      swap1\n      tag_39\n      swap2\n      swap1\n      tag_34\n      jump\t// in\n    tag_39:\n      tag_40\n      jump\t// in\n    tag_38:\n      mload(0x40)\n      tag_41\n      swap5\n      swap4\n      swap3\n      swap2\n      swap1\n      tag_42\n      jump\t// in\n    tag_41:\n      mload(0x40)\n      dup1\n      swap2\n      sub\n      swap1\n      return\n        /* \"AccessRegistry.sol\":2569:2924  function getLogBatch(uint256 index) public view returns (uint256 id, string memory batchHash, string memory timestamp) {... */\n    tag_10:\n      tag_43\n      0x04\n      dup1\n      calldatasize\n      sub\n      dup2\n      add\n      swap1\n      tag_44\n      swap2\n      swap1\n      tag_34\n      jump\t// in\n    tag_44:\n      tag_45\n      jump\t// in\n    tag_43:\n      mload(0x40)\n      tag_46\n      swap4\n      swap3\n      swap2\n      swap1\n      tag_47\n      jump\t// in\n    tag_46:\n      mload(0x40)\n      dup1\n      swap2\n      sub\n      swap1\n      return\n        /* \"AccessRegistry.sol\":4343:4458  function getCredentialEventsCount() public view returns (uint256) {... */\n    tag_11:\n      tag_48\n      tag_49\n      jump\t// in\n    tag_48:\n      mload(0x40)\n      tag_50\n      swap2\n      swap1\n      tag_16\n      jump\t// in\n    tag_50:\n      mload(0x40)\n      dup1\n      swap2\n      sub\n      swap1\n      return\n        /* \"AccessRegistry.sol\":2932:3035  function getLogBatchesCount() public view returns (uint256) {... */\n    tag_14:\n        /* \"AccessRegistry.sol\":2983:2990  uint256 */\n      0x00\n        /* \"AccessRegistry.sol\":3010:3020  logBatches */\n      0x01\n        /* \"AccessRegistry.sol\":3010:3027  logBatches.length */\n      dup1\n      sload\n      swap1\n      pop\n        /* \"AccessRegistry.sol\":3003:3027  return logBatches.length */\n      swap1\n      pop\n        /* \"AccessRegistry.sol\":2932:3035  function getLogBatchesCount() public view returns (uint256) {... */\n      swap1\n      jump\t// out\n        /* \"AccessRegistry.sol\":3043:3736  function registerCredentialEvent(string memory uidHash, string memory actionType, string memory role, bool active, string memory timestamp) public {... */\n    tag_20:\n        /* \"AccessRegistry.sol\":3201:3216  uint256 eventId */\n      0x00\n        /* \"AccessRegistry.sol\":3219:3235  credentialEvents */\n      0x02\n        /* \"AccessRegistry.sol\":3219:3242  credentialEvents.length */\n      dup1\n      sload\n      swap1\n      pop\n        /* \"AccessRegistry.sol\":3201:3242  uint256 eventId = credentialEvents.length */\n      swap1\n      pop\n        /* \"AccessRegistry.sol\":3255:3271  credentialEvents */\n      0x02\n        /* \"AccessRegistry.sol\":3291:3530  CredentialEvent({... */\n      mload(0x40)\n      dup1\n      0xc0\n      add\n      0x40\n      mstore\n      dup1\n        /* \"AccessRegistry.sol\":3330:3337  eventId */\n      dup4\n        /* \"AccessRegistry.sol\":3291:3530  CredentialEvent({... */\n      dup2\n      mstore\n      0x20\n      add\n        /* \"AccessRegistry.sol\":3365:3372  uidHash */\n      dup9\n        /* \"AccessRegistry.sol\":3291:3530  CredentialEvent({... */\n      dup2\n      mstore\n      0x20\n      add\n        /* \"AccessRegistry.sol\":3403:3413  actionType */\n      dup8\n        /* \"AccessRegistry.sol\":3291:3530  CredentialEvent({... */\n      dup2\n      mstore\n      0x20\n      add\n        /* \"AccessRegistry.sol\":3438:3442  role */\n      dup7\n        /* \"AccessRegistry.sol\":3291:3530  CredentialEvent({... */\n      dup2\n      mstore\n      0x20\n      add\n        /* \"AccessRegistry.sol\":3469:3475  active */\n      dup6\n        /* \"AccessRegistry.sol\":3291:3530  CredentialEvent({... */\n      iszero\n      iszero\n      dup2\n      mstore\n      0x20\n      add\n        /* \"AccessRegistry.sol\":3505:3514  timestamp */\n      dup5\n        /* \"AccessRegistry.sol\":3291:3530  CredentialEvent({... */\n      dup2\n      mstore\n      pop\n        /* \"AccessRegistry.sol\":3255:3541  credentialEvents.push(... */\n      swap1\n      dup1\n      0x01\n      dup2\n      sload\n      add\n      dup1\n      dup3\n      sstore\n      dup1\n      swap2\n      pop\n      pop\n      0x01\n      swap1\n      sub\n      swap1\n      0x00\n      mstore\n      keccak256(0x00, 0x20)\n      swap1\n      0x06\n      mul\n      add\n      0x00\n      swap1\n      swap2\n      swap1\n      swap2\n      swap1\n      swap2\n      pop\n      0x00\n      dup3\n      add\n      mload\n      dup2\n      0x00\n      add\n      sstore\n      0x20\n      dup3\n      add\n      mload\n      dup2\n      0x01\n      add\n      swap1\n      dup2\n      tag_54\n      swap2\n      swap1\n      tag_55\n      jump\t// in\n    tag_54:\n      pop\n      0x40\n      dup3\n      add\n      mload\n      dup2\n      0x02\n      add\n      swap1\n      dup2\n      tag_56\n      swap2\n      swap1\n      tag_55\n      jump\t// in\n    tag_56:\n      pop\n      0x60\n      dup3\n      add\n      mload\n      dup2\n      0x03\n      add\n      swap1\n      dup2\n      tag_57\n      swap2\n      swap1\n      tag_55\n      jump\t// in\n    tag_57:\n      pop\n      0x80\n      dup3\n      add\n      mload\n      dup2\n      0x04\n      add\n      exp(0x0100, 0x00)\n      dup2\n      sload\n      dup2\n      0xff\n      mul\n      not\n      and\n      swap1\n      dup4\n      iszero\n      iszero\n      mul\n      or\n      swap1\n      sstore\n      pop\n      0xa0\n      dup3\n      add\n      mload\n      dup2\n      0x05\n      add\n      swap1\n      dup2\n      tag_58\n      swap2\n      swap1\n      tag_55\n      jump\t// in\n    tag_58:\n      pop\n      pop\n      pop\n        /* \"AccessRegistry.sol\":3599:3606  eventId */\n      dup1\n        /* \"AccessRegistry.sol\":3559:3728  CredentialEventRegistered(... */\n      0x908906284f715d08b08eb37f63c62e33ca62fefbbf751c838a514bb2f71f8c61\n        /* \"AccessRegistry.sol\":3621:3628  uidHash */\n      dup8\n        /* \"AccessRegistry.sol\":3643:3653  actionType */\n      dup8\n        /* \"AccessRegistry.sol\":3668:3672  role */\n      dup8\n        /* \"AccessRegistry.sol\":3687:3693  active */\n      dup8\n        /* \"AccessRegistry.sol\":3708:3717  timestamp */\n      dup8\n        /* \"AccessRegistry.sol\":3559:3728  CredentialEventRegistered(... */\n      mload(0x40)\n      tag_59\n      swap6\n      swap5\n      swap4\n      swap3\n      swap2\n      swap1\n      tag_60\n      jump\t// in\n    tag_59:\n      mload(0x40)\n      dup1\n      swap2\n      sub\n      swap1\n      log2\n        /* \"AccessRegistry.sol\":3190:3736  {... */\n      pop\n        /* \"AccessRegistry.sol\":3043:3736  function registerCredentialEvent(string memory uidHash, string memory actionType, string memory role, bool active, string memory timestamp) public {... */\n      pop\n      pop\n      pop\n      pop\n      pop\n      jump\t// out\n        /* \"AccessRegistry.sol\":2170:2561  function registerLogBatch(string memory batchHash, string memory timestamp) public {... */\n    tag_24:\n        /* \"AccessRegistry.sol\":2264:2279  uint256 batchId */\n      0x00\n        /* \"AccessRegistry.sol\":2282:2292  logBatches */\n      0x01\n        /* \"AccessRegistry.sol\":2282:2299  logBatches.length */\n      dup1\n      sload\n      swap1\n      pop\n        /* \"AccessRegistry.sol\":2264:2299  uint256 batchId = logBatches.length */\n      swap1\n      pop\n        /* \"AccessRegistry.sol\":2312:2322  logBatches */\n      0x01\n        /* \"AccessRegistry.sol\":2342:2475  LogBatch({... */\n      mload(0x40)\n      dup1\n      0x60\n      add\n      0x40\n      mstore\n      dup1\n        /* \"AccessRegistry.sol\":2374:2381  batchId */\n      dup4\n        /* \"AccessRegistry.sol\":2342:2475  LogBatch({... */\n      dup2\n      mstore\n      0x20\n      add\n        /* \"AccessRegistry.sol\":2411:2420  batchHash */\n      dup6\n        /* \"AccessRegistry.sol\":2342:2475  LogBatch({... */\n      dup2\n      mstore\n      0x20\n      add\n        /* \"AccessRegistry.sol\":2450:2459  timestamp */\n      dup5\n        /* \"AccessRegistry.sol\":2342:2475  LogBatch({... */\n      dup2\n      mstore\n      pop\n        /* \"AccessRegistry.sol\":2312:2486  logBatches.push(... */\n      swap1\n      dup1\n      0x01\n      dup2\n      sload\n      add\n      dup1\n      dup3\n      sstore\n      dup1\n      swap2\n      pop\n      pop\n      0x01\n      swap1\n      sub\n      swap1\n      0x00\n      mstore\n      keccak256(0x00, 0x20)\n      swap1\n      0x03\n      mul\n      add\n      0x00\n      swap1\n      swap2\n      swap1\n      swap2\n      swap1\n      swap2\n      pop\n      0x00\n      dup3\n      add\n      mload\n      dup2\n      0x00\n      add\n      sstore\n      0x20\n      dup3\n      add\n      mload\n      dup2\n      0x01\n      add\n      swap1\n      dup2\n      tag_63\n      swap2\n      swap1\n      tag_55\n      jump\t// in\n    tag_63:\n      pop\n      0x40\n      dup3\n      add\n      mload\n      dup2\n      0x02\n      add\n      swap1\n      dup2\n      tag_64\n      swap2\n      swap1\n      tag_55\n      jump\t// in\n    tag_64:\n      pop\n      pop\n      pop\n        /* \"AccessRegistry.sol\":2523:2530  batchId */\n      dup1\n        /* \"AccessRegistry.sol\":2504:2553  LogBatchRegistered(batchId, batchHash, timestamp) */\n      0x7d389bd6a77439844633e3cdcd07741851680f113e970aaf5a6277c6d8fe27f2\n        /* \"AccessRegistry.sol\":2532:2541  batchHash */\n      dup5\n        /* \"AccessRegistry.sol\":2543:2552  timestamp */\n      dup5\n        /* \"AccessRegistry.sol\":2504:2553  LogBatchRegistered(batchId, batchHash, timestamp) */\n      mload(0x40)\n      tag_65\n      swap3\n      swap2\n      swap1\n      tag_66\n      jump\t// in\n    tag_65:\n      mload(0x40)\n      dup1\n      swap2\n      sub\n      swap1\n      log2\n        /* \"AccessRegistry.sol\":2253:2561  {... */\n      pop\n        /* \"AccessRegistry.sol\":2170:2561  function registerLogBatch(string memory batchHash, string memory timestamp) public {... */\n      pop\n      pop\n      jump\t// out\n        /* \"AccessRegistry.sol\":1126:1612  function registerAdminAction(string memory actionType, string memory targetUid, string memory timestamp) public {... */\n    tag_28:\n        /* \"AccessRegistry.sol\":1249:1265  uint256 actionId */\n      0x00\n        /* \"AccessRegistry.sol\":1268:1280  adminActions */\n      0x00\n        /* \"AccessRegistry.sol\":1268:1287  adminActions.length */\n      dup1\n      sload\n      swap1\n      pop\n        /* \"AccessRegistry.sol\":1249:1287  uint256 actionId = adminActions.length */\n      swap1\n      pop\n        /* \"AccessRegistry.sol\":1300:1312  adminActions */\n      0x00\n        /* \"AccessRegistry.sol\":1332:1510  AdminAction({... */\n      mload(0x40)\n      dup1\n      0x80\n      add\n      0x40\n      mstore\n      dup1\n        /* \"AccessRegistry.sol\":1367:1375  actionId */\n      dup4\n        /* \"AccessRegistry.sol\":1332:1510  AdminAction({... */\n      dup2\n      mstore\n      0x20\n      add\n        /* \"AccessRegistry.sol\":1406:1416  actionType */\n      dup7\n        /* \"AccessRegistry.sol\":1332:1510  AdminAction({... */\n      dup2\n      mstore\n      0x20\n      add\n        /* \"AccessRegistry.sol\":1446:1455  targetUid */\n      dup6\n        /* \"AccessRegistry.sol\":1332:1510  AdminAction({... */\n      dup2\n      mstore\n      0x20\n      add\n        /* \"AccessRegistry.sol\":1485:1494  timestamp */\n      dup5\n        /* \"AccessRegistry.sol\":1332:1510  AdminAction({... */\n      dup2\n      mstore\n      pop\n        /* \"AccessRegistry.sol\":1300:1521  adminActions.push(... */\n      swap1\n      dup1\n      0x01\n      dup2\n      sload\n      add\n      dup1\n      dup3\n      sstore\n      dup1\n      swap2\n      pop\n      pop\n      0x01\n      swap1\n      sub\n      swap1\n      0x00\n      mstore\n      keccak256(0x00, 0x20)\n      swap1\n      0x04\n      mul\n      add\n      0x00\n      swap1\n      swap2\n      swap1\n      swap2\n      swap1\n      swap2\n      pop\n      0x00\n      dup3\n      add\n      mload\n      dup2\n      0x00\n      add\n      sstore\n      0x20\n      dup3\n      add\n      mload\n      dup2\n      0x01\n      add\n      swap1\n      dup2\n      tag_69\n      swap2\n      swap1\n      tag_55\n      jump\t// in\n    tag_69:\n      pop\n      0x40\n      dup3\n      add\n      mload\n      dup2\n      0x02\n      add\n      swap1\n      dup2\n      tag_70\n      swap2\n      swap1\n      tag_55\n      jump\t// in\n    tag_70:\n      pop\n      0x60\n      dup3\n      add\n      mload\n      dup2\n      0x03\n      add\n      swap1\n      dup2\n      tag_71\n      swap2\n      swap1\n      tag_55\n      jump\t// in\n    tag_71:\n      pop\n      pop\n      pop\n        /* \"AccessRegistry.sol\":1561:1569  actionId */\n      dup1\n        /* \"AccessRegistry.sol\":1539:1604  AdminActionRegistered(actionId, actionType, targetUid, timestamp) */\n      0xd2a6e8d11d03db3ba16f4b221906f86fe27a206183788136005c1abfef45f1b6\n        /* \"AccessRegistry.sol\":1571:1581  actionType */\n      dup6\n        /* \"AccessRegistry.sol\":1583:1592  targetUid */\n      dup6\n        /* \"AccessRegistry.sol\":1594:1603  timestamp */\n      dup6\n        /* \"AccessRegistry.sol\":1539:1604  AdminActionRegistered(actionId, actionType, targetUid, timestamp) */\n      mload(0x40)\n      tag_72\n      swap4\n      swap3\n      swap2\n      swap1\n      tag_73\n      jump\t// in\n    tag_72:\n      mload(0x40)\n      dup1\n      swap2\n      sub\n      swap1\n      log2\n        /* \"AccessRegistry.sol\":1238:1612  {... */\n      pop\n        /* \"AccessRegistry.sol\":1126:1612  function registerAdminAction(string memory actionType, string memory targetUid, string memory timestamp) public {... */\n      pop\n      pop\n      pop\n      jump\t// out\n        /* \"AccessRegistry.sol\":2055:2162  function getAdminActionsCount() public view returns (uint256) {... */\n    tag_30:\n        /* \"AccessRegistry.sol\":2108:2115  uint256 */\n      0x00\n        /* \"AccessRegistry.sol\":2135:2147  adminActions */\n      0x00\n        /* \"AccessRegistry.sol\":2135:2154  adminActions.length */\n      dup1\n      sload\n      swap1\n      pop\n        /* \"AccessRegistry.sol\":2128:2154  return adminActions.length */\n      swap1\n      pop\n        /* \"AccessRegistry.sol\":2055:2162  function getAdminActionsCount() public view returns (uint256) {... */\n      swap1\n      jump\t// out\n        /* \"AccessRegistry.sol\":3744:4335  function getCredentialEvent(uint256 index) public view returns (uint256 id, string memory uidHash, string memory actionType, string memory role, bool active, string memory timestamp) {... */\n    tag_35:\n        /* \"AccessRegistry.sol\":3808:3818  uint256 id */\n      0x00\n        /* \"AccessRegistry.sol\":3820:3841  string memory uidHash */\n      0x60\n        /* \"AccessRegistry.sol\":3843:3867  string memory actionType */\n      dup1\n        /* \"AccessRegistry.sol\":3869:3887  string memory role */\n      0x60\n        /* \"AccessRegistry.sol\":3889:3900  bool active */\n      0x00\n        /* \"AccessRegistry.sol\":3902:3925  string memory timestamp */\n      0x60\n        /* \"AccessRegistry.sol\":3954:3970  credentialEvents */\n      0x02\n        /* \"AccessRegistry.sol\":3954:3977  credentialEvents.length */\n      dup1\n      sload\n      swap1\n      pop\n        /* \"AccessRegistry.sol\":3946:3951  index */\n      dup8\n        /* \"AccessRegistry.sol\":3946:3977  index < credentialEvents.length */\n      lt\n        /* \"AccessRegistry.sol\":3938:3995  require(index < credentialEvents.length, \"Invalid index\") */\n      tag_76\n      jumpi\n      mload(0x40)\n      0x08c379a000000000000000000000000000000000000000000000000000000000\n      dup2\n      mstore\n      0x04\n      add\n      tag_77\n      swap1\n      tag_78\n      jump\t// in\n    tag_77:\n      mload(0x40)\n      dup1\n      swap2\n      sub\n      swap1\n      revert\n    tag_76:\n        /* \"AccessRegistry.sol\":4008:4046  CredentialEvent memory credentialEvent */\n      0x00\n        /* \"AccessRegistry.sol\":4049:4065  credentialEvents */\n      0x02\n        /* \"AccessRegistry.sol\":4066:4071  index */\n      dup9\n        /* \"AccessRegistry.sol\":4049:4072  credentialEvents[index] */\n      dup2\n      sload\n      dup2\n      lt\n      tag_79\n      jumpi\n      tag_80\n      tag_81\n      jump\t// in\n    tag_80:\n    tag_79:\n      swap1\n      0x00\n      mstore\n      keccak256(0x00, 0x20)\n      swap1\n      0x06\n      mul\n      add\n        /* \"AccessRegistry.sol\":4008:4072  CredentialEvent memory credentialEvent = credentialEvents[index] */\n      mload(0x40)\n      dup1\n      0xc0\n      add\n      0x40\n      mstore\n      swap1\n      dup2\n      0x00\n      dup3\n      add\n      sload\n      dup2\n      mstore\n      0x20\n      add\n      0x01\n      dup3\n      add\n      dup1\n      sload\n      tag_83\n      swap1\n      tag_84\n      jump\t// in\n    tag_83:\n      dup1\n      0x1f\n      add\n      0x20\n      dup1\n      swap2\n      div\n      mul\n      0x20\n      add\n      mload(0x40)\n      swap1\n      dup2\n      add\n      0x40\n      mstore\n      dup1\n      swap3\n      swap2\n      swap1\n      dup2\n      dup2\n      mstore\n      0x20\n      add\n      dup3\n      dup1\n      sload\n      tag_85\n      swap1\n      tag_84\n      jump\t// in\n    tag_85:\n      dup1\n      iszero\n      tag_86\n      jumpi\n      dup1\n      0x1f\n      lt\n      tag_87\n      jumpi\n      0x0100\n      dup1\n      dup4\n      sload\n      div\n      mul\n      dup4\n      mstore\n      swap2\n      0x20\n      add\n      swap2\n      jump(tag_86)\n    tag_87:\n      dup3\n      add\n      swap2\n      swap1\n      0x00\n      mstore\n      keccak256(0x00, 0x20)\n      swap1\n    tag_88:\n      dup2\n      sload\n      dup2\n      mstore\n      swap1\n      0x01\n      add\n      swap1\n      0x20\n      add\n      dup1\n      dup4\n      gt\n      tag_88\n      jumpi\n      dup3\n      swap1\n      sub\n      0x1f\n      and\n      dup3\n      add\n      swap2\n    tag_86:\n      pop\n      pop\n      pop\n      pop\n      pop\n      dup2\n      mstore\n      0x20\n      add\n      0x02\n      dup3\n      add\n      dup1\n      sload\n      tag_89\n      swap1\n      tag_84\n      jump\t// in\n    tag_89:\n      dup1\n      0x1f\n      add\n      0x20\n      dup1\n      swap2\n      div\n      mul\n      0x20\n      add\n      mload(0x40)\n      swap1\n      dup2\n      add\n      0x40\n      mstore\n      dup1\n      swap3\n      swap2\n      swap1\n      dup2\n      dup2\n      mstore\n      0x20\n      add\n      dup3\n      dup1\n      sload\n      tag_90\n      swap1\n      tag_84\n      jump\t// in\n    tag_90:\n      dup1\n      iszero\n      tag_91\n      jumpi\n      dup1\n      0x1f\n      lt\n      tag_92\n      jumpi\n      0x0100\n      dup1\n      dup4\n      sload\n      div\n      mul\n      dup4\n      mstore\n      swap2\n      0x20\n      add\n      swap2\n      jump(tag_91)\n    tag_92:\n      dup3\n      add\n      swap2\n      swap1\n      0x00\n      mstore\n      keccak256(0x00, 0x20)\n      swap1\n    tag_93:\n      dup2\n      sload\n      dup2\n      mstore\n      swap1\n      0x01\n      add\n      swap1\n      0x20\n      add\n      dup1\n      dup4\n      gt\n      tag_93\n      jumpi\n      dup3\n      swap1\n      sub\n      0x1f\n      and\n      dup3\n      add\n      swap2\n    tag_91:\n      pop\n      pop\n      pop\n      pop\n      pop\n      dup2\n      mstore\n      0x20\n      add\n      0x03\n      dup3\n      add\n      dup1\n      sload\n      tag_94\n      swap1\n      tag_84\n      jump\t// in\n    tag_94:\n      dup1\n      0x1f\n      add\n      0x20\n      dup1\n      swap2\n      div\n      mul\n      0x20\n      add\n      mload(0x40)\n      swap1\n      dup2\n      add\n      0x40\n      mstore\n      dup1\n      swap3\n      swap2\n      swap1\n      dup2\n      dup2\n      mstore\n      0x20\n      add\n      dup3\n      dup1\n      sload\n      tag_95\n      swap1\n      tag_84\n      jump\t// in\n    tag_95:\n      dup1\n      iszero\n      tag_96\n      jumpi\n      dup1\n      0x1f\n      lt\n      tag_97\n      jumpi\n      0x0100\n      dup1\n      dup4\n      sload\n      div\n      mul\n      dup4\n      mstore\n      swap2\n      0x20\n      add\n      swap2\n      jump(tag_96)\n    tag_97:\n      dup3\n      add\n      swap2\n      swap1\n      0x00\n      mstore\n      keccak256(0x00, 0x20)\n      swap1\n    tag_98:\n      dup2\n      sload\n      dup2\n      mstore\n      swap1\n      0x01\n      add\n      swap1\n      0x20\n      add\n      dup1\n      dup4\n      gt\n      tag_98\n      jumpi\n      dup3\n      swap1\n      sub\n      0x1f\n      and\n      dup3\n      add\n      swap2\n    tag_96:\n      pop\n      pop\n      pop\n      pop\n      pop\n      dup2\n      mstore\n      0x20\n      add\n      0x04\n      dup3\n      add\n      0x00\n      swap1\n      sload\n      swap1\n      0x0100\n      exp\n      swap1\n      div\n      0xff\n      and\n      iszero\n      iszero\n      iszero\n      iszero\n      dup2\n      mstore\n      0x20\n      add\n      0x05\n      dup3\n      add\n      dup1\n      sload\n      tag_99\n      swap1\n      tag_84\n      jump\t// in\n    tag_99:\n      dup1\n      0x1f\n      add\n      0x20\n      dup1\n      swap2\n      div\n      mul\n      0x20\n      add\n      mload(0x40)\n      swap1\n      dup2\n      add\n      0x40\n      mstore\n      dup1\n      swap3\n      swap2\n      swap1\n      dup2\n      dup2\n      mstore\n      0x20\n      add\n      dup3\n      dup1\n      sload\n      tag_100\n      swap1\n      tag_84\n      jump\t// in\n    tag_100:\n      dup1\n      iszero\n      tag_101\n      jumpi\n      dup1\n      0x1f\n      lt\n      tag_102\n      jumpi\n      0x0100\n      dup1\n      dup4\n      sload\n      div\n      mul\n      dup4\n      mstore\n      swap2\n      0x20\n      add\n      swap2\n      jump(tag_101)\n    tag_102:\n      dup3\n      add\n      swap2\n      swap1\n      0x00\n      mstore\n      keccak256(0x00, 0x20)\n      swap1\n    tag_103:\n      dup2\n      sload\n      dup2\n      mstore\n      swap1\n      0x01\n      add\n      swap1\n      0x20\n      add\n      dup1\n      dup4\n      gt\n      tag_103\n      jumpi\n      dup3\n      swap1\n      sub\n      0x1f\n      and\n      dup3\n      add\n      swap2\n    tag_101:\n      pop\n      pop\n      pop\n      pop\n      pop\n      dup2\n      mstore\n      pop\n      pop\n      swap1\n      pop\n        /* \"AccessRegistry.sol\":4107:4122  credentialEvent */\n      dup1\n        /* \"AccessRegistry.sol\":4107:4125  credentialEvent.id */\n      0x00\n      add\n      mload\n        /* \"AccessRegistry.sol\":4140:4155  credentialEvent */\n      dup2\n        /* \"AccessRegistry.sol\":4140:4163  credentialEvent.uidHash */\n      0x20\n      add\n      mload\n        /* \"AccessRegistry.sol\":4178:4193  credentialEvent */\n      dup3\n        /* \"AccessRegistry.sol\":4178:4204  credentialEvent.actionType */\n      0x40\n      add\n      mload\n        /* \"AccessRegistry.sol\":4219:4234  credentialEvent */\n      dup4\n        /* \"AccessRegistry.sol\":4219:4239  credentialEvent.role */\n      0x60\n      add\n      mload\n        /* \"AccessRegistry.sol\":4254:4269  credentialEvent */\n      dup5\n        /* \"AccessRegistry.sol\":4254:4276  credentialEvent.active */\n      0x80\n      add\n      mload\n        /* \"AccessRegistry.sol\":4291:4306  credentialEvent */\n      dup6\n        /* \"AccessRegistry.sol\":4291:4316  credentialEvent.timestamp */\n      0xa0\n      add\n      mload\n        /* \"AccessRegistry.sol\":4085:4327  return (... */\n      swap7\n      pop\n      swap7\n      pop\n      swap7\n      pop\n      swap7\n      pop\n      swap7\n      pop\n      swap7\n      pop\n      pop\n        /* \"AccessRegistry.sol\":3744:4335  function getCredentialEvent(uint256 index) public view returns (uint256 id, string memory uidHash, string memory actionType, string memory role, bool active, string memory timestamp) {... */\n      swap2\n      swap4\n      swap6\n      pop\n      swap2\n      swap4\n      swap6\n      jump\t// out\n        /* \"AccessRegistry.sol\":1620:2047  function getAdminAction(uint256 index) public view returns (uint256 id, string memory actionType, string memory targetUid, string memory timestamp) {... */\n    tag_40:\n        /* \"AccessRegistry.sol\":1680:1690  uint256 id */\n      0x00\n        /* \"AccessRegistry.sol\":1692:1716  string memory actionType */\n      0x60\n        /* \"AccessRegistry.sol\":1718:1741  string memory targetUid */\n      dup1\n        /* \"AccessRegistry.sol\":1743:1766  string memory timestamp */\n      0x60\n        /* \"AccessRegistry.sol\":1795:1807  adminActions */\n      0x00\n        /* \"AccessRegistry.sol\":1795:1814  adminActions.length */\n      dup1\n      sload\n      swap1\n      pop\n        /* \"AccessRegistry.sol\":1787:1792  index */\n      dup6\n        /* \"AccessRegistry.sol\":1787:1814  index < adminActions.length */\n      lt\n        /* \"AccessRegistry.sol\":1779:1832  require(index < adminActions.length, \"Invalid index\") */\n      tag_105\n      jumpi\n      mload(0x40)\n      0x08c379a000000000000000000000000000000000000000000000000000000000\n      dup2\n      mstore\n      0x04\n      add\n      tag_106\n      swap1\n      tag_78\n      jump\t// in\n    tag_106:\n      mload(0x40)\n      dup1\n      swap2\n      sub\n      swap1\n      revert\n    tag_105:\n        /* \"AccessRegistry.sol\":1845:1870  AdminAction memory action */\n      0x00\n        /* \"AccessRegistry.sol\":1873:1885  adminActions */\n      0x00\n        /* \"AccessRegistry.sol\":1886:1891  index */\n      dup7\n        /* \"AccessRegistry.sol\":1873:1892  adminActions[index] */\n      dup2\n      sload\n      dup2\n      lt\n      tag_107\n      jumpi\n      tag_108\n      tag_81\n      jump\t// in\n    tag_108:\n    tag_107:\n      swap1\n      0x00\n      mstore\n      keccak256(0x00, 0x20)\n      swap1\n      0x04\n      mul\n      add\n        /* \"AccessRegistry.sol\":1845:1892  AdminAction memory action = adminActions[index] */\n      mload(0x40)\n      dup1\n      0x80\n      add\n      0x40\n      mstore\n      swap1\n      dup2\n      0x00\n      dup3\n      add\n      sload\n      dup2\n      mstore\n      0x20\n      add\n      0x01\n      dup3\n      add\n      dup1\n      sload\n      tag_110\n      swap1\n      tag_84\n      jump\t// in\n    tag_110:\n      dup1\n      0x1f\n      add\n      0x20\n      dup1\n      swap2\n      div\n      mul\n      0x20\n      add\n      mload(0x40)\n      swap1\n      dup2\n      add\n      0x40\n      mstore\n      dup1\n      swap3\n      swap2\n      swap1\n      dup2\n      dup2\n      mstore\n      0x20\n      add\n      dup3\n      dup1\n      sload\n      tag_111\n      swap1\n      tag_84\n      jump\t// in\n    tag_111:\n      dup1\n      iszero\n      tag_112\n      jumpi\n      dup1\n      0x1f\n      lt\n      tag_113\n      jumpi\n      0x0100\n      dup1\n      dup4\n      sload\n      div\n      mul\n      dup4\n      mstore\n      swap2\n      0x20\n      add\n      swap2\n      jump(tag_112)\n    tag_113:\n      dup3\n      add\n      swap2\n      swap1\n      0x00\n      mstore\n      keccak256(0x00, 0x20)\n      swap1\n    tag_114:\n      dup2\n      sload\n      dup2\n      mstore\n      swap1\n      0x01\n      add\n      swap1\n      0x20\n      add\n      dup1\n      dup4\n      gt\n      tag_114\n      jumpi\n      dup3\n      swap1\n      sub\n      0x1f\n      and\n      dup3\n      add\n      swap2\n    tag_112:\n      pop\n      pop\n      pop\n      pop\n      pop\n      dup2\n      mstore\n      0x20\n      add\n      0x02\n      dup3\n      add\n      dup1\n      sload\n      tag_115\n      swap1\n      tag_84\n      jump\t// in\n    tag_115:\n      dup1\n      0x1f\n      add\n      0x20\n      dup1\n      swap2\n      div\n      mul\n      0x20\n      add\n      mload(0x40)\n      swap1\n      dup2\n      add\n      0x40\n      mstore\n      dup1\n      swap3\n      swap2\n      swap1\n      dup2\n      dup2\n      mstore\n      0x20\n      add\n      dup3\n      dup1\n      sload\n      tag_116\n      swap1\n      tag_84\n      jump\t// in\n    tag_116:\n      dup1\n      iszero\n      tag_117\n      jumpi\n      dup1\n      0x1f\n      lt\n      tag_118\n      jumpi\n      0x0100\n      dup1\n      dup4\n      sload\n      div\n      mul\n      dup4\n      mstore\n      swap2\n      0x20\n      add\n      swap2\n      jump(tag_117)\n    tag_118:\n      dup3\n      add\n      swap2\n      swap1\n      0x00\n      mstore\n      keccak256(0x00, 0x20)\n      swap1\n    tag_119:\n      dup2\n      sload\n      dup2\n      mstore\n      swap1\n      0x01\n      add\n      swap1\n      0x20\n      add\n      dup1\n      dup4\n      gt\n      tag_119\n      jumpi\n      dup3\n      swap1\n      sub\n      0x1f\n      and\n      dup3\n      add\n      swap2\n    tag_117:\n      pop\n      pop\n      pop\n      pop\n      pop\n      dup2\n      mstore\n      0x20\n      add\n      0x03\n      dup3\n      add\n      dup1\n      sload\n      tag_120\n      swap1\n      tag_84\n      jump\t// in\n    tag_120:\n      dup1\n      0x1f\n      add\n      0x20\n      dup1\n      swap2\n      div\n      mul\n      0x20\n      add\n      mload(0x40)\n      swap1\n      dup2\n      add\n      0x40\n      mstore\n      dup1\n      swap3\n      swap2\n      swap1\n      dup2\n      dup2\n      mstore\n      0x20\n      add\n      dup3\n      dup1\n      sload\n      tag_121\n      swap1\n      tag_84\n      jump\t// in\n    tag_121:\n      dup1\n      iszero\n      tag_122\n      jumpi\n      dup1\n      0x1f\n      lt\n      tag_123\n      jumpi\n      0x0100\n      dup1\n      dup4\n      sload\n      div\n      mul\n      dup4\n      mstore\n      swap2\n      0x20\n      add\n      swap2\n      jump(tag_122)\n    tag_123:\n      dup3\n      add\n      swap2\n      swap1\n      0x00\n      mstore\n      keccak256(0x00, 0x20)\n      swap1\n    tag_124:\n      dup2\n      sload\n      dup2\n      mstore\n      swap1\n      0x01\n      add\n      swap1\n      0x20\n      add\n      dup1\n      dup4\n      gt\n      tag_124\n      jumpi\n      dup3\n      swap1\n      sub\n      0x1f\n      and\n      dup3\n      add\n      swap2\n    tag_122:\n      pop\n      pop\n      pop\n      pop\n      pop\n      dup2\n      mstore\n      pop\n      pop\n      swap1\n      pop\n        /* \"AccessRegistry.sol\":1925:1931  action */\n      dup1\n        /* \"AccessRegistry.sol\":1925:1934  action.id */\n      0x00\n      add\n      mload\n        /* \"AccessRegistry.sol\":1949:1955  action */\n      dup2\n        /* \"AccessRegistry.sol\":1949:1966  action.actionType */\n      0x20\n      add\n      mload\n        /* \"AccessRegistry.sol\":1981:1987  action */\n      dup3\n        /* \"AccessRegistry.sol\":1981:1997  action.targetUid */\n      0x40\n      add\n      mload\n        /* \"AccessRegistry.sol\":2012:2018  action */\n      dup4\n        /* \"AccessRegistry.sol\":2012:2028  action.timestamp */\n      0x60\n      add\n      mload\n        /* \"AccessRegistry.sol\":1903:2039  return (... */\n      swap5\n      pop\n      swap5\n      pop\n      swap5\n      pop\n      swap5\n      pop\n      pop\n        /* \"AccessRegistry.sol\":1620:2047  function getAdminAction(uint256 index) public view returns (uint256 id, string memory actionType, string memory targetUid, string memory timestamp) {... */\n      swap2\n      swap4\n      pop\n      swap2\n      swap4\n      jump\t// out\n        /* \"AccessRegistry.sol\":2569:2924  function getLogBatch(uint256 index) public view returns (uint256 id, string memory batchHash, string memory timestamp) {... */\n    tag_45:\n        /* \"AccessRegistry.sol\":2626:2636  uint256 id */\n      0x00\n        /* \"AccessRegistry.sol\":2638:2661  string memory batchHash */\n      0x60\n        /* \"AccessRegistry.sol\":2663:2686  string memory timestamp */\n      dup1\n        /* \"AccessRegistry.sol\":2715:2725  logBatches */\n      0x01\n        /* \"AccessRegistry.sol\":2715:2732  logBatches.length */\n      dup1\n      sload\n      swap1\n      pop\n        /* \"AccessRegistry.sol\":2707:2712  index */\n      dup5\n        /* \"AccessRegistry.sol\":2707:2732  index < logBatches.length */\n      lt\n        /* \"AccessRegistry.sol\":2699:2750  require(index < logBatches.length, \"Invalid index\") */\n      tag_126\n      jumpi\n      mload(0x40)\n      0x08c379a000000000000000000000000000000000000000000000000000000000\n      dup2\n      mstore\n      0x04\n      add\n      tag_127\n      swap1\n      tag_78\n      jump\t// in\n    tag_127:\n      mload(0x40)\n      dup1\n      swap2\n      sub\n      swap1\n      revert\n    tag_126:\n        /* \"AccessRegistry.sol\":2763:2784  LogBatch memory batch */\n      0x00\n        /* \"AccessRegistry.sol\":2787:2797  logBatches */\n      0x01\n        /* \"AccessRegistry.sol\":2798:2803  index */\n      dup6\n        /* \"AccessRegistry.sol\":2787:2804  logBatches[index] */\n      dup2\n      sload\n      dup2\n      lt\n      tag_128\n      jumpi\n      tag_129\n      tag_81\n      jump\t// in\n    tag_129:\n    tag_128:\n      swap1\n      0x00\n      mstore\n      keccak256(0x00, 0x20)\n      swap1\n      0x03\n      mul\n      add\n        /* \"AccessRegistry.sol\":2763:2804  LogBatch memory batch = logBatches[index] */\n      mload(0x40)\n      dup1\n      0x60\n      add\n      0x40\n      mstore\n      swap1\n      dup2\n      0x00\n      dup3\n      add\n      sload\n      dup2\n      mstore\n      0x20\n      add\n      0x01\n      dup3\n      add\n      dup1\n      sload\n      tag_131\n      swap1\n      tag_84\n      jump\t// in\n    tag_131:\n      dup1\n      0x1f\n      add\n      0x20\n      dup1\n      swap2\n      div\n      mul\n      0x20\n      add\n      mload(0x40)\n      swap1\n      dup2\n      add\n      0x40\n      mstore\n      dup1\n      swap3\n      swap2\n      swap1\n      dup2\n      dup2\n      mstore\n      0x20\n      add\n      dup3\n      dup1\n      sload\n      tag_132\n      swap1\n      tag_84\n      jump\t// in\n    tag_132:\n      dup1\n      iszero\n      tag_133\n      jumpi\n      dup1\n      0x1f\n      lt\n      tag_134\n      jumpi\n      0x0100\n      dup1\n      dup4\n      sload\n      div\n      mul\n      dup4\n      mstore\n      swap2\n      0x20\n      add\n      swap2\n      jump(tag_133)\n    tag_134:\n      dup3\n      add\n      swap2\n      swap1\n      0x00\n      mstore\n      keccak256(0x00, 0x20)\n      swap1\n    tag_135:\n      dup2\n      sload\n      dup2\n      mstore\n      swap1\n      0x01\n      add\n      swap1\n      0x20\n      add\n      dup1\n      dup4\n      gt\n      tag_135\n      jumpi\n      dup3\n      swap1\n      sub\n      0x1f\n      and\n      dup3\n      add\n      swap2\n    tag_133:\n      pop\n      pop\n      pop\n      pop\n      pop\n      dup2\n      mstore\n      0x20\n      add\n      0x02\n      dup3\n      add\n      dup1\n      sload\n      tag_136\n      swap1\n      tag_84\n      jump\t// in\n    tag_136:\n      dup1\n      0x1f\n      add\n      0x20\n      dup1\n      swap2\n      div\n      mul\n      0x20\n      add\n      mload(0x40)\n      swap1\n      dup2\n      add\n      0x40\n      mstore\n      dup1\n      swap3\n      swap2\n      swap1\n      dup2\n      dup2\n      mstore\n      0x20\n      add\n      dup3\n      dup1\n      sload\n      tag_137\n      swap1\n      tag_84\n      jump\t// in\n    tag_137:\n      dup1\n      iszero\n      tag_138\n      jumpi\n      dup1\n      0x1f\n      lt\n      tag_139\n      jumpi\n      0x0100\n      dup1\n      dup4\n      sload\n      div\n      mul\n      dup4\n      mstore\n      swap2\n      0x20\n      add\n      swap2\n      jump(tag_138)\n    tag_139:\n      dup3\n      add\n      swap2\n      swap1\n      0x00\n      mstore\n      keccak256(0x00, 0x20)\n      swap1\n    tag_140:\n      dup2\n      sload\n      dup2\n      mstore\n      swap1\n      0x01\n      add\n      swap1\n      0x20\n      add\n      dup1\n      dup4\n      gt\n      tag_140\n      jumpi\n      dup3\n      swap1\n      sub\n      0x1f\n      and\n      dup3\n      add\n      swap2\n    tag_138:\n      pop\n      pop\n      pop\n      pop\n      pop\n      dup2\n      mstore\n      pop\n      pop\n      swap1\n      pop\n        /* \"AccessRegistry.sol\":2837:2842  batch */\n      dup1\n        /* \"AccessRegistry.sol\":2837:2845  batch.id */\n      0x00\n      add\n      mload\n        /* \"AccessRegistry.sol\":2860:2865  batch */\n      dup2\n        /* \"AccessRegistry.sol\":2860:2875  batch.batchHash */\n      0x20\n      add\n      mload\n        /* \"AccessRegistry.sol\":2890:2895  batch */\n      dup3\n        /* \"AccessRegistry.sol\":2890:2905  batch.timestamp */\n      0x40\n      add\n      mload\n        /* \"AccessRegistry.sol\":2815:2916  return (... */\n      swap4\n      pop\n      swap4\n      pop\n      swap4\n      pop\n      pop\n        /* \"AccessRegistry.sol\":2569:2924  function getLogBatch(uint256 index) public view returns (uint256 id, string memory batchHash, string memory timestamp) {... */\n      swap2\n      swap4\n      swap1\n      swap3\n      pop\n      jump\t// out\n        /* \"AccessRegistry.sol\":4343:4458  function getCredentialEventsCount() public view returns (uint256) {... */\n    tag_49:\n        /* \"AccessRegistry.sol\":4400:4407  uint256 */\n      0x00\n        /* \"AccessRegistry.sol\":4427:4443  credentialEvents */\n      0x02\n        /* \"AccessRegistry.sol\":4427:4450  credentialEvents.length */\n      dup1\n      sload\n      swap1\n      pop\n        /* \"AccessRegistry.sol\":4420:4450  return credentialEvents.length */\n      swap1\n      pop\n        /* \"AccessRegistry.sol\":4343:4458  function getCredentialEventsCount() public view returns (uint256) {... */\n      swap1\n      jump\t// out\n        /* \"#utility.yul\":7:84   */\n    tag_142:\n        /* \"#utility.yul\":44:51   */\n      0x00\n        /* \"#utility.yul\":73:78   */\n      dup2\n        /* \"#utility.yul\":62:78   */\n      swap1\n      pop\n        /* \"#utility.yul\":7:84   */\n      swap2\n      swap1\n      pop\n      jump\t// out\n        /* \"#utility.yul\":90:208   */\n    tag_143:\n        /* \"#utility.yul\":177:201   */\n      tag_188\n        /* \"#utility.yul\":195:200   */\n      dup2\n        /* \"#utility.yul\":177:201   */\n      tag_142\n      jump\t// in\n    tag_188:\n        /* \"#utility.yul\":172:175   */\n      dup3\n        /* \"#utility.yul\":165:202   */\n      mstore\n        /* \"#utility.yul\":90:208   */\n      pop\n      pop\n      jump\t// out\n        /* \"#utility.yul\":214:436   */\n    tag_16:\n        /* \"#utility.yul\":307:311   */\n      0x00\n        /* \"#utility.yul\":345:347   */\n      0x20\n        /* \"#utility.yul\":334:343   */\n      dup3\n        /* \"#utility.yul\":330:348   */\n      add\n        /* \"#utility.yul\":322:348   */\n      swap1\n      pop\n        /* \"#utility.yul\":358:429   */\n      tag_190\n        /* \"#utility.yul\":426:427   */\n      0x00\n        /* \"#utility.yul\":415:424   */\n      dup4\n        /* \"#utility.yul\":411:428   */\n      add\n        /* \"#utility.yul\":402:408   */\n      dup5\n        /* \"#utility.yul\":358:429   */\n      tag_143\n      jump\t// in\n    tag_190:\n        /* \"#utility.yul\":214:436   */\n      swap3\n      swap2\n      pop\n      pop\n      jump\t// out\n        /* \"#utility.yul\":442:517   */\n    tag_144:\n        /* \"#utility.yul\":475:481   */\n      0x00\n        /* \"#utility.yul\":508:510   */\n      0x40\n        /* \"#utility.yul\":502:511   */\n      mload\n        /* \"#utility.yul\":492:511   */\n      swap1\n      pop\n        /* \"#utility.yul\":442:517   */\n      swap1\n      jump\t// out\n        /* \"#utility.yul\":523:640   */\n    tag_145:\n        /* \"#utility.yul\":632:633   */\n      0x00\n        /* \"#utility.yul\":629:630   */\n      0x00\n        /* \"#utility.yul\":622:634   */\n      revert\n        /* \"#utility.yul\":646:763   */\n    tag_146:\n        /* \"#utility.yul\":755:756   */\n      0x00\n        /* \"#utility.yul\":752:753   */\n      0x00\n        /* \"#utility.yul\":745:757   */\n      revert\n        /* \"#utility.yul\":769:886   */\n    tag_147:\n        /* \"#utility.yul\":878:879   */\n      0x00\n        /* \"#utility.yul\":875:876   */\n      0x00\n        /* \"#utility.yul\":868:880   */\n      revert\n        /* \"#utility.yul\":892:1009   */\n    tag_148:\n        /* \"#utility.yul\":1001:1002   */\n      0x00\n        /* \"#utility.yul\":998:999   */\n      0x00\n        /* \"#utility.yul\":991:1003   */\n      revert\n        /* \"#utility.yul\":1015:1117   */\n    tag_149:\n        /* \"#utility.yul\":1056:1062   */\n      0x00\n        /* \"#utility.yul\":1107:1109   */\n      0x1f\n        /* \"#utility.yul\":1103:1110   */\n      not\n        /* \"#utility.yul\":1098:1100   */\n      0x1f\n        /* \"#utility.yul\":1091:1096   */\n      dup4\n        /* \"#utility.yul\":1087:1101   */\n      add\n        /* \"#utility.yul\":1083:1111   */\n      and\n        /* \"#utility.yul\":1073:1111   */\n      swap1\n      pop\n        /* \"#utility.yul\":1015:1117   */\n      swap2\n      swap1\n      pop\n      jump\t// out\n        /* \"#utility.yul\":1123:1303   */\n    tag_150:\n        /* \"#utility.yul\":1171:1248   */\n      0x4e487b7100000000000000000000000000000000000000000000000000000000\n        /* \"#utility.yul\":1168:1169   */\n      0x00\n        /* \"#utility.yul\":1161:1249   */\n      mstore\n        /* \"#utility.yul\":1268:1272   */\n      0x41\n        /* \"#utility.yul\":1265:1266   */\n      0x04\n        /* \"#utility.yul\":1258:1273   */\n      mstore\n        /* \"#utility.yul\":1292:1296   */\n      0x24\n        /* \"#utility.yul\":1289:1290   */\n      0x00\n        /* \"#utility.yul\":1282:1297   */\n      revert\n        /* \"#utility.yul\":1309:1590   */\n    tag_151:\n        /* \"#utility.yul\":1392:1419   */\n      tag_199\n        /* \"#utility.yul\":1414:1418   */\n      dup3\n        /* \"#utility.yul\":1392:1419   */\n      tag_149\n      jump\t// in\n    tag_199:\n        /* \"#utility.yul\":1384:1390   */\n      dup2\n        /* \"#utility.yul\":1380:1420   */\n      add\n        /* \"#utility.yul\":1522:1528   */\n      dup2\n        /* \"#utility.yul\":1510:1520   */\n      dup2\n        /* \"#utility.yul\":1507:1529   */\n      lt\n        /* \"#utility.yul\":1486:1504   */\n      0xffffffffffffffff\n        /* \"#utility.yul\":1474:1484   */\n      dup3\n        /* \"#utility.yul\":1471:1505   */\n      gt\n        /* \"#utility.yul\":1468:1530   */\n      or\n        /* \"#utility.yul\":1465:1553   */\n      iszero\n      tag_200\n      jumpi\n        /* \"#utility.yul\":1533:1551   */\n      tag_201\n      tag_150\n      jump\t// in\n    tag_201:\n        /* \"#utility.yul\":1465:1553   */\n    tag_200:\n        /* \"#utility.yul\":1573:1583   */\n      dup1\n        /* \"#utility.yul\":1569:1571   */\n      0x40\n        /* \"#utility.yul\":1562:1584   */\n      mstore\n        /* \"#utility.yul\":1352:1590   */\n      pop\n        /* \"#utility.yul\":1309:1590   */\n      pop\n      pop\n      jump\t// out\n        /* \"#utility.yul\":1596:1725   */\n    tag_152:\n        /* \"#utility.yul\":1630:1636   */\n      0x00\n        /* \"#utility.yul\":1657:1677   */\n      tag_203\n      tag_144\n      jump\t// in\n    tag_203:\n        /* \"#utility.yul\":1647:1677   */\n      swap1\n      pop\n        /* \"#utility.yul\":1686:1719   */\n      tag_204\n        /* \"#utility.yul\":1714:1718   */\n      dup3\n        /* \"#utility.yul\":1706:1712   */\n      dup3\n        /* \"#utility.yul\":1686:1719   */\n      tag_151\n      jump\t// in\n    tag_204:\n        /* \"#utility.yul\":1596:1725   */\n      swap2\n      swap1\n      pop\n      jump\t// out\n        /* \"#utility.yul\":1731:2039   */\n    tag_153:\n        /* \"#utility.yul\":1793:1797   */\n      0x00\n        /* \"#utility.yul\":1883:1901   */\n      0xffffffffffffffff\n        /* \"#utility.yul\":1875:1881   */\n      dup3\n        /* \"#utility.yul\":1872:1902   */\n      gt\n        /* \"#utility.yul\":1869:1925   */\n      iszero\n      tag_206\n      jumpi\n        /* \"#utility.yul\":1905:1923   */\n      tag_207\n      tag_150\n      jump\t// in\n    tag_207:\n        /* \"#utility.yul\":1869:1925   */\n    tag_206:\n        /* \"#utility.yul\":1943:1972   */\n      tag_208\n        /* \"#utility.yul\":1965:1971   */\n      dup3\n        /* \"#utility.yul\":1943:1972   */\n      tag_149\n      jump\t// in\n    tag_208:\n        /* \"#utility.yul\":1935:1972   */\n      swap1\n      pop\n        /* \"#utility.yul\":2027:2031   */\n      0x20\n        /* \"#utility.yul\":2021:2025   */\n      dup2\n        /* \"#utility.yul\":2017:2032   */\n      add\n        /* \"#utility.yul\":2009:2032   */\n      swap1\n      pop\n        /* \"#utility.yul\":1731:2039   */\n      swap2\n      swap1\n      pop\n      jump\t// out\n        /* \"#utility.yul\":2045:2193   */\n    tag_154:\n        /* \"#utility.yul\":2143:2149   */\n      dup3\n        /* \"#utility.yul\":2138:2141   */\n      dup2\n        /* \"#utility.yul\":2133:2136   */\n      dup4\n        /* \"#utility.yul\":2120:2150   */\n      calldatacopy\n        /* \"#utility.yul\":2184:2185   */\n      0x00\n        /* \"#utility.yul\":2175:2181   */\n      dup4\n        /* \"#utility.yul\":2170:2173   */\n      dup4\n        /* \"#utility.yul\":2166:2182   */\n      add\n        /* \"#utility.yul\":2159:2186   */\n      mstore\n        /* \"#utility.yul\":2045:2193   */\n      pop\n      pop\n      pop\n      jump\t// out\n        /* \"#utility.yul\":2199:2624   */\n    tag_155:\n        /* \"#utility.yul\":2277:2282   */\n      0x00\n        /* \"#utility.yul\":2302:2368   */\n      tag_211\n        /* \"#utility.yul\":2318:2367   */\n      tag_212\n        /* \"#utility.yul\":2360:2366   */\n      dup5\n        /* \"#utility.yul\":2318:2367   */\n      tag_153\n      jump\t// in\n    tag_212:\n        /* \"#utility.yul\":2302:2368   */\n      tag_152\n      jump\t// in\n    tag_211:\n        /* \"#utility.yul\":2293:2368   */\n      swap1\n      pop\n        /* \"#utility.yul\":2391:2397   */\n      dup3\n        /* \"#utility.yul\":2384:2389   */\n      dup2\n        /* \"#utility.yul\":2377:2398   */\n      mstore\n        /* \"#utility.yul\":2429:2433   */\n      0x20\n        /* \"#utility.yul\":2422:2427   */\n      dup2\n        /* \"#utility.yul\":2418:2434   */\n      add\n        /* \"#utility.yul\":2467:2470   */\n      dup5\n        /* \"#utility.yul\":2458:2464   */\n      dup5\n        /* \"#utility.yul\":2453:2456   */\n      dup5\n        /* \"#utility.yul\":2449:2465   */\n      add\n        /* \"#utility.yul\":2446:2471   */\n      gt\n        /* \"#utility.yul\":2443:2555   */\n      iszero\n      tag_213\n      jumpi\n        /* \"#utility.yul\":2474:2553   */\n      tag_214\n      tag_148\n      jump\t// in\n    tag_214:\n        /* \"#utility.yul\":2443:2555   */\n    tag_213:\n        /* \"#utility.yul\":2564:2618   */\n      tag_215\n        /* \"#utility.yul\":2611:2617   */\n      dup5\n        /* \"#utility.yul\":2606:2609   */\n      dup3\n        /* \"#utility.yul\":2601:2604   */\n      dup6\n        /* \"#utility.yul\":2564:2618   */\n      tag_154\n      jump\t// in\n    tag_215:\n        /* \"#utility.yul\":2283:2624   */\n      pop\n        /* \"#utility.yul\":2199:2624   */\n      swap4\n      swap3\n      pop\n      pop\n      pop\n      jump\t// out\n        /* \"#utility.yul\":2644:2984   */\n    tag_156:\n        /* \"#utility.yul\":2700:2705   */\n      0x00\n        /* \"#utility.yul\":2749:2752   */\n      dup3\n        /* \"#utility.yul\":2742:2746   */\n      0x1f\n        /* \"#utility.yul\":2734:2740   */\n      dup4\n        /* \"#utility.yul\":2730:2747   */\n      add\n        /* \"#utility.yul\":2726:2753   */\n      slt\n        /* \"#utility.yul\":2716:2838   */\n      tag_217\n      jumpi\n        /* \"#utility.yul\":2757:2836   */\n      tag_218\n      tag_147\n      jump\t// in\n    tag_218:\n        /* \"#utility.yul\":2716:2838   */\n    tag_217:\n        /* \"#utility.yul\":2874:2880   */\n      dup2\n        /* \"#utility.yul\":2861:2881   */\n      calldataload\n        /* \"#utility.yul\":2899:2978   */\n      tag_219\n        /* \"#utility.yul\":2974:2977   */\n      dup5\n        /* \"#utility.yul\":2966:2972   */\n      dup3\n        /* \"#utility.yul\":2959:2963   */\n      0x20\n        /* \"#utility.yul\":2951:2957   */\n      dup7\n        /* \"#utility.yul\":2947:2964   */\n      add\n        /* \"#utility.yul\":2899:2978   */\n      tag_155\n      jump\t// in\n    tag_219:\n        /* \"#utility.yul\":2890:2978   */\n      swap2\n      pop\n        /* \"#utility.yul\":2706:2984   */\n      pop\n        /* \"#utility.yul\":2644:2984   */\n      swap3\n      swap2\n      pop\n      pop\n      jump\t// out\n        /* \"#utility.yul\":2990:3080   */\n    tag_157:\n        /* \"#utility.yul\":3024:3031   */\n      0x00\n        /* \"#utility.yul\":3067:3072   */\n      dup2\n        /* \"#utility.yul\":3060:3073   */\n      iszero\n        /* \"#utility.yul\":3053:3074   */\n      iszero\n        /* \"#utility.yul\":3042:3074   */\n      swap1\n      pop\n        /* \"#utility.yul\":2990:3080   */\n      swap2\n      swap1\n      pop\n      jump\t// out\n        /* \"#utility.yul\":3086:3202   */\n    tag_158:\n        /* \"#utility.yul\":3156:3177   */\n      tag_222\n        /* \"#utility.yul\":3171:3176   */\n      dup2\n        /* \"#utility.yul\":3156:3177   */\n      tag_157\n      jump\t// in\n    tag_222:\n        /* \"#utility.yul\":3149:3154   */\n      dup2\n        /* \"#utility.yul\":3146:3178   */\n      eq\n        /* \"#utility.yul\":3136:3196   */\n      tag_223\n      jumpi\n        /* \"#utility.yul\":3192:3193   */\n      0x00\n        /* \"#utility.yul\":3189:3190   */\n      0x00\n        /* \"#utility.yul\":3182:3194   */\n      revert\n        /* \"#utility.yul\":3136:3196   */\n    tag_223:\n        /* \"#utility.yul\":3086:3202   */\n      pop\n      jump\t// out\n        /* \"#utility.yul\":3208:3341   */\n    tag_159:\n        /* \"#utility.yul\":3251:3256   */\n      0x00\n        /* \"#utility.yul\":3289:3295   */\n      dup2\n        /* \"#utility.yul\":3276:3296   */\n      calldataload\n        /* \"#utility.yul\":3267:3296   */\n      swap1\n      pop\n        /* \"#utility.yul\":3305:3335   */\n      tag_225\n        /* \"#utility.yul\":3329:3334   */\n      dup2\n        /* \"#utility.yul\":3305:3335   */\n      tag_158\n      jump\t// in\n    tag_225:\n        /* \"#utility.yul\":3208:3341   */\n      swap3\n      swap2\n      pop\n      pop\n      jump\t// out\n        /* \"#utility.yul\":3347:4972   */\n    tag_19:\n        /* \"#utility.yul\":3479:3485   */\n      0x00\n        /* \"#utility.yul\":3487:3493   */\n      0x00\n        /* \"#utility.yul\":3495:3501   */\n      0x00\n        /* \"#utility.yul\":3503:3509   */\n      0x00\n        /* \"#utility.yul\":3511:3517   */\n      0x00\n        /* \"#utility.yul\":3560:3563   */\n      0xa0\n        /* \"#utility.yul\":3548:3557   */\n      dup7\n        /* \"#utility.yul\":3539:3546   */\n      dup9\n        /* \"#utility.yul\":3535:3558   */\n      sub\n        /* \"#utility.yul\":3531:3564   */\n      slt\n        /* \"#utility.yul\":3528:3648   */\n      iszero\n      tag_227\n      jumpi\n        /* \"#utility.yul\":3567:3646   */\n      tag_228\n      tag_145\n      jump\t// in\n    tag_228:\n        /* \"#utility.yul\":3528:3648   */\n    tag_227:\n        /* \"#utility.yul\":3715:3716   */\n      0x00\n        /* \"#utility.yul\":3704:3713   */\n      dup7\n        /* \"#utility.yul\":3700:3717   */\n      add\n        /* \"#utility.yul\":3687:3718   */\n      calldataload\n        /* \"#utility.yul\":3745:3763   */\n      0xffffffffffffffff\n        /* \"#utility.yul\":3737:3743   */\n      dup2\n        /* \"#utility.yul\":3734:3764   */\n      gt\n        /* \"#utility.yul\":3731:3848   */\n      iszero\n      tag_229\n      jumpi\n        /* \"#utility.yul\":3767:3846   */\n      tag_230\n      tag_146\n      jump\t// in\n    tag_230:\n        /* \"#utility.yul\":3731:3848   */\n    tag_229:\n        /* \"#utility.yul\":3872:3935   */\n      tag_231\n        /* \"#utility.yul\":3927:3934   */\n      dup9\n        /* \"#utility.yul\":3918:3924   */\n      dup3\n        /* \"#utility.yul\":3907:3916   */\n      dup10\n        /* \"#utility.yul\":3903:3925   */\n      add\n        /* \"#utility.yul\":3872:3935   */\n      tag_156\n      jump\t// in\n    tag_231:\n        /* \"#utility.yul\":3862:3935   */\n      swap6\n      pop\n        /* \"#utility.yul\":3658:3945   */\n      pop\n        /* \"#utility.yul\":4012:4014   */\n      0x20\n        /* \"#utility.yul\":4001:4010   */\n      dup7\n        /* \"#utility.yul\":3997:4015   */\n      add\n        /* \"#utility.yul\":3984:4016   */\n      calldataload\n        /* \"#utility.yul\":4043:4061   */\n      0xffffffffffffffff\n        /* \"#utility.yul\":4035:4041   */\n      dup2\n        /* \"#utility.yul\":4032:4062   */\n      gt\n        /* \"#utility.yul\":4029:4146   */\n      iszero\n      tag_232\n      jumpi\n        /* \"#utility.yul\":4065:4144   */\n      tag_233\n      tag_146\n      jump\t// in\n    tag_233:\n        /* \"#utility.yul\":4029:4146   */\n    tag_232:\n        /* \"#utility.yul\":4170:4233   */\n      tag_234\n        /* \"#utility.yul\":4225:4232   */\n      dup9\n        /* \"#utility.yul\":4216:4222   */\n      dup3\n        /* \"#utility.yul\":4205:4214   */\n      dup10\n        /* \"#utility.yul\":4201:4223   */\n      add\n        /* \"#utility.yul\":4170:4233   */\n      tag_156\n      jump\t// in\n    tag_234:\n        /* \"#utility.yul\":4160:4233   */\n      swap5\n      pop\n        /* \"#utility.yul\":3955:4243   */\n      pop\n        /* \"#utility.yul\":4310:4312   */\n      0x40\n        /* \"#utility.yul\":4299:4308   */\n      dup7\n        /* \"#utility.yul\":4295:4313   */\n      add\n        /* \"#utility.yul\":4282:4314   */\n      calldataload\n        /* \"#utility.yul\":4341:4359   */\n      0xffffffffffffffff\n        /* \"#utility.yul\":4333:4339   */\n      dup2\n        /* \"#utility.yul\":4330:4360   */\n      gt\n        /* \"#utility.yul\":4327:4444   */\n      iszero\n      tag_235\n      jumpi\n        /* \"#utility.yul\":4363:4442   */\n      tag_236\n      tag_146\n      jump\t// in\n    tag_236:\n        /* \"#utility.yul\":4327:4444   */\n    tag_235:\n        /* \"#utility.yul\":4468:4531   */\n      tag_237\n        /* \"#utility.yul\":4523:4530   */\n      dup9\n        /* \"#utility.yul\":4514:4520   */\n      dup3\n        /* \"#utility.yul\":4503:4512   */\n      dup10\n        /* \"#utility.yul\":4499:4521   */\n      add\n        /* \"#utility.yul\":4468:4531   */\n      tag_156\n      jump\t// in\n    tag_237:\n        /* \"#utility.yul\":4458:4531   */\n      swap4\n      pop\n        /* \"#utility.yul\":4253:4541   */\n      pop\n        /* \"#utility.yul\":4580:4582   */\n      0x60\n        /* \"#utility.yul\":4606:4656   */\n      tag_238\n        /* \"#utility.yul\":4648:4655   */\n      dup9\n        /* \"#utility.yul\":4639:4645   */\n      dup3\n        /* \"#utility.yul\":4628:4637   */\n      dup10\n        /* \"#utility.yul\":4624:4646   */\n      add\n        /* \"#utility.yul\":4606:4656   */\n      tag_159\n      jump\t// in\n    tag_238:\n        /* \"#utility.yul\":4596:4656   */\n      swap3\n      pop\n        /* \"#utility.yul\":4551:4666   */\n      pop\n        /* \"#utility.yul\":4733:4736   */\n      0x80\n        /* \"#utility.yul\":4722:4731   */\n      dup7\n        /* \"#utility.yul\":4718:4737   */\n      add\n        /* \"#utility.yul\":4705:4738   */\n      calldataload\n        /* \"#utility.yul\":4765:4783   */\n      0xffffffffffffffff\n        /* \"#utility.yul\":4757:4763   */\n      dup2\n        /* \"#utility.yul\":4754:4784   */\n      gt\n        /* \"#utility.yul\":4751:4868   */\n      iszero\n      tag_239\n      jumpi\n        /* \"#utility.yul\":4787:4866   */\n      tag_240\n      tag_146\n      jump\t// in\n    tag_240:\n        /* \"#utility.yul\":4751:4868   */\n    tag_239:\n        /* \"#utility.yul\":4892:4955   */\n      tag_241\n        /* \"#utility.yul\":4947:4954   */\n      dup9\n        /* \"#utility.yul\":4938:4944   */\n      dup3\n        /* \"#utility.yul\":4927:4936   */\n      dup10\n        /* \"#utility.yul\":4923:4945   */\n      add\n        /* \"#utility.yul\":4892:4955   */\n      tag_156\n      jump\t// in\n    tag_241:\n        /* \"#utility.yul\":4882:4955   */\n      swap2\n      pop\n        /* \"#utility.yul\":4676:4965   */\n      pop\n        /* \"#utility.yul\":3347:4972   */\n      swap3\n      swap6\n      pop\n      swap3\n      swap6\n      swap1\n      swap4\n      pop\n      jump\t// out\n        /* \"#utility.yul\":4978:5812   */\n    tag_23:\n        /* \"#utility.yul\":5066:5072   */\n      0x00\n        /* \"#utility.yul\":5074:5080   */\n      0x00\n        /* \"#utility.yul\":5123:5125   */\n      0x40\n        /* \"#utility.yul\":5111:5120   */\n      dup4\n        /* \"#utility.yul\":5102:5109   */\n      dup6\n        /* \"#utility.yul\":5098:5121   */\n      sub\n        /* \"#utility.yul\":5094:5126   */\n      slt\n        /* \"#utility.yul\":5091:5210   */\n      iszero\n      tag_243\n      jumpi\n        /* \"#utility.yul\":5129:5208   */\n      tag_244\n      tag_145\n      jump\t// in\n    tag_244:\n        /* \"#utility.yul\":5091:5210   */\n    tag_243:\n        /* \"#utility.yul\":5277:5278   */\n      0x00\n        /* \"#utility.yul\":5266:5275   */\n      dup4\n        /* \"#utility.yul\":5262:5279   */\n      add\n        /* \"#utility.yul\":5249:5280   */\n      calldataload\n        /* \"#utility.yul\":5307:5325   */\n      0xffffffffffffffff\n        /* \"#utility.yul\":5299:5305   */\n      dup2\n        /* \"#utility.yul\":5296:5326   */\n      gt\n        /* \"#utility.yul\":5293:5410   */\n      iszero\n      tag_245\n      jumpi\n        /* \"#utility.yul\":5329:5408   */\n      tag_246\n      tag_146\n      jump\t// in\n    tag_246:\n        /* \"#utility.yul\":5293:5410   */\n    tag_245:\n        /* \"#utility.yul\":5434:5497   */\n      tag_247\n        /* \"#utility.yul\":5489:5496   */\n      dup6\n        /* \"#utility.yul\":5480:5486   */\n      dup3\n        /* \"#utility.yul\":5469:5478   */\n      dup7\n        /* \"#utility.yul\":5465:5487   */\n      add\n        /* \"#utility.yul\":5434:5497   */\n      tag_156\n      jump\t// in\n    tag_247:\n        /* \"#utility.yul\":5424:5497   */\n      swap3\n      pop\n        /* \"#utility.yul\":5220:5507   */\n      pop\n        /* \"#utility.yul\":5574:5576   */\n      0x20\n        /* \"#utility.yul\":5563:5572   */\n      dup4\n        /* \"#utility.yul\":5559:5577   */\n      add\n        /* \"#utility.yul\":5546:5578   */\n      calldataload\n        /* \"#utility.yul\":5605:5623   */\n      0xffffffffffffffff\n        /* \"#utility.yul\":5597:5603   */\n      dup2\n        /* \"#utility.yul\":5594:5624   */\n      gt\n        /* \"#utility.yul\":5591:5708   */\n      iszero\n      tag_248\n      jumpi\n        /* \"#utility.yul\":5627:5706   */\n      tag_249\n      tag_146\n      jump\t// in\n    tag_249:\n        /* \"#utility.yul\":5591:5708   */\n    tag_248:\n        /* \"#utility.yul\":5732:5795   */\n      tag_250\n        /* \"#utility.yul\":5787:5794   */\n      dup6\n        /* \"#utility.yul\":5778:5784   */\n      dup3\n        /* \"#utility.yul\":5767:5776   */\n      dup7\n        /* \"#utility.yul\":5763:5785   */\n      add\n        /* \"#utility.yul\":5732:5795   */\n      tag_156\n      jump\t// in\n    tag_250:\n        /* \"#utility.yul\":5722:5795   */\n      swap2\n      pop\n        /* \"#utility.yul\":5517:5805   */\n      pop\n        /* \"#utility.yul\":4978:5812   */\n      swap3\n      pop\n      swap3\n      swap1\n      pop\n      jump\t// out\n        /* \"#utility.yul\":5818:6977   */\n    tag_27:\n        /* \"#utility.yul\":5925:5931   */\n      0x00\n        /* \"#utility.yul\":5933:5939   */\n      0x00\n        /* \"#utility.yul\":5941:5947   */\n      0x00\n        /* \"#utility.yul\":5990:5992   */\n      0x60\n        /* \"#utility.yul\":5978:5987   */\n      dup5\n        /* \"#utility.yul\":5969:5976   */\n      dup7\n        /* \"#utility.yul\":5965:5988   */\n      sub\n        /* \"#utility.yul\":5961:5993   */\n      slt\n        /* \"#utility.yul\":5958:6077   */\n      iszero\n      tag_252\n      jumpi\n        /* \"#utility.yul\":5996:6075   */\n      tag_253\n      tag_145\n      jump\t// in\n    tag_253:\n        /* \"#utility.yul\":5958:6077   */\n    tag_252:\n        /* \"#utility.yul\":6144:6145   */\n      0x00\n        /* \"#utility.yul\":6133:6142   */\n      dup5\n        /* \"#utility.yul\":6129:6146   */\n      add\n        /* \"#utility.yul\":6116:6147   */\n      calldataload\n        /* \"#utility.yul\":6174:6192   */\n      0xffffffffffffffff\n        /* \"#utility.yul\":6166:6172   */\n      dup2\n        /* \"#utility.yul\":6163:6193   */\n      gt\n        /* \"#utility.yul\":6160:6277   */\n      iszero\n      tag_254\n      jumpi\n        /* \"#utility.yul\":6196:6275   */\n      tag_255\n      tag_146\n      jump\t// in\n    tag_255:\n        /* \"#utility.yul\":6160:6277   */\n    tag_254:\n        /* \"#utility.yul\":6301:6364   */\n      tag_256\n        /* \"#utility.yul\":6356:6363   */\n      dup7\n        /* \"#utility.yul\":6347:6353   */\n      dup3\n        /* \"#utility.yul\":6336:6345   */\n      dup8\n        /* \"#utility.yul\":6332:6354   */\n      add\n        /* \"#utility.yul\":6301:6364   */\n      tag_156\n      jump\t// in\n    tag_256:\n        /* \"#utility.yul\":6291:6364   */\n      swap4\n      pop\n        /* \"#utility.yul\":6087:6374   */\n      pop\n        /* \"#utility.yul\":6441:6443   */\n      0x20\n        /* \"#utility.yul\":6430:6439   */\n      dup5\n        /* \"#utility.yul\":6426:6444   */\n      add\n        /* \"#utility.yul\":6413:6445   */\n      calldataload\n        /* \"#utility.yul\":6472:6490   */\n      0xffffffffffffffff\n        /* \"#utility.yul\":6464:6470   */\n      dup2\n        /* \"#utility.yul\":6461:6491   */\n      gt\n        /* \"#utility.yul\":6458:6575   */\n      iszero\n      tag_257\n      jumpi\n        /* \"#utility.yul\":6494:6573   */\n      tag_258\n      tag_146\n      jump\t// in\n    tag_258:\n        /* \"#utility.yul\":6458:6575   */\n    tag_257:\n        /* \"#utility.yul\":6599:6662   */\n      tag_259\n        /* \"#utility.yul\":6654:6661   */\n      dup7\n        /* \"#utility.yul\":6645:6651   */\n      dup3\n        /* \"#utility.yul\":6634:6643   */\n      dup8\n        /* \"#utility.yul\":6630:6652   */\n      add\n        /* \"#utility.yul\":6599:6662   */\n      tag_156\n      jump\t// in\n    tag_259:\n        /* \"#utility.yul\":6589:6662   */\n      swap3\n      pop\n        /* \"#utility.yul\":6384:6672   */\n      pop\n        /* \"#utility.yul\":6739:6741   */\n      0x40\n        /* \"#utility.yul\":6728:6737   */\n      dup5\n        /* \"#utility.yul\":6724:6742   */\n      add\n        /* \"#utility.yul\":6711:6743   */\n      calldataload\n        /* \"#utility.yul\":6770:6788   */\n      0xffffffffffffffff\n        /* \"#utility.yul\":6762:6768   */\n      dup2\n        /* \"#utility.yul\":6759:6789   */\n      gt\n        /* \"#utility.yul\":6756:6873   */\n      iszero\n      tag_260\n      jumpi\n        /* \"#utility.yul\":6792:6871   */\n      tag_261\n      tag_146\n      jump\t// in\n    tag_261:\n        /* \"#utility.yul\":6756:6873   */\n    tag_260:\n        /* \"#utility.yul\":6897:6960   */\n      tag_262\n        /* \"#utility.yul\":6952:6959   */\n      dup7\n        /* \"#utility.yul\":6943:6949   */\n      dup3\n        /* \"#utility.yul\":6932:6941   */\n      dup8\n        /* \"#utility.yul\":6928:6950   */\n      add\n        /* \"#utility.yul\":6897:6960   */\n      tag_156\n      jump\t// in\n    tag_262:\n        /* \"#utility.yul\":6887:6960   */\n      swap2\n      pop\n        /* \"#utility.yul\":6682:6970   */\n      pop\n        /* \"#utility.yul\":5818:6977   */\n      swap3\n      pop\n      swap3\n      pop\n      swap3\n      jump\t// out\n        /* \"#utility.yul\":6983:7105   */\n    tag_160:\n        /* \"#utility.yul\":7056:7080   */\n      tag_264\n        /* \"#utility.yul\":7074:7079   */\n      dup2\n        /* \"#utility.yul\":7056:7080   */\n      tag_142\n      jump\t// in\n    tag_264:\n        /* \"#utility.yul\":7049:7054   */\n      dup2\n        /* \"#utility.yul\":7046:7081   */\n      eq\n        /* \"#utility.yul\":7036:7099   */\n      tag_265\n      jumpi\n        /* \"#utility.yul\":7095:7096   */\n      0x00\n        /* \"#utility.yul\":7092:7093   */\n      0x00\n        /* \"#utility.yul\":7085:7097   */\n      revert\n        /* \"#utility.yul\":7036:7099   */\n    tag_265:\n        /* \"#utility.yul\":6983:7105   */\n      pop\n      jump\t// out\n        /* \"#utility.yul\":7111:7250   */\n    tag_161:\n        /* \"#utility.yul\":7157:7162   */\n      0x00\n        /* \"#utility.yul\":7195:7201   */\n      dup2\n        /* \"#utility.yul\":7182:7202   */\n      calldataload\n        /* \"#utility.yul\":7173:7202   */\n      swap1\n      pop\n        /* \"#utility.yul\":7211:7244   */\n      tag_267\n        /* \"#utility.yul\":7238:7243   */\n      dup2\n        /* \"#utility.yul\":7211:7244   */\n      tag_160\n      jump\t// in\n    tag_267:\n        /* \"#utility.yul\":7111:7250   */\n      swap3\n      swap2\n      pop\n      pop\n      jump\t// out\n        /* \"#utility.yul\":7256:7585   */\n    tag_34:\n        /* \"#utility.yul\":7315:7321   */\n      0x00\n        /* \"#utility.yul\":7364:7366   */\n      0x20\n        /* \"#utility.yul\":7352:7361   */\n      dup3\n        /* \"#utility.yul\":7343:7350   */\n      dup5\n        /* \"#utility.yul\":7339:7362   */\n      sub\n        /* \"#utility.yul\":7335:7367   */\n      slt\n        /* \"#utility.yul\":7332:7451   */\n      iszero\n      tag_269\n      jumpi\n        /* \"#utility.yul\":7370:7449   */\n      tag_270\n      tag_145\n      jump\t// in\n    tag_270:\n        /* \"#utility.yul\":7332:7451   */\n    tag_269:\n        /* \"#utility.yul\":7490:7491   */\n      0x00\n        /* \"#utility.yul\":7515:7568   */\n      tag_271\n        /* \"#utility.yul\":7560:7567   */\n      dup5\n        /* \"#utility.yul\":7551:7557   */\n      dup3\n        /* \"#utility.yul\":7540:7549   */\n      dup6\n        /* \"#utility.yul\":7536:7558   */\n      add\n        /* \"#utility.yul\":7515:7568   */\n      tag_161\n      jump\t// in\n    tag_271:\n        /* \"#utility.yul\":7505:7568   */\n      swap2\n      pop\n        /* \"#utility.yul\":7461:7578   */\n      pop\n        /* \"#utility.yul\":7256:7585   */\n      swap3\n      swap2\n      pop\n      pop\n      jump\t// out\n        /* \"#utility.yul\":7591:7690   */\n    tag_162:\n        /* \"#utility.yul\":7643:7649   */\n      0x00\n        /* \"#utility.yul\":7677:7682   */\n      dup2\n        /* \"#utility.yul\":7671:7683   */\n      mload\n        /* \"#utility.yul\":7661:7683   */\n      swap1\n      pop\n        /* \"#utility.yul\":7591:7690   */\n      swap2\n      swap1\n      pop\n      jump\t// out\n        /* \"#utility.yul\":7696:7865   */\n    tag_163:\n        /* \"#utility.yul\":7780:7791   */\n      0x00\n        /* \"#utility.yul\":7814:7820   */\n      dup3\n        /* \"#utility.yul\":7809:7812   */\n      dup3\n        /* \"#utility.yul\":7802:7821   */\n      mstore\n        /* \"#utility.yul\":7854:7858   */\n      0x20\n        /* \"#utility.yul\":7849:7852   */\n      dup3\n        /* \"#utility.yul\":7845:7859   */\n      add\n        /* \"#utility.yul\":7830:7859   */\n      swap1\n      pop\n        /* \"#utility.yul\":7696:7865   */\n      swap3\n      swap2\n      pop\n      pop\n      jump\t// out\n        /* \"#utility.yul\":7871:8010   */\n    tag_164:\n        /* \"#utility.yul\":7960:7966   */\n      dup3\n        /* \"#utility.yul\":7955:7958   */\n      dup2\n        /* \"#utility.yul\":7950:7953   */\n      dup4\n        /* \"#utility.yul\":7944:7967   */\n      mcopy\n        /* \"#utility.yul\":8001:8002   */\n      0x00\n        /* \"#utility.yul\":7992:7998   */\n      dup4\n        /* \"#utility.yul\":7987:7990   */\n      dup4\n        /* \"#utility.yul\":7983:7999   */\n      add\n        /* \"#utility.yul\":7976:8003   */\n      mstore\n        /* \"#utility.yul\":7871:8010   */\n      pop\n      pop\n      pop\n      jump\t// out\n        /* \"#utility.yul\":8016:8393   */\n    tag_165:\n        /* \"#utility.yul\":8104:8107   */\n      0x00\n        /* \"#utility.yul\":8132:8171   */\n      tag_276\n        /* \"#utility.yul\":8165:8170   */\n      dup3\n        /* \"#utility.yul\":8132:8171   */\n      tag_162\n      jump\t// in\n    tag_276:\n        /* \"#utility.yul\":8187:8258   */\n      tag_277\n        /* \"#utility.yul\":8251:8257   */\n      dup2\n        /* \"#utility.yul\":8246:8249   */\n      dup6\n        /* \"#utility.yul\":8187:8258   */\n      tag_163\n      jump\t// in\n    tag_277:\n        /* \"#utility.yul\":8180:8258   */\n      swap4\n      pop\n        /* \"#utility.yul\":8267:8332   */\n      tag_278\n        /* \"#utility.yul\":8325:8331   */\n      dup2\n        /* \"#utility.yul\":8320:8323   */\n      dup6\n        /* \"#utility.yul\":8313:8317   */\n      0x20\n        /* \"#utility.yul\":8306:8311   */\n      dup7\n        /* \"#utility.yul\":8302:8318   */\n      add\n        /* \"#utility.yul\":8267:8332   */\n      tag_164\n      jump\t// in\n    tag_278:\n        /* \"#utility.yul\":8357:8386   */\n      tag_279\n        /* \"#utility.yul\":8379:8385   */\n      dup2\n        /* \"#utility.yul\":8357:8386   */\n      tag_149\n      jump\t// in\n    tag_279:\n        /* \"#utility.yul\":8352:8355   */\n      dup5\n        /* \"#utility.yul\":8348:8387   */\n      add\n        /* \"#utility.yul\":8341:8387   */\n      swap2\n      pop\n        /* \"#utility.yul\":8108:8393   */\n      pop\n        /* \"#utility.yul\":8016:8393   */\n      swap3\n      swap2\n      pop\n      pop\n      jump\t// out\n        /* \"#utility.yul\":8399:8508   */\n    tag_166:\n        /* \"#utility.yul\":8480:8501   */\n      tag_281\n        /* \"#utility.yul\":8495:8500   */\n      dup2\n        /* \"#utility.yul\":8480:8501   */\n      tag_157\n      jump\t// in\n    tag_281:\n        /* \"#utility.yul\":8475:8478   */\n      dup3\n        /* \"#utility.yul\":8468:8502   */\n      mstore\n        /* \"#utility.yul\":8399:8508   */\n      pop\n      pop\n      jump\t// out\n        /* \"#utility.yul\":8514:9641   */\n    tag_37:\n        /* \"#utility.yul\":8821:8825   */\n      0x00\n        /* \"#utility.yul\":8859:8862   */\n      0xc0\n        /* \"#utility.yul\":8848:8857   */\n      dup3\n        /* \"#utility.yul\":8844:8863   */\n      add\n        /* \"#utility.yul\":8836:8863   */\n      swap1\n      pop\n        /* \"#utility.yul\":8873:8944   */\n      tag_283\n        /* \"#utility.yul\":8941:8942   */\n      0x00\n        /* \"#utility.yul\":8930:8939   */\n      dup4\n        /* \"#utility.yul\":8926:8943   */\n      add\n        /* \"#utility.yul\":8917:8923   */\n      dup10\n        /* \"#utility.yul\":8873:8944   */\n      tag_143\n      jump\t// in\n    tag_283:\n        /* \"#utility.yul\":8991:9000   */\n      dup2\n        /* \"#utility.yul\":8985:8989   */\n      dup2\n        /* \"#utility.yul\":8981:9001   */\n      sub\n        /* \"#utility.yul\":8976:8978   */\n      0x20\n        /* \"#utility.yul\":8965:8974   */\n      dup4\n        /* \"#utility.yul\":8961:8979   */\n      add\n        /* \"#utility.yul\":8954:9002   */\n      mstore\n        /* \"#utility.yul\":9019:9097   */\n      tag_284\n        /* \"#utility.yul\":9092:9096   */\n      dup2\n        /* \"#utility.yul\":9083:9089   */\n      dup9\n        /* \"#utility.yul\":9019:9097   */\n      tag_165\n      jump\t// in\n    tag_284:\n        /* \"#utility.yul\":9011:9097   */\n      swap1\n      pop\n        /* \"#utility.yul\":9144:9153   */\n      dup2\n        /* \"#utility.yul\":9138:9142   */\n      dup2\n        /* \"#utility.yul\":9134:9154   */\n      sub\n        /* \"#utility.yul\":9129:9131   */\n      0x40\n        /* \"#utility.yul\":9118:9127   */\n      dup4\n        /* \"#utility.yul\":9114:9132   */\n      add\n        /* \"#utility.yul\":9107:9155   */\n      mstore\n        /* \"#utility.yul\":9172:9250   */\n      tag_285\n        /* \"#utility.yul\":9245:9249   */\n      dup2\n        /* \"#utility.yul\":9236:9242   */\n      dup8\n        /* \"#utility.yul\":9172:9250   */\n      tag_165\n      jump\t// in\n    tag_285:\n        /* \"#utility.yul\":9164:9250   */\n      swap1\n      pop\n        /* \"#utility.yul\":9297:9306   */\n      dup2\n        /* \"#utility.yul\":9291:9295   */\n      dup2\n        /* \"#utility.yul\":9287:9307   */\n      sub\n        /* \"#utility.yul\":9282:9284   */\n      0x60\n        /* \"#utility.yul\":9271:9280   */\n      dup4\n        /* \"#utility.yul\":9267:9285   */\n      add\n        /* \"#utility.yul\":9260:9308   */\n      mstore\n        /* \"#utility.yul\":9325:9403   */\n      tag_286\n        /* \"#utility.yul\":9398:9402   */\n      dup2\n        /* \"#utility.yul\":9389:9395   */\n      dup7\n        /* \"#utility.yul\":9325:9403   */\n      tag_165\n      jump\t// in\n    tag_286:\n        /* \"#utility.yul\":9317:9403   */\n      swap1\n      pop\n        /* \"#utility.yul\":9413:9480   */\n      tag_287\n        /* \"#utility.yul\":9475:9478   */\n      0x80\n        /* \"#utility.yul\":9464:9473   */\n      dup4\n        /* \"#utility.yul\":9460:9479   */\n      add\n        /* \"#utility.yul\":9451:9457   */\n      dup6\n        /* \"#utility.yul\":9413:9480   */\n      tag_166\n      jump\t// in\n    tag_287:\n        /* \"#utility.yul\":9528:9537   */\n      dup2\n        /* \"#utility.yul\":9522:9526   */\n      dup2\n        /* \"#utility.yul\":9518:9538   */\n      sub\n        /* \"#utility.yul\":9512:9515   */\n      0xa0\n        /* \"#utility.yul\":9501:9510   */\n      dup4\n        /* \"#utility.yul\":9497:9516   */\n      add\n        /* \"#utility.yul\":9490:9539   */\n      mstore\n        /* \"#utility.yul\":9556:9634   */\n      tag_288\n        /* \"#utility.yul\":9629:9633   */\n      dup2\n        /* \"#utility.yul\":9620:9626   */\n      dup5\n        /* \"#utility.yul\":9556:9634   */\n      tag_165\n      jump\t// in\n    tag_288:\n        /* \"#utility.yul\":9548:9634   */\n      swap1\n      pop\n        /* \"#utility.yul\":8514:9641   */\n      swap8\n      swap7\n      pop\n      pop\n      pop\n      pop\n      pop\n      pop\n      pop\n      jump\t// out\n        /* \"#utility.yul\":9647:10473   */\n    tag_42:\n        /* \"#utility.yul\":9884:9888   */\n      0x00\n        /* \"#utility.yul\":9922:9925   */\n      0x80\n        /* \"#utility.yul\":9911:9920   */\n      dup3\n        /* \"#utility.yul\":9907:9926   */\n      add\n        /* \"#utility.yul\":9899:9926   */\n      swap1\n      pop\n        /* \"#utility.yul\":9936:10007   */\n      tag_290\n        /* \"#utility.yul\":10004:10005   */\n      0x00\n        /* \"#utility.yul\":9993:10002   */\n      dup4\n        /* \"#utility.yul\":9989:10006   */\n      add\n        /* \"#utility.yul\":9980:9986   */\n      dup8\n        /* \"#utility.yul\":9936:10007   */\n      tag_143\n      jump\t// in\n    tag_290:\n        /* \"#utility.yul\":10054:10063   */\n      dup2\n        /* \"#utility.yul\":10048:10052   */\n      dup2\n        /* \"#utility.yul\":10044:10064   */\n      sub\n        /* \"#utility.yul\":10039:10041   */\n      0x20\n        /* \"#utility.yul\":10028:10037   */\n      dup4\n        /* \"#utility.yul\":10024:10042   */\n      add\n        /* \"#utility.yul\":10017:10065   */\n      mstore\n        /* \"#utility.yul\":10082:10160   */\n      tag_291\n        /* \"#utility.yul\":10155:10159   */\n      dup2\n        /* \"#utility.yul\":10146:10152   */\n      dup7\n        /* \"#utility.yul\":10082:10160   */\n      tag_165\n      jump\t// in\n    tag_291:\n        /* \"#utility.yul\":10074:10160   */\n      swap1\n      pop\n        /* \"#utility.yul\":10207:10216   */\n      dup2\n        /* \"#utility.yul\":10201:10205   */\n      dup2\n        /* \"#utility.yul\":10197:10217   */\n      sub\n        /* \"#utility.yul\":10192:10194   */\n      0x40\n        /* \"#utility.yul\":10181:10190   */\n      dup4\n        /* \"#utility.yul\":10177:10195   */\n      add\n        /* \"#utility.yul\":10170:10218   */\n      mstore\n        /* \"#utility.yul\":10235:10313   */\n      tag_292\n        /* \"#utility.yul\":10308:10312   */\n      dup2\n        /* \"#utility.yul\":10299:10305   */\n      dup6\n        /* \"#utility.yul\":10235:10313   */\n      tag_165\n      jump\t// in\n    tag_292:\n        /* \"#utility.yul\":10227:10313   */\n      swap1\n      pop\n        /* \"#utility.yul\":10360:10369   */\n      dup2\n        /* \"#utility.yul\":10354:10358   */\n      dup2\n        /* \"#utility.yul\":10350:10370   */\n      sub\n        /* \"#utility.yul\":10345:10347   */\n      0x60\n        /* \"#utility.yul\":10334:10343   */\n      dup4\n        /* \"#utility.yul\":10330:10348   */\n      add\n        /* \"#utility.yul\":10323:10371   */\n      mstore\n        /* \"#utility.yul\":10388:10466   */\n      tag_293\n        /* \"#utility.yul\":10461:10465   */\n      dup2\n        /* \"#utility.yul\":10452:10458   */\n      dup5\n        /* \"#utility.yul\":10388:10466   */\n      tag_165\n      jump\t// in\n    tag_293:\n        /* \"#utility.yul\":10380:10466   */\n      swap1\n      pop\n        /* \"#utility.yul\":9647:10473   */\n      swap6\n      swap5\n      pop\n      pop\n      pop\n      pop\n      pop\n      jump\t// out\n        /* \"#utility.yul\":10479:11103   */\n    tag_47:\n        /* \"#utility.yul\":10668:10672   */\n      0x00\n        /* \"#utility.yul\":10706:10708   */\n      0x60\n        /* \"#utility.yul\":10695:10704   */\n      dup3\n        /* \"#utility.yul\":10691:10709   */\n      add\n        /* \"#utility.yul\":10683:10709   */\n      swap1\n      pop\n        /* \"#utility.yul\":10719:10790   */\n      tag_295\n        /* \"#utility.yul\":10787:10788   */\n      0x00\n        /* \"#utility.yul\":10776:10785   */\n      dup4\n        /* \"#utility.yul\":10772:10789   */\n      add\n        /* \"#utility.yul\":10763:10769   */\n      dup7\n        /* \"#utility.yul\":10719:10790   */\n      tag_143\n      jump\t// in\n    tag_295:\n        /* \"#utility.yul\":10837:10846   */\n      dup2\n        /* \"#utility.yul\":10831:10835   */\n      dup2\n        /* \"#utility.yul\":10827:10847   */\n      sub\n        /* \"#utility.yul\":10822:10824   */\n      0x20\n        /* \"#utility.yul\":10811:10820   */\n      dup4\n        /* \"#utility.yul\":10807:10825   */\n      add\n        /* \"#utility.yul\":10800:10848   */\n      mstore\n        /* \"#utility.yul\":10865:10943   */\n      tag_296\n        /* \"#utility.yul\":10938:10942   */\n      dup2\n        /* \"#utility.yul\":10929:10935   */\n      dup6\n        /* \"#utility.yul\":10865:10943   */\n      tag_165\n      jump\t// in\n    tag_296:\n        /* \"#utility.yul\":10857:10943   */\n      swap1\n      pop\n        /* \"#utility.yul\":10990:10999   */\n      dup2\n        /* \"#utility.yul\":10984:10988   */\n      dup2\n        /* \"#utility.yul\":10980:11000   */\n      sub\n        /* \"#utility.yul\":10975:10977   */\n      0x40\n        /* \"#utility.yul\":10964:10973   */\n      dup4\n        /* \"#utility.yul\":10960:10978   */\n      add\n        /* \"#utility.yul\":10953:11001   */\n      mstore\n        /* \"#utility.yul\":11018:11096   */\n      tag_297\n        /* \"#utility.yul\":11091:11095   */\n      dup2\n        /* \"#utility.yul\":11082:11088   */\n      dup5\n        /* \"#utility.yul\":11018:11096   */\n      tag_165\n      jump\t// in\n    tag_297:\n        /* \"#utility.yul\":11010:11096   */\n      swap1\n      pop\n        /* \"#utility.yul\":10479:11103   */\n      swap5\n      swap4\n      pop\n      pop\n      pop\n      pop\n      jump\t// out\n        /* \"#utility.yul\":11109:11289   */\n    tag_167:\n        /* \"#utility.yul\":11157:11234   */\n      0x4e487b7100000000000000000000000000000000000000000000000000000000\n        /* \"#utility.yul\":11154:11155   */\n      0x00\n        /* \"#utility.yul\":11147:11235   */\n      mstore\n        /* \"#utility.yul\":11254:11258   */\n      0x22\n        /* \"#utility.yul\":11251:11252   */\n      0x04\n        /* \"#utility.yul\":11244:11259   */\n      mstore\n        /* \"#utility.yul\":11278:11282   */\n      0x24\n        /* \"#utility.yul\":11275:11276   */\n      0x00\n        /* \"#utility.yul\":11268:11283   */\n      revert\n        /* \"#utility.yul\":11295:11615   */\n    tag_84:\n        /* \"#utility.yul\":11339:11345   */\n      0x00\n        /* \"#utility.yul\":11376:11377   */\n      0x02\n        /* \"#utility.yul\":11370:11374   */\n      dup3\n        /* \"#utility.yul\":11366:11378   */\n      div\n        /* \"#utility.yul\":11356:11378   */\n      swap1\n      pop\n        /* \"#utility.yul\":11423:11424   */\n      0x01\n        /* \"#utility.yul\":11417:11421   */\n      dup3\n        /* \"#utility.yul\":11413:11425   */\n      and\n        /* \"#utility.yul\":11444:11462   */\n      dup1\n        /* \"#utility.yul\":11434:11515   */\n      tag_300\n      jumpi\n        /* \"#utility.yul\":11500:11504   */\n      0x7f\n        /* \"#utility.yul\":11492:11498   */\n      dup3\n        /* \"#utility.yul\":11488:11505   */\n      and\n        /* \"#utility.yul\":11478:11505   */\n      swap2\n      pop\n        /* \"#utility.yul\":11434:11515   */\n    tag_300:\n        /* \"#utility.yul\":11562:11564   */\n      0x20\n        /* \"#utility.yul\":11554:11560   */\n      dup3\n        /* \"#utility.yul\":11551:11565   */\n      lt\n        /* \"#utility.yul\":11531:11549   */\n      dup2\n        /* \"#utility.yul\":11528:11566   */\n      sub\n        /* \"#utility.yul\":11525:11609   */\n      tag_301\n      jumpi\n        /* \"#utility.yul\":11581:11599   */\n      tag_302\n      tag_167\n      jump\t// in\n    tag_302:\n        /* \"#utility.yul\":11525:11609   */\n    tag_301:\n        /* \"#utility.yul\":11346:11615   */\n      pop\n        /* \"#utility.yul\":11295:11615   */\n      swap2\n      swap1\n      pop\n      jump\t// out\n        /* \"#utility.yul\":11621:11762   */\n    tag_168:\n        /* \"#utility.yul\":11670:11674   */\n      0x00\n        /* \"#utility.yul\":11693:11696   */\n      dup2\n        /* \"#utility.yul\":11685:11696   */\n      swap1\n      pop\n        /* \"#utility.yul\":11716:11719   */\n      dup2\n        /* \"#utility.yul\":11713:11714   */\n      0x00\n        /* \"#utility.yul\":11706:11720   */\n      mstore\n        /* \"#utility.yul\":11750:11754   */\n      0x20\n        /* \"#utility.yul\":11747:11748   */\n      0x00\n        /* \"#utility.yul\":11737:11755   */\n      keccak256\n        /* \"#utility.yul\":11729:11755   */\n      swap1\n      pop\n        /* \"#utility.yul\":11621:11762   */\n      swap2\n      swap1\n      pop\n      jump\t// out\n        /* \"#utility.yul\":11768:11861   */\n    tag_169:\n        /* \"#utility.yul\":11805:11811   */\n      0x00\n        /* \"#utility.yul\":11852:11854   */\n      0x20\n        /* \"#utility.yul\":11847:11849   */\n      0x1f\n        /* \"#utility.yul\":11840:11845   */\n      dup4\n        /* \"#utility.yul\":11836:11850   */\n      add\n        /* \"#utility.yul\":11832:11855   */\n      div\n        /* \"#utility.yul\":11822:11855   */\n      swap1\n      pop\n        /* \"#utility.yul\":11768:11861   */\n      swap2\n      swap1\n      pop\n      jump\t// out\n        /* \"#utility.yul\":11867:11974   */\n    tag_170:\n        /* \"#utility.yul\":11911:11919   */\n      0x00\n        /* \"#utility.yul\":11961:11966   */\n      dup3\n        /* \"#utility.yul\":11955:11959   */\n      dup3\n        /* \"#utility.yul\":11951:11967   */\n      shl\n        /* \"#utility.yul\":11930:11967   */\n      swap1\n      pop\n        /* \"#utility.yul\":11867:11974   */\n      swap3\n      swap2\n      pop\n      pop\n      jump\t// out\n        /* \"#utility.yul\":11980:12373   */\n    tag_171:\n        /* \"#utility.yul\":12049:12055   */\n      0x00\n        /* \"#utility.yul\":12099:12100   */\n      0x08\n        /* \"#utility.yul\":12087:12097   */\n      dup4\n        /* \"#utility.yul\":12083:12101   */\n      mul\n        /* \"#utility.yul\":12122:12219   */\n      tag_307\n        /* \"#utility.yul\":12152:12218   */\n      0xffffffffffffffffffffffffffffffffffffffffffffffffffffffffffffffff\n        /* \"#utility.yul\":12141:12150   */\n      dup3\n        /* \"#utility.yul\":12122:12219   */\n      tag_170\n      jump\t// in\n    tag_307:\n        /* \"#utility.yul\":12240:12279   */\n      tag_308\n        /* \"#utility.yul\":12270:12278   */\n      dup7\n        /* \"#utility.yul\":12259:12268   */\n      dup4\n        /* \"#utility.yul\":12240:12279   */\n      tag_170\n      jump\t// in\n    tag_308:\n        /* \"#utility.yul\":12228:12279   */\n      swap6\n      pop\n        /* \"#utility.yul\":12312:12316   */\n      dup1\n        /* \"#utility.yul\":12308:12317   */\n      not\n        /* \"#utility.yul\":12301:12306   */\n      dup5\n        /* \"#utility.yul\":12297:12318   */\n      and\n        /* \"#utility.yul\":12288:12318   */\n      swap4\n      pop\n        /* \"#utility.yul\":12361:12365   */\n      dup1\n        /* \"#utility.yul\":12351:12359   */\n      dup7\n        /* \"#utility.yul\":12347:12366   */\n      and\n        /* \"#utility.yul\":12340:12345   */\n      dup5\n        /* \"#utility.yul\":12337:12367   */\n      or\n        /* \"#utility.yul\":12327:12367   */\n      swap3\n      pop\n        /* \"#utility.yul\":12056:12373   */\n      pop\n      pop\n        /* \"#utility.yul\":11980:12373   */\n      swap4\n      swap3\n      pop\n      pop\n      pop\n      jump\t// out\n        /* \"#utility.yul\":12379:12439   */\n    tag_172:\n        /* \"#utility.yul\":12407:12410   */\n      0x00\n        /* \"#utility.yul\":12428:12433   */\n      dup2\n        /* \"#utility.yul\":12421:12433   */\n      swap1\n      pop\n        /* \"#utility.yul\":12379:12439   */\n      swap2\n      swap1\n      pop\n      jump\t// out\n        /* \"#utility.yul\":12445:12587   */\n    tag_173:\n        /* \"#utility.yul\":12495:12504   */\n      0x00\n        /* \"#utility.yul\":12528:12581   */\n      tag_311\n        /* \"#utility.yul\":12546:12580   */\n      tag_312\n        /* \"#utility.yul\":12555:12579   */\n      tag_313\n        /* \"#utility.yul\":12573:12578   */\n      dup5\n        /* \"#utility.yul\":12555:12579   */\n      tag_142\n      jump\t// in\n    tag_313:\n        /* \"#utility.yul\":12546:12580   */\n      tag_172\n      jump\t// in\n    tag_312:\n        /* \"#utility.yul\":12528:12581   */\n      tag_142\n      jump\t// in\n    tag_311:\n        /* \"#utility.yul\":12515:12581   */\n      swap1\n      pop\n        /* \"#utility.yul\":12445:12587   */\n      swap2\n      swap1\n      pop\n      jump\t// out\n        /* \"#utility.yul\":12593:12668   */\n    tag_174:\n        /* \"#utility.yul\":12636:12639   */\n      0x00\n        /* \"#utility.yul\":12657:12662   */\n      dup2\n        /* \"#utility.yul\":12650:12662   */\n      swap1\n      pop\n        /* \"#utility.yul\":12593:12668   */\n      swap2\n      swap1\n      pop\n      jump\t// out\n        /* \"#utility.yul\":12674:12943   */\n    tag_175:\n        /* \"#utility.yul\":12784:12823   */\n      tag_316\n        /* \"#utility.yul\":12815:12822   */\n      dup4\n        /* \"#utility.yul\":12784:12823   */\n      tag_173\n      jump\t// in\n    tag_316:\n        /* \"#utility.yul\":12845:12936   */\n      tag_317\n        /* \"#utility.yul\":12894:12935   */\n      tag_318\n        /* \"#utility.yul\":12918:12934   */\n      dup3\n        /* \"#utility.yul\":12894:12935   */\n      tag_174\n      jump\t// in\n    tag_318:\n        /* \"#utility.yul\":12886:12892   */\n      dup5\n        /* \"#utility.yul\":12879:12883   */\n      dup5\n        /* \"#utility.yul\":12873:12884   */\n      sload\n        /* \"#utility.yul\":12845:12936   */\n      tag_171\n      jump\t// in\n    tag_317:\n        /* \"#utility.yul\":12839:12843   */\n      dup3\n        /* \"#utility.yul\":12832:12937   */\n      sstore\n        /* \"#utility.yul\":12750:12943   */\n      pop\n        /* \"#utility.yul\":12674:12943   */\n      pop\n      pop\n      pop\n      jump\t// out\n        /* \"#utility.yul\":12949:13022   */\n    tag_176:\n        /* \"#utility.yul\":12994:12997   */\n      0x00\n        /* \"#utility.yul\":13015:13016   */\n      0x00\n        /* \"#utility.yul\":13008:13016   */\n      swap1\n      pop\n        /* \"#utility.yul\":12949:13022   */\n      swap1\n      jump\t// out\n        /* \"#utility.yul\":13028:13217   */\n    tag_177:\n        /* \"#utility.yul\":13105:13137   */\n      tag_321\n      tag_176\n      jump\t// in\n    tag_321:\n        /* \"#utility.yul\":13146:13211   */\n      tag_322\n        /* \"#utility.yul\":13204:13210   */\n      dup2\n        /* \"#utility.yul\":13196:13202   */\n      dup5\n        /* \"#utility.yul\":13190:13194   */\n      dup5\n        /* \"#utility.yul\":13146:13211   */\n      tag_175\n      jump\t// in\n    tag_322:\n        /* \"#utility.yul\":13081:13217   */\n      pop\n        /* \"#utility.yul\":13028:13217   */\n      pop\n      pop\n      jump\t// out\n        /* \"#utility.yul\":13223:13409   */\n    tag_178:\n        /* \"#utility.yul\":13283:13403   */\n    tag_324:\n        /* \"#utility.yul\":13300:13303   */\n      dup2\n        /* \"#utility.yul\":13293:13298   */\n      dup2\n        /* \"#utility.yul\":13290:13304   */\n      lt\n        /* \"#utility.yul\":13283:13403   */\n      iszero\n      tag_326\n      jumpi\n        /* \"#utility.yul\":13354:13393   */\n      tag_327\n        /* \"#utility.yul\":13391:13392   */\n      0x00\n        /* \"#utility.yul\":13384:13389   */\n      dup3\n        /* \"#utility.yul\":13354:13393   */\n      tag_177\n      jump\t// in\n    tag_327:\n        /* \"#utility.yul\":13327:13328   */\n      0x01\n        /* \"#utility.yul\":13320:13325   */\n      dup2\n        /* \"#utility.yul\":13316:13329   */\n      add\n        /* \"#utility.yul\":13307:13329   */\n      swap1\n      pop\n        /* \"#utility.yul\":13283:13403   */\n      jump(tag_324)\n    tag_326:\n        /* \"#utility.yul\":13223:13409   */\n      pop\n      pop\n      jump\t// out\n        /* \"#utility.yul\":13415:13958   */\n    tag_179:\n        /* \"#utility.yul\":13516:13518   */\n      0x1f\n        /* \"#utility.yul\":13511:13514   */\n      dup3\n        /* \"#utility.yul\":13508:13519   */\n      gt\n        /* \"#utility.yul\":13505:13951   */\n      iszero\n      tag_329\n      jumpi\n        /* \"#utility.yul\":13550:13588   */\n      tag_330\n        /* \"#utility.yul\":13582:13587   */\n      dup2\n        /* \"#utility.yul\":13550:13588   */\n      tag_168\n      jump\t// in\n    tag_330:\n        /* \"#utility.yul\":13634:13663   */\n      tag_331\n        /* \"#utility.yul\":13652:13662   */\n      dup5\n        /* \"#utility.yul\":13634:13663   */\n      tag_169\n      jump\t// in\n    tag_331:\n        /* \"#utility.yul\":13624:13632   */\n      dup2\n        /* \"#utility.yul\":13620:13664   */\n      add\n        /* \"#utility.yul\":13817:13819   */\n      0x20\n        /* \"#utility.yul\":13805:13815   */\n      dup6\n        /* \"#utility.yul\":13802:13820   */\n      lt\n        /* \"#utility.yul\":13799:13848   */\n      iszero\n      tag_332\n      jumpi\n        /* \"#utility.yul\":13838:13846   */\n      dup2\n        /* \"#utility.yul\":13823:13846   */\n      swap1\n      pop\n        /* \"#utility.yul\":13799:13848   */\n    tag_332:\n        /* \"#utility.yul\":13861:13941   */\n      tag_333\n        /* \"#utility.yul\":13917:13939   */\n      tag_334\n        /* \"#utility.yul\":13935:13938   */\n      dup6\n        /* \"#utility.yul\":13917:13939   */\n      tag_169\n      jump\t// in\n    tag_334:\n        /* \"#utility.yul\":13907:13915   */\n      dup4\n        /* \"#utility.yul\":13903:13940   */\n      add\n        /* \"#utility.yul\":13890:13901   */\n      dup3\n        /* \"#utility.yul\":13861:13941   */\n      tag_178\n      jump\t// in\n    tag_333:\n        /* \"#utility.yul\":13520:13951   */\n      pop\n      pop\n        /* \"#utility.yul\":13505:13951   */\n    tag_329:\n        /* \"#utility.yul\":13415:13958   */\n      pop\n      pop\n      pop\n      jump\t// out\n        /* \"#utility.yul\":13964:14081   */\n    tag_180:\n        /* \"#utility.yul\":14018:14026   */\n      0x00\n        /* \"#utility.yul\":14068:14073   */\n      dup3\n        /* \"#utility.yul\":14062:14066   */\n      dup3\n        /* \"#utility.yul\":14058:14074   */\n      shr\n        /* \"#utility.yul\":14037:14074   */\n      swap1\n      pop\n        /* \"#utility.yul\":13964:14081   */\n      swap3\n      swap2\n      pop\n      pop\n      jump\t// out\n        /* \"#utility.yul\":14087:14256   */\n    tag_181:\n        /* \"#utility.yul\":14131:14137   */\n      0x00\n        /* \"#utility.yul\":14164:14215   */\n      tag_337\n        /* \"#utility.yul\":14212:14213   */\n      0x00\n        /* \"#utility.yul\":14208:14214   */\n      not\n        /* \"#utility.yul\":14200:14205   */\n      dup5\n        /* \"#utility.yul\":14197:14198   */\n      0x08\n        /* \"#utility.yul\":14193:14206   */\n      mul\n        /* \"#utility.yul\":14164:14215   */\n      tag_180\n      jump\t// in\n    tag_337:\n        /* \"#utility.yul\":14160:14216   */\n      not\n        /* \"#utility.yul\":14245:14249   */\n      dup1\n        /* \"#utility.yul\":14239:14243   */\n      dup4\n        /* \"#utility.yul\":14235:14250   */\n      and\n        /* \"#utility.yul\":14225:14250   */\n      swap2\n      pop\n        /* \"#utility.yul\":14138:14256   */\n      pop\n        /* \"#utility.yul\":14087:14256   */\n      swap3\n      swap2\n      pop\n      pop\n      jump\t// out\n        /* \"#utility.yul\":14261:14556   */\n    tag_182:\n        /* \"#utility.yul\":14337:14341   */\n      0x00\n        /* \"#utility.yul\":14483:14512   */\n      tag_339\n        /* \"#utility.yul\":14508:14511   */\n      dup4\n        /* \"#utility.yul\":14502:14506   */\n      dup4\n        /* \"#utility.yul\":14483:14512   */\n      tag_181\n      jump\t// in\n    tag_339:\n        /* \"#utility.yul\":14475:14512   */\n      swap2\n      pop\n        /* \"#utility.yul\":14545:14548   */\n      dup3\n        /* \"#utility.yul\":14542:14543   */\n      0x02\n        /* \"#utility.yul\":14538:14549   */\n      mul\n        /* \"#utility.yul\":14532:14536   */\n      dup3\n        /* \"#utility.yul\":14529:14550   */\n      or\n        /* \"#utility.yul\":14521:14550   */\n      swap1\n      pop\n        /* \"#utility.yul\":14261:14556   */\n      swap3\n      swap2\n      pop\n      pop\n      jump\t// out\n        /* \"#utility.yul\":14561:15956   */\n    tag_55:\n        /* \"#utility.yul\":14678:14715   */\n      tag_341\n        /* \"#utility.yul\":14711:14714   */\n      dup3\n        /* \"#utility.yul\":14678:14715   */\n      tag_162\n      jump\t// in\n    tag_341:\n        /* \"#utility.yul\":14780:14798   */\n      0xffffffffffffffff\n        /* \"#utility.yul\":14772:14778   */\n      dup2\n        /* \"#utility.yul\":14769:14799   */\n      gt\n        /* \"#utility.yul\":14766:14822   */\n      iszero\n      tag_342\n      jumpi\n        /* \"#utility.yul\":14802:14820   */\n      tag_343\n      tag_150\n      jump\t// in\n    tag_343:\n        /* \"#utility.yul\":14766:14822   */\n    tag_342:\n        /* \"#utility.yul\":14846:14884   */\n      tag_344\n        /* \"#utility.yul\":14878:14882   */\n      dup3\n        /* \"#utility.yul\":14872:14883   */\n      sload\n        /* \"#utility.yul\":14846:14884   */\n      tag_84\n      jump\t// in\n    tag_344:\n        /* \"#utility.yul\":14931:14998   */\n      tag_345\n        /* \"#utility.yul\":14991:14997   */\n      dup3\n        /* \"#utility.yul\":14983:14989   */\n      dup3\n        /* \"#utility.yul\":14977:14981   */\n      dup6\n        /* \"#utility.yul\":14931:14998   */\n      tag_179\n      jump\t// in\n    tag_345:\n        /* \"#utility.yul\":15025:15026   */\n      0x00\n        /* \"#utility.yul\":15049:15053   */\n      0x20\n        /* \"#utility.yul\":15036:15053   */\n      swap1\n      pop\n        /* \"#utility.yul\":15081:15083   */\n      0x1f\n        /* \"#utility.yul\":15073:15079   */\n      dup4\n        /* \"#utility.yul\":15070:15084   */\n      gt\n        /* \"#utility.yul\":15098:15099   */\n      0x01\n        /* \"#utility.yul\":15093:15711   */\n      dup2\n      eq\n      tag_347\n      jumpi\n        /* \"#utility.yul\":15755:15756   */\n      0x00\n        /* \"#utility.yul\":15772:15778   */\n      dup5\n        /* \"#utility.yul\":15769:15846   */\n      iszero\n      tag_348\n      jumpi\n        /* \"#utility.yul\":15821:15830   */\n      dup3\n        /* \"#utility.yul\":15816:15819   */\n      dup8\n        /* \"#utility.yul\":15812:15831   */\n      add\n        /* \"#utility.yul\":15806:15832   */\n      mload\n        /* \"#utility.yul\":15797:15832   */\n      swap1\n      pop\n        /* \"#utility.yul\":15769:15846   */\n    tag_348:\n        /* \"#utility.yul\":15872:15939   */\n      tag_349\n        /* \"#utility.yul\":15932:15938   */\n      dup6\n        /* \"#utility.yul\":15925:15930   */\n      dup3\n        /* \"#utility.yul\":15872:15939   */\n      tag_182\n      jump\t// in\n    tag_349:\n        /* \"#utility.yul\":15866:15870   */\n      dup7\n        /* \"#utility.yul\":15859:15940   */\n      sstore\n        /* \"#utility.yul\":15728:15950   */\n      pop\n        /* \"#utility.yul\":15063:15950   */\n      jump(tag_346)\n        /* \"#utility.yul\":15093:15711   */\n    tag_347:\n        /* \"#utility.yul\":15145:15149   */\n      0x1f\n        /* \"#utility.yul\":15141:15150   */\n      not\n        /* \"#utility.yul\":15133:15139   */\n      dup5\n        /* \"#utility.yul\":15129:15151   */\n      and\n        /* \"#utility.yul\":15179:15216   */\n      tag_350\n        /* \"#utility.yul\":15211:15215   */\n      dup7\n        /* \"#utility.yul\":15179:15216   */\n      tag_168\n      jump\t// in\n    tag_350:\n        /* \"#utility.yul\":15238:15239   */\n      0x00\n        /* \"#utility.yul\":15252:15460   */\n    tag_351:\n        /* \"#utility.yul\":15266:15273   */\n      dup3\n        /* \"#utility.yul\":15263:15264   */\n      dup2\n        /* \"#utility.yul\":15260:15274   */\n      lt\n        /* \"#utility.yul\":15252:15460   */\n      iszero\n      tag_353\n      jumpi\n        /* \"#utility.yul\":15345:15354   */\n      dup5\n        /* \"#utility.yul\":15340:15343   */\n      dup10\n        /* \"#utility.yul\":15336:15355   */\n      add\n        /* \"#utility.yul\":15330:15356   */\n      mload\n        /* \"#utility.yul\":15322:15328   */\n      dup3\n        /* \"#utility.yul\":15315:15357   */\n      sstore\n        /* \"#utility.yul\":15396:15397   */\n      0x01\n        /* \"#utility.yul\":15388:15394   */\n      dup3\n        /* \"#utility.yul\":15384:15398   */\n      add\n        /* \"#utility.yul\":15374:15398   */\n      swap2\n      pop\n        /* \"#utility.yul\":15443:15445   */\n      0x20\n        /* \"#utility.yul\":15432:15441   */\n      dup6\n        /* \"#utility.yul\":15428:15446   */\n      add\n        /* \"#utility.yul\":15415:15446   */\n      swap5\n      pop\n        /* \"#utility.yul\":15289:15293   */\n      0x20\n        /* \"#utility.yul\":15286:15287   */\n      dup2\n        /* \"#utility.yul\":15282:15294   */\n      add\n        /* \"#utility.yul\":15277:15294   */\n      swap1\n      pop\n        /* \"#utility.yul\":15252:15460   */\n      jump(tag_351)\n    tag_353:\n        /* \"#utility.yul\":15488:15494   */\n      dup7\n        /* \"#utility.yul\":15479:15486   */\n      dup4\n        /* \"#utility.yul\":15476:15495   */\n      lt\n        /* \"#utility.yul\":15473:15652   */\n      iszero\n      tag_354\n      jumpi\n        /* \"#utility.yul\":15546:15555   */\n      dup5\n        /* \"#utility.yul\":15541:15544   */\n      dup10\n        /* \"#utility.yul\":15537:15556   */\n      add\n        /* \"#utility.yul\":15531:15557   */\n      mload\n        /* \"#utility.yul\":15589:15637   */\n      tag_355\n        /* \"#utility.yul\":15631:15635   */\n      0x1f\n        /* \"#utility.yul\":15623:15629   */\n      dup10\n        /* \"#utility.yul\":15619:15636   */\n      and\n        /* \"#utility.yul\":15608:15617   */\n      dup3\n        /* \"#utility.yul\":15589:15637   */\n      tag_181\n      jump\t// in\n    tag_355:\n        /* \"#utility.yul\":15581:15587   */\n      dup4\n        /* \"#utility.yul\":15574:15638   */\n      sstore\n        /* \"#utility.yul\":15496:15652   */\n      pop\n        /* \"#utility.yul\":15473:15652   */\n    tag_354:\n        /* \"#utility.yul\":15698:15699   */\n      0x01\n        /* \"#utility.yul\":15694:15695   */\n      0x02\n        /* \"#utility.yul\":15686:15692   */\n      dup9\n        /* \"#utility.yul\":15682:15696   */\n      mul\n        /* \"#utility.yul\":15678:15700   */\n      add\n        /* \"#utility.yul\":15672:15676   */\n      dup9\n        /* \"#utility.yul\":15665:15701   */\n      sstore\n        /* \"#utility.yul\":15100:15711   */\n      pop\n      pop\n      pop\n        /* \"#utility.yul\":15063:15950   */\n    tag_346:\n      pop\n        /* \"#utility.yul\":14653:15956   */\n      pop\n      pop\n      pop\n        /* \"#utility.yul\":14561:15956   */\n      pop\n      pop\n      jump\t// out\n        /* \"#utility.yul\":15962:16978   */\n    tag_60:\n        /* \"#utility.yul\":16241:16245   */\n      0x00\n        /* \"#utility.yul\":16279:16282   */\n      0xa0\n        /* \"#utility.yul\":16268:16277   */\n      dup3\n        /* \"#utility.yul\":16264:16283   */\n      add\n        /* \"#utility.yul\":16256:16283   */\n      swap1\n      pop\n        /* \"#utility.yul\":16329:16338   */\n      dup2\n        /* \"#utility.yul\":16323:16327   */\n      dup2\n        /* \"#utility.yul\":16319:16339   */\n      sub\n        /* \"#utility.yul\":16315:16316   */\n      0x00\n        /* \"#utility.yul\":16304:16313   */\n      dup4\n        /* \"#utility.yul\":16300:16317   */\n      add\n        /* \"#utility.yul\":16293:16340   */\n      mstore\n        /* \"#utility.yul\":16357:16435   */\n      tag_357\n        /* \"#utility.yul\":16430:16434   */\n      dup2\n        /* \"#utility.yul\":16421:16427   */\n      dup9\n        /* \"#utility.yul\":16357:16435   */\n      tag_165\n      jump\t// in\n    tag_357:\n        /* \"#utility.yul\":16349:16435   */\n      swap1\n      pop\n        /* \"#utility.yul\":16482:16491   */\n      dup2\n        /* \"#utility.yul\":16476:16480   */\n      dup2\n        /* \"#utility.yul\":16472:16492   */\n      sub\n        /* \"#utility.yul\":16467:16469   */\n      0x20\n        /* \"#utility.yul\":16456:16465   */\n      dup4\n        /* \"#utility.yul\":16452:16470   */\n      add\n        /* \"#utility.yul\":16445:16493   */\n      mstore\n        /* \"#utility.yul\":16510:16588   */\n      tag_358\n        /* \"#utility.yul\":16583:16587   */\n      dup2\n        /* \"#utility.yul\":16574:16580   */\n      dup8\n        /* \"#utility.yul\":16510:16588   */\n      tag_165\n      jump\t// in\n    tag_358:\n        /* \"#utility.yul\":16502:16588   */\n      swap1\n      pop\n        /* \"#utility.yul\":16635:16644   */\n      dup2\n        /* \"#utility.yul\":16629:16633   */\n      dup2\n        /* \"#utility.yul\":16625:16645   */\n      sub\n        /* \"#utility.yul\":16620:16622   */\n      0x40\n        /* \"#utility.yul\":16609:16618   */\n      dup4\n        /* \"#utility.yul\":16605:16623   */\n      add\n        /* \"#utility.yul\":16598:16646   */\n      mstore\n        /* \"#utility.yul\":16663:16741   */\n      tag_359\n        /* \"#utility.yul\":16736:16740   */\n      dup2\n        /* \"#utility.yul\":16727:16733   */\n      dup7\n        /* \"#utility.yul\":16663:16741   */\n      tag_165\n      jump\t// in\n    tag_359:\n        /* \"#utility.yul\":16655:16741   */\n      swap1\n      pop\n        /* \"#utility.yul\":16751:16817   */\n      tag_360\n        /* \"#utility.yul\":16813:16815   */\n      0x60\n        /* \"#utility.yul\":16802:16811   */\n      dup4\n        /* \"#utility.yul\":16798:16816   */\n      add\n        /* \"#utility.yul\":16789:16795   */\n      dup6\n        /* \"#utility.yul\":16751:16817   */\n      tag_166\n      jump\t// in\n    tag_360:\n        /* \"#utility.yul\":16865:16874   */\n      dup2\n        /* \"#utility.yul\":16859:16863   */\n      dup2\n        /* \"#utility.yul\":16855:16875   */\n      sub\n        /* \"#utility.yul\":16849:16852   */\n      0x80\n        /* \"#utility.yul\":16838:16847   */\n      dup4\n        /* \"#utility.yul\":16834:16853   */\n      add\n        /* \"#utility.yul\":16827:16876   */\n      mstore\n        /* \"#utility.yul\":16893:16971   */\n      tag_361\n        /* \"#utility.yul\":16966:16970   */\n      dup2\n        /* \"#utility.yul\":16957:16963   */\n      dup5\n        /* \"#utility.yul\":16893:16971   */\n      tag_165\n      jump\t// in\n    tag_361:\n        /* \"#utility.yul\":16885:16971   */\n      swap1\n      pop\n        /* \"#utility.yul\":15962:16978   */\n      swap7\n      swap6\n      pop\n      pop\n      pop\n      pop\n      pop\n      pop\n      jump\t// out\n        /* \"#utility.yul\":16984:17498   */\n    tag_66:\n        /* \"#utility.yul\":17145:17149   */\n      0x00\n        /* \"#utility.yul\":17183:17185   */\n      0x40\n        /* \"#utility.yul\":17172:17181   */\n      dup3\n        /* \"#utility.yul\":17168:17186   */\n      add\n        /* \"#utility.yul\":17160:17186   */\n      swap1\n      pop\n        /* \"#utility.yul\":17232:17241   */\n      dup2\n        /* \"#utility.yul\":17226:17230   */\n      dup2\n        /* \"#utility.yul\":17222:17242   */\n      sub\n        /* \"#utility.yul\":17218:17219   */\n      0x00\n        /* \"#utility.yul\":17207:17216   */\n      dup4\n        /* \"#utility.yul\":17203:17220   */\n      add\n        /* \"#utility.yul\":17196:17243   */\n      mstore\n        /* \"#utility.yul\":17260:17338   */\n      tag_363\n        /* \"#utility.yul\":17333:17337   */\n      dup2\n        /* \"#utility.yul\":17324:17330   */\n      dup6\n        /* \"#utility.yul\":17260:17338   */\n      tag_165\n      jump\t// in\n    tag_363:\n        /* \"#utility.yul\":17252:17338   */\n      swap1\n      pop\n        /* \"#utility.yul\":17385:17394   */\n      dup2\n        /* \"#utility.yul\":17379:17383   */\n      dup2\n        /* \"#utility.yul\":17375:17395   */\n      sub\n        /* \"#utility.yul\":17370:17372   */\n      0x20\n        /* \"#utility.yul\":17359:17368   */\n      dup4\n        /* \"#utility.yul\":17355:17373   */\n      add\n        /* \"#utility.yul\":17348:17396   */\n      mstore\n        /* \"#utility.yul\":17413:17491   */\n      tag_364\n        /* \"#utility.yul\":17486:17490   */\n      dup2\n        /* \"#utility.yul\":17477:17483   */\n      dup5\n        /* \"#utility.yul\":17413:17491   */\n      tag_165\n      jump\t// in\n    tag_364:\n        /* \"#utility.yul\":17405:17491   */\n      swap1\n      pop\n        /* \"#utility.yul\":16984:17498   */\n      swap4\n      swap3\n      pop\n      pop\n      pop\n      jump\t// out\n        /* \"#utility.yul\":17504:18219   */\n    tag_73:\n        /* \"#utility.yul\":17713:17717   */\n      0x00\n        /* \"#utility.yul\":17751:17753   */\n      0x60\n        /* \"#utility.yul\":17740:17749   */\n      dup3\n        /* \"#utility.yul\":17736:17754   */\n      add\n        /* \"#utility.yul\":17728:17754   */\n      swap1\n      pop\n        /* \"#utility.yul\":17800:17809   */\n      dup2\n        /* \"#utility.yul\":17794:17798   */\n      dup2\n        /* \"#utility.yul\":17790:17810   */\n      sub\n        /* \"#utility.yul\":17786:17787   */\n      0x00\n        /* \"#utility.yul\":17775:17784   */\n      dup4\n        /* \"#utility.yul\":17771:17788   */\n      add\n        /* \"#utility.yul\":17764:17811   */\n      mstore\n        /* \"#utility.yul\":17828:17906   */\n      tag_366\n        /* \"#utility.yul\":17901:17905   */\n      dup2\n        /* \"#utility.yul\":17892:17898   */\n      dup7\n        /* \"#utility.yul\":17828:17906   */\n      tag_165\n      jump\t// in\n    tag_366:\n        /* \"#utility.yul\":17820:17906   */\n      swap1\n      pop\n        /* \"#utility.yul\":17953:17962   */\n      dup2\n        /* \"#utility.yul\":17947:17951   */\n      dup2\n        /* \"#utility.yul\":17943:17963   */\n      sub\n        /* \"#utility.yul\":17938:17940   */\n      0x20\n        /* \"#utility.yul\":17927:17936   */\n      dup4\n        /* \"#utility.yul\":17923:17941   */\n      add\n        /* \"#utility.yul\":17916:17964   */\n      mstore\n        /* \"#utility.yul\":17981:18059   */\n      tag_367\n        /* \"#utility.yul\":18054:18058   */\n      dup2\n        /* \"#utility.yul\":18045:18051   */\n      dup6\n        /* \"#utility.yul\":17981:18059   */\n      tag_165\n      jump\t// in\n    tag_367:\n        /* \"#utility.yul\":17973:18059   */\n      swap1\n      pop\n        /* \"#utility.yul\":18106:18115   */\n      dup2\n        /* \"#utility.yul\":18100:18104   */\n      dup2\n        /* \"#utility.yul\":18096:18116   */\n      sub\n        /* \"#utility.yul\":18091:18093   */\n      0x40\n        /* \"#utility.yul\":18080:18089   */\n      dup4\n        /* \"#utility.yul\":18076:18094   */\n      add\n        /* \"#utility.yul\":18069:18117   */\n      mstore\n        /* \"#utility.yul\":18134:18212   */\n      tag_368\n        /* \"#utility.yul\":18207:18211   */\n      dup2\n        /* \"#utility.yul\":18198:18204   */\n      dup5\n        /* \"#utility.yul\":18134:18212   */\n      tag_165\n      jump\t// in\n    tag_368:\n        /* \"#utility.yul\":18126:18212   */\n      swap1\n      pop\n        /* \"#utility.yul\":17504:18219   */\n      swap5\n      swap4\n      pop\n      pop\n      pop\n      pop\n      jump\t// out\n        /* \"#utility.yul\":18225:18388   */\n    tag_183:\n        /* \"#utility.yul\":18365:18380   */\n      0x496e76616c696420696e64657800000000000000000000000000000000000000\n        /* \"#utility.yul\":18361:18362   */\n      0x00\n        /* \"#utility.yul\":18353:18359   */\n      dup3\n        /* \"#utility.yul\":18349:18363   */\n      add\n        /* \"#utility.yul\":18342:18381   */\n      mstore\n        /* \"#utility.yul\":18225:18388   */\n      pop\n      jump\t// out\n        /* \"#utility.yul\":18394:18760   */\n    tag_184:\n        /* \"#utility.yul\":18536:18539   */\n      0x00\n        /* \"#utility.yul\":18557:18624   */\n      tag_371\n        /* \"#utility.yul\":18621:18623   */\n      0x0d\n        /* \"#utility.yul\":18616:18619   */\n      dup4\n        /* \"#utility.yul\":18557:18624   */\n      tag_163\n      jump\t// in\n    tag_371:\n        /* \"#utility.yul\":18550:18624   */\n      swap2\n      pop\n        /* \"#utility.yul\":18633:18726   */\n      tag_372\n        /* \"#utility.yul\":18722:18725   */\n      dup3\n        /* \"#utility.yul\":18633:18726   */\n      tag_183\n      jump\t// in\n    tag_372:\n        /* \"#utility.yul\":18751:18753   */\n      0x20\n        /* \"#utility.yul\":18746:18749   */\n      dup3\n        /* \"#utility.yul\":18742:18754   */\n      add\n        /* \"#utility.yul\":18735:18754   */\n      swap1\n      pop\n        /* \"#utility.yul\":18394:18760   */\n      swap2\n      swap1\n      pop\n      jump\t// out\n        /* \"#utility.yul\":18766:19185   */\n    tag_78:\n        /* \"#utility.yul\":18932:18936   */\n      0x00\n        /* \"#utility.yul\":18970:18972   */\n      0x20\n        /* \"#utility.yul\":18959:18968   */\n      dup3\n        /* \"#utility.yul\":18955:18973   */\n      add\n        /* \"#utility.yul\":18947:18973   */\n      swap1\n      pop\n        /* \"#utility.yul\":19019:19028   */\n      dup2\n        /* \"#utility.yul\":19013:19017   */\n      dup2\n        /* \"#utility.yul\":19009:19029   */\n      sub\n        /* \"#utility.yul\":19005:19006   */\n      0x00\n        /* \"#utility.yul\":18994:19003   */\n      dup4\n        /* \"#utility.yul\":18990:19007   */\n      add\n        /* \"#utility.yul\":18983:19030   */\n      mstore\n        /* \"#utility.yul\":19047:19178   */\n      tag_374\n        /* \"#utility.yul\":19173:19177   */\n      dup2\n        /* \"#utility.yul\":19047:19178   */\n      tag_184\n      jump\t// in\n    tag_374:\n        /* \"#utility.yul\":19039:19178   */\n      swap1\n      pop\n        /* \"#utility.yul\":18766:19185   */\n      swap2\n      swap1\n      pop\n      jump\t// out\n        /* \"#utility.yul\":19191:19371   */\n    tag_81:\n        /* \"#utility.yul\":19239:19316   */\n      0x4e487b7100000000000000000000000000000000000000000000000000000000\n        /* \"#utility.yul\":19236:19237   */\n      0x00\n        /* \"#utility.yul\":19229:19317   */\n      mstore\n        /* \"#utility.yul\":19336:19340   */\n      0x32\n        /* \"#utility.yul\":19333:19334   */\n      0x04\n        /* \"#utility.yul\":19326:19341   */\n      mstore\n        /* \"#utility.yul\":19360:19364   */\n      0x24\n        /* \"#utility.yul\":19357:19358   */\n      0x00\n        /* \"#utility.yul\":19350:19365   */\n      revert\n\n    auxdata: 0xa2646970667358221220a022314895108450537ff17ab1c1a52b74bc85cb714bda6cfde046ad9f414ae664736f6c634300081e0033\n}\n",
				"bytecode": {
					"linkReferences": {},
					"object": "6080604052348015600e575f5ffd5b506116008061001c5f395ff3fe608060405234801561000f575f5ffd5b5060043610610091575f3560e01c80638e3d5ebf116100645780638e3d5ebf14610107578063ab3a2b9814610125578063b2e32f071461015a578063d2a6c2821461018d578063d5015d65146101bf57610091565b80631a201989146100955780634b733744146100b35780634d011928146100cf5780637f7df466146100eb575b5f5ffd5b61009d6101dd565b6040516100aa9190610c07565b60405180910390f35b6100cd60048036038101906100c89190610da2565b6101e9565b005b6100e960048036038101906100e49190610e89565b610312565b005b61010560048036038101906101009190610eff565b6103d3565b005b61010f6104b1565b60405161011c9190610c07565b60405180910390f35b61013f600480360381019061013a9190610fcd565b6104bc565b60405161015196959493929190611067565b60405180910390f35b610174600480360381019061016f9190610fcd565b6107d0565b60405161018494939291906110e2565b60405180910390f35b6101a760048036038101906101a29190610fcd565b610a25565b6040516101b69392919061113a565b60405180910390f35b6101c7610be3565b6040516101d49190610c07565b60405180910390f35b5f600180549050905090565b5f600280549050905060026040518060c00160405280838152602001888152602001878152602001868152602001851515815260200184815250908060018154018082558091505060019003905f5260205f2090600602015f909190919091505f820151815f01556020820151816001019081610266919061137a565b50604082015181600201908161027c919061137a565b506060820151816003019081610292919061137a565b506080820151816004015f6101000a81548160ff02191690831515021790555060a08201518160050190816102c7919061137a565b505050807f908906284f715d08b08eb37f63c62e33ca62fefbbf751c838a514bb2f71f8c618787878787604051610302959493929190611449565b60405180910390a2505050505050565b5f60018054905090506001604051806060016040528083815260200185815260200184815250908060018154018082558091505060019003905f5260205f2090600302015f909190919091505f820151815f0155602082015181600101908161037b919061137a565b506040820151816002019081610391919061137a565b505050807f7d389bd6a77439844633e3cdcd07741851680f113e970aaf5a6277c6d8fe27f284846040516103c69291906114b6565b60405180910390a2505050565b5f5f8054905090505f604051806080016040528083815260200186815260200185815260200184815250908060018154018082558091505060019003905f5260205f2090600402015f909190919091505f820151815f01556020820151816001019081610440919061137a565b506040820151816002019081610456919061137a565b50606082015181600301908161046c919061137a565b505050807fd2a6e8d11d03db3ba16f4b221906f86fe27a206183788136005c1abfef45f1b68585856040516104a3939291906114eb565b60405180910390a250505050565b5f5f80549050905090565b5f60608060605f6060600280549050871061050c576040517f08c379a00000000000000000000000000000000000000000000000000000000081526004016105039061157f565b60405180910390fd5b5f600288815481106105215761052061159d565b5b905f5260205f2090600602016040518060c00160405290815f8201548152602001600182018054610551906111aa565b80601f016020809104026020016040519081016040528092919081815260200182805461057d906111aa565b80156105c85780601f1061059f576101008083540402835291602001916105c8565b820191905f5260205f20905b8154815290600101906020018083116105ab57829003601f168201915b505050505081526020016002820180546105e1906111aa565b80601f016020809104026020016040519081016040528092919081815260200182805461060d906111aa565b80156106585780601f1061062f57610100808354040283529160200191610658565b820191905f5260205f20905b81548152906001019060200180831161063b57829003601f168201915b50505050508152602001600382018054610671906111aa565b80601f016020809104026020016040519081016040528092919081815260200182805461069d906111aa565b80156106e85780601f106106bf576101008083540402835291602001916106e8565b820191905f5260205f20905b8154815290600101906020018083116106cb57829003601f168201915b50505050508152602001600482015f9054906101000a900460ff1615151515815260200160058201805461071b906111aa565b80601f0160208091040260200160405190810160405280929190818152602001828054610747906111aa565b80156107925780601f1061076957610100808354040283529160200191610792565b820191905f5260205f20905b81548152906001019060200180831161077557829003601f168201915b5050505050815250509050805f015181602001518260400151836060015184608001518560a001519650965096509650965096505091939550919395565b5f60608060605f80549050851061081c576040517f08c379a00000000000000000000000000000000000000000000000000000000081526004016108139061157f565b60405180910390fd5b5f5f86815481106108305761082f61159d565b5b905f5260205f2090600402016040518060800160405290815f8201548152602001600182018054610860906111aa565b80601f016020809104026020016040519081016040528092919081815260200182805461088c906111aa565b80156108d75780601f106108ae576101008083540402835291602001916108d7565b820191905f5260205f20905b8154815290600101906020018083116108ba57829003601f168201915b505050505081526020016002820180546108f0906111aa565b80601f016020809104026020016040519081016040528092919081815260200182805461091c906111aa565b80156109675780601f1061093e57610100808354040283529160200191610967565b820191905f5260205f20905b81548152906001019060200180831161094a57829003601f168201915b50505050508152602001600382018054610980906111aa565b80601f01602080910402602001604051908101604052809291908181526020018280546109ac906111aa565b80156109f75780601f106109ce576101008083540402835291602001916109f7565b820191905f5260205f20905b8154815290600101906020018083116109da57829003601f168201915b5050505050815250509050805f01518160200151826040015183606001519450945094509450509193509193565b5f6060806001805490508410610a70576040517f08c379a0000000000000000000000000000000000000000000000000000000008152600401610a679061157f565b60405180910390fd5b5f60018581548110610a8557610a8461159d565b5b905f5260205f2090600302016040518060600160405290815f8201548152602001600182018054610ab5906111aa565b80601f0160208091040260200160405190810160405280929190818152602001828054610ae1906111aa565b8015610b2c5780601f10610b0357610100808354040283529160200191610b2c565b820191905f5260205f20905b815481529060010190602001808311610b0f57829003601f168201915b50505050508152602001600282018054610b45906111aa565b80601f0160208091040260200160405190810160405280929190818152602001828054610b71906111aa565b8015610bbc5780601f10610b9357610100808354040283529160200191610bbc565b820191905f5260205f20905b815481529060010190602001808311610b9f57829003601f168201915b5050505050815250509050805f015181602001518260400151935093509350509193909250565b5f600280549050905090565b5f819050919050565b610c0181610bef565b82525050565b5f602082019050610c1a5f830184610bf8565b92915050565b5f604051905090565b5f5ffd5b5f5ffd5b5f5ffd5b5f5ffd5b5f601f19601f8301169050919050565b7f4e487b71000000000000000000000000000000000000000000000000000000005f52604160045260245ffd5b610c7f82610c39565b810181811067ffffffffffffffff82111715610c9e57610c9d610c49565b5b80604052505050565b5f610cb0610c20565b9050610cbc8282610c76565b919050565b5f67ffffffffffffffff821115610cdb57610cda610c49565b5b610ce482610c39565b9050602081019050919050565b828183375f83830152505050565b5f610d11610d0c84610cc1565b610ca7565b905082815260208101848484011115610d2d57610d2c610c35565b5b610d38848285610cf1565b509392505050565b5f82601f830112610d5457610d53610c31565b5b8135610d64848260208601610cff565b91505092915050565b5f8115159050919050565b610d8181610d6d565b8114610d8b575f5ffd5b50565b5f81359050610d9c81610d78565b92915050565b5f5f5f5f5f60a08688031215610dbb57610dba610c29565b5b5f86013567ffffffffffffffff811115610dd857610dd7610c2d565b5b610de488828901610d40565b955050602086013567ffffffffffffffff811115610e0557610e04610c2d565b5b610e1188828901610d40565b945050604086013567ffffffffffffffff811115610e3257610e31610c2d565b5b610e3e88828901610d40565b9350506060610e4f88828901610d8e565b925050608086013567ffffffffffffffff811115610e7057610e6f610c2d565b5b610e7c88828901610d40565b9150509295509295909350565b5f5f60408385031215610e9f57610e9e610c29565b5b5f83013567ffffffffffffffff811115610ebc57610ebb610c2d565b5b610ec885828601610d40565b925050602083013567ffffffffffffffff811115610ee957610ee8610c2d565b5b610ef585828601610d40565b9150509250929050565b5f5f5f60608486031215610f1657610f15610c29565b5b5f84013567ffffffffffffffff811115610f3357610f32610c2d565b5b610f3f86828701610d40565b935050602084013567ffffffffffffffff811115610f6057610f5f610c2d565b5b610f6c86828701610d40565b925050604084013567ffffffffffffffff811115610f8d57610f8c610c2d565b5b610f9986828701610d40565b9150509250925092565b610fac81610bef565b8114610fb6575f5ffd5b50565b5f81359050610fc781610fa3565b92915050565b5f60208284031215610fe257610fe1610c29565b5b5f610fef84828501610fb9565b91505092915050565b5f81519050919050565b5f82825260208201905092915050565b8281835e5f83830152505050565b5f61102a82610ff8565b6110348185611002565b9350611044818560208601611012565b61104d81610c39565b840191505092915050565b61106181610d6d565b82525050565b5f60c08201905061107a5f830189610bf8565b818103602083015261108c8188611020565b905081810360408301526110a08187611020565b905081810360608301526110b48186611020565b90506110c36080830185611058565b81810360a08301526110d58184611020565b9050979650505050505050565b5f6080820190506110f55f830187610bf8565b81810360208301526111078186611020565b9050818103604083015261111b8185611020565b9050818103606083015261112f8184611020565b905095945050505050565b5f60608201905061114d5f830186610bf8565b818103602083015261115f8185611020565b905081810360408301526111738184611020565b9050949350505050565b7f4e487b71000000000000000000000000000000000000000000000000000000005f52602260045260245ffd5b5f60028204905060018216806111c157607f821691505b6020821081036111d4576111d361117d565b5b50919050565b5f819050815f5260205f209050919050565b5f6020601f8301049050919050565b5f82821b905092915050565b5f600883026112367fffffffffffffffffffffffffffffffffffffffffffffffffffffffffffffffff826111fb565b61124086836111fb565b95508019841693508086168417925050509392505050565b5f819050919050565b5f61127b61127661127184610bef565b611258565b610bef565b9050919050565b5f819050919050565b61129483611261565b6112a86112a082611282565b848454611207565b825550505050565b5f5f905090565b6112bf6112b0565b6112ca81848461128b565b505050565b5b818110156112ed576112e25f826112b7565b6001810190506112d0565b5050565b601f82111561133257611303816111da565b61130c846111ec565b8101602085101561131b578190505b61132f611327856111ec565b8301826112cf565b50505b505050565b5f82821c905092915050565b5f6113525f1984600802611337565b1980831691505092915050565b5f61136a8383611343565b9150826002028217905092915050565b61138382610ff8565b67ffffffffffffffff81111561139c5761139b610c49565b5b6113a682546111aa565b6113b18282856112f1565b5f60209050601f8311600181146113e2575f84156113d0578287015190505b6113da858261135f565b865550611441565b601f1984166113f0866111da565b5f5b82811015611417578489015182556001820191506020850194506020810190506113f2565b868310156114345784890151611430601f891682611343565b8355505b6001600288020188555050505b505050505050565b5f60a0820190508181035f8301526114618188611020565b905081810360208301526114758187611020565b905081810360408301526114898186611020565b90506114986060830185611058565b81810360808301526114aa8184611020565b90509695505050505050565b5f6040820190508181035f8301526114ce8185611020565b905081810360208301526114e28184611020565b90509392505050565b5f6060820190508181035f8301526115038186611020565b905081810360208301526115178185611020565b9050818103604083015261152b8184611020565b9050949350505050565b7f496e76616c696420696e646578000000000000000000000000000000000000005f82015250565b5f611569600d83611002565b915061157482611535565b602082019050919050565b5f6020820190508181035f8301526115968161155d565b9050919050565b7f4e487b71000000000000000000000000000000000000000000000000000000005f52603260045260245ffdfea2646970667358221220a022314895108450537ff17ab1c1a52b74bc85cb714bda6cfde046ad9f414ae664736f6c634300081e0033",
					"opcodes": "PUSH1 0x80 PUSH1 0x40 MSTORE CALLVALUE DUP1 ISZERO PUSH1 0xE JUMPI PUSH0 PUSH0 REVERT JUMPDEST POP PUSH2 0x1600 DUP1 PUSH2 0x1C PUSH0 CODECOPY PUSH0 RETURN INVALID PUSH1 0x80 PUSH1 0x40 MSTORE CALLVALUE DUP1 ISZERO PUSH2 0xF JUMPI PUSH0 PUSH0 REVERT JUMPDEST POP PUSH1 0x4 CALLDATASIZE LT PUSH2 0x91 JUMPI PUSH0 CALLDATALOAD PUSH1 0xE0 SHR DUP1 PUSH4 0x8E3D5EBF GT PUSH2 0x64 JUMPI DUP1 PUSH4 0x8E3D5EBF EQ PUSH2 0x107 JUMPI DUP1 PUSH4 0xAB3A2B98 EQ PUSH2 0x125 JUMPI DUP1 PUSH4 0xB2E32F07 EQ PUSH2 0x15A JUMPI DUP1 PUSH4 0xD2A6C282 EQ PUSH2 0x18D JUMPI DUP1 PUSH4 0xD5015D65 EQ PUSH2 0x1BF JUMPI PUSH2 0x91 JUMP JUMPDEST DUP1 PUSH4 0x1A201989 EQ PUSH2 0x95 JUMPI DUP1 PUSH4 0x4B733744 EQ PUSH2 0xB3 JUMPI DUP1 PUSH4 0x4D011928 EQ PUSH2 0xCF JUMPI DUP1 PUSH4 0x7F7DF466 EQ PUSH2 0xEB JUMPI JUMPDEST PUSH0 PUSH0 REVERT JUMPDEST PUSH2 0x9D PUSH2 0x1DD JUMP JUMPDEST PUSH1 0x40 MLOAD PUSH2 0xAA SWAP2 SWAP1 PUSH2 0xC07 JUMP JUMPDEST PUSH1 0x40 MLOAD DUP1 SWAP2 SUB SWAP1 RETURN JUMPDEST PUSH2 0xCD PUSH1 0x4 DUP1 CALLDATASIZE SUB DUP2 ADD SWAP1 PUSH2 0xC8 SWAP2 SWAP1 PUSH2 0xDA2 JUMP JUMPDEST PUSH2 0x1E9 JUMP JUMPDEST STOP JUMPDEST PUSH2 0xE9 PUSH1 0x4 DUP1 CALLDATASIZE SUB DUP2 ADD SWAP1 PUSH2 0xE4 SWAP2 SWAP1 PUSH2 0xE89 JUMP JUMPDEST PUSH2 0x312 JUMP JUMPDEST STOP JUMPDEST PUSH2 0x105 PUSH1 0x4 DUP1 CALLDATASIZE SUB DUP2 ADD SWAP1 PUSH2 0x100 SWAP2 SWAP1 PUSH2 0xEFF JUMP JUMPDEST PUSH2 0x3D3 JUMP JUMPDEST STOP JUMPDEST PUSH2 0x10F PUSH2 0x4B1 JUMP JUMPDEST PUSH1 0x40 MLOAD PUSH2 0x11C SWAP2 SWAP1 PUSH2 0xC07 JUMP JUMPDEST PUSH1 0x40 MLOAD DUP1 SWAP2 SUB SWAP1 RETURN JUMPDEST PUSH2 0x13F PUSH1 0x4 DUP1 CALLDATASIZE SUB DUP2 ADD SWAP1 PUSH2 0x13A SWAP2 SWAP1 PUSH2 0xFCD JUMP JUMPDEST PUSH2 0x4BC JUMP JUMPDEST PUSH1 0x40 MLOAD PUSH2 0x151 SWAP7 SWAP6 SWAP5 SWAP4 SWAP3 SWAP2 SWAP1 PUSH2 0x1067 JUMP JUMPDEST PUSH1 0x40 MLOAD DUP1 SWAP2 SUB SWAP1 RETURN JUMPDEST PUSH2 0x174 PUSH1 0x4 DUP1 CALLDATASIZE SUB DUP2 ADD SWAP1 PUSH2 0x16F SWAP2 SWAP1 PUSH2 0xFCD JUMP JUMPDEST PUSH2 0x7D0 JUMP JUMPDEST PUSH1 0x40 MLOAD PUSH2 0x184 SWAP5 SWAP4 SWAP3 SWAP2 SWAP1 PUSH2 0x10E2 JUMP JUMPDEST PUSH1 0x40 MLOAD DUP1 SWAP2 SUB SWAP1 RETURN JUMPDEST PUSH2 0x1A7 PUSH1 0x4 DUP1 CALLDATASIZE SUB DUP2 ADD SWAP1 PUSH2 0x1A2 SWAP2 SWAP1 PUSH2 0xFCD JUMP JUMPDEST PUSH2 0xA25 JUMP JUMPDEST PUSH1 0x40 MLOAD PUSH2 0x1B6 SWAP4 SWAP3 SWAP2 SWAP1 PUSH2 0x113A JUMP JUMPDEST PUSH1 0x40 MLOAD DUP1 SWAP2 SUB SWAP1 RETURN JUMPDEST PUSH2 0x1C7 PUSH2 0xBE3 JUMP JUMPDEST PUSH1 0x40 MLOAD PUSH2 0x1D4 SWAP2 SWAP1 PUSH2 0xC07 JUMP JUMPDEST PUSH1 0x40 MLOAD DUP1 SWAP2 SUB SWAP1 RETURN JUMPDEST PUSH0 PUSH1 0x1 DUP1 SLOAD SWAP1 POP SWAP1 POP SWAP1 JUMP JUMPDEST PUSH0 PUSH1 0x2 DUP1 SLOAD SWAP1 POP SWAP1 POP PUSH1 0x2 PUSH1 0x40 MLOAD DUP1 PUSH1 0xC0 ADD PUSH1 0x40 MSTORE DUP1 DUP4 DUP2 MSTORE PUSH1 0x20 ADD DUP9 DUP2 MSTORE PUSH1 0x20 ADD DUP8 DUP2 MSTORE PUSH1 0x20 ADD DUP7 DUP2 MSTORE PUSH1 0x20 ADD DUP6 ISZERO ISZERO DUP2 MSTORE PUSH1 0x20 ADD DUP5 DUP2 MSTORE POP SWAP1 DUP1 PUSH1 0x1 DUP2 SLOAD ADD DUP1 DUP3 SSTORE DUP1 SWAP2 POP POP PUSH1 0x1 SWAP1 SUB SWAP1 PUSH0 MSTORE PUSH1 0x20 PUSH0 KECCAK256 SWAP1 PUSH1 0x6 MUL ADD PUSH0 SWAP1 SWAP2 SWAP1 SWAP2 SWAP1 SWAP2 POP PUSH0 DUP3 ADD MLOAD DUP2 PUSH0 ADD SSTORE PUSH1 0x20 DUP3 ADD MLOAD DUP2 PUSH1 0x1 ADD SWAP1 DUP2 PUSH2 0x266 SWAP2 SWAP1 PUSH2 0x137A JUMP JUMPDEST POP PUSH1 0x40 DUP3 ADD MLOAD DUP2 PUSH1 0x2 ADD SWAP1 DUP2 PUSH2 0x27C SWAP2 SWAP1 PUSH2 0x137A JUMP JUMPDEST POP PUSH1 0x60 DUP3 ADD MLOAD DUP2 PUSH1 0x3 ADD SWAP1 DUP2 PUSH2 0x292 SWAP2 SWAP1 PUSH2 0x137A JUMP JUMPDEST POP PUSH1 0x80 DUP3 ADD MLOAD DUP2 PUSH1 0x4 ADD PUSH0 PUSH2 0x100 EXP DUP2 SLOAD DUP2 PUSH1 0xFF MUL NOT AND SWAP1 DUP4 ISZERO ISZERO MUL OR SWAP1 SSTORE POP PUSH1 0xA0 DUP3 ADD MLOAD DUP2 PUSH1 0x5 ADD SWAP1 DUP2 PUSH2 0x2C7 SWAP2 SWAP1 PUSH2 0x137A JUMP JUMPDEST POP POP POP DUP1 PUSH32 0x908906284F715D08B08EB37F63C62E33CA62FEFBBF751C838A514BB2F71F8C61 DUP8 DUP8 DUP8 DUP8 DUP8 PUSH1 0x40 MLOAD PUSH2 0x302 SWAP6 SWAP5 SWAP4 SWAP3 SWAP2 SWAP1 PUSH2 0x1449 JUMP JUMPDEST PUSH1 0x40 MLOAD DUP1 SWAP2 SUB SWAP1 LOG2 POP POP POP POP POP POP JUMP JUMPDEST PUSH0 PUSH1 0x1 DUP1 SLOAD SWAP1 POP SWAP1 POP PUSH1 0x1 PUSH1 0x40 MLOAD DUP1 PUSH1 0x60 ADD PUSH1 0x40 MSTORE DUP1 DUP4 DUP2 MSTORE PUSH1 0x20 ADD DUP6 DUP2 MSTORE PUSH1 0x20 ADD DUP5 DUP2 MSTORE POP SWAP1 DUP1 PUSH1 0x1 DUP2 SLOAD ADD DUP1 DUP3 SSTORE DUP1 SWAP2 POP POP PUSH1 0x1 SWAP1 SUB SWAP1 PUSH0 MSTORE PUSH1 0x20 PUSH0 KECCAK256 SWAP1 PUSH1 0x3 MUL ADD PUSH0 SWAP1 SWAP2 SWAP1 SWAP2 SWAP1 SWAP2 POP PUSH0 DUP3 ADD MLOAD DUP2 PUSH0 ADD SSTORE PUSH1 0x20 DUP3 ADD MLOAD DUP2 PUSH1 0x1 ADD SWAP1 DUP2 PUSH2 0x37B SWAP2 SWAP1 PUSH2 0x137A JUMP JUMPDEST POP PUSH1 0x40 DUP3 ADD MLOAD DUP2 PUSH1 0x2 ADD SWAP1 DUP2 PUSH2 0x391 SWAP2 SWAP1 PUSH2 0x137A JUMP JUMPDEST POP POP POP DUP1 PUSH32 0x7D389BD6A77439844633E3CDCD07741851680F113E970AAF5A6277C6D8FE27F2 DUP5 DUP5 PUSH1 0x40 MLOAD PUSH2 0x3C6 SWAP3 SWAP2 SWAP1 PUSH2 0x14B6 JUMP JUMPDEST PUSH1 0x40 MLOAD DUP1 SWAP2 SUB SWAP1 LOG2 POP POP POP JUMP JUMPDEST PUSH0 PUSH0 DUP1 SLOAD SWAP1 POP SWAP1 POP PUSH0 PUSH1 0x40 MLOAD DUP1 PUSH1 0x80 ADD PUSH1 0x40 MSTORE DUP1 DUP4 DUP2 MSTORE PUSH1 0x20 ADD DUP7 DUP2 MSTORE PUSH1 0x20 ADD DUP6 DUP2 MSTORE PUSH1 0x20 ADD DUP5 DUP2 MSTORE POP SWAP1 DUP1 PUSH1 0x1 DUP2 SLOAD ADD DUP1 DUP3 SSTORE DUP1 SWAP2 POP POP PUSH1 0x1 SWAP1 SUB SWAP1 PUSH0 MSTORE PUSH1 0x20 PUSH0 KECCAK256 SWAP1 PUSH1 0x4 MUL ADD PUSH0 SWAP1 SWAP2 SWAP1 SWAP2 SWAP1 SWAP2 POP PUSH0 DUP3 ADD MLOAD DUP2 PUSH0 ADD SSTORE PUSH1 0x20 DUP3 ADD MLOAD DUP2 PUSH1 0x1 ADD SWAP1 DUP2 PUSH2 0x440 SWAP2 SWAP1 PUSH2 0x137A JUMP JUMPDEST POP PUSH1 0x40 DUP3 ADD MLOAD DUP2 PUSH1 0x2 ADD SWAP1 DUP2 PUSH2 0x456 SWAP2 SWAP1 PUSH2 0x137A JUMP JUMPDEST POP PUSH1 0x60 DUP3 ADD MLOAD DUP2 PUSH1 0x3 ADD SWAP1 DUP2 PUSH2 0x46C SWAP2 SWAP1 PUSH2 0x137A JUMP JUMPDEST POP POP POP DUP1 PUSH32 0xD2A6E8D11D03DB3BA16F4B221906F86FE27A206183788136005C1ABFEF45F1B6 DUP6 DUP6 DUP6 PUSH1 0x40 MLOAD PUSH2 0x4A3 SWAP4 SWAP3 SWAP2 SWAP1 PUSH2 0x14EB JUMP JUMPDEST PUSH1 0x40 MLOAD DUP1 SWAP2 SUB SWAP1 LOG2 POP POP POP POP JUMP JUMPDEST PUSH0 PUSH0 DUP1 SLOAD SWAP1 POP SWAP1 POP SWAP1 JUMP JUMPDEST PUSH0 PUSH1 0x60 DUP1 PUSH1 0x60 PUSH0 PUSH1 0x60 PUSH1 0x2 DUP1 SLOAD SWAP1 POP DUP8 LT PUSH2 0x50C JUMPI PUSH1 0x40 MLOAD PUSH32 0x8C379A000000000000000000000000000000000000000000000000000000000 DUP2 MSTORE PUSH1 0x4 ADD PUSH2 0x503 SWAP1 PUSH2 0x157F JUMP JUMPDEST PUSH1 0x40 MLOAD DUP1 SWAP2 SUB SWAP1 REVERT JUMPDEST PUSH0 PUSH1 0x2 DUP9 DUP2 SLOAD DUP2 LT PUSH2 0x521 JUMPI PUSH2 0x520 PUSH2 0x159D JUMP JUMPDEST JUMPDEST SWAP1 PUSH0 MSTORE PUSH1 0x20 PUSH0 KECCAK256 SWAP1 PUSH1 0x6 MUL ADD PUSH1 0x40 MLOAD DUP1 PUSH1 0xC0 ADD PUSH1 0x40 MSTORE SWAP1 DUP2 PUSH0 DUP3 ADD SLOAD DUP2 MSTORE PUSH1 0x20 ADD PUSH1 0x1 DUP3 ADD DUP1 SLOAD PUSH2 0x551 SWAP1 PUSH2 0x11AA JUMP JUMPDEST DUP1 PUSH1 0x1F ADD PUSH1 0x20 DUP1 SWAP2 DIV MUL PUSH1 0x20 ADD PUSH1 0x40 MLOAD SWAP1 DUP2 ADD PUSH1 0x40 MSTORE DUP1 SWAP3 SWAP2 SWAP1 DUP2 DUP2 MSTORE PUSH1 0x20 ADD DUP3 DUP1 SLOAD PUSH2 0x57D SWAP1 PUSH2 0x11AA JUMP JUMPDEST DUP1 ISZERO PUSH2 0x5C8 JUMPI DUP1 PUSH1 0x1F LT PUSH2 0x59F JUMPI PUSH2 0x100 DUP1 DUP4 SLOAD DIV MUL DUP4 MSTORE SWAP2 PUSH1 0x20 ADD SWAP2 PUSH2 0x5C8 JUMP JUMPDEST DUP3 ADD SWAP2 SWAP1 PUSH0 MSTORE PUSH1 0x20 PUSH0 KECCAK256 SWAP1 JUMPDEST DUP2 SLOAD DUP2 MSTORE SWAP1 PUSH1 0x1 ADD SWAP1 PUSH1 0x20 ADD DUP1 DUP4 GT PUSH2 0x5AB JUMPI DUP3 SWAP1 SUB PUSH1 0x1F AND DUP3 ADD SWAP2 JUMPDEST POP POP POP POP POP DUP2 MSTORE PUSH1 0x20 ADD PUSH1 0x2 DUP3 ADD DUP1 SLOAD PUSH2 0x5E1 SWAP1 PUSH2 0x11AA JUMP JUMPDEST DUP1 PUSH1 0x1F ADD PUSH1 0x20 DUP1 SWAP2 DIV MUL PUSH1 0x20 ADD PUSH1 0x40 MLOAD SWAP1 DUP2 ADD PUSH1 0x40 MSTORE DUP1 SWAP3 SWAP2 SWAP1 DUP2 DUP2 MSTORE PUSH1 0x20 ADD DUP3 DUP1 SLOAD PUSH2 0x60D SWAP1 PUSH2 0x11AA JUMP JUMPDEST DUP1 ISZERO PUSH2 0x658 JUMPI DUP1 PUSH1 0x1F LT PUSH2 0x62F JUMPI PUSH2 0x100 DUP1 DUP4 SLOAD DIV MUL DUP4 MSTORE SWAP2 PUSH1 0x20 ADD SWAP2 PUSH2 0x658 JUMP JUMPDEST DUP3 ADD SWAP2 SWAP1 PUSH0 MSTORE PUSH1 0x20 PUSH0 KECCAK256 SWAP1 JUMPDEST DUP2 SLOAD DUP2 MSTORE SWAP1 PUSH1 0x1 ADD SWAP1 PUSH1 0x20 ADD DUP1 DUP4 GT PUSH2 0x63B JUMPI DUP3 SWAP1 SUB PUSH1 0x1F AND DUP3 ADD SWAP2 JUMPDEST POP POP POP POP POP DUP2 MSTORE PUSH1 0x20 ADD PUSH1 0x3 DUP3 ADD DUP1 SLOAD PUSH2 0x671 SWAP1 PUSH2 0x11AA JUMP JUMPDEST DUP1 PUSH1 0x1F ADD PUSH1 0x20 DUP1 SWAP2 DIV MUL PUSH1 0x20 ADD PUSH1 0x40 MLOAD SWAP1 DUP2 ADD PUSH1 0x40 MSTORE DUP1 SWAP3 SWAP2 SWAP1 DUP2 DUP2 MSTORE PUSH1 0x20 ADD DUP3 DUP1 SLOAD PUSH2 0x69D SWAP1 PUSH2 0x11AA JUMP JUMPDEST DUP1 ISZERO PUSH2 0x6E8 JUMPI DUP1 PUSH1 0x1F LT PUSH2 0x6BF JUMPI PUSH2 0x100 DUP1 DUP4 SLOAD DIV MUL DUP4 MSTORE SWAP2 PUSH1 0x20 ADD SWAP2 PUSH2 0x6E8 JUMP JUMPDEST DUP3 ADD SWAP2 SWAP1 PUSH0 MSTORE PUSH1 0x20 PUSH0 KECCAK256 SWAP1 JUMPDEST DUP2 SLOAD DUP2 MSTORE SWAP1 PUSH1 0x1 ADD SWAP1 PUSH1 0x20 ADD DUP1 DUP4 GT PUSH2 0x6CB JUMPI DUP3 SWAP1 SUB PUSH1 0x1F AND DUP3 ADD SWAP2 JUMPDEST POP POP POP POP POP DUP2 MSTORE PUSH1 0x20 ADD PUSH1 0x4 DUP3 ADD PUSH0 SWAP1 SLOAD SWAP1 PUSH2 0x100 EXP SWAP1 DIV PUSH1 0xFF AND ISZERO ISZERO ISZERO ISZERO DUP2 MSTORE PUSH1 0x20 ADD PUSH1 0x5 DUP3 ADD DUP1 SLOAD PUSH2 0x71B SWAP1 PUSH2 0x11AA JUMP JUMPDEST DUP1 PUSH1 0x1F ADD PUSH1 0x20 DUP1 SWAP2 DIV MUL PUSH1 0x20 ADD PUSH1 0x40 MLOAD SWAP1 DUP2 ADD PUSH1 0x40 MSTORE DUP1 SWAP3 SWAP2 SWAP1 DUP2 DUP2 MSTORE PUSH1 0x20 ADD DUP3 DUP1 SLOAD PUSH2 0x747 SWAP1 PUSH2 0x11AA JUMP JUMPDEST DUP1 ISZERO PUSH2 0x792 JUMPI DUP1 PUSH1 0x1F LT PUSH2 0x769 JUMPI PUSH2 0x100 DUP1 DUP4 SLOAD DIV MUL DUP4 MSTORE SWAP2 PUSH1 0x20 ADD SWAP2 PUSH2 0x792 JUMP JUMPDEST DUP3 ADD SWAP2 SWAP1 PUSH0 MSTORE PUSH1 0x20 PUSH0 KECCAK256 SWAP1 JUMPDEST DUP2 SLOAD DUP2 MSTORE SWAP1 PUSH1 0x1 ADD SWAP1 PUSH1 0x20 ADD DUP1 DUP4 GT PUSH2 0x775 JUMPI DUP3 SWAP1 SUB PUSH1 0x1F AND DUP3 ADD SWAP2 JUMPDEST POP POP POP POP POP DUP2 MSTORE POP POP SWAP1 POP DUP1 PUSH0 ADD MLOAD DUP2 PUSH1 0x20 ADD MLOAD DUP3 PUSH1 0x40 ADD MLOAD DUP4 PUSH1 0x60 ADD MLOAD DUP5 PUSH1 0x80 ADD MLOAD DUP6 PUSH1 0xA0 ADD MLOAD SWAP7 POP SWAP7 POP SWAP7 POP SWAP7 POP SWAP7 POP SWAP7 POP POP SWAP2 SWAP4 SWAP6 POP SWAP2 SWAP4 SWAP6 JUMP JUMPDEST PUSH0 PUSH1 0x60 DUP1 PUSH1 0x60 PUSH0 DUP1 SLOAD SWAP1 POP DUP6 LT PUSH2 0x81C JUMPI PUSH1 0x40 MLOAD PUSH32 0x8C379A000000000000000000000000000000000000000000000000000000000 DUP2 MSTORE PUSH1 0x4 ADD PUSH2 0x813 SWAP1 PUSH2 0x157F JUMP JUMPDEST PUSH1 0x40 MLOAD DUP1 SWAP2 SUB SWAP1 REVERT JUMPDEST PUSH0 PUSH0 DUP7 DUP2 SLOAD DUP2 LT PUSH2 0x830 JUMPI PUSH2 0x82F PUSH2 0x159D JUMP JUMPDEST JUMPDEST SWAP1 PUSH0 MSTORE PUSH1 0x20 PUSH0 KECCAK256 SWAP1 PUSH1 0x4 MUL ADD PUSH1 0x40 MLOAD DUP1 PUSH1 0x80 ADD PUSH1 0x40 MSTORE SWAP1 DUP2 PUSH0 DUP3 ADD SLOAD DUP2 MSTORE PUSH1 0x20 ADD PUSH1 0x1 DUP3 ADD DUP1 SLOAD PUSH2 0x860 SWAP1 PUSH2 0x11AA JUMP JUMPDEST DUP1 PUSH1 0x1F ADD PUSH1 0x20 DUP1 SWAP2 DIV MUL PUSH1 0x20 ADD PUSH1 0x40 MLOAD SWAP1 DUP2 ADD PUSH1 0x40 MSTORE DUP1 SWAP3 SWAP2 SWAP1 DUP2 DUP2 MSTORE PUSH1 0x20 ADD DUP3 DUP1 SLOAD PUSH2 0x88C SWAP1 PUSH2 0x11AA JUMP JUMPDEST DUP1 ISZERO PUSH2 0x8D7 JUMPI DUP1 PUSH1 0x1F LT PUSH2 0x8AE JUMPI PUSH2 0x100 DUP1 DUP4 SLOAD DIV MUL DUP4 MSTORE SWAP2 PUSH1 0x20 ADD SWAP2 PUSH2 0x8D7 JUMP JUMPDEST DUP3 ADD SWAP2 SWAP1 PUSH0 MSTORE PUSH1 0x20 PUSH0 KECCAK256 SWAP1 JUMPDEST DUP2 SLOAD DUP2 MSTORE SWAP1 PUSH1 0x1 ADD SWAP1 PUSH1 0x20 ADD DUP1 DUP4 GT PUSH2 0x8BA JUMPI DUP3 SWAP1 SUB PUSH1 0x1F AND DUP3 ADD SWAP2 JUMPDEST POP POP POP POP POP DUP2 MSTORE PUSH1 0x20 ADD PUSH1 0x2 DUP3 ADD DUP1 SLOAD PUSH2 0x8F0 SWAP1 PUSH2 0x11AA JUMP JUMPDEST DUP1 PUSH1 0x1F ADD PUSH1 0x20 DUP1 SWAP2 DIV MUL PUSH1 0x20 ADD PUSH1 0x40 MLOAD SWAP1 DUP2 ADD PUSH1 0x40 MSTORE DUP1 SWAP3 SWAP2 SWAP1 DUP2 DUP2 MSTORE PUSH1 0x20 ADD DUP3 DUP1 SLOAD PUSH2 0x91C SWAP1 PUSH2 0x11AA JUMP JUMPDEST DUP1 ISZERO PUSH2 0x967 JUMPI DUP1 PUSH1 0x1F LT PUSH2 0x93E JUMPI PUSH2 0x100 DUP1 DUP4 SLOAD DIV MUL DUP4 MSTORE SWAP2 PUSH1 0x20 ADD SWAP2 PUSH2 0x967 JUMP JUMPDEST DUP3 ADD SWAP2 SWAP1 PUSH0 MSTORE PUSH1 0x20 PUSH0 KECCAK256 SWAP1 JUMPDEST DUP2 SLOAD DUP2 MSTORE SWAP1 PUSH1 0x1 ADD SWAP1 PUSH1 0x20 ADD DUP1 DUP4 GT PUSH2 0x94A JUMPI DUP3 SWAP1 SUB PUSH1 0x1F AND DUP3 ADD SWAP2 JUMPDEST POP POP POP POP POP DUP2 MSTORE PUSH1 0x20 ADD PUSH1 0x3 DUP3 ADD DUP1 SLOAD PUSH2 0x980 SWAP1 PUSH2 0x11AA JUMP JUMPDEST DUP1 PUSH1 0x1F ADD PUSH1 0x20 DUP1 SWAP2 DIV MUL PUSH1 0x20 ADD PUSH1 0x40 MLOAD SWAP1 DUP2 ADD PUSH1 0x40 MSTORE DUP1 SWAP3 SWAP2 SWAP1 DUP2 DUP2 MSTORE PUSH1 0x20 ADD DUP3 DUP1 SLOAD PUSH2 0x9AC SWAP1 PUSH2 0x11AA JUMP JUMPDEST DUP1 ISZERO PUSH2 0x9F7 JUMPI DUP1 PUSH1 0x1F LT PUSH2 0x9CE JUMPI PUSH2 0x100 DUP1 DUP4 SLOAD DIV MUL DUP4 MSTORE SWAP2 PUSH1 0x20 ADD SWAP2 PUSH2 0x9F7 JUMP JUMPDEST DUP3 ADD SWAP2 SWAP1 PUSH0 MSTORE PUSH1 0x20 PUSH0 KECCAK256 SWAP1 JUMPDEST DUP2 SLOAD DUP2 MSTORE SWAP1 PUSH1 0x1 ADD SWAP1 PUSH1 0x20 ADD DUP1 DUP4 GT PUSH2 0x9DA JUMPI DUP3 SWAP1 SUB PUSH1 0x1F AND DUP3 ADD SWAP2 JUMPDEST POP POP POP POP POP DUP2 MSTORE POP POP SWAP1 POP DUP1 PUSH0 ADD MLOAD DUP2 PUSH1 0x20 ADD MLOAD DUP3 PUSH1 0x40 ADD MLOAD DUP4 PUSH1 0x60 ADD MLOAD SWAP5 POP SWAP5 POP SWAP5 POP SWAP5 POP POP SWAP2 SWAP4 POP SWAP2 SWAP4 JUMP JUMPDEST PUSH0 PUSH1 0x60 DUP1 PUSH1 0x1 DUP1 SLOAD SWAP1 POP DUP5 LT PUSH2 0xA70 JUMPI PUSH1 0x40 MLOAD PUSH32 0x8C379A000000000000000000000000000000000000000000000000000000000 DUP2 MSTORE PUSH1 0x4 ADD PUSH2 0xA67 SWAP1 PUSH2 0x157F JUMP JUMPDEST PUSH1 0x40 MLOAD DUP1 SWAP2 SUB SWAP1 REVERT JUMPDEST PUSH0 PUSH1 0x1 DUP6 DUP2 SLOAD DUP2 LT PUSH2 0xA85 JUMPI PUSH2 0xA84 PUSH2 0x159D JUMP JUMPDEST JUMPDEST SWAP1 PUSH0 MSTORE PUSH1 0x20 PUSH0 KECCAK256 SWAP1 PUSH1 0x3 MUL ADD PUSH1 0x40 MLOAD DUP1 PUSH1 0x60 ADD PUSH1 0x40 MSTORE SWAP1 DUP2 PUSH0 DUP3 ADD SLOAD DUP2 MSTORE PUSH1 0x20 ADD PUSH1 0x1 DUP3 ADD DUP1 SLOAD PUSH2 0xAB5 SWAP1 PUSH2 0x11AA JUMP JUMPDEST DUP1 PUSH1 0x1F ADD PUSH1 0x20 DUP1 SWAP2 DIV MUL PUSH1 0x20 ADD PUSH1 0x40 MLOAD SWAP1 DUP2 ADD PUSH1 0x40 MSTORE DUP1 SWAP3 SWAP2 SWAP1 DUP2 DUP2 MSTORE PUSH1 0x20 ADD DUP3 DUP1 SLOAD PUSH2 0xAE1 SWAP1 PUSH2 0x11AA JUMP JUMPDEST DUP1 ISZERO PUSH2 0xB2C JUMPI DUP1 PUSH1 0x1F LT PUSH2 0xB03 JUMPI PUSH2 0x100 DUP1 DUP4 SLOAD DIV MUL DUP4 MSTORE SWAP2 PUSH1 0x20 ADD SWAP2 PUSH2 0xB2C JUMP JUMPDEST DUP3 ADD SWAP2 SWAP1 PUSH0 MSTORE PUSH1 0x20 PUSH0 KECCAK256 SWAP1 JUMPDEST DUP2 SLOAD DUP2 MSTORE SWAP1 PUSH1 0x1 ADD SWAP1 PUSH1 0x20 ADD DUP1 DUP4 GT PUSH2 0xB0F JUMPI DUP3 SWAP1 SUB PUSH1 0x1F AND DUP3 ADD SWAP2 JUMPDEST POP POP POP POP POP DUP2 MSTORE PUSH1 0x20 ADD PUSH1 0x2 DUP3 ADD DUP1 SLOAD PUSH2 0xB45 SWAP1 PUSH2 0x11AA JUMP JUMPDEST DUP1 PUSH1 0x1F ADD PUSH1 0x20 DUP1 SWAP2 DIV MUL PUSH1 0x20 ADD PUSH1 0x40 MLOAD SWAP1 DUP2 ADD PUSH1 0x40 MSTORE DUP1 SWAP3 SWAP2 SWAP1 DUP2 DUP2 MSTORE PUSH1 0x20 ADD DUP3 DUP1 SLOAD PUSH2 0xB71 SWAP1 PUSH2 0x11AA JUMP JUMPDEST DUP1 ISZERO PUSH2 0xBBC JUMPI DUP1 PUSH1 0x1F LT PUSH2 0xB93 JUMPI PUSH2 0x100 DUP1 DUP4 SLOAD DIV MUL DUP4 MSTORE SWAP2 PUSH1 0x20 ADD SWAP2 PUSH2 0xBBC JUMP JUMPDEST DUP3 ADD SWAP2 SWAP1 PUSH0 MSTORE PUSH1 0x20 PUSH0 KECCAK256 SWAP1 JUMPDEST DUP2 SLOAD DUP2 MSTORE SWAP1 PUSH1 0x1 ADD SWAP1 PUSH1 0x20 ADD DUP1 DUP4 GT PUSH2 0xB9F JUMPI DUP3 SWAP1 SUB PUSH1 0x1F AND DUP3 ADD SWAP2 JUMPDEST POP POP POP POP POP DUP2 MSTORE POP POP SWAP1 POP DUP1 PUSH0 ADD MLOAD DUP2 PUSH1 0x20 ADD MLOAD DUP3 PUSH1 0x40 ADD MLOAD SWAP4 POP SWAP4 POP SWAP4 POP POP SWAP2 SWAP4 SWAP1 SWAP3 POP JUMP JUMPDEST PUSH0 PUSH1 0x2 DUP1 SLOAD SWAP1 POP SWAP1 POP SWAP1 JUMP JUMPDEST PUSH0 DUP2 SWAP1 POP SWAP2 SWAP1 POP JUMP JUMPDEST PUSH2 0xC01 DUP2 PUSH2 0xBEF JUMP JUMPDEST DUP3 MSTORE POP POP JUMP JUMPDEST PUSH0 PUSH1 0x20 DUP3 ADD SWAP1 POP PUSH2 0xC1A PUSH0 DUP4 ADD DUP5 PUSH2 0xBF8 JUMP JUMPDEST SWAP3 SWAP2 POP POP JUMP JUMPDEST PUSH0 PUSH1 0x40 MLOAD SWAP1 POP SWAP1 JUMP JUMPDEST PUSH0 PUSH0 REVERT JUMPDEST PUSH0 PUSH0 REVERT JUMPDEST PUSH0 PUSH0 REVERT JUMPDEST PUSH0 PUSH0 REVERT JUMPDEST PUSH0 PUSH1 0x1F NOT PUSH1 0x1F DUP4 ADD AND SWAP1 POP SWAP2 SWAP1 POP JUMP JUMPDEST PUSH32 0x4E487B7100000000000000000000000000000000000000000000000000000000 PUSH0 MSTORE PUSH1 0x41 PUSH1 0x4 MSTORE PUSH1 0x24 PUSH0 REVERT JUMPDEST PUSH2 0xC7F DUP3 PUSH2 0xC39 JUMP JUMPDEST DUP2 ADD DUP2 DUP2 LT PUSH8 0xFFFFFFFFFFFFFFFF DUP3 GT OR ISZERO PUSH2 0xC9E JUMPI PUSH2 0xC9D PUSH2 0xC49 JUMP JUMPDEST JUMPDEST DUP1 PUSH1 0x40 MSTORE POP POP POP JUMP JUMPDEST PUSH0 PUSH2 0xCB0 PUSH2 0xC20 JUMP JUMPDEST SWAP1 POP PUSH2 0xCBC DUP3 DUP3 PUSH2 0xC76 JUMP JUMPDEST SWAP2 SWAP1 POP JUMP JUMPDEST PUSH0 PUSH8 0xFFFFFFFFFFFFFFFF DUP3 GT ISZERO PUSH2 0xCDB JUMPI PUSH2 0xCDA PUSH2 0xC49 JUMP JUMPDEST JUMPDEST PUSH2 0xCE4 DUP3 PUSH2 0xC39 JUMP JUMPDEST SWAP1 POP PUSH1 0x20 DUP2 ADD SWAP1 POP SWAP2 SWAP1 POP JUMP JUMPDEST DUP3 DUP2 DUP4 CALLDATACOPY PUSH0 DUP4 DUP4 ADD MSTORE POP POP POP JUMP JUMPDEST PUSH0 PUSH2 0xD11 PUSH2 0xD0C DUP5 PUSH2 0xCC1 JUMP JUMPDEST PUSH2 0xCA7 JUMP JUMPDEST SWAP1 POP DUP3 DUP2 MSTORE PUSH1 0x20 DUP2 ADD DUP5 DUP5 DUP5 ADD GT ISZERO PUSH2 0xD2D JUMPI PUSH2 0xD2C PUSH2 0xC35 JUMP JUMPDEST JUMPDEST PUSH2 0xD38 DUP5 DUP3 DUP6 PUSH2 0xCF1 JUMP JUMPDEST POP SWAP4 SWAP3 POP POP POP JUMP JUMPDEST PUSH0 DUP3 PUSH1 0x1F DUP4 ADD SLT PUSH2 0xD54 JUMPI PUSH2 0xD53 PUSH2 0xC31 JUMP JUMPDEST JUMPDEST DUP2 CALLDATALOAD PUSH2 0xD64 DUP5 DUP3 PUSH1 0x20 DUP7 ADD PUSH2 0xCFF JUMP JUMPDEST SWAP2 POP POP SWAP3 SWAP2 POP POP JUMP JUMPDEST PUSH0 DUP2 ISZERO ISZERO SWAP1 POP SWAP2 SWAP1 POP JUMP JUMPDEST PUSH2 0xD81 DUP2 PUSH2 0xD6D JUMP JUMPDEST DUP2 EQ PUSH2 0xD8B JUMPI PUSH0 PUSH0 REVERT JUMPDEST POP JUMP JUMPDEST PUSH0 DUP2 CALLDATALOAD SWAP1 POP PUSH2 0xD9C DUP2 PUSH2 0xD78 JUMP JUMPDEST SWAP3 SWAP2 POP POP JUMP JUMPDEST PUSH0 PUSH0 PUSH0 PUSH0 PUSH0 PUSH1 0xA0 DUP7 DUP9 SUB SLT ISZERO PUSH2 0xDBB JUMPI PUSH2 0xDBA PUSH2 0xC29 JUMP JUMPDEST JUMPDEST PUSH0 DUP7 ADD CALLDATALOAD PUSH8 0xFFFFFFFFFFFFFFFF DUP2 GT ISZERO PUSH2 0xDD8 JUMPI PUSH2 0xDD7 PUSH2 0xC2D JUMP JUMPDEST JUMPDEST PUSH2 0xDE4 DUP9 DUP3 DUP10 ADD PUSH2 0xD40 JUMP JUMPDEST SWAP6 POP POP PUSH1 0x20 DUP7 ADD CALLDATALOAD PUSH8 0xFFFFFFFFFFFFFFFF DUP2 GT ISZERO PUSH2 0xE05 JUMPI PUSH2 0xE04 PUSH2 0xC2D JUMP JUMPDEST JUMPDEST PUSH2 0xE11 DUP9 DUP3 DUP10 ADD PUSH2 0xD40 JUMP JUMPDEST SWAP5 POP POP PUSH1 0x40 DUP7 ADD CALLDATALOAD PUSH8 0xFFFFFFFFFFFFFFFF DUP2 GT ISZERO PUSH2 0xE32 JUMPI PUSH2 0xE31 PUSH2 0xC2D JUMP JUMPDEST JUMPDEST PUSH2 0xE3E DUP9 DUP3 DUP10 ADD PUSH2 0xD40 JUMP JUMPDEST SWAP4 POP POP PUSH1 0x60 PUSH2 0xE4F DUP9 DUP3 DUP10 ADD PUSH2 0xD8E JUMP JUMPDEST SWAP3 POP POP PUSH1 0x80 DUP7 ADD CALLDATALOAD PUSH8 0xFFFFFFFFFFFFFFFF DUP2 GT ISZERO PUSH2 0xE70 JUMPI PUSH2 0xE6F PUSH2 0xC2D JUMP JUMPDEST JUMPDEST PUSH2 0xE7C DUP9 DUP3 DUP10 ADD PUSH2 0xD40 JUMP JUMPDEST SWAP2 POP POP SWAP3 SWAP6 POP SWAP3 SWAP6 SWAP1 SWAP4 POP JUMP JUMPDEST PUSH0 PUSH0 PUSH1 0x40 DUP4 DUP6 SUB SLT ISZERO PUSH2 0xE9F JUMPI PUSH2 0xE9E PUSH2 0xC29 JUMP JUMPDEST JUMPDEST PUSH0 DUP4 ADD CALLDATALOAD PUSH8 0xFFFFFFFFFFFFFFFF DUP2 GT ISZERO PUSH2 0xEBC JUMPI PUSH2 0xEBB PUSH2 0xC2D JUMP JUMPDEST JUMPDEST PUSH2 0xEC8 DUP6 DUP3 DUP7 ADD PUSH2 0xD40 JUMP JUMPDEST SWAP3 POP POP PUSH1 0x20 DUP4 ADD CALLDATALOAD PUSH8 0xFFFFFFFFFFFFFFFF DUP2 GT ISZERO PUSH2 0xEE9 JUMPI PUSH2 0xEE8 PUSH2 0xC2D JUMP JUMPDEST JUMPDEST PUSH2 0xEF5 DUP6 DUP3 DUP7 ADD PUSH2 0xD40 JUMP JUMPDEST SWAP2 POP POP SWAP3 POP SWAP3 SWAP1 POP JUMP JUMPDEST PUSH0 PUSH0 PUSH0 PUSH1 0x60 DUP5 DUP7 SUB SLT ISZERO PUSH2 0xF16 JUMPI PUSH2 0xF15 PUSH2 0xC29 JUMP JUMPDEST JUMPDEST PUSH0 DUP5 ADD CALLDATALOAD PUSH8 0xFFFFFFFFFFFFFFFF DUP2 GT ISZERO PUSH2 0xF33 JUMPI PUSH2 0xF32 PUSH2 0xC2D JUMP JUMPDEST JUMPDEST PUSH2 0xF3F DUP7 DUP3 DUP8 ADD PUSH2 0xD40 JUMP JUMPDEST SWAP4 POP POP PUSH1 0x20 DUP5 ADD CALLDATALOAD PUSH8 0xFFFFFFFFFFFFFFFF DUP2 GT ISZERO PUSH2 0xF60 JUMPI PUSH2 0xF5F PUSH2 0xC2D JUMP JUMPDEST JUMPDEST PUSH2 0xF6C DUP7 DUP3 DUP8 ADD PUSH2 0xD40 JUMP JUMPDEST SWAP3 POP POP PUSH1 0x40 DUP5 ADD CALLDATALOAD PUSH8 0xFFFFFFFFFFFFFFFF DUP2 GT ISZERO PUSH2 0xF8D JUMPI PUSH2 0xF8C PUSH2 0xC2D JUMP JUMPDEST JUMPDEST PUSH2 0xF99 DUP7 DUP3 DUP8 ADD PUSH2 0xD40 JUMP JUMPDEST SWAP2 POP POP SWAP3 POP SWAP3 POP SWAP3 JUMP JUMPDEST PUSH2 0xFAC DUP2 PUSH2 0xBEF JUMP JUMPDEST DUP2 EQ PUSH2 0xFB6 JUMPI PUSH0 PUSH0 REVERT JUMPDEST POP JUMP JUMPDEST PUSH0 DUP2 CALLDATALOAD SWAP1 POP PUSH2 0xFC7 DUP2 PUSH2 0xFA3 JUMP JUMPDEST SWAP3 SWAP2 POP POP JUMP JUMPDEST PUSH0 PUSH1 0x20 DUP3 DUP5 SUB SLT ISZERO PUSH2 0xFE2 JUMPI PUSH2 0xFE1 PUSH2 0xC29 JUMP JUMPDEST JUMPDEST PUSH0 PUSH2 0xFEF DUP5 DUP3 DUP6 ADD PUSH2 0xFB9 JUMP JUMPDEST SWAP2 POP POP SWAP3 SWAP2 POP POP JUMP JUMPDEST PUSH0 DUP2 MLOAD SWAP1 POP SWAP2 SWAP1 POP JUMP JUMPDEST PUSH0 DUP3 DUP3 MSTORE PUSH1 0x20 DUP3 ADD SWAP1 POP SWAP3 SWAP2 POP POP JUMP JUMPDEST DUP3 DUP2 DUP4 MCOPY PUSH0 DUP4 DUP4 ADD MSTORE POP POP POP JUMP JUMPDEST PUSH0 PUSH2 0x102A DUP3 PUSH2 0xFF8 JUMP JUMPDEST PUSH2 0x1034 DUP2 DUP6 PUSH2 0x1002 JUMP JUMPDEST SWAP4 POP PUSH2 0x1044 DUP2 DUP6 PUSH1 0x20 DUP7 ADD PUSH2 0x1012 JUMP JUMPDEST PUSH2 0x104D DUP2 PUSH2 0xC39 JUMP JUMPDEST DUP5 ADD SWAP2 POP POP SWAP3 SWAP2 POP POP JUMP JUMPDEST PUSH2 0x1061 DUP2 PUSH2 0xD6D JUMP JUMPDEST DUP3 MSTORE POP POP JUMP JUMPDEST PUSH0 PUSH1 0xC0 DUP3 ADD SWAP1 POP PUSH2 0x107A PUSH0 DUP4 ADD DUP10 PUSH2 0xBF8 JUMP JUMPDEST DUP2 DUP2 SUB PUSH1 0x20 DUP4 ADD MSTORE PUSH2 0x108C DUP2 DUP9 PUSH2 0x1020 JUMP JUMPDEST SWAP1 POP DUP2 DUP2 SUB PUSH1 0x40 DUP4 ADD MSTORE PUSH2 0x10A0 DUP2 DUP8 PUSH2 0x1020 JUMP JUMPDEST SWAP1 POP DUP2 DUP2 SUB PUSH1 0x60 DUP4 ADD MSTORE PUSH2 0x10B4 DUP2 DUP7 PUSH2 0x1020 JUMP JUMPDEST SWAP1 POP PUSH2 0x10C3 PUSH1 0x80 DUP4 ADD DUP6 PUSH2 0x1058 JUMP JUMPDEST DUP2 DUP2 SUB PUSH1 0xA0 DUP4 ADD MSTORE PUSH2 0x10D5 DUP2 DUP5 PUSH2 0x1020 JUMP JUMPDEST SWAP1 POP SWAP8 SWAP7 POP POP POP POP POP POP POP JUMP JUMPDEST PUSH0 PUSH1 0x80 DUP3 ADD SWAP1 POP PUSH2 0x10F5 PUSH0 DUP4 ADD DUP8 PUSH2 0xBF8 JUMP JUMPDEST DUP2 DUP2 SUB PUSH1 0x20 DUP4 ADD MSTORE PUSH2 0x1107 DUP2 DUP7 PUSH2 0x1020 JUMP JUMPDEST SWAP1 POP DUP2 DUP2 SUB PUSH1 0x40 DUP4 ADD MSTORE PUSH2 0x111B DUP2 DUP6 PUSH2 0x1020 JUMP JUMPDEST SWAP1 POP DUP2 DUP2 SUB PUSH1 0x60 DUP4 ADD MSTORE PUSH2 0x112F DUP2 DUP5 PUSH2 0x1020 JUMP JUMPDEST SWAP1 POP SWAP6 SWAP5 POP POP POP POP POP JUMP JUMPDEST PUSH0 PUSH1 0x60 DUP3 ADD SWAP1 POP PUSH2 0x114D PUSH0 DUP4 ADD DUP7 PUSH2 0xBF8 JUMP JUMPDEST DUP2 DUP2 SUB PUSH1 0x20 DUP4 ADD MSTORE PUSH2 0x115F DUP2 DUP6 PUSH2 0x1020 JUMP JUMPDEST SWAP1 POP DUP2 DUP2 SUB PUSH1 0x40 DUP4 ADD MSTORE PUSH2 0x1173 DUP2 DUP5 PUSH2 0x1020 JUMP JUMPDEST SWAP1 POP SWAP5 SWAP4 POP POP POP POP JUMP JUMPDEST PUSH32 0x4E487B7100000000000000000000000000000000000000000000000000000000 PUSH0 MSTORE PUSH1 0x22 PUSH1 0x4 MSTORE PUSH1 0x24 PUSH0 REVERT JUMPDEST PUSH0 PUSH1 0x2 DUP3 DIV SWAP1 POP PUSH1 0x1 DUP3 AND DUP1 PUSH2 0x11C1 JUMPI PUSH1 0x7F DUP3 AND SWAP2 POP JUMPDEST PUSH1 0x20 DUP3 LT DUP2 SUB PUSH2 0x11D4 JUMPI PUSH2 0x11D3 PUSH2 0x117D JUMP JUMPDEST JUMPDEST POP SWAP2 SWAP1 POP JUMP JUMPDEST PUSH0 DUP2 SWAP1 POP DUP2 PUSH0 MSTORE PUSH1 0x20 PUSH0 KECCAK256 SWAP1 POP SWAP2 SWAP1 POP JUMP JUMPDEST PUSH0 PUSH1 0x20 PUSH1 0x1F DUP4 ADD DIV SWAP1 POP SWAP2 SWAP1 POP JUMP JUMPDEST PUSH0 DUP3 DUP3 SHL SWAP1 POP SWAP3 SWAP2 POP POP JUMP JUMPDEST PUSH0 PUSH1 0x8 DUP4 MUL PUSH2 0x1236 PUSH32 0xFFFFFFFFFFFFFFFFFFFFFFFFFFFFFFFFFFFFFFFFFFFFFFFFFFFFFFFFFFFFFFFF DUP3 PUSH2 0x11FB JUMP JUMPDEST PUSH2 0x1240 DUP7 DUP4 PUSH2 0x11FB JUMP JUMPDEST SWAP6 POP DUP1 NOT DUP5 AND SWAP4 POP DUP1 DUP7 AND DUP5 OR SWAP3 POP POP POP SWAP4 SWAP3 POP POP POP JUMP JUMPDEST PUSH0 DUP2 SWAP1 POP SWAP2 SWAP1 POP JUMP JUMPDEST PUSH0 PUSH2 0x127B PUSH2 0x1276 PUSH2 0x1271 DUP5 PUSH2 0xBEF JUMP JUMPDEST PUSH2 0x1258 JUMP JUMPDEST PUSH2 0xBEF JUMP JUMPDEST SWAP1 POP SWAP2 SWAP1 POP JUMP JUMPDEST PUSH0 DUP2 SWAP1 POP SWAP2 SWAP1 POP JUMP JUMPDEST PUSH2 0x1294 DUP4 PUSH2 0x1261 JUMP JUMPDEST PUSH2 0x12A8 PUSH2 0x12A0 DUP3 PUSH2 0x1282 JUMP JUMPDEST DUP5 DUP5 SLOAD PUSH2 0x1207 JUMP JUMPDEST DUP3 SSTORE POP POP POP POP JUMP JUMPDEST PUSH0 PUSH0 SWAP1 POP SWAP1 JUMP JUMPDEST PUSH2 0x12BF PUSH2 0x12B0 JUMP JUMPDEST PUSH2 0x12CA DUP2 DUP5 DUP5 PUSH2 0x128B JUMP JUMPDEST POP POP POP JUMP JUMPDEST JUMPDEST DUP2 DUP2 LT ISZERO PUSH2 0x12ED JUMPI PUSH2 0x12E2 PUSH0 DUP3 PUSH2 0x12B7 JUMP JUMPDEST PUSH1 0x1 DUP2 ADD SWAP1 POP PUSH2 0x12D0 JUMP JUMPDEST POP POP JUMP JUMPDEST PUSH1 0x1F DUP3 GT ISZERO PUSH2 0x1332 JUMPI PUSH2 0x1303 DUP2 PUSH2 0x11DA JUMP JUMPDEST PUSH2 0x130C DUP5 PUSH2 0x11EC JUMP JUMPDEST DUP2 ADD PUSH1 0x20 DUP6 LT ISZERO PUSH2 0x131B JUMPI DUP2 SWAP1 POP JUMPDEST PUSH2 0x132F PUSH2 0x1327 DUP6 PUSH2 0x11EC JUMP JUMPDEST DUP4 ADD DUP3 PUSH2 0x12CF JUMP JUMPDEST POP POP JUMPDEST POP POP POP JUMP JUMPDEST PUSH0 DUP3 DUP3 SHR SWAP1 POP SWAP3 SWAP2 POP POP JUMP JUMPDEST PUSH0 PUSH2 0x1352 PUSH0 NOT DUP5 PUSH1 0x8 MUL PUSH2 0x1337 JUMP JUMPDEST NOT DUP1 DUP4 AND SWAP2 POP POP SWAP3 SWAP2 POP POP JUMP JUMPDEST PUSH0 PUSH2 0x136A DUP4 DUP4 PUSH2 0x1343 JUMP JUMPDEST SWAP2 POP DUP3 PUSH1 0x2 MUL DUP3 OR SWAP1 POP SWAP3 SWAP2 POP POP JUMP JUMPDEST PUSH2 0x1383 DUP3 PUSH2 0xFF8 JUMP JUMPDEST PUSH8 0xFFFFFFFFFFFFFFFF DUP2 GT ISZERO PUSH2 0x139C JUMPI PUSH2 0x139B PUSH2 0xC49 JUMP JUMPDEST JUMPDEST PUSH2 0x13A6 DUP3 SLOAD PUSH2 0x11AA JUMP JUMPDEST PUSH2 0x13B1 DUP3 DUP3 DUP6 PUSH2 0x12F1 JUMP JUMPDEST PUSH0 PUSH1 0x20 SWAP1 POP PUSH1 0x1F DUP4 GT PUSH1 0x1 DUP2 EQ PUSH2 0x13E2 JUMPI PUSH0 DUP5 ISZERO PUSH2 0x13D0 JUMPI DUP3 DUP8 ADD MLOAD SWAP1 POP JUMPDEST PUSH2 0x13DA DUP6 DUP3 PUSH2 0x135F JUMP JUMPDEST DUP7 SSTORE POP PUSH2 0x1441 JUMP JUMPDEST PUSH1 0x1F NOT DUP5 AND PUSH2 0x13F0 DUP7 PUSH2 0x11DA JUMP JUMPDEST PUSH0 JUMPDEST DUP3 DUP2 LT ISZERO PUSH2 0x1417 JUMPI DUP5 DUP10 ADD MLOAD DUP3 SSTORE PUSH1 0x1 DUP3 ADD SWAP2 POP PUSH1 0x20 DUP6 ADD SWAP5 POP PUSH1 0x20 DUP2 ADD SWAP1 POP PUSH2 0x13F2 JUMP JUMPDEST DUP7 DUP4 LT ISZERO PUSH2 0x1434 JUMPI DUP5 DUP10 ADD MLOAD PUSH2 0x1430 PUSH1 0x1F DUP10 AND DUP3 PUSH2 0x1343 JUMP JUMPDEST DUP4 SSTORE POP JUMPDEST PUSH1 0x1 PUSH1 0x2 DUP9 MUL ADD DUP9 SSTORE POP POP POP JUMPDEST POP POP POP POP POP POP JUMP JUMPDEST PUSH0 PUSH1 0xA0 DUP3 ADD SWAP1 POP DUP2 DUP2 SUB PUSH0 DUP4 ADD MSTORE PUSH2 0x1461 DUP2 DUP9 PUSH2 0x1020 JUMP JUMPDEST SWAP1 POP DUP2 DUP2 SUB PUSH1 0x20 DUP4 ADD MSTORE PUSH2 0x1475 DUP2 DUP8 PUSH2 0x1020 JUMP JUMPDEST SWAP1 POP DUP2 DUP2 SUB PUSH1 0x40 DUP4 ADD MSTORE PUSH2 0x1489 DUP2 DUP7 PUSH2 0x1020 JUMP JUMPDEST SWAP1 POP PUSH2 0x1498 PUSH1 0x60 DUP4 ADD DUP6 PUSH2 0x1058 JUMP JUMPDEST DUP2 DUP2 SUB PUSH1 0x80 DUP4 ADD MSTORE PUSH2 0x14AA DUP2 DUP5 PUSH2 0x1020 JUMP JUMPDEST SWAP1 POP SWAP7 SWAP6 POP POP POP POP POP POP JUMP JUMPDEST PUSH0 PUSH1 0x40 DUP3 ADD SWAP1 POP DUP2 DUP2 SUB PUSH0 DUP4 ADD MSTORE PUSH2 0x14CE DUP2 DUP6 PUSH2 0x1020 JUMP JUMPDEST SWAP1 POP DUP2 DUP2 SUB PUSH1 0x20 DUP4 ADD MSTORE PUSH2 0x14E2 DUP2 DUP5 PUSH2 0x1020 JUMP JUMPDEST SWAP1 POP SWAP4 SWAP3 POP POP POP JUMP JUMPDEST PUSH0 PUSH1 0x60 DUP3 ADD SWAP1 POP DUP2 DUP2 SUB PUSH0 DUP4 ADD MSTORE PUSH2 0x1503 DUP2 DUP7 PUSH2 0x1020 JUMP JUMPDEST SWAP1 POP DUP2 DUP2 SUB PUSH1 0x20 DUP4 ADD MSTORE PUSH2 0x1517 DUP2 DUP6 PUSH2 0x1020 JUMP JUMPDEST SWAP1 POP DUP2 DUP2 SUB PUSH1 0x40 DUP4 ADD MSTORE PUSH2 0x152B DUP2 DUP5 PUSH2 0x1020 JUMP JUMPDEST SWAP1 POP SWAP5 SWAP4 POP POP POP POP JUMP JUMPDEST PUSH32 0x496E76616C696420696E64657800000000000000000000000000000000000000 PUSH0 DUP3 ADD MSTORE POP JUMP JUMPDEST PUSH0 PUSH2 0x1569 PUSH1 0xD DUP4 PUSH2 0x1002 JUMP JUMPDEST SWAP2 POP PUSH2 0x1574 DUP3 PUSH2 0x1535 JUMP JUMPDEST PUSH1 0x20 DUP3 ADD SWAP1 POP SWAP2 SWAP1 POP JUMP JUMPDEST PUSH0 PUSH1 0x20 DUP3 ADD SWAP1 POP DUP2 DUP2 SUB PUSH0 DUP4 ADD MSTORE PUSH2 0x1596 DUP2 PUSH2 0x155D JUMP JUMPDEST SWAP1 POP SWAP2 SWAP1 POP JUMP JUMPDEST PUSH32 0x4E487B7100000000000000000000000000000000000000000000000000000000 PUSH0 MSTORE PUSH1 0x32 PUSH1 0x4 MSTORE PUSH1 0x24 PUSH0 REVERT INVALID LOG2 PUSH5 0x6970667358 0x22 SLT KECCAK256 LOG0 0x22 BALANCE BASEFEE SWAP6 LT DUP5 POP MSTORE8 PUSH32 0xF17AB1C1A52B74BC85CB714BDA6CFDE046AD9F414AE664736F6C634300081E00 CALLER "
				},
				"gasEstimates": {
					"creation": {
						"codeDepositCost": "1126400",
						"executionCost": "1165",
						"totalCost": "1127565"
					},
					"external": {
						"getAdminAction(uint256)": "infinite",
						"getAdminActionsCount()": "2439",
						"getCredentialEvent(uint256)": "infinite",
						"getCredentialEventsCount()": "2528",
						"getLogBatch(uint256)": "infinite",
						"getLogBatchesCount()": "2441",
						"registerAdminAction(string,string,string)": "infinite",
						"registerCredentialEvent(string,string,string,bool,string)": "infinite",
						"registerLogBatch(string,string)": "infinite"
					}
				},
				"methodIdentifiers": {
					"getAdminAction(uint256)": "b2e32f07",
					"getAdminActionsCount()": "8e3d5ebf",
					"getCredentialEvent(uint256)": "ab3a2b98",
					"getCredentialEventsCount()": "d5015d65",
					"getLogBatch(uint256)": "d2a6c282",
					"getLogBatchesCount()": "1a201989",
					"registerAdminAction(string,string,string)": "7f7df466",
					"registerCredentialEvent(string,string,string,bool,string)": "4b733744",
					"registerLogBatch(string,string)": "4d011928"
				}
			},
			"storageLayout": {
				"storage": [
					{
						"astId": 34,
						"contract": "AccessRegistry.sol:AccessRegistry",
						"label": "adminActions",
						"offset": 0,
						"slot": "0",
						"type": "t_array(t_struct(AdminAction)10_storage)dyn_storage"
					},
					{
						"astId": 38,
						"contract": "AccessRegistry.sol:AccessRegistry",
						"label": "logBatches",
						"offset": 0,
						"slot": "1",
						"type": "t_array(t_struct(LogBatch)17_storage)dyn_storage"
					},
					{
						"astId": 42,
						"contract": "AccessRegistry.sol:AccessRegistry",
						"label": "credentialEvents",
						"offset": 0,
						"slot": "2",
						"type": "t_array(t_struct(CredentialEvent)30_storage)dyn_storage"
					}
				],
				"types": {
					"t_array(t_struct(AdminAction)10_storage)dyn_storage": {
						"base": "t_struct(AdminAction)10_storage",
						"encoding": "dynamic_array",
						"label": "struct AccessRegistry.AdminAction[]",
						"numberOfBytes": "32"
					},
					"t_array(t_struct(CredentialEvent)30_storage)dyn_storage": {
						"base": "t_struct(CredentialEvent)30_storage",
						"encoding": "dynamic_array",
						"label": "struct AccessRegistry.CredentialEvent[]",
						"numberOfBytes": "32"
					},
					"t_array(t_struct(LogBatch)17_storage)dyn_storage": {
						"base": "t_struct(LogBatch)17_storage",
						"encoding": "dynamic_array",
						"label": "struct AccessRegistry.LogBatch[]",
						"numberOfBytes": "32"
					},
					"t_bool": {
						"encoding": "inplace",
						"label": "bool",
						"numberOfBytes": "1"
					},
					"t_string_storage": {
						"encoding": "bytes",
						"label": "string",
						"numberOfBytes": "32"
					},
					"t_struct(AdminAction)10_storage": {
						"encoding": "inplace",
						"label": "struct AccessRegistry.AdminAction",
						"members": [
							{
								"astId": 3,
								"contract": "AccessRegistry.sol:AccessRegistry",
								"label": "id",
								"offset": 0,
								"slot": "0",
								"type": "t_uint256"
							},
							{
								"astId": 5,
								"contract": "AccessRegistry.sol:AccessRegistry",
								"label": "actionType",
								"offset": 0,
								"slot": "1",
								"type": "t_string_storage"
							},
							{
								"astId": 7,
								"contract": "AccessRegistry.sol:AccessRegistry",
								"label": "targetUid",
								"offset": 0,
								"slot": "2",
								"type": "t_string_storage"
							},
							{
								"astId": 9,
								"contract": "AccessRegistry.sol:AccessRegistry",
								"label": "timestamp",
								"offset": 0,
								"slot": "3",
								"type": "t_string_storage"
							}
						],
						"numberOfBytes": "128"
					},
					"t_struct(CredentialEvent)30_storage": {
						"encoding": "inplace",
						"label": "struct AccessRegistry.CredentialEvent",
						"members": [
							{
								"astId": 19,
								"contract": "AccessRegistry.sol:AccessRegistry",
								"label": "id",
								"offset": 0,
								"slot": "0",
								"type": "t_uint256"
							},
							{
								"astId": 21,
								"contract": "AccessRegistry.sol:AccessRegistry",
								"label": "uidHash",
								"offset": 0,
								"slot": "1",
								"type": "t_string_storage"
							},
							{
								"astId": 23,
								"contract": "AccessRegistry.sol:AccessRegistry",
								"label": "actionType",
								"offset": 0,
								"slot": "2",
								"type": "t_string_storage"
							},
							{
								"astId": 25,
								"contract": "AccessRegistry.sol:AccessRegistry",
								"label": "role",
								"offset": 0,
								"slot": "3",
								"type": "t_string_storage"
							},
							{
								"astId": 27,
								"contract": "AccessRegistry.sol:AccessRegistry",
								"label": "active",
								"offset": 0,
								"slot": "4",
								"type": "t_bool"
							},
							{
								"astId": 29,
								"contract": "AccessRegistry.sol:AccessRegistry",
								"label": "timestamp",
								"offset": 0,
								"slot": "5",
								"type": "t_string_storage"
							}
						],
						"numberOfBytes": "192"
					},
					"t_struct(LogBatch)17_storage": {
						"encoding": "inplace",
						"label": "struct AccessRegistry.LogBatch",
						"members": [
							{
								"astId": 12,
								"contract": "AccessRegistry.sol:AccessRegistry",
								"label": "id",
								"offset": 0,
								"slot": "0",
								"type": "t_uint256"
							},
							{
								"astId": 14,
								"contract": "AccessRegistry.sol:AccessRegistry",
								"label": "batchHash",
								"offset": 0,
								"slot": "1",
								"type": "t_string_storage"
							},
							{
								"astId": 16,
								"contract": "AccessRegistry.sol:AccessRegistry",
								"label": "timestamp",
								"offset": 0,
								"slot": "2",
								"type": "t_string_storage"
							}
						],
						"numberOfBytes": "96"
					},
					"t_uint256": {
						"encoding": "inplace",
						"label": "uint256",
						"numberOfBytes": "32"
					}
				}
			},
			"userdoc": {
				"kind": "user",
				"methods": {},
				"version": 1
			}
		}
	}
}